{
  "contractName": "ApplicationSign",
  "abi": [
    {
      "constant": true,
      "inputs": [],
      "name": "count",
      "outputs": [
        {
          "name": "",
          "type": "uint256"
        }
      ],
      "payable": false,
      "stateMutability": "view",
      "type": "function"
    },
    {
      "constant": true,
      "inputs": [
        {
          "name": "",
          "type": "address"
        }
      ],
      "name": "parents",
      "outputs": [
        {
          "name": "self",
          "type": "address"
        },
        {
          "name": "contact",
          "type": "string"
        }
      ],
      "payable": false,
      "stateMutability": "view",
      "type": "function"
    },
    {
      "constant": true,
      "inputs": [
        {
          "name": "",
          "type": "address"
        }
      ],
      "name": "hods",
      "outputs": [
        {
          "name": "self",
          "type": "address"
        },
        {
          "name": "dept",
          "type": "string"
        }
      ],
      "payable": false,
      "stateMutability": "view",
      "type": "function"
    },
    {
      "constant": true,
      "inputs": [],
      "name": "owner",
      "outputs": [
        {
          "name": "",
          "type": "address"
        }
      ],
      "payable": false,
      "stateMutability": "view",
      "type": "function"
    },
    {
      "constant": true,
      "inputs": [
        {
          "name": "",
          "type": "address"
        }
      ],
      "name": "students",
      "outputs": [
        {
          "name": "self",
          "type": "address"
        },
        {
          "name": "parent",
          "type": "address"
        },
        {
          "name": "tg",
          "type": "address"
        }
      ],
      "payable": false,
      "stateMutability": "view",
      "type": "function"
    },
    {
      "constant": true,
      "inputs": [
        {
          "name": "",
          "type": "address"
        }
      ],
      "name": "tgs",
      "outputs": [
        {
          "name": "self",
          "type": "address"
        },
        {
          "name": "subject",
          "type": "string"
        }
      ],
      "payable": false,
      "stateMutability": "view",
      "type": "function"
    },
    {
      "constant": true,
      "inputs": [
        {
          "name": "",
          "type": "uint256"
        }
      ],
      "name": "applications",
      "outputs": [
        {
          "name": "student",
          "type": "address"
        },
        {
          "name": "tg",
          "type": "address"
        },
        {
          "name": "status_parent",
          "type": "bool"
        },
        {
          "name": "status_tg",
          "type": "bool"
        },
        {
          "name": "status_hod",
          "type": "bool"
        },
        {
          "name": "details",
          "type": "string"
        },
        {
          "name": "doc_hash",
          "type": "string"
        }
      ],
      "payable": false,
      "stateMutability": "view",
      "type": "function"
    },
    {
      "inputs": [],
      "payable": false,
      "stateMutability": "nonpayable",
      "type": "constructor"
    },
    {
      "anonymous": false,
      "inputs": [
        {
          "indexed": false,
          "name": "applicaion",
          "type": "uint256"
        },
        {
          "indexed": false,
          "name": "status",
          "type": "bool"
        }
      ],
      "name": "ApplicationCreate",
      "type": "event"
    },
    {
      "constant": false,
      "inputs": [
        {
          "name": "_hodadd",
          "type": "address"
        },
        {
          "name": "_dept",
          "type": "string"
        }
      ],
      "name": "create_hod",
      "outputs": [],
      "payable": false,
      "stateMutability": "nonpayable",
      "type": "function"
    },
    {
      "constant": true,
      "inputs": [
        {
          "name": "_id",
          "type": "uint256"
        }
      ],
      "name": "get_application",
      "outputs": [
        {
          "name": "_tg",
          "type": "address"
        },
        {
          "name": "_status_parent",
          "type": "bool"
        },
        {
          "name": "_status_tg",
          "type": "bool"
        },
        {
          "name": "_status_hod",
          "type": "bool"
        },
        {
          "name": "_details",
          "type": "string"
        },
        {
          "name": "_doc_hash",
          "type": "string"
        }
      ],
      "payable": false,
      "stateMutability": "view",
      "type": "function"
    },
    {
      "constant": false,
      "inputs": [
        {
          "name": "_tgadd",
          "type": "address"
        },
        {
          "name": "subject",
          "type": "string"
        }
      ],
      "name": "create_tg",
      "outputs": [],
      "payable": false,
      "stateMutability": "nonpayable",
      "type": "function"
    },
    {
      "constant": false,
      "inputs": [
        {
          "name": "_studentadd",
          "type": "address"
        },
        {
          "name": "_parent",
          "type": "address"
        },
        {
          "name": "_tg",
          "type": "address"
        }
      ],
      "name": "create_student",
      "outputs": [],
      "payable": false,
      "stateMutability": "nonpayable",
      "type": "function"
    },
    {
      "constant": false,
      "inputs": [
        {
          "name": "_parentadd",
          "type": "address"
        },
        {
          "name": "contact",
          "type": "string"
        }
      ],
      "name": "create_parent",
      "outputs": [],
      "payable": false,
      "stateMutability": "nonpayable",
      "type": "function"
    },
    {
      "constant": false,
      "inputs": [
        {
          "name": "_details",
          "type": "string"
        },
        {
          "name": "_dochash",
          "type": "string"
        }
      ],
      "name": "new_application",
      "outputs": [],
      "payable": false,
      "stateMutability": "nonpayable",
      "type": "function"
    },
    {
      "constant": false,
      "inputs": [
        {
          "name": "_id",
          "type": "uint256"
        }
      ],
      "name": "approveParent",
      "outputs": [],
      "payable": false,
      "stateMutability": "nonpayable",
      "type": "function"
    },
    {
      "constant": false,
      "inputs": [
        {
          "name": "_id",
          "type": "uint256"
        }
      ],
      "name": "approveTg",
      "outputs": [],
      "payable": false,
      "stateMutability": "nonpayable",
      "type": "function"
    },
    {
      "constant": false,
      "inputs": [
        {
          "name": "_id",
          "type": "uint256"
        }
      ],
      "name": "approveHod",
      "outputs": [],
      "payable": false,
      "stateMutability": "nonpayable",
      "type": "function"
    }
  ],
  "bytecode": "0x608060405234801561001057600080fd5b50336000806101000a81548173ffffffffffffffffffffffffffffffffffffffff021916908373ffffffffffffffffffffffffffffffffffffffff160217905550611dba806100606000396000f3fe608060405234801561001057600080fd5b50600436106101005760003560e01c80638da5cb5b11610097578063c70c331c11610066578063c70c331c146108fa578063cbe895e514610a61578063d9dc9a1214610b51578063dfefadff14610b7f57610100565b80638da5cb5b146107145780639c3035e41461075e578063a6c807a9146107e2578063b457bc2b146108cc57610100565b806352478f8e116100d357806352478f8e1461044057806359976fae1461051b578063701be1581461060b57806371d3cd59146106e657610100565b806306661abd1461010557806318b13fb21461012357806331a31b8114610213578063517041dd146102ee575b600080fd5b61010d610d19565b6040518082815260200191505060405180910390f35b6101656004803603602081101561013957600080fd5b81019080803573ffffffffffffffffffffffffffffffffffffffff169060200190929190505050610d1f565b604051808373ffffffffffffffffffffffffffffffffffffffff1673ffffffffffffffffffffffffffffffffffffffff16815260200180602001828103825283818151815260200191508051906020019080838360005b838110156101d75780820151818401526020810190506101bc565b50505050905090810190601f1680156102045780820380516001836020036101000a031916815260200191505b50935050505060405180910390f35b6102ec6004803603604081101561022957600080fd5b81019080803573ffffffffffffffffffffffffffffffffffffffff1690602001909291908035906020019064010000000081111561026657600080fd5b82018360208201111561027857600080fd5b8035906020019184600183028401116401000000008311171561029a57600080fd5b91908080601f016020809104026020016040519081016040528093929190818152602001838380828437600081840152601f19601f820116905080830192505050505050509192919290505050610dfb565b005b61043e6004803603604081101561030457600080fd5b810190808035906020019064010000000081111561032157600080fd5b82018360208201111561033357600080fd5b8035906020019184600183028401116401000000008311171561035557600080fd5b91908080601f016020809104026020016040519081016040528093929190818152602001838380828437600081840152601f19601f820116905080830192505050505050509192919290803590602001906401000000008111156103b857600080fd5b8201836020820111156103ca57600080fd5b803590602001918460018302840111640100000000831117156103ec57600080fd5b91908080601f016020809104026020016040519081016040528093929190818152602001838380828437600081840152601f19601f820116905080830192505050505050509192919290505050610edc565b005b6105196004803603604081101561045657600080fd5b81019080803573ffffffffffffffffffffffffffffffffffffffff1690602001909291908035906020019064010000000081111561049357600080fd5b8201836020820111156104a557600080fd5b803590602001918460018302840111640100000000831117156104c757600080fd5b91908080601f016020809104026020016040519081016040528093929190818152602001838380828437600081840152601f19601f82011690508083019250505050505050919291929050505061114b565b005b61055d6004803603602081101561053157600080fd5b81019080803573ffffffffffffffffffffffffffffffffffffffff16906020019092919050505061122c565b604051808373ffffffffffffffffffffffffffffffffffffffff1673ffffffffffffffffffffffffffffffffffffffff16815260200180602001828103825283818151815260200191508051906020019080838360005b838110156105cf5780820151818401526020810190506105b4565b50505050905090810190601f1680156105fc5780820380516001836020036101000a031916815260200191505b50935050505060405180910390f35b6106e46004803603604081101561062157600080fd5b81019080803573ffffffffffffffffffffffffffffffffffffffff1690602001909291908035906020019064010000000081111561065e57600080fd5b82018360208201111561067057600080fd5b8035906020019184600183028401116401000000008311171561069257600080fd5b91908080601f016020809104026020016040519081016040528093929190818152602001838380828437600081840152601f19601f820116905080830192505050505050509192919290505050611308565b005b610712600480360360208110156106fc57600080fd5b81019080803590602001909291905050506113e9565b005b61071c611450565b604051808273ffffffffffffffffffffffffffffffffffffffff1673ffffffffffffffffffffffffffffffffffffffff16815260200191505060405180910390f35b6107e06004803603606081101561077457600080fd5b81019080803573ffffffffffffffffffffffffffffffffffffffff169060200190929190803573ffffffffffffffffffffffffffffffffffffffff169060200190929190803573ffffffffffffffffffffffffffffffffffffffff169060200190929190505050611475565b005b610824600480360360208110156107f857600080fd5b81019080803573ffffffffffffffffffffffffffffffffffffffff1690602001909291905050506115fa565b604051808473ffffffffffffffffffffffffffffffffffffffff1673ffffffffffffffffffffffffffffffffffffffff1681526020018373ffffffffffffffffffffffffffffffffffffffff1673ffffffffffffffffffffffffffffffffffffffff1681526020018273ffffffffffffffffffffffffffffffffffffffff1673ffffffffffffffffffffffffffffffffffffffff168152602001935050505060405180910390f35b6108f8600480360360208110156108e257600080fd5b8101908080359060200190929190505050611684565b005b6109266004803603602081101561091057600080fd5b81019080803590602001909291905050506116eb565b604051808773ffffffffffffffffffffffffffffffffffffffff1673ffffffffffffffffffffffffffffffffffffffff1681526020018615151515815260200185151515158152602001841515151581526020018060200180602001838103835285818151815260200191508051906020019080838360005b838110156109ba57808201518184015260208101905061099f565b50505050905090810190601f1680156109e75780820380516001836020036101000a031916815260200191505b50838103825284818151815260200191508051906020019080838360005b83811015610a20578082015181840152602081019050610a05565b50505050905090810190601f168015610a4d5780820380516001836020036101000a031916815260200191505b509850505050505050505060405180910390f35b610aa360048036036020811015610a7757600080fd5b81019080803573ffffffffffffffffffffffffffffffffffffffff169060200190929190505050611910565b604051808373ffffffffffffffffffffffffffffffffffffffff1673ffffffffffffffffffffffffffffffffffffffff16815260200180602001828103825283818151815260200191508051906020019080838360005b83811015610b15578082015181840152602081019050610afa565b50505050905090810190601f168015610b425780820380516001836020036101000a031916815260200191505b50935050505060405180910390f35b610b7d60048036036020811015610b6757600080fd5b81019080803590602001909291905050506119ec565b005b610bab60048036036020811015610b9557600080fd5b8101908080359060200190929190505050611a1d565b604051808873ffffffffffffffffffffffffffffffffffffffff1673ffffffffffffffffffffffffffffffffffffffff1681526020018773ffffffffffffffffffffffffffffffffffffffff1673ffffffffffffffffffffffffffffffffffffffff1681526020018615151515815260200185151515158152602001841515151581526020018060200180602001838103835285818151815260200191508051906020019080838360005b83811015610c71578082015181840152602081019050610c56565b50505050905090810190601f168015610c9e5780820380516001836020036101000a031916815260200191505b50838103825284818151815260200191508051906020019080838360005b83811015610cd7578082015181840152602081019050610cbc565b50505050905090810190601f168015610d045780820380516001836020036101000a031916815260200191505b50995050505050505050505060405180910390f35b60065481565b60056020528060005260406000206000915090508060000160009054906101000a900473ffffffffffffffffffffffffffffffffffffffff1690806001018054600181600116156101000203166002900480601f016020809104026020016040519081016040528092919081815260200182805460018160011615610100020316600290048015610df15780601f10610dc657610100808354040283529160200191610df1565b820191906000526020600020905b815481529060010190602001808311610dd457829003601f168201915b5050505050905082565b610e03611bf6565b60405180604001604052808473ffffffffffffffffffffffffffffffffffffffff16815260200183815250905080600260003373ffffffffffffffffffffffffffffffffffffffff1673ffffffffffffffffffffffffffffffffffffffff16815260200190815260200160002060008201518160000160006101000a81548173ffffffffffffffffffffffffffffffffffffffff021916908373ffffffffffffffffffffffffffffffffffffffff1602179055506020820151816001019080519060200190610ed3929190611c26565b50905050505050565b600060065490506000600460003373ffffffffffffffffffffffffffffffffffffffff1673ffffffffffffffffffffffffffffffffffffffff16815260200190815260200160002060020160009054906101000a900473ffffffffffffffffffffffffffffffffffffffff1690506040518060e001604052803373ffffffffffffffffffffffffffffffffffffffff1681526020018273ffffffffffffffffffffffffffffffffffffffff168152602001600015158152602001600015158152602001600015158152602001858152602001848152506001600084815260200190815260200160002060008201518160000160006101000a81548173ffffffffffffffffffffffffffffffffffffffff021916908373ffffffffffffffffffffffffffffffffffffffff16021790555060208201518160010160006101000a81548173ffffffffffffffffffffffffffffffffffffffff021916908373ffffffffffffffffffffffffffffffffffffffff16021790555060408201518160010160146101000a81548160ff02191690831515021790555060608201518160010160156101000a81548160ff02191690831515021790555060808201518160010160166101000a81548160ff02191690831515021790555060a08201518160020190805190602001906110cf929190611c26565b5060c08201518160030190805190602001906110ec929190611c26565b5090505060016006600082825401925050819055507f2dd4c8100ab6108c673d8447c29f918afb4065242a5a5d7029b4efc629422e6482600060405180838152602001821515151581526020019250505060405180910390a150505050565b611153611ca6565b60405180604001604052808473ffffffffffffffffffffffffffffffffffffffff16815260200183815250905080600560003373ffffffffffffffffffffffffffffffffffffffff1673ffffffffffffffffffffffffffffffffffffffff16815260200190815260200160002060008201518160000160006101000a81548173ffffffffffffffffffffffffffffffffffffffff021916908373ffffffffffffffffffffffffffffffffffffffff1602179055506020820151816001019080519060200190611223929190611c26565b50905050505050565b60036020528060005260406000206000915090508060000160009054906101000a900473ffffffffffffffffffffffffffffffffffffffff1690806001018054600181600116156101000203166002900480601f0160208091040260200160405190810160405280929190818152602001828054600181600116156101000203166002900480156112fe5780601f106112d3576101008083540402835291602001916112fe565b820191906000526020600020905b8154815290600101906020018083116112e157829003601f168201915b5050505050905082565b611310611cd6565b60405180604001604052808473ffffffffffffffffffffffffffffffffffffffff16815260200183815250905080600360003373ffffffffffffffffffffffffffffffffffffffff1673ffffffffffffffffffffffffffffffffffffffff16815260200190815260200160002060008201518160000160006101000a81548173ffffffffffffffffffffffffffffffffffffffff021916908373ffffffffffffffffffffffffffffffffffffffff16021790555060208201518160010190805190602001906113e0929190611c26565b50905050505050565b80600115156001600083815260200190815260200160002060010160159054906101000a900460ff1615151461141e57600080fd5b600180600084815260200190815260200160002060010160166101000a81548160ff0219169083151502179055505050565b6000809054906101000a900473ffffffffffffffffffffffffffffffffffffffff1681565b61147d611d06565b60405180606001604052808573ffffffffffffffffffffffffffffffffffffffff1681526020018473ffffffffffffffffffffffffffffffffffffffff1681526020018373ffffffffffffffffffffffffffffffffffffffff16815250905080600460003373ffffffffffffffffffffffffffffffffffffffff1673ffffffffffffffffffffffffffffffffffffffff16815260200190815260200160002060008201518160000160006101000a81548173ffffffffffffffffffffffffffffffffffffffff021916908373ffffffffffffffffffffffffffffffffffffffff16021790555060208201518160010160006101000a81548173ffffffffffffffffffffffffffffffffffffffff021916908373ffffffffffffffffffffffffffffffffffffffff16021790555060408201518160020160006101000a81548173ffffffffffffffffffffffffffffffffffffffff021916908373ffffffffffffffffffffffffffffffffffffffff16021790555090505050505050565b60046020528060005260406000206000915090508060000160009054906101000a900473ffffffffffffffffffffffffffffffffffffffff16908060010160009054906101000a900473ffffffffffffffffffffffffffffffffffffffff16908060020160009054906101000a900473ffffffffffffffffffffffffffffffffffffffff16905083565b80600115156001600083815260200190815260200160002060010160149054906101000a900460ff161515146116b957600080fd5b600180600084815260200190815260200160002060010160156101000a81548160ff0219169083151502179055505050565b6000806000806060806001600088815260200190815260200160002060010160009054906101000a900473ffffffffffffffffffffffffffffffffffffffff166001600089815260200190815260200160002060010160149054906101000a900460ff16600160008a815260200190815260200160002060010160159054906101000a900460ff16600160008b815260200190815260200160002060010160169054906101000a900460ff16600160008c8152602001908152602001600020600201600160008d8152602001908152602001600020600301818054600181600116156101000203166002900480601f0160208091040260200160405190810160405280929190818152602001828054600181600116156101000203166002900480156118585780601f1061182d57610100808354040283529160200191611858565b820191906000526020600020905b81548152906001019060200180831161183b57829003601f168201915b50505050509150808054600181600116156101000203166002900480601f0160208091040260200160405190810160405280929190818152602001828054600181600116156101000203166002900480156118f45780601f106118c9576101008083540402835291602001916118f4565b820191906000526020600020905b8154815290600101906020018083116118d757829003601f168201915b5050505050905095509550955095509550955091939550919395565b60026020528060005260406000206000915090508060000160009054906101000a900473ffffffffffffffffffffffffffffffffffffffff1690806001018054600181600116156101000203166002900480601f0160208091040260200160405190810160405280929190818152602001828054600181600116156101000203166002900480156119e25780601f106119b7576101008083540402835291602001916119e2565b820191906000526020600020905b8154815290600101906020018083116119c557829003601f168201915b5050505050905082565b600180600083815260200190815260200160002060010160146101000a81548160ff02191690831515021790555050565b60016020528060005260406000206000915090508060000160009054906101000a900473ffffffffffffffffffffffffffffffffffffffff16908060010160009054906101000a900473ffffffffffffffffffffffffffffffffffffffff16908060010160149054906101000a900460ff16908060010160159054906101000a900460ff16908060010160169054906101000a900460ff1690806002018054600181600116156101000203166002900480601f016020809104026020016040519081016040528092919081815260200182805460018160011615610100020316600290048015611b4e5780601f10611b2357610100808354040283529160200191611b4e565b820191906000526020600020905b815481529060010190602001808311611b3157829003601f168201915b505050505090806003018054600181600116156101000203166002900480601f016020809104026020016040519081016040528092919081815260200182805460018160011615610100020316600290048015611bec5780601f10611bc157610100808354040283529160200191611bec565b820191906000526020600020905b815481529060010190602001808311611bcf57829003601f168201915b5050505050905087565b6040518060400160405280600073ffffffffffffffffffffffffffffffffffffffff168152602001606081525090565b828054600181600116156101000203166002900490600052602060002090601f016020900481019282601f10611c6757805160ff1916838001178555611c95565b82800160010185558215611c95579182015b82811115611c94578251825591602001919060010190611c79565b5b509050611ca29190611d69565b5090565b6040518060400160405280600073ffffffffffffffffffffffffffffffffffffffff168152602001606081525090565b6040518060400160405280600073ffffffffffffffffffffffffffffffffffffffff168152602001606081525090565b6040518060600160405280600073ffffffffffffffffffffffffffffffffffffffff168152602001600073ffffffffffffffffffffffffffffffffffffffff168152602001600073ffffffffffffffffffffffffffffffffffffffff1681525090565b611d8b91905b80821115611d87576000816000905550600101611d6f565b5090565b9056fea165627a7a72305820435c1853b93d8602c8588d27bbad85cc9a2764a3e3556e892d5311c8d99e9cd80029",
  "source": "pragma solidity >=0.4.22 <0.6.0;\ncontract ApplicationSign {\n    address public owner;\n\n    constructor() public{\n        owner = msg.sender;\n    }\n\n    struct student {\n        address self;\n        address parent;\n        address tg;\n    }\n\n    struct tg {\n        address self;\n        string subject;\n    }\n\n    struct parent {\n        address self;\n        string contact;\n    }\n\n    struct hod {\n        address self;\n        string dept;\n    }\n\n    struct application {\n        address student;\n        address tg;\n        bool status_parent;\n        bool status_tg;\n        bool status_hod;\n        string details;\n        string doc_hash;\n    }\n\n    modifier parentApproved(uint _id){\n        require(applications[_id].status_parent == true);\n        _;\n    }\n\n    modifier tgApproved(uint _id){\n        require(applications[_id].status_tg == true);\n        _;\n    }\n\n    event ApplicationCreate(uint applicaion, bool status);\n\n    mapping(uint => application) public applications;\n\n    mapping(address => tg) public tgs;\n    mapping(address => hod) public hods;\n    mapping(address => student) public students;\n    mapping(address => parent) public parents;\n\n    uint public count ;\n\n    function create_hod(address _hodadd, string memory _dept) public{\n        hod memory _hod = hod(_hodadd, _dept);\n        hods[msg.sender] = _hod;\n    }\n\n    function get_application(uint _id) public view returns(address _tg, bool _status_parent, bool _status_tg,bool _status_hod, string memory _details,string memory _doc_hash){\n       return (applications[_id].tg, applications[_id].status_parent, applications[_id].status_tg, applications[_id].status_hod, applications[_id].details, applications[_id].doc_hash);\n   }\n\n    function create_tg(address _tgadd ,string memory subject) public{\n        tg memory _tg = tg(_tgadd, subject);\n        tgs[msg.sender] = _tg;\n    }\n\n    function create_student(address _studentadd ,address _parent, address _tg) public{\n        student memory _student = student(_studentadd, _parent, _tg);\n        students[msg.sender] = _student;\n    }\n\n    function create_parent(address _parentadd, string memory contact) public{\n        parent memory _parent = parent(_parentadd, contact);\n        parents[msg.sender] = _parent;\n    }\n\n    function new_application(string memory _details, string memory _dochash) public {\n        uint _id = count;\n        address _tg = students[msg.sender].tg;\n        applications[_id] = application(msg.sender, _tg, false,false,false, _details, _dochash);\n        count +=1;\n        emit ApplicationCreate(_id, false);\n    }\n\n    function approveParent(uint _id) public{\n        applications[_id].status_parent = true;\n    }\n\n    function approveTg(uint _id) parentApproved(_id) public{\n        applications[_id].status_tg = true;\n    }\n\n    function approveHod(uint _id) tgApproved(_id) public{\n        applications[_id].status_hod = true;\n    }\n}\n",
  "sourcePath": "/home/manjain/Documents/Application-Sign/contracts/ApplicationSign.sol",
  "compiler": {
    "name": "solc",
    "version": "0.5.8+commit.23d335f2.Emscripten.clang"
  },
  "schemaVersion": "3.0.15",
  "updatedAt": "2019-09-28T04:56:10.496Z",
  "devdoc": {
    "methods": {}
  },
  "userdoc": {
    "methods": {}
  }
}