{
  "contractName": "TicketsOnChain",
  "abi": [
    {
      "inputs": [],
      "stateMutability": "nonpayable",
      "type": "constructor"
    },
    {
      "anonymous": false,
      "inputs": [
        {
          "indexed": true,
          "internalType": "address",
          "name": "owner",
          "type": "address"
        },
        {
          "indexed": true,
          "internalType": "address",
          "name": "approved",
          "type": "address"
        },
        {
          "indexed": true,
          "internalType": "uint256",
          "name": "tokenId",
          "type": "uint256"
        }
      ],
      "name": "Approval",
      "type": "event"
    },
    {
      "anonymous": false,
      "inputs": [
        {
          "indexed": true,
          "internalType": "address",
          "name": "owner",
          "type": "address"
        },
        {
          "indexed": true,
          "internalType": "address",
          "name": "operator",
          "type": "address"
        },
        {
          "indexed": false,
          "internalType": "bool",
          "name": "approved",
          "type": "bool"
        }
      ],
      "name": "ApprovalForAll",
      "type": "event"
    },
    {
      "anonymous": false,
      "inputs": [
        {
          "indexed": true,
          "internalType": "address",
          "name": "from",
          "type": "address"
        },
        {
          "indexed": true,
          "internalType": "address",
          "name": "to",
          "type": "address"
        },
        {
          "indexed": true,
          "internalType": "uint256",
          "name": "tokenId",
          "type": "uint256"
        }
      ],
      "name": "Transfer",
      "type": "event"
    },
    {
      "inputs": [
        {
          "internalType": "address",
          "name": "to",
          "type": "address"
        },
        {
          "internalType": "uint256",
          "name": "tokenId",
          "type": "uint256"
        }
      ],
      "name": "approve",
      "outputs": [],
      "stateMutability": "nonpayable",
      "type": "function"
    },
    {
      "inputs": [
        {
          "internalType": "address",
          "name": "owner",
          "type": "address"
        }
      ],
      "name": "balanceOf",
      "outputs": [
        {
          "internalType": "uint256",
          "name": "",
          "type": "uint256"
        }
      ],
      "stateMutability": "view",
      "type": "function",
      "constant": true
    },
    {
      "inputs": [],
      "name": "baseURI",
      "outputs": [
        {
          "internalType": "string",
          "name": "",
          "type": "string"
        }
      ],
      "stateMutability": "view",
      "type": "function",
      "constant": true
    },
    {
      "inputs": [],
      "name": "eventCount",
      "outputs": [
        {
          "internalType": "uint256",
          "name": "",
          "type": "uint256"
        }
      ],
      "stateMutability": "view",
      "type": "function",
      "constant": true
    },
    {
      "inputs": [
        {
          "internalType": "uint256",
          "name": "",
          "type": "uint256"
        }
      ],
      "name": "eventMapping",
      "outputs": [
        {
          "internalType": "uint256",
          "name": "priceInEth",
          "type": "uint256"
        },
        {
          "internalType": "uint256",
          "name": "priceInDai",
          "type": "uint256"
        },
        {
          "internalType": "address",
          "name": "ownerAddress",
          "type": "address"
        },
        {
          "internalType": "string",
          "name": "metadata",
          "type": "string"
        },
        {
          "internalType": "string",
          "name": "name",
          "type": "string"
        },
        {
          "internalType": "bool",
          "name": "active",
          "type": "bool"
        },
        {
          "internalType": "uint256",
          "name": "eth",
          "type": "uint256"
        },
        {
          "internalType": "uint256",
          "name": "dai",
          "type": "uint256"
        },
        {
          "internalType": "uint256",
          "name": "ticketsIssued",
          "type": "uint256"
        },
        {
          "internalType": "string",
          "name": "description",
          "type": "string"
        },
        {
          "internalType": "uint256",
          "name": "eventId",
          "type": "uint256"
        },
        {
          "internalType": "uint256",
          "name": "checkInCount",
          "type": "uint256"
        }
      ],
      "stateMutability": "view",
      "type": "function",
      "constant": true
    },
    {
      "inputs": [
        {
          "internalType": "uint256",
          "name": "tokenId",
          "type": "uint256"
        }
      ],
      "name": "getApproved",
      "outputs": [
        {
          "internalType": "address",
          "name": "",
          "type": "address"
        }
      ],
      "stateMutability": "view",
      "type": "function",
      "constant": true
    },
    {
      "inputs": [
        {
          "internalType": "address",
          "name": "owner",
          "type": "address"
        },
        {
          "internalType": "address",
          "name": "operator",
          "type": "address"
        }
      ],
      "name": "isApprovedForAll",
      "outputs": [
        {
          "internalType": "bool",
          "name": "",
          "type": "bool"
        }
      ],
      "stateMutability": "view",
      "type": "function",
      "constant": true
    },
    {
      "inputs": [],
      "name": "name",
      "outputs": [
        {
          "internalType": "string",
          "name": "",
          "type": "string"
        }
      ],
      "stateMutability": "view",
      "type": "function",
      "constant": true
    },
    {
      "inputs": [],
      "name": "nftId",
      "outputs": [
        {
          "internalType": "uint256",
          "name": "",
          "type": "uint256"
        }
      ],
      "stateMutability": "view",
      "type": "function",
      "constant": true
    },
    {
      "inputs": [
        {
          "internalType": "uint256",
          "name": "",
          "type": "uint256"
        }
      ],
      "name": "nftInformation",
      "outputs": [
        {
          "internalType": "uint256",
          "name": "eventId",
          "type": "uint256"
        },
        {
          "internalType": "address",
          "name": "owner",
          "type": "address"
        }
      ],
      "stateMutability": "view",
      "type": "function",
      "constant": true
    },
    {
      "inputs": [
        {
          "internalType": "uint256",
          "name": "",
          "type": "uint256"
        }
      ],
      "name": "nftToEvent",
      "outputs": [
        {
          "internalType": "uint256",
          "name": "",
          "type": "uint256"
        }
      ],
      "stateMutability": "view",
      "type": "function",
      "constant": true
    },
    {
      "inputs": [
        {
          "internalType": "uint256",
          "name": "tokenId",
          "type": "uint256"
        }
      ],
      "name": "ownerOf",
      "outputs": [
        {
          "internalType": "address",
          "name": "",
          "type": "address"
        }
      ],
      "stateMutability": "view",
      "type": "function",
      "constant": true
    },
    {
      "inputs": [
        {
          "internalType": "address",
          "name": "",
          "type": "address"
        }
      ],
      "name": "ownerToEvent",
      "outputs": [
        {
          "internalType": "uint256",
          "name": "",
          "type": "uint256"
        }
      ],
      "stateMutability": "view",
      "type": "function",
      "constant": true
    },
    {
      "inputs": [
        {
          "internalType": "address",
          "name": "from",
          "type": "address"
        },
        {
          "internalType": "address",
          "name": "to",
          "type": "address"
        },
        {
          "internalType": "uint256",
          "name": "tokenId",
          "type": "uint256"
        }
      ],
      "name": "safeTransferFrom",
      "outputs": [],
      "stateMutability": "nonpayable",
      "type": "function"
    },
    {
      "inputs": [
        {
          "internalType": "address",
          "name": "from",
          "type": "address"
        },
        {
          "internalType": "address",
          "name": "to",
          "type": "address"
        },
        {
          "internalType": "uint256",
          "name": "tokenId",
          "type": "uint256"
        },
        {
          "internalType": "bytes",
          "name": "_data",
          "type": "bytes"
        }
      ],
      "name": "safeTransferFrom",
      "outputs": [],
      "stateMutability": "nonpayable",
      "type": "function"
    },
    {
      "inputs": [
        {
          "internalType": "address",
          "name": "operator",
          "type": "address"
        },
        {
          "internalType": "bool",
          "name": "approved",
          "type": "bool"
        }
      ],
      "name": "setApprovalForAll",
      "outputs": [],
      "stateMutability": "nonpayable",
      "type": "function"
    },
    {
      "inputs": [
        {
          "internalType": "bytes4",
          "name": "interfaceId",
          "type": "bytes4"
        }
      ],
      "name": "supportsInterface",
      "outputs": [
        {
          "internalType": "bool",
          "name": "",
          "type": "bool"
        }
      ],
      "stateMutability": "view",
      "type": "function",
      "constant": true
    },
    {
      "inputs": [],
      "name": "symbol",
      "outputs": [
        {
          "internalType": "string",
          "name": "",
          "type": "string"
        }
      ],
      "stateMutability": "view",
      "type": "function",
      "constant": true
    },
    {
      "inputs": [
        {
          "internalType": "uint256",
          "name": "index",
          "type": "uint256"
        }
      ],
      "name": "tokenByIndex",
      "outputs": [
        {
          "internalType": "uint256",
          "name": "",
          "type": "uint256"
        }
      ],
      "stateMutability": "view",
      "type": "function",
      "constant": true
    },
    {
      "inputs": [
        {
          "internalType": "address",
          "name": "owner",
          "type": "address"
        },
        {
          "internalType": "uint256",
          "name": "index",
          "type": "uint256"
        }
      ],
      "name": "tokenOfOwnerByIndex",
      "outputs": [
        {
          "internalType": "uint256",
          "name": "",
          "type": "uint256"
        }
      ],
      "stateMutability": "view",
      "type": "function",
      "constant": true
    },
    {
      "inputs": [
        {
          "internalType": "uint256",
          "name": "tokenId",
          "type": "uint256"
        }
      ],
      "name": "tokenURI",
      "outputs": [
        {
          "internalType": "string",
          "name": "",
          "type": "string"
        }
      ],
      "stateMutability": "view",
      "type": "function",
      "constant": true
    },
    {
      "inputs": [],
      "name": "totalSupply",
      "outputs": [
        {
          "internalType": "uint256",
          "name": "",
          "type": "uint256"
        }
      ],
      "stateMutability": "view",
      "type": "function",
      "constant": true
    },
    {
      "inputs": [
        {
          "internalType": "address",
          "name": "from",
          "type": "address"
        },
        {
          "internalType": "address",
          "name": "to",
          "type": "address"
        },
        {
          "internalType": "uint256",
          "name": "tokenId",
          "type": "uint256"
        }
      ],
      "name": "transferFrom",
      "outputs": [],
      "stateMutability": "nonpayable",
      "type": "function"
    },
    {
      "inputs": [
        {
          "internalType": "uint256",
          "name": "_priceEth",
          "type": "uint256"
        },
        {
          "internalType": "uint256",
          "name": "_priceDai",
          "type": "uint256"
        },
        {
          "internalType": "string",
          "name": "_metadata",
          "type": "string"
        },
        {
          "internalType": "string",
          "name": "_name",
          "type": "string"
        },
        {
          "internalType": "string",
          "name": "_description",
          "type": "string"
        },
        {
          "internalType": "uint256",
          "name": "noOfTickets",
          "type": "uint256"
        }
      ],
      "name": "createEvent",
      "outputs": [],
      "stateMutability": "nonpayable",
      "type": "function"
    },
    {
      "inputs": [
        {
          "internalType": "uint256",
          "name": "eventId",
          "type": "uint256"
        }
      ],
      "name": "turnEventOff",
      "outputs": [],
      "stateMutability": "nonpayable",
      "type": "function"
    },
    {
      "inputs": [
        {
          "internalType": "uint256",
          "name": "_id",
          "type": "uint256"
        }
      ],
      "name": "checkInList",
      "outputs": [
        {
          "internalType": "address[]",
          "name": "attendees",
          "type": "address[]"
        },
        {
          "internalType": "uint256",
          "name": "_totalTickets",
          "type": "uint256"
        },
        {
          "internalType": "string",
          "name": "name",
          "type": "string"
        },
        {
          "internalType": "uint256",
          "name": "totalCheckin",
          "type": "uint256"
        }
      ],
      "stateMutability": "view",
      "type": "function",
      "constant": true
    },
    {
      "inputs": [
        {
          "internalType": "uint256",
          "name": "eventId",
          "type": "uint256"
        }
      ],
      "name": "buyTicketsEth",
      "outputs": [
        {
          "internalType": "uint256",
          "name": "tokenId",
          "type": "uint256"
        }
      ],
      "stateMutability": "payable",
      "type": "function",
      "payable": true
    },
    {
      "inputs": [
        {
          "internalType": "uint256",
          "name": "eventId",
          "type": "uint256"
        }
      ],
      "name": "buyTicketsDAi",
      "outputs": [
        {
          "internalType": "uint256",
          "name": "tokenId",
          "type": "uint256"
        }
      ],
      "stateMutability": "nonpayable",
      "type": "function"
    },
    {
      "inputs": [
        {
          "internalType": "uint256",
          "name": "_id",
          "type": "uint256"
        }
      ],
      "name": "sales",
      "outputs": [
        {
          "internalType": "address[]",
          "name": "attendees",
          "type": "address[]"
        },
        {
          "internalType": "uint256",
          "name": "_totalTickets",
          "type": "uint256"
        },
        {
          "internalType": "string",
          "name": "name",
          "type": "string"
        },
        {
          "internalType": "uint256",
          "name": "totalCheckin",
          "type": "uint256"
        },
        {
          "internalType": "address[]",
          "name": "alltickets",
          "type": "address[]"
        }
      ],
      "stateMutability": "view",
      "type": "function",
      "constant": true
    },
    {
      "inputs": [
        {
          "internalType": "uint256",
          "name": "eventId",
          "type": "uint256"
        }
      ],
      "name": "checkIn",
      "outputs": [
        {
          "internalType": "bool",
          "name": "status",
          "type": "bool"
        }
      ],
      "stateMutability": "nonpayable",
      "type": "function"
    },
    {
      "inputs": [],
      "name": "UserProfile",
      "outputs": [
        {
          "internalType": "uint256[]",
          "name": "eventHost",
          "type": "uint256[]"
        },
        {
          "internalType": "uint256[]",
          "name": "eventList",
          "type": "uint256[]"
        },
        {
          "internalType": "bool[]",
          "name": "statusList",
          "type": "bool[]"
        },
        {
          "internalType": "uint256[]",
          "name": "tokenList",
          "type": "uint256[]"
        }
      ],
      "stateMutability": "view",
      "type": "function",
      "constant": true
    },
    {
      "inputs": [
        {
          "internalType": "uint256",
          "name": "eventId",
          "type": "uint256"
        }
      ],
      "name": "withdraw",
      "outputs": [],
      "stateMutability": "nonpayable",
      "type": "function"
    },
    {
      "inputs": [],
      "name": "daicheck",
      "outputs": [
        {
          "internalType": "uint256",
          "name": "bal",
          "type": "uint256"
        }
      ],
      "stateMutability": "nonpayable",
      "type": "function"
    },
    {
      "inputs": [],
      "name": "retEventCount",
      "outputs": [
        {
          "internalType": "uint256",
          "name": "",
          "type": "uint256"
        }
      ],
      "stateMutability": "view",
      "type": "function",
      "constant": true
    },
    {
      "inputs": [],
      "name": "daicheck2",
      "outputs": [],
      "stateMutability": "nonpayable",
      "type": "function"
    }
  ],
  "bytecode": "0x6080604052600a80546001600160a01b031916734f96fe3b7a6cf9725f59d353f723c1bdb64ca6aa1790553480156200003757600080fd5b50604080518082018252600b81526a195d995b9d151a58dad95d60aa1b6020808301919091528251808401909352600483526310d1519560e21b9083015290620000886301ffc9a760e01b620000f2565b81516200009d90600690602085019062000177565b508051620000b390600790602084019062000177565b50620000c66380ac58cd60e01b620000f2565b620000d8635b5e139f60e01b620000f2565b620000ea63780e9d6360e01b620000f2565b505062000213565b6001600160e01b0319808216141562000152576040805162461bcd60e51b815260206004820152601c60248201527f4552433136353a20696e76616c696420696e7465726661636520696400000000604482015290519081900360640190fd5b6001600160e01b0319166000908152602081905260409020805460ff19166001179055565b828054600181600116156101000203166002900490600052602060002090601f016020900481019282601f10620001ba57805160ff1916838001178555620001ea565b82800160010185558215620001ea579182015b82811115620001ea578251825591602001919060010190620001cd565b50620001f8929150620001fc565b5090565b5b80821115620001f85760008155600101620001fd565b61499680620002236000396000f3fe6080604052600436106102345760003560e01c806371be2e4a11610138578063b38d59a1116100b0578063c87b56dd1161007f578063dccd42d311610064578063dccd42d314610f51578063e95a644f14610f7b578063e985e9c514610fa557610234565b8063c87b56dd14610e32578063d22e681814610e5c57610234565b8063b38d59a114610aec578063b5f522f714610c24578063b88d4fde14610d3d578063c6bc518214610e1d57610234565b806395d89b4111610107578063a22cb465116100ec578063a22cb46514610a4f578063a6e2351a14610a97578063ace11fea14610aac57610234565b806395d89b4114610a105780639bb1e2b614610a2557610234565b806371be2e4a146108045780637a5f9fb1146108195780637ec219d3146109de5780639116e9a2146109f357610234565b80632e1a7d4d116101cb5780634f6ccce71161019a5780636352211e1161017f5780636352211e146107855780636c0360eb146107af57806370a08231146107c457610234565b80634f6ccce7146107465780634fb265601461077057610234565b80632e1a7d4d1461065c5780632f745c591461068657806342842e0e146106cc57806346978ca91461071c57610234565b806316b796391161020757806316b79639146103be57806318160ddd1461041657806323b872dd1461043d57806328094cd91461048d57610234565b806301ffc9a71461023957806306fdde0314610299578063081812fc14610323578063095ea7b314610376575b600080fd5b34801561024557600080fd5b506102856004803603602081101561025c57600080fd5b50357fffffffff0000000000000000000000000000000000000000000000000000000016610fed565b604080519115158252519081900360200190f35b3480156102a557600080fd5b506102ae611028565b6040805160208082528351818301528351919283929083019185019080838360005b838110156102e85781810151838201526020016102d0565b50505050905090810190601f1680156103155780820380516001836020036101000a031916815260200191505b509250505060405180910390f35b34801561032f57600080fd5b5061034d6004803603602081101561034657600080fd5b50356110dc565b6040805173ffffffffffffffffffffffffffffffffffffffff9092168252519081900360200190f35b34801561038257600080fd5b506103bc6004803603604081101561039957600080fd5b5073ffffffffffffffffffffffffffffffffffffffff8135169060200135611165565b005b3480156103ca57600080fd5b506103e8600480360360208110156103e157600080fd5b50356112a8565b6040805192835273ffffffffffffffffffffffffffffffffffffffff90911660208301528051918290030190f35b34801561042257600080fd5b5061042b6112d7565b60408051918252519081900360200190f35b34801561044957600080fd5b506103bc6004803603606081101561046057600080fd5b5073ffffffffffffffffffffffffffffffffffffffff8135811691602081013590911690604001356112e8565b34801561049957600080fd5b506103bc600480360360c08110156104b057600080fd5b8135916020810135918101906060810160408201356401000000008111156104d757600080fd5b8201836020820111156104e957600080fd5b8035906020019184600183028401116401000000008311171561050b57600080fd5b91908080601f016020809104026020016040519081016040528093929190818152602001838380828437600092019190915250929594936020810193503591505064010000000081111561055e57600080fd5b82018360208201111561057057600080fd5b8035906020019184600183028401116401000000008311171561059257600080fd5b91908080601f01602080910402602001604051908101604052809392919081815260200183838082843760009201919091525092959493602081019350359150506401000000008111156105e557600080fd5b8201836020820111156105f757600080fd5b8035906020019184600183028401116401000000008311171561061957600080fd5b91908080601f0160208091040260200160405190810160405280939291908181526020018383808284376000920191909152509295505091359250611359915050565b34801561066857600080fd5b506103bc6004803603602081101561067f57600080fd5b5035611605565b34801561069257600080fd5b5061042b600480360360408110156106a957600080fd5b5073ffffffffffffffffffffffffffffffffffffffff8135169060200135611793565b3480156106d857600080fd5b506103bc600480360360608110156106ef57600080fd5b5073ffffffffffffffffffffffffffffffffffffffff8135811691602081013590911690604001356117cb565b34801561072857600080fd5b506103bc6004803603602081101561073f57600080fd5b50356117e6565b34801561075257600080fd5b5061042b6004803603602081101561076957600080fd5b50356118b4565b34801561077c57600080fd5b506103bc6118ca565b34801561079157600080fd5b5061034d600480360360208110156107a857600080fd5b503561194c565b3480156107bb57600080fd5b506102ae611974565b3480156107d057600080fd5b5061042b600480360360208110156107e757600080fd5b503573ffffffffffffffffffffffffffffffffffffffff166119f3565b34801561081057600080fd5b5061042b611a8f565b34801561082557600080fd5b506108436004803603602081101561083c57600080fd5b5035611a95565b604051808d81526020018c81526020018b73ffffffffffffffffffffffffffffffffffffffff16815260200180602001806020018a151581526020018981526020018881526020018781526020018060200186815260200185815260200184810384528d818151815260200191508051906020019080838360005b838110156108d65781810151838201526020016108be565b50505050905090810190601f1680156109035780820380516001836020036101000a031916815260200191505b5084810383528c5181528c516020918201918e019080838360005b8381101561093657818101518382015260200161091e565b50505050905090810190601f1680156109635780820380516001836020036101000a031916815260200191505b50848103825287518152875160209182019189019080838360005b8381101561099657818101518382015260200161097e565b50505050905090810190601f1680156109c35780820380516001836020036101000a031916815260200191505b509f5050505050505050505050505050505060405180910390f35b3480156109ea57600080fd5b5061042b611d06565b61042b60048036036020811015610a0957600080fd5b5035611e52565b348015610a1c57600080fd5b506102ae6122cb565b348015610a3157600080fd5b5061042b60048036036020811015610a4857600080fd5b503561234a565b348015610a5b57600080fd5b506103bc60048036036040811015610a7257600080fd5b5073ffffffffffffffffffffffffffffffffffffffff81351690602001351515612842565b348015610aa357600080fd5b5061042b6129b3565b348015610ab857600080fd5b5061042b60048036036020811015610acf57600080fd5b503573ffffffffffffffffffffffffffffffffffffffff166129b9565b348015610af857600080fd5b50610b016129cb565b6040518080602001806020018060200180602001858103855289818151815260200191508051906020019060200280838360005b83811015610b4d578181015183820152602001610b35565b50505050905001858103845288818151815260200191508051906020019060200280838360005b83811015610b8c578181015183820152602001610b74565b50505050905001858103835287818151815260200191508051906020019060200280838360005b83811015610bcb578181015183820152602001610bb3565b50505050905001858103825286818151815260200191508051906020019060200280838360005b83811015610c0a578181015183820152602001610bf2565b505050509050019850505050505050505060405180910390f35b348015610c3057600080fd5b50610c4e60048036036020811015610c4757600080fd5b5035612c43565b60405180806020018681526020018060200185815260200180602001848103845289818151815260200191508051906020019060200280838360005b83811015610ca2578181015183820152602001610c8a565b50505050905001848103835287818151815260200191508051906020019080838360005b83811015610cde578181015183820152602001610cc6565b50505050905090810190601f168015610d0b5780820380516001836020036101000a031916815260200191505b508481038252855181528551602091820191808801910280838360008315610c0a578181015183820152602001610bf2565b348015610d4957600080fd5b506103bc60048036036080811015610d6057600080fd5b73ffffffffffffffffffffffffffffffffffffffff823581169260208101359091169160408201359190810190608081016060820135640100000000811115610da857600080fd5b820183602082011115610dba57600080fd5b80359060200191846001830284011164010000000083111715610ddc57600080fd5b91908080601f016020809104026020016040519081016040528093929190818152602001838380828437600092019190915250929550612e1e945050505050565b348015610e2957600080fd5b5061042b612e96565b348015610e3e57600080fd5b506102ae60048036036020811015610e5557600080fd5b5035612e9c565b348015610e6857600080fd5b50610e8660048036036020811015610e7f57600080fd5b50356131d5565b604051808060200185815260200180602001848152602001838103835287818151815260200191508051906020019060200280838360005b83811015610ed6578181015183820152602001610ebe565b50505050905001838103825285818151815260200191508051906020019080838360005b83811015610f12578181015183820152602001610efa565b50505050905090810190601f168015610f3f5780820380516001836020036101000a031916815260200191505b50965050505050505060405180910390f35b348015610f5d57600080fd5b5061042b60048036036020811015610f7457600080fd5b503561333d565b348015610f8757600080fd5b5061028560048036036020811015610f9e57600080fd5b503561334f565b348015610fb157600080fd5b5061028560048036036040811015610fc857600080fd5b5073ffffffffffffffffffffffffffffffffffffffff81358116916020013516613559565b7fffffffff00000000000000000000000000000000000000000000000000000000811660009081526020819052604090205460ff165b919050565b60068054604080516020601f60027fffffffffffffffffffffffffffffffffffffffffffffffffffffffffffffffff6101006001881615020190951694909404938401819004810282018101909252828152606093909290918301828280156110d25780601f106110a7576101008083540402835291602001916110d2565b820191906000526020600020905b8154815290600101906020018083116110b557829003601f168201915b5050505050905090565b60006110e782613594565b61113c576040517f08c379a000000000000000000000000000000000000000000000000000000000815260040180806020018281038252602c81526020018061485f602c913960400191505060405180910390fd5b5060009081526004602052604090205473ffffffffffffffffffffffffffffffffffffffff1690565b60006111708261194c565b90508073ffffffffffffffffffffffffffffffffffffffff168373ffffffffffffffffffffffffffffffffffffffff1614156111f7576040517f08c379a000000000000000000000000000000000000000000000000000000000815260040180806020018281038252602181526020018061490f6021913960400191505060405180910390fd5b8073ffffffffffffffffffffffffffffffffffffffff166112166135a1565b73ffffffffffffffffffffffffffffffffffffffff16148061124457506112448161123f6135a1565b613559565b611299576040517f08c379a00000000000000000000000000000000000000000000000000000000081526004018080602001828103825260388152602001806147b26038913960400191505060405180910390fd5b6112a383836135a5565b505050565b600e602052600090815260409020805460019091015473ffffffffffffffffffffffffffffffffffffffff1682565b60006112e36002613645565b905090565b6112f96112f36135a1565b82613650565b61134e576040517f08c379a00000000000000000000000000000000000000000000000000000000081526004018080602001828103825260318152602001806149306031913960400191505060405180910390fd5b6112a3838383613742565b611361614506565b604051806101c001604052808881526020018781526020013373ffffffffffffffffffffffffffffffffffffffff1681526020018681526020018581526020018367ffffffffffffffff811180156113b857600080fd5b506040519080825280602002602001820160405280156113e2578160200160208202803683370190505b5081526020018367ffffffffffffffff811180156113ff57600080fd5b50604051908082528060200260200182016040528015611429578160200160208202803683370190505b508152600160208083018290526000604080850182905260608086018390526080860183905260a086018a9052600f805460c0880181905260e0909701849052338452600b8552828420879055601185528284208054808801825590855285852001969096559454825260108352908190208551815585830151938101939093558401516002830180547fffffffffffffffffffffffff00000000000000000000000000000000000000001673ffffffffffffffffffffffffffffffffffffffff909216919091179055918301518051939450849391926115129260038501929091019061458d565b506080820151805161152e91600484019160209091019061458d565b5060a0820151805161154a91600584019160209091019061460b565b5060c0820151805161156691600784019160209091019061460b565b5060e08201516008820180547fffffffffffffffffffffffffffffffffffffffffffffffffffffffffffffff00169115159190911790556101008201516009820155610120820151600a820155610140820151600b82015561016082015180516115da91600c84019160209091019061458d565b50610180820151600d8201556101a090910151600e909101555050600f805460010190555050505050565b60008181526010602052604090206002015473ffffffffffffffffffffffffffffffffffffffff16331461169a57604080517f08c379a000000000000000000000000000000000000000000000000000000000815260206004820152601560248201527f596f7520617265206e6f7420746865206f776e65720000000000000000000000604482015290519081900360640190fd5b600081815260106020526040808220600901549051339282156108fc02929190818181858888f193505050501580156116d7573d6000803e3d6000fd5b50600a80546000838152601060209081526040808320600281015495015481517fa9059cbb00000000000000000000000000000000000000000000000000000000815273ffffffffffffffffffffffffffffffffffffffff968716600482015260248101919091529051949093169363a9059cbb93604480820194918390030190829087803b15801561176957600080fd5b505af115801561177d573d6000803e3d6000fd5b505050506040513d60208110156112a357600080fd5b73ffffffffffffffffffffffffffffffffffffffff821660009081526001602052604081206117c2908361391d565b90505b92915050565b6112a383838360405180602001604052806000815250612e1e565b60008181526010602052604090206002015473ffffffffffffffffffffffffffffffffffffffff16331461187b57604080517f08c379a000000000000000000000000000000000000000000000000000000000815260206004820152601b60248201527f796f752063616e742063616c6c20746869732066756e6374696f6e0000000000604482015290519081900360640190fd5b600090815260106020526040902060080180547fffffffffffffffffffffffffffffffffffffffffffffffffffffffffffffff00169055565b6000806118c2600284613929565b509392505050565b600a54604080517f23b872dd0000000000000000000000000000000000000000000000000000000081523360048201523060248201526103e86044820152905173ffffffffffffffffffffffffffffffffffffffff9092169182916323b872dd9160648083019260209291908290030181600087803b15801561176957600080fd5b60006117c5826040518060600160405280602981526020016148146029913960029190613945565b60098054604080516020601f60027fffffffffffffffffffffffffffffffffffffffffffffffffffffffffffffffff6101006001881615020190951694909404938401819004810282018101909252828152606093909290918301828280156110d25780601f106110a7576101008083540402835291602001916110d2565b600073ffffffffffffffffffffffffffffffffffffffff8216611a61576040517f08c379a000000000000000000000000000000000000000000000000000000000815260040180806020018281038252602a8152602001806147ea602a913960400191505060405180910390fd5b73ffffffffffffffffffffffffffffffffffffffff821660009081526001602052604090206117c590613645565b600f5481565b6010602090815260009182526040918290208054600180830154600280850154600386018054895161010096821615969096027fffffffffffffffffffffffffffffffffffffffffffffffffffffffffffffffff011692909204601f81018890048802850188019098528784529396919573ffffffffffffffffffffffffffffffffffffffff9094169493909190830182828015611b745780601f10611b4957610100808354040283529160200191611b74565b820191906000526020600020905b815481529060010190602001808311611b5757829003601f168201915b5050505060048301805460408051602060026001851615610100027fffffffffffffffffffffffffffffffffffffffffffffffffffffffffffffffff0190941693909304601f8101849004840282018401909252818152949594935090830182828015611c225780601f10611bf757610100808354040283529160200191611c22565b820191906000526020600020905b815481529060010190602001808311611c0557829003601f168201915b5050505060088301546009840154600a850154600b860154600c8701805460408051602060026101006001861615027fffffffffffffffffffffffffffffffffffffffffffffffffffffffffffffffff0190941693909304601f8101849004840282018401909252818152989960ff9097169895975093959294929390830182828015611cf05780601f10611cc557610100808354040283529160200191611cf0565b820191906000526020600020905b815481529060010190602001808311611cd357829003601f168201915b50505050509080600d01549080600e015490508c565b600a54604080517f70a08231000000000000000000000000000000000000000000000000000000008152336004820152905160009273ffffffffffffffffffffffffffffffffffffffff16916370a08231916024808301926020929190829003018186803b158015611d7757600080fd5b505afa158015611d8b573d6000803e3d6000fd5b505050506040513d6020811015611da157600080fd5b5051600a54604080517f095ea7b30000000000000000000000000000000000000000000000000000000081523060048201526103e86024820152905192935073ffffffffffffffffffffffffffffffffffffffff9091169163095ea7b3916044808201926020929091908290030181600087803b158015611e2157600080fd5b505af1158015611e35573d6000803e3d6000fd5b505050506040513d6020811015611e4b57600080fd5b5090919050565b60008181526010602052604081206007810154600b9091015410611ed757604080517f08c379a000000000000000000000000000000000000000000000000000000000815260206004820152601060248201527f416c6c207469636b65747320736f6c6400000000000000000000000000000000604482015290519081900360640190fd5b600082815260106020526040902054341015611f5457604080517f08c379a000000000000000000000000000000000000000000000000000000000815260206004820152601760248201527f496e73756666696369656e742076616c75652073656e64000000000000000000604482015290519081900360640190fd5b60008281526010602052604090206008015460ff161515600114611fd957604080517f08c379a000000000000000000000000000000000000000000000000000000000815260206004820152601b60248201527f4576656e74206e6f7420617661696c61626c6520616e796d6f72650000000000604482015290519081900360640190fd5b600082815260106020908152604080832033845260060190915290205460ff161561204f576040517f08c379a00000000000000000000000000000000000000000000000000000000081526004018080602001828103825260308152602001806147006030913960400191505060405180910390fd5b6000828152601060208181526040808420600b8101543380875260068301855292862080547fffffffffffffffffffffffffffffffffffffffffffffffffffffffffffffff00166001179055948790529290915260079091018054839081106120b457fe5b600091825260208083209190910180547fffffffffffffffffffffffff00000000000000000000000000000000000000001673ffffffffffffffffffffffffffffffffffffffff949094169390931790925584815260109091526040902060098101805434019055600b0180546001019055600c5461213490339061395c565b600c5460008481526010602090815260409182902060030180548351601f60027fffffffffffffffffffffffffffffffffffffffffffffffffffffffffffffffff61010060018616150201909316929092049182018490048402810184019094528084526121f99493928301828280156121ef5780601f106121c4576101008083540402835291602001916121ef565b820191906000526020600020905b8154815290600101906020018083116121d257829003601f168201915b5050505050613ae5565b5050600c80546000908152600d6020908152604080832085905583548352600e825280832085905583548352808320600190810180547fffffffffffffffffffffffff0000000000000000000000000000000000000000163390811790915584526011835281842085548183018054808501825590875285872001556002810180548084018255908652848620018790559584526004909501909152902080547fffffffffffffffffffffffffffffffffffffffffffffffffffffffffffffff00168317905580549091019081905590565b60078054604080516020601f60027fffffffffffffffffffffffffffffffffffffffffffffffffffffffffffffffff6101006001881615020190951694909404938401819004810282018101909252828152606093909290918301828280156110d25780601f106110a7576101008083540402835291602001916110d2565b60008181526010602052604081206007810154600b90910154106123cf57604080517f08c379a000000000000000000000000000000000000000000000000000000000815260206004820152601060248201527f416c6c207469636b65747320736f6c6400000000000000000000000000000000604482015290519081900360640190fd5b60008281526010602090815260409182902060010154600a5483517f70a082310000000000000000000000000000000000000000000000000000000081523360048201529351919373ffffffffffffffffffffffffffffffffffffffff909116926370a0823192602480840193829003018186803b15801561245057600080fd5b505afa158015612464573d6000803e3d6000fd5b505050506040513d602081101561247a57600080fd5b505110156124e957604080517f08c379a000000000000000000000000000000000000000000000000000000000815260206004820152601760248201527f496e73756666696369656e742076616c75652073656e64000000000000000000604482015290519081900360640190fd5b60008281526010602052604090206008015460ff16151560011461256e57604080517f08c379a000000000000000000000000000000000000000000000000000000000815260206004820152601b60248201527f4576656e74206e6f7420617661696c61626c6520616e796d6f72650000000000604482015290519081900360640190fd5b600082815260106020908152604080832033845260060190915290205460ff16156125e4576040517f08c379a00000000000000000000000000000000000000000000000000000000081526004018080602001828103825260308152602001806147006030913960400191505060405180910390fd5b600a5460008381526010602090815260408083206001015481517f095ea7b30000000000000000000000000000000000000000000000000000000081523060048201526024810191909152905173ffffffffffffffffffffffffffffffffffffffff9094169363095ea7b393604480840194938390030190829087803b15801561266d57600080fd5b505af1158015612681573d6000803e3d6000fd5b505050506040513d602081101561269757600080fd5b5050600a5460008381526010602090815260408083206001015481517f23b872dd0000000000000000000000000000000000000000000000000000000081523360048201523060248201526044810191909152905173ffffffffffffffffffffffffffffffffffffffff909416936323b872dd93606480840194938390030190829087803b15801561272857600080fd5b505af115801561273c573d6000803e3d6000fd5b505050506040513d602081101561275257600080fd5b50506000828152601060208181526040808420600b8101543380875260068301855292862080547fffffffffffffffffffffffffffffffffffffffffffffffffffffffffffffff00166001179055948790529290915260079091018054839081106127b957fe5b600091825260208083209190910180547fffffffffffffffffffffffff00000000000000000000000000000000000000001673ffffffffffffffffffffffffffffffffffffffff9490941693909317909255848152601090915260409020600181810154600a830180549091019055600b90910180549091019055600c5461213490339061395c565b61284a6135a1565b73ffffffffffffffffffffffffffffffffffffffff168273ffffffffffffffffffffffffffffffffffffffff1614156128e457604080517f08c379a000000000000000000000000000000000000000000000000000000000815260206004820152601960248201527f4552433732313a20617070726f766520746f2063616c6c657200000000000000604482015290519081900360640190fd5b80600560006128f16135a1565b73ffffffffffffffffffffffffffffffffffffffff90811682526020808301939093526040918201600090812091871680825291909352912080547fffffffffffffffffffffffffffffffffffffffffffffffffffffffffffffff0016921515929092179091556129606135a1565b73ffffffffffffffffffffffffffffffffffffffff167f17307eab39ab6107e8899845ad3d59bd9653f200f220920489ca2b5937696c318360405180821515815260200191505060405180910390a35050565b600f5490565b600b6020526000908152604090205481565b3360009081526011602090815260409182902080548351818402810184019094528084526060938493849384939091830182828015612a2957602002820191906000526020600020905b815481526020019060010190808311612a15575b50505050509350601160003373ffffffffffffffffffffffffffffffffffffffff1673ffffffffffffffffffffffffffffffffffffffff168152602001908152602001600020600201805480602002602001604051908101604052809291908181526020018280548015612abc57602002820191906000526020600020905b815481526020019060010190808311612aa8575b50505050509250601160003373ffffffffffffffffffffffffffffffffffffffff1673ffffffffffffffffffffffffffffffffffffffff168152602001908152602001600020600101805480602002602001604051908101604052809291908181526020018280548015612b4f57602002820191906000526020600020905b815481526020019060010190808311612b3b575b5050336000908152601160205260409020600201549394505067ffffffffffffffff83119150508015612b8157600080fd5b50604051908082528060200260200182016040528015612bab578160200160208202803683370190505b50915060005b33600090815260116020526040902060020154811015612c3c573360009081526011602052604081206002810180546004909201929184908110612bf157fe5b9060005260206000200154815260200190815260200160002060009054906101000a900460ff16838281518110612c2457fe5b91151560209283029190910190910152600101612bb1565b5090919293565b6060600060606000606060106000878152602001908152602001600020600501805480602002602001604051908101604052809291908181526020018280548015612cc457602002820191906000526020600020905b815473ffffffffffffffffffffffffffffffffffffffff168152600190910190602001808311612c99575b505050600089815260106020908152604091829020600b81015460049091018054845160026001831615610100027fffffffffffffffffffffffffffffffffffffffffffffffffffffffffffffffff0190921691909104601f8101859004850282018501909552848152969b509099509350909150830182828015612d8a5780601f10612d5f57610100808354040283529160200191612d8a565b820191906000526020600020905b815481529060010190602001808311612d6d57829003601f168201915b505050600089815260106020908152604091829020600e810154600790910180548451818502810185019095528085529699509097509194919350909150830182828015612e0e57602002820191906000526020600020905b815473ffffffffffffffffffffffffffffffffffffffff168152600190910190602001808311612de3575b5050505050905091939590929450565b612e2f612e296135a1565b83613650565b612e84576040517f08c379a00000000000000000000000000000000000000000000000000000000081526004018080602001828103825260318152602001806149306031913960400191505060405180910390fd5b612e9084848484613b62565b50505050565b600c5481565b6060612ea782613594565b612efc576040517f08c379a000000000000000000000000000000000000000000000000000000000815260040180806020018281038252602f8152602001806148e0602f913960400191505060405180910390fd5b60008281526008602090815260409182902080548351601f60027fffffffffffffffffffffffffffffffffffffffffffffffffffffffffffffffff610100600186161502019093169290920491820184900484028101840190945280845260609392830182828015612faf5780601f10612f8457610100808354040283529160200191612faf565b820191906000526020600020905b815481529060010190602001808311612f9257829003601f168201915b505060095493945050505060027fffffffffffffffffffffffffffffffffffffffffffffffffffffffffffffffff6101006001841615020190911604612ff6579050611023565b8051156130e557600981604051602001808380546001816001161561010002031660029004801561305e5780601f1061303c57610100808354040283529182019161305e565b820191906000526020600020905b81548152906001019060200180831161304a575b5050825160208401908083835b602083106130a857805182527fffffffffffffffffffffffffffffffffffffffffffffffffffffffffffffffe0909201916020918201910161306b565b6001836020036101000a03801982511681845116808217855250505050505090500192505050604051602081830303815290604052915050611023565b60096130f084613bce565b604051602001808380546001816001161561010002031660029004801561314e5780601f1061312c57610100808354040283529182019161314e565b820191906000526020600020905b81548152906001019060200180831161313a575b5050825160208401908083835b6020831061319857805182527fffffffffffffffffffffffffffffffffffffffffffffffffffffffffffffffe0909201916020918201910161315b565b6001836020036101000a03801982511681845116808217855250505050505090500192505050604051602081830303815290604052915050919050565b60606000606060006010600086815260200190815260200160002060050180548060200260200160405190810160405280929190818152602001828054801561325457602002820191906000526020600020905b815473ffffffffffffffffffffffffffffffffffffffff168152600190910190602001808311613229575b505050600088815260106020908152604091829020600b81015460049091018054845160026001831615610100027fffffffffffffffffffffffffffffffffffffffffffffffffffffffffffffffff0190921691909104601f8101859004850282018501909552848152969a50909850935090915083018282801561331a5780601f106132ef5761010080835404028352916020019161331a565b820191906000526020600020905b8154815290600101906020018083116132fd57829003601f168201915b5050506000978852505060106020526040909520600e0154939592949392915050565b600d6020526000908152604090205481565b33600090815260116020908152604080832084845260040190915281205460ff1615156001146133e057604080517f08c379a000000000000000000000000000000000000000000000000000000000815260206004820152601b60248201527f596f75206861766520616c726561647920636865636b656420696e0000000000604482015290519081900360640190fd5b33600090815260116020908152604080832085845260030190915290205460ff1615156001141561347257604080517f08c379a000000000000000000000000000000000000000000000000000000000815260206004820152601a60248201527f596f75206861766520616c726561647920636865636b6564496e000000000000604482015290519081900360640190fd5b6000828152601060205260409020600e810154600590910180543391908390811061349957fe5b600091825260208083209190910180547fffffffffffffffffffffffff00000000000000000000000000000000000000001673ffffffffffffffffffffffffffffffffffffffff949094169390931790925533815260118252604080822095825260038601835280822080547fffffffffffffffffffffffffffffffffffffffffffffffffffffffffffffff009081166001908117909255600490970184528183208054909716909655601090925220600e018054840190555090919050565b73ffffffffffffffffffffffffffffffffffffffff918216600090815260056020908152604080832093909416825291909152205460ff1690565b60006117c5600283613cfb565b3390565b600081815260046020526040902080547fffffffffffffffffffffffff00000000000000000000000000000000000000001673ffffffffffffffffffffffffffffffffffffffff841690811790915581906135ff8261194c565b73ffffffffffffffffffffffffffffffffffffffff167f8c5be1e5ebec7d5bd14f71427d1e84f3dd0314c0f7b2291e5b200ac8c7c3b92560405160405180910390a45050565b60006117c582613d07565b600061365b82613594565b6136b0576040517f08c379a000000000000000000000000000000000000000000000000000000000815260040180806020018281038252602c815260200180614786602c913960400191505060405180910390fd5b60006136bb8361194c565b90508073ffffffffffffffffffffffffffffffffffffffff168473ffffffffffffffffffffffffffffffffffffffff16148061372a57508373ffffffffffffffffffffffffffffffffffffffff16613712846110dc565b73ffffffffffffffffffffffffffffffffffffffff16145b8061373a575061373a8185613559565b949350505050565b8273ffffffffffffffffffffffffffffffffffffffff166137628261194c565b73ffffffffffffffffffffffffffffffffffffffff16146137ce576040517f08c379a00000000000000000000000000000000000000000000000000000000081526004018080602001828103825260298152602001806148b76029913960400191505060405180910390fd5b73ffffffffffffffffffffffffffffffffffffffff821661383a576040517f08c379a00000000000000000000000000000000000000000000000000000000081526004018080602001828103825260248152602001806147626024913960400191505060405180910390fd5b6138458383836112a3565b6138506000826135a5565b73ffffffffffffffffffffffffffffffffffffffff8316600090815260016020526040902061387f9082613d0b565b5073ffffffffffffffffffffffffffffffffffffffff821660009081526001602052604090206138af9082613d17565b506138bc60028284613d23565b50808273ffffffffffffffffffffffffffffffffffffffff168473ffffffffffffffffffffffffffffffffffffffff167fddf252ad1be2c89b69c2b068fc378daa952ba7f163c4a11628f55a4df523b3ef60405160405180910390a4505050565b60006117c28383613d46565b60008080806139388686613dc4565b9097909650945050505050565b6000613952848484613e59565b90505b9392505050565b73ffffffffffffffffffffffffffffffffffffffff82166139de57604080517f08c379a000000000000000000000000000000000000000000000000000000000815260206004820181905260248201527f4552433732313a206d696e7420746f20746865207a65726f2061646472657373604482015290519081900360640190fd5b6139e781613594565b15613a5357604080517f08c379a000000000000000000000000000000000000000000000000000000000815260206004820152601c60248201527f4552433732313a20746f6b656e20616c7265616479206d696e74656400000000604482015290519081900360640190fd5b613a5f600083836112a3565b73ffffffffffffffffffffffffffffffffffffffff82166000908152600160205260409020613a8e9082613d17565b50613a9b60028284613d23565b50604051819073ffffffffffffffffffffffffffffffffffffffff8416906000907fddf252ad1be2c89b69c2b068fc378daa952ba7f163c4a11628f55a4df523b3ef908290a45050565b613aee82613594565b613b43576040517f08c379a000000000000000000000000000000000000000000000000000000000815260040180806020018281038252602c81526020018061488b602c913960400191505060405180910390fd5b600082815260086020908152604090912082516112a39284019061458d565b613b6d848484613742565b613b7984848484613f3d565b612e90576040517f08c379a00000000000000000000000000000000000000000000000000000000081526004018080602001828103825260328152602001806147306032913960400191505060405180910390fd5b606081613c0f575060408051808201909152600181527f30000000000000000000000000000000000000000000000000000000000000006020820152611023565b8160005b8115613c2757600101600a82049150613c13565b60608167ffffffffffffffff81118015613c4057600080fd5b506040519080825280601f01601f191660200182016040528015613c6b576020820181803683370190505b5085935090507fffffffffffffffffffffffffffffffffffffffffffffffffffffffffffffffff82015b8315613cf257600a840660300160f81b82828060019003935081518110613cb857fe5b60200101907effffffffffffffffffffffffffffffffffffffffffffffffffffffffffffff1916908160001a905350600a84049350613c95565b50949350505050565b60006117c2838361414d565b5490565b60006117c28383614165565b60006117c28383614249565b6000613952848473ffffffffffffffffffffffffffffffffffffffff8516614293565b81546000908210613da2576040517f08c379a00000000000000000000000000000000000000000000000000000000081526004018080602001828103825260228152602001806146de6022913960400191505060405180910390fd5b826000018281548110613db157fe5b9060005260206000200154905092915050565b815460009081908310613e22576040517f08c379a000000000000000000000000000000000000000000000000000000000815260040180806020018281038252602281526020018061483d6022913960400191505060405180910390fd5b6000846000018481548110613e3357fe5b906000526020600020906002020190508060000154816001015492509250509250929050565b60008281526001840160205260408120548281613f0e576040517f08c379a00000000000000000000000000000000000000000000000000000000081526004018080602001828103825283818151815260200191508051906020019080838360005b83811015613ed3578181015183820152602001613ebb565b50505050905090810190601f168015613f005780820380516001836020036101000a031916815260200191505b509250505060405180910390fd5b50846000016001820381548110613f2157fe5b9060005260206000209060020201600101549150509392505050565b6000613f5e8473ffffffffffffffffffffffffffffffffffffffff1661432a565b613f6a5750600161373a565b60606140e27f150b7a0200000000000000000000000000000000000000000000000000000000613f986135a1565b888787604051602401808573ffffffffffffffffffffffffffffffffffffffff1681526020018473ffffffffffffffffffffffffffffffffffffffff16815260200183815260200180602001828103825283818151815260200191508051906020019080838360005b83811015614019578181015183820152602001614001565b50505050905090810190601f1680156140465780820380516001836020036101000a031916815260200191505b5095505050505050604051602081830303815290604052907bffffffffffffffffffffffffffffffffffffffffffffffffffffffff19166020820180517bffffffffffffffffffffffffffffffffffffffffffffffffffffffff83818316178352505050506040518060600160405280603281526020016147306032913973ffffffffffffffffffffffffffffffffffffffff88169190614330565b905060008180602001905160208110156140fb57600080fd5b50517fffffffff00000000000000000000000000000000000000000000000000000000167f150b7a02000000000000000000000000000000000000000000000000000000001492505050949350505050565b60009081526001919091016020526040902054151590565b6000818152600183016020526040812054801561423f5783547fffffffffffffffffffffffffffffffffffffffffffffffffffffffffffffffff80830191908101906000908790839081106141b657fe5b90600052602060002001549050808760000184815481106141d357fe5b60009182526020808320909101929092558281526001898101909252604090209084019055865487908061420357fe5b600190038181906000526020600020016000905590558660010160008781526020019081526020016000206000905560019450505050506117c5565b60009150506117c5565b6000614255838361414d565b61428b575081546001818101845560008481526020808220909301849055845484825282860190935260409020919091556117c5565b5060006117c5565b6000828152600184016020526040812054806142f8575050604080518082018252838152602080820184815286546001818101895560008981528481209551600290930290950191825591519082015586548684528188019092529290912055613955565b8285600001600183038154811061430b57fe5b9060005260206000209060020201600101819055506000915050613955565b3b151590565b6060613952848460008560606143458561432a565b6143b057604080517f08c379a000000000000000000000000000000000000000000000000000000000815260206004820152601d60248201527f416464726573733a2063616c6c20746f206e6f6e2d636f6e7472616374000000604482015290519081900360640190fd5b600060608673ffffffffffffffffffffffffffffffffffffffff1685876040518082805190602001908083835b6020831061441a57805182527fffffffffffffffffffffffffffffffffffffffffffffffffffffffffffffffe090920191602091820191016143dd565b6001836020036101000a03801982511681845116808217855250505050505090500191505060006040518083038185875af1925050503d806000811461447c576040519150601f19603f3d011682016040523d82523d6000602084013e614481565b606091505b5091509150811561449557915061373a9050565b8051156144a55780518082602001fd5b6040517f08c379a0000000000000000000000000000000000000000000000000000000008152602060048201818152865160248401528651879391928392604401919085019080838360008315613ed3578181015183820152602001613ebb565b604051806101c001604052806000815260200160008152602001600073ffffffffffffffffffffffffffffffffffffffff168152602001606081526020016060815260200160608152602001606081526020016000151581526020016000815260200160008152602001600081526020016060815260200160008152602001600081525090565b828054600181600116156101000203166002900490600052602060002090601f016020900481019282601f106145ce57805160ff19168380011785556145fb565b828001600101855582156145fb579182015b828111156145fb5782518255916020019190600101906145e0565b50614607929150614691565b5090565b828054828255906000526020600020908101928215614685579160200282015b8281111561468557825182547fffffffffffffffffffffffff00000000000000000000000000000000000000001673ffffffffffffffffffffffffffffffffffffffff90911617825560209092019160019091019061462b565b506146079291506146a6565b5b808211156146075760008155600101614692565b5b808211156146075780547fffffffffffffffffffffffff00000000000000000000000000000000000000001681556001016146a756fe456e756d657261626c655365743a20696e646578206f7574206f6620626f756e64735469636b657420686173206265656e20616c726561647920626f756768742077697468207468697320616464726573734552433732313a207472616e7366657220746f206e6f6e20455243373231526563656976657220696d706c656d656e7465724552433732313a207472616e7366657220746f20746865207a65726f20616464726573734552433732313a206f70657261746f7220717565727920666f72206e6f6e6578697374656e7420746f6b656e4552433732313a20617070726f76652063616c6c6572206973206e6f74206f776e6572206e6f7220617070726f76656420666f7220616c6c4552433732313a2062616c616e636520717565727920666f7220746865207a65726f20616464726573734552433732313a206f776e657220717565727920666f72206e6f6e6578697374656e7420746f6b656e456e756d657261626c654d61703a20696e646578206f7574206f6620626f756e64734552433732313a20617070726f76656420717565727920666f72206e6f6e6578697374656e7420746f6b656e4552433732314d657461646174613a2055524920736574206f66206e6f6e6578697374656e7420746f6b656e4552433732313a207472616e73666572206f6620746f6b656e2074686174206973206e6f74206f776e4552433732314d657461646174613a2055524920717565727920666f72206e6f6e6578697374656e7420746f6b656e4552433732313a20617070726f76616c20746f2063757272656e74206f776e65724552433732313a207472616e736665722063616c6c6572206973206e6f74206f776e6572206e6f7220617070726f766564a2646970667358221220961c37f64b33d113c9cadb39d0971e5cf989969085d7dfc77d616836e02b6f2364736f6c634300060c0033",
  "immutableReferences": {},
  "source": "pragma solidity ^0.6.0;\n\n\nimport \"@openzeppelin/contracts/token/ERC721/ERC721.sol\";\ncontract TicketsOnChain is ERC721 {\n    address address_dai = 0x4F96Fe3b7A6Cf9725f59d353F723c1bDb64CA6Aa;\n     constructor() ERC721(\"eventTicket\",\"CEFT\") public{\n\n    } \n  struct Event{\n      uint priceInEth;\n      uint priceInDai;\n      address ownerAddress;\n      string metadata;\n      string name;\n      address[] checkedInUsers;\n      mapping(address => bool) issuedAddressCheck;\n      address[] issuedAddresses;\n      bool active;\n      uint eth;\n      uint dai;\n      uint ticketsIssued;\n      string description;\n      uint eventId;\n      uint checkInCount;\n  }\n  struct NFT{\n    uint eventId;\n    address owner;\n  }\n  struct User{\n      uint[] hosting;\n      uint[] owned;\n      uint[] events;\n      mapping(uint=>bool) checkedIn;\n      mapping(uint =>bool) notCheckedIn;\n  }\n  mapping (address => uint) public ownerToEvent;\n  uint public nftId;\n  mapping(uint=>uint) public nftToEvent;// this shows which event has is represented by this token, for back tracking\n  mapping(uint=>NFT) public nftInformation;// gives nft info \n  uint public eventCount;\n  mapping(uint => Event) public eventMapping;\n  mapping(address=>User)  userMapping;\n  function createEvent(uint _priceEth, uint _priceDai,string memory _metadata, string memory _name, string memory _description,uint noOfTickets)public {\n \n    Event memory obj = Event({\n        priceInEth:_priceEth,\n        priceInDai:_priceDai,\n        metadata:_metadata,\n        name:_name,\n        ownerAddress:msg.sender, \n        active:true,\n        issuedAddresses :new address[](noOfTickets),\n        checkedInUsers : new address[](noOfTickets),\n        dai:0,\n        eth:0,\n        checkInCount:0,\n        ticketsIssued:0,\n        description :_description,\n        eventId:eventCount\n    });\n    ownerToEvent[msg.sender]=eventCount;\n    userMapping[msg.sender].hosting.push(eventCount);\n    eventMapping[eventCount]=obj;\n    eventCount++;\n    \n  }\n  function turnEventOff(uint eventId) public  {\n      require(eventMapping[eventId].ownerAddress ==msg.sender,\"you cant call this function\");\n      eventMapping[eventId].active = false;\n  }\n  function checkInList(uint _id) public view returns(address[] memory attendees, uint _totalTickets, string memory name , uint totalCheckin){\n      attendees = eventMapping[_id].checkedInUsers;\n      _totalTickets= eventMapping[_id].ticketsIssued;\n      name = eventMapping[_id].name;\n      totalCheckin = eventMapping[_id].checkInCount;\n  }\n  function buyTicketsEth(uint eventId) public payable   returns(uint tokenId){\n    require(eventMapping[eventId].ticketsIssued<eventMapping[eventId].issuedAddresses.length,\"All tickets sold\");\n    require(msg.value>=eventMapping[eventId].priceInEth,\"Insufficient value send\");\n    require(eventMapping[eventId].active ==true,\"Event not available anymore\");\n    require(eventMapping[eventId].issuedAddressCheck[msg.sender]==false,\"Ticket has been already bought with this address\");\n    uint  count = eventMapping[eventId].ticketsIssued;\n    eventMapping[eventId].issuedAddressCheck[msg.sender]= true;\n    eventMapping[eventId].issuedAddresses[count]= msg.sender;\n    eventMapping[eventId].eth=eventMapping[eventId].eth+msg.value;\n    eventMapping[eventId].ticketsIssued++;\n    _mint(msg.sender, nftId);\n    _setTokenURI(nftId, eventMapping[eventId].metadata);\n    nftToEvent[nftId]=eventId;\n    nftInformation[nftId].eventId=eventId;\n    nftInformation[nftId].owner= msg.sender;\n    userMapping[msg.sender].owned.push(nftId);\n    userMapping[msg.sender].events.push(eventId);\n    userMapping[msg.sender].notCheckedIn[eventId]= true;\n    \n    nftId++;\n    tokenId = nftId;\n  }\n  function buyTicketsDAi(uint eventId) public returns(uint tokenId){\n    require(eventMapping[eventId].ticketsIssued<eventMapping[eventId].issuedAddresses.length,\"All tickets sold\");\n    require(ERC20(address_dai).balanceOf(msg.sender)>=eventMapping[eventId].priceInDai,\"Insufficient value send\");\n    require(eventMapping[eventId].active ==true,\"Event not available anymore\");\n    require(eventMapping[eventId].issuedAddressCheck[msg.sender]==false,\"Ticket has been already bought with this address\");\n    ERC20(address_dai).approve(address(this),eventMapping[eventId].priceInDai);\n    ERC20(address_dai).transferFrom(msg.sender, address(this),eventMapping[eventId].priceInDai);\n    \n    \n    uint  count = eventMapping[eventId].ticketsIssued;\n  //  eventMapping[eventId].issuedTokens[count]=tokenId;\n    eventMapping[eventId].issuedAddressCheck[msg.sender]= true;\n    eventMapping[eventId].issuedAddresses[count]= msg.sender;\n    //eventMapping[eventId].eth=eventMapping[eventId].eth+msg.value;\n    eventMapping[eventId].dai=eventMapping[eventId].dai+eventMapping[eventId].priceInDai;\n    eventMapping[eventId].ticketsIssued++;\n    _mint(msg.sender, nftId);\n    _setTokenURI(nftId, eventMapping[eventId].metadata);\n    nftToEvent[nftId]=eventId;\n    nftInformation[nftId].eventId=eventId;\n    nftInformation[nftId].owner= msg.sender;\n    userMapping[msg.sender].owned.push(nftId);\n    userMapping[msg.sender].events.push(eventId);\n    userMapping[msg.sender].notCheckedIn[eventId]= true;\n    nftId++;\n    tokenId = nftId;\n  }\n  function sales(uint _id) public view returns(address[] memory attendees, uint _totalTickets, string memory name , uint totalCheckin, address[] memory alltickets){\n      attendees = eventMapping[_id].checkedInUsers;\n      _totalTickets= eventMapping[_id].ticketsIssued;\n      name = eventMapping[_id].name;\n      totalCheckin = eventMapping[_id].checkInCount;\n      alltickets = eventMapping[_id].issuedAddresses;\n  }\n function checkIn(uint eventId)public returns(bool status){\n   //  require(eventMapping[eventId].ownerAddress==msg.sender,\"You are not authorized to do this\");\n     require(userMapping[msg.sender].notCheckedIn[eventId] == true,\"You have already checked in\");\n     require(userMapping[msg.sender].checkedIn[eventId] != true, \"You have already checkedIn\");\n     uint count = eventMapping[eventId].checkInCount;\n     eventMapping[eventId].checkedInUsers[count]=msg.sender;\n     userMapping[msg.sender].checkedIn[eventId]= true;\n     userMapping[msg.sender].notCheckedIn[eventId]= false;\n     eventMapping[eventId].checkInCount++;\n     status = true;\n }\n function UserProfile() public view returns (uint[] memory eventHost,uint[] memory eventList, bool[] memory statusList, uint[] memory tokenList){\n     eventHost = userMapping[msg.sender].hosting;\n     eventList = userMapping[msg.sender].events;\n     tokenList = userMapping[msg.sender].owned;\n     statusList= new bool[](userMapping[msg.sender].events.length);\n     for(uint i=0; i<userMapping[msg.sender].events.length;i++){\n         statusList[i]=userMapping[msg.sender].notCheckedIn[userMapping[msg.sender].events[i]];\n    }\n    \n }\n function withdraw(uint eventId) public {\n     require(eventMapping[eventId].ownerAddress == msg.sender,\"You are not the owner\");\n     msg.sender.transfer(eventMapping[eventId].eth);\n     ERC20(address_dai).transfer(eventMapping[eventId].ownerAddress, eventMapping[eventId].dai);\n }\n function daicheck() public  returns(uint bal) {\n     bal = ERC20(address_dai).balanceOf(msg.sender);\n    ERC20(address_dai).approve(address(this),1000);\n    //ERC20(address_dai).transferFrom(msg.sender,address(this), 1000);\n\n }\n function retEventCount()public view returns (uint){\n   return eventCount;\n }\n  function daicheck2() public {\n    //  bal = ERC20(address_dai).balanceOf(msg.sender);\n    // ERC20(address_dai).approve(address(this),1000);\n   \n    ERC20 token =  ERC20(address_dai);\n    token.transferFrom(msg.sender,address(this),1000);\n\n }\n \n//refund\n//send momey to event creator\n}\n\ninterface ERC20 {\n    function balanceOf(address tokenOwner) external view returns (uint balance);\n   function transfer(address receiver, uint amount) external returns(bool);\n    function approve(address spender, uint256 value) external returns (bool);\n    function transferFrom(address _from, address _to, uint256 _value) external returns(bool);\n}\n",
  "sourcePath": "/run/media/abhimanyu/New Volume/TicketsOnChain/contracts/TicketOnChain.sol",
  "compiler": {
    "name": "solc",
    "version": "0.6.12+commit.27d51765.Emscripten.clang"
  },
  "schemaVersion": "3.3.2",
  "updatedAt": "2020-12-15T14:52:41.820Z",
  "networkType": "ethereum",
  "devdoc": {
    "kind": "dev",
    "methods": {
      "approve(address,uint256)": {
        "details": "See {IERC721-approve}."
      },
      "balanceOf(address)": {
        "details": "See {IERC721-balanceOf}."
      },
      "baseURI()": {
        "details": "Returns the base URI set via {_setBaseURI}. This will be automatically added as a prefix in {tokenURI} to each token's URI, or to the token ID if no specific URI is set for that token ID."
      },
      "getApproved(uint256)": {
        "details": "See {IERC721-getApproved}."
      },
      "isApprovedForAll(address,address)": {
        "details": "See {IERC721-isApprovedForAll}."
      },
      "name()": {
        "details": "See {IERC721Metadata-name}."
      },
      "ownerOf(uint256)": {
        "details": "See {IERC721-ownerOf}."
      },
      "safeTransferFrom(address,address,uint256)": {
        "details": "See {IERC721-safeTransferFrom}."
      },
      "safeTransferFrom(address,address,uint256,bytes)": {
        "details": "See {IERC721-safeTransferFrom}."
      },
      "setApprovalForAll(address,bool)": {
        "details": "See {IERC721-setApprovalForAll}."
      },
      "supportsInterface(bytes4)": {
        "details": "See {IERC165-supportsInterface}. Time complexity O(1), guaranteed to always use less than 30 000 gas."
      },
      "symbol()": {
        "details": "See {IERC721Metadata-symbol}."
      },
      "tokenByIndex(uint256)": {
        "details": "See {IERC721Enumerable-tokenByIndex}."
      },
      "tokenOfOwnerByIndex(address,uint256)": {
        "details": "See {IERC721Enumerable-tokenOfOwnerByIndex}."
      },
      "tokenURI(uint256)": {
        "details": "See {IERC721Metadata-tokenURI}."
      },
      "totalSupply()": {
        "details": "See {IERC721Enumerable-totalSupply}."
      },
      "transferFrom(address,address,uint256)": {
        "details": "See {IERC721-transferFrom}."
      }
    },
    "version": 1
  },
  "userdoc": {
    "kind": "user",
    "methods": {},
    "version": 1
  }
}