{
  "contractName": "TicketsOnChain",
  "abi": [
    {
      "inputs": [],
      "payable": false,
      "stateMutability": "nonpayable",
      "type": "constructor"
    },
    {
      "anonymous": false,
      "inputs": [
        {
          "indexed": true,
          "internalType": "address",
          "name": "owner",
          "type": "address"
        },
        {
          "indexed": true,
          "internalType": "address",
          "name": "approved",
          "type": "address"
        },
        {
          "indexed": true,
          "internalType": "uint256",
          "name": "tokenId",
          "type": "uint256"
        }
      ],
      "name": "Approval",
      "type": "event"
    },
    {
      "anonymous": false,
      "inputs": [
        {
          "indexed": true,
          "internalType": "address",
          "name": "owner",
          "type": "address"
        },
        {
          "indexed": true,
          "internalType": "address",
          "name": "operator",
          "type": "address"
        },
        {
          "indexed": false,
          "internalType": "bool",
          "name": "approved",
          "type": "bool"
        }
      ],
      "name": "ApprovalForAll",
      "type": "event"
    },
    {
      "anonymous": false,
      "inputs": [
        {
          "indexed": true,
          "internalType": "address",
          "name": "account",
          "type": "address"
        }
      ],
      "name": "MinterAdded",
      "type": "event"
    },
    {
      "anonymous": false,
      "inputs": [
        {
          "indexed": true,
          "internalType": "address",
          "name": "account",
          "type": "address"
        }
      ],
      "name": "MinterRemoved",
      "type": "event"
    },
    {
      "anonymous": false,
      "inputs": [
        {
          "indexed": true,
          "internalType": "address",
          "name": "from",
          "type": "address"
        },
        {
          "indexed": true,
          "internalType": "address",
          "name": "to",
          "type": "address"
        },
        {
          "indexed": true,
          "internalType": "uint256",
          "name": "tokenId",
          "type": "uint256"
        }
      ],
      "name": "Transfer",
      "type": "event"
    },
    {
      "constant": false,
      "inputs": [
        {
          "internalType": "address",
          "name": "account",
          "type": "address"
        }
      ],
      "name": "addMinter",
      "outputs": [],
      "payable": false,
      "stateMutability": "nonpayable",
      "type": "function"
    },
    {
      "constant": false,
      "inputs": [
        {
          "internalType": "address",
          "name": "to",
          "type": "address"
        },
        {
          "internalType": "uint256",
          "name": "tokenId",
          "type": "uint256"
        }
      ],
      "name": "approve",
      "outputs": [],
      "payable": false,
      "stateMutability": "nonpayable",
      "type": "function"
    },
    {
      "constant": true,
      "inputs": [
        {
          "internalType": "address",
          "name": "owner",
          "type": "address"
        }
      ],
      "name": "balanceOf",
      "outputs": [
        {
          "internalType": "uint256",
          "name": "",
          "type": "uint256"
        }
      ],
      "payable": false,
      "stateMutability": "view",
      "type": "function"
    },
    {
      "constant": true,
      "inputs": [],
      "name": "eventCount",
      "outputs": [
        {
          "internalType": "uint256",
          "name": "",
          "type": "uint256"
        }
      ],
      "payable": false,
      "stateMutability": "view",
      "type": "function"
    },
    {
      "constant": true,
      "inputs": [
        {
          "internalType": "uint256",
          "name": "",
          "type": "uint256"
        }
      ],
      "name": "eventMapping",
      "outputs": [
        {
          "internalType": "uint256",
          "name": "priceInEth",
          "type": "uint256"
        },
        {
          "internalType": "uint256",
          "name": "priceInDai",
          "type": "uint256"
        },
        {
          "internalType": "address",
          "name": "ownerAddress",
          "type": "address"
        },
        {
          "internalType": "string",
          "name": "metadata",
          "type": "string"
        },
        {
          "internalType": "string",
          "name": "name",
          "type": "string"
        },
        {
          "internalType": "bool",
          "name": "active",
          "type": "bool"
        },
        {
          "internalType": "uint256",
          "name": "eth",
          "type": "uint256"
        },
        {
          "internalType": "uint256",
          "name": "dai",
          "type": "uint256"
        },
        {
          "internalType": "uint256",
          "name": "ticketsIssued",
          "type": "uint256"
        },
        {
          "internalType": "string",
          "name": "description",
          "type": "string"
        },
        {
          "internalType": "uint256",
          "name": "eventId",
          "type": "uint256"
        }
      ],
      "payable": false,
      "stateMutability": "view",
      "type": "function"
    },
    {
      "constant": true,
      "inputs": [
        {
          "internalType": "uint256",
          "name": "tokenId",
          "type": "uint256"
        }
      ],
      "name": "getApproved",
      "outputs": [
        {
          "internalType": "address",
          "name": "",
          "type": "address"
        }
      ],
      "payable": false,
      "stateMutability": "view",
      "type": "function"
    },
    {
      "constant": true,
      "inputs": [
        {
          "internalType": "address",
          "name": "owner",
          "type": "address"
        },
        {
          "internalType": "address",
          "name": "operator",
          "type": "address"
        }
      ],
      "name": "isApprovedForAll",
      "outputs": [
        {
          "internalType": "bool",
          "name": "",
          "type": "bool"
        }
      ],
      "payable": false,
      "stateMutability": "view",
      "type": "function"
    },
    {
      "constant": true,
      "inputs": [
        {
          "internalType": "address",
          "name": "account",
          "type": "address"
        }
      ],
      "name": "isMinter",
      "outputs": [
        {
          "internalType": "bool",
          "name": "",
          "type": "bool"
        }
      ],
      "payable": false,
      "stateMutability": "view",
      "type": "function"
    },
    {
      "constant": false,
      "inputs": [
        {
          "internalType": "address",
          "name": "to",
          "type": "address"
        },
        {
          "internalType": "uint256",
          "name": "tokenId",
          "type": "uint256"
        },
        {
          "internalType": "string",
          "name": "tokenURI",
          "type": "string"
        }
      ],
      "name": "mintWithTokenURI",
      "outputs": [
        {
          "internalType": "bool",
          "name": "",
          "type": "bool"
        }
      ],
      "payable": false,
      "stateMutability": "nonpayable",
      "type": "function"
    },
    {
      "constant": true,
      "inputs": [],
      "name": "name",
      "outputs": [
        {
          "internalType": "string",
          "name": "",
          "type": "string"
        }
      ],
      "payable": false,
      "stateMutability": "view",
      "type": "function"
    },
    {
      "constant": true,
      "inputs": [],
      "name": "nftId",
      "outputs": [
        {
          "internalType": "uint256",
          "name": "",
          "type": "uint256"
        }
      ],
      "payable": false,
      "stateMutability": "view",
      "type": "function"
    },
    {
      "constant": true,
      "inputs": [
        {
          "internalType": "uint256",
          "name": "",
          "type": "uint256"
        }
      ],
      "name": "nftInformation",
      "outputs": [
        {
          "internalType": "uint256",
          "name": "eventId",
          "type": "uint256"
        },
        {
          "internalType": "address",
          "name": "owner",
          "type": "address"
        }
      ],
      "payable": false,
      "stateMutability": "view",
      "type": "function"
    },
    {
      "constant": true,
      "inputs": [
        {
          "internalType": "uint256",
          "name": "",
          "type": "uint256"
        }
      ],
      "name": "nftToEvent",
      "outputs": [
        {
          "internalType": "uint256",
          "name": "",
          "type": "uint256"
        }
      ],
      "payable": false,
      "stateMutability": "view",
      "type": "function"
    },
    {
      "constant": true,
      "inputs": [
        {
          "internalType": "uint256",
          "name": "tokenId",
          "type": "uint256"
        }
      ],
      "name": "ownerOf",
      "outputs": [
        {
          "internalType": "address",
          "name": "",
          "type": "address"
        }
      ],
      "payable": false,
      "stateMutability": "view",
      "type": "function"
    },
    {
      "constant": true,
      "inputs": [
        {
          "internalType": "address",
          "name": "",
          "type": "address"
        }
      ],
      "name": "ownerToEvent",
      "outputs": [
        {
          "internalType": "uint256",
          "name": "",
          "type": "uint256"
        }
      ],
      "payable": false,
      "stateMutability": "view",
      "type": "function"
    },
    {
      "constant": false,
      "inputs": [],
      "name": "renounceMinter",
      "outputs": [],
      "payable": false,
      "stateMutability": "nonpayable",
      "type": "function"
    },
    {
      "constant": false,
      "inputs": [
        {
          "internalType": "address",
          "name": "from",
          "type": "address"
        },
        {
          "internalType": "address",
          "name": "to",
          "type": "address"
        },
        {
          "internalType": "uint256",
          "name": "tokenId",
          "type": "uint256"
        }
      ],
      "name": "safeTransferFrom",
      "outputs": [],
      "payable": false,
      "stateMutability": "nonpayable",
      "type": "function"
    },
    {
      "constant": false,
      "inputs": [
        {
          "internalType": "address",
          "name": "from",
          "type": "address"
        },
        {
          "internalType": "address",
          "name": "to",
          "type": "address"
        },
        {
          "internalType": "uint256",
          "name": "tokenId",
          "type": "uint256"
        },
        {
          "internalType": "bytes",
          "name": "_data",
          "type": "bytes"
        }
      ],
      "name": "safeTransferFrom",
      "outputs": [],
      "payable": false,
      "stateMutability": "nonpayable",
      "type": "function"
    },
    {
      "constant": false,
      "inputs": [
        {
          "internalType": "address",
          "name": "to",
          "type": "address"
        },
        {
          "internalType": "bool",
          "name": "approved",
          "type": "bool"
        }
      ],
      "name": "setApprovalForAll",
      "outputs": [],
      "payable": false,
      "stateMutability": "nonpayable",
      "type": "function"
    },
    {
      "constant": true,
      "inputs": [
        {
          "internalType": "bytes4",
          "name": "interfaceId",
          "type": "bytes4"
        }
      ],
      "name": "supportsInterface",
      "outputs": [
        {
          "internalType": "bool",
          "name": "",
          "type": "bool"
        }
      ],
      "payable": false,
      "stateMutability": "view",
      "type": "function"
    },
    {
      "constant": true,
      "inputs": [],
      "name": "symbol",
      "outputs": [
        {
          "internalType": "string",
          "name": "",
          "type": "string"
        }
      ],
      "payable": false,
      "stateMutability": "view",
      "type": "function"
    },
    {
      "constant": true,
      "inputs": [
        {
          "internalType": "uint256",
          "name": "tokenId",
          "type": "uint256"
        }
      ],
      "name": "tokenURI",
      "outputs": [
        {
          "internalType": "string",
          "name": "",
          "type": "string"
        }
      ],
      "payable": false,
      "stateMutability": "view",
      "type": "function"
    },
    {
      "constant": false,
      "inputs": [
        {
          "internalType": "address",
          "name": "from",
          "type": "address"
        },
        {
          "internalType": "address",
          "name": "to",
          "type": "address"
        },
        {
          "internalType": "uint256",
          "name": "tokenId",
          "type": "uint256"
        }
      ],
      "name": "transferFrom",
      "outputs": [],
      "payable": false,
      "stateMutability": "nonpayable",
      "type": "function"
    },
    {
      "constant": false,
      "inputs": [
        {
          "internalType": "uint256",
          "name": "_priceEth",
          "type": "uint256"
        },
        {
          "internalType": "uint256",
          "name": "_priceDai",
          "type": "uint256"
        },
        {
          "internalType": "string",
          "name": "_metadata",
          "type": "string"
        },
        {
          "internalType": "string",
          "name": "_name",
          "type": "string"
        },
        {
          "internalType": "string",
          "name": "_description",
          "type": "string"
        },
        {
          "internalType": "uint256",
          "name": "noOfTickets",
          "type": "uint256"
        }
      ],
      "name": "createEvent",
      "outputs": [],
      "payable": false,
      "stateMutability": "nonpayable",
      "type": "function"
    },
    {
      "constant": false,
      "inputs": [
        {
          "internalType": "uint256",
          "name": "eventId",
          "type": "uint256"
        }
      ],
      "name": "turnEventOff",
      "outputs": [],
      "payable": false,
      "stateMutability": "nonpayable",
      "type": "function"
    },
    {
      "constant": false,
      "inputs": [
        {
          "internalType": "uint256",
          "name": "eventId",
          "type": "uint256"
        }
      ],
      "name": "buyTicketsEth",
      "outputs": [
        {
          "internalType": "uint256",
          "name": "tokenId",
          "type": "uint256"
        }
      ],
      "payable": true,
      "stateMutability": "payable",
      "type": "function"
    },
    {
      "constant": false,
      "inputs": [
        {
          "internalType": "uint256",
          "name": "eventId",
          "type": "uint256"
        }
      ],
      "name": "buyTicketsDAi",
      "outputs": [
        {
          "internalType": "uint256",
          "name": "tokenId",
          "type": "uint256"
        }
      ],
      "payable": false,
      "stateMutability": "nonpayable",
      "type": "function"
    },
    {
      "constant": false,
      "inputs": [
        {
          "internalType": "uint256",
          "name": "eventId",
          "type": "uint256"
        }
      ],
      "name": "checkIn",
      "outputs": [
        {
          "internalType": "bool",
          "name": "status",
          "type": "bool"
        }
      ],
      "payable": false,
      "stateMutability": "nonpayable",
      "type": "function"
    },
    {
      "constant": true,
      "inputs": [],
      "name": "UserProfile",
      "outputs": [
        {
          "internalType": "uint256[]",
          "name": "eventList",
          "type": "uint256[]"
        },
        {
          "internalType": "bool[]",
          "name": "statusList",
          "type": "bool[]"
        },
        {
          "internalType": "uint256[]",
          "name": "tokenList",
          "type": "uint256[]"
        }
      ],
      "payable": false,
      "stateMutability": "view",
      "type": "function"
    },
    {
      "constant": false,
      "inputs": [
        {
          "internalType": "uint256",
          "name": "eventId",
          "type": "uint256"
        }
      ],
      "name": "withdraw",
      "outputs": [],
      "payable": false,
      "stateMutability": "nonpayable",
      "type": "function"
    },
    {
      "constant": false,
      "inputs": [],
      "name": "daicheck",
      "outputs": [
        {
          "internalType": "uint256",
          "name": "bal",
          "type": "uint256"
        }
      ],
      "payable": false,
      "stateMutability": "nonpayable",
      "type": "function"
    },
    {
      "constant": true,
      "inputs": [],
      "name": "retEventCount",
      "outputs": [
        {
          "internalType": "uint256",
          "name": "",
          "type": "uint256"
        }
      ],
      "payable": false,
      "stateMutability": "view",
      "type": "function"
    },
    {
      "constant": false,
      "inputs": [],
      "name": "daicheck2",
      "outputs": [],
      "payable": false,
      "stateMutability": "nonpayable",
      "type": "function"
    }
  ],
  "bytecode": "0x6080604052734f96fe3b7a6cf9725f59d353f723c1bdb64ca6aa600960006101000a81548173ffffffffffffffffffffffffffffffffffffffff021916908373ffffffffffffffffffffffffffffffffffffffff1602179055503480156200006657600080fd5b506040518060400160405280600b81526020017f6576656e745469636b65740000000000000000000000000000000000000000008152506040518060400160405280600481526020017f4345465400000000000000000000000000000000000000000000000000000000815250620000eb6301ffc9a760e01b6200017560201b60201c565b620001036380ac58cd60e01b6200017560201b60201c565b81600590805190602001906200011b929190620004ab565b50806006908051906020019062000134929190620004ab565b506200014d635b5e139f60e01b6200017560201b60201c565b50506200016f620001636200027e60201b60201c565b6200028660201b60201c565b6200055a565b63ffffffff60e01b817bffffffffffffffffffffffffffffffffffffffffffffffffffffffff1916141562000212576040517f08c379a000000000000000000000000000000000000000000000000000000000815260040180806020018281038252601c8152602001807f4552433136353a20696e76616c696420696e746572666163652069640000000081525060200191505060405180910390fd5b6001600080837bffffffffffffffffffffffffffffffffffffffffffffffffffffffff19167bffffffffffffffffffffffffffffffffffffffffffffffffffffffff1916815260200190815260200160002060006101000a81548160ff02191690831515021790555050565b600033905090565b620002a1816008620002e760201b620049b51790919060201c565b8073ffffffffffffffffffffffffffffffffffffffff167f6ae172837ea30b801fbfcdd4108aa1d5bf8ff775444fd70256b44e6bf3dfc3f660405160405180910390a250565b620002f98282620003cb60201b60201c565b156200036d576040517f08c379a000000000000000000000000000000000000000000000000000000000815260040180806020018281038252601f8152602001807f526f6c65733a206163636f756e7420616c72656164792068617320726f6c650081525060200191505060405180910390fd5b60018260000160008373ffffffffffffffffffffffffffffffffffffffff1673ffffffffffffffffffffffffffffffffffffffff16815260200190815260200160002060006101000a81548160ff0219169083151502179055505050565b60008073ffffffffffffffffffffffffffffffffffffffff168273ffffffffffffffffffffffffffffffffffffffff16141562000454576040517f08c379a0000000000000000000000000000000000000000000000000000000008152600401808060200182810382526022815260200180620059a26022913960400191505060405180910390fd5b8260000160008373ffffffffffffffffffffffffffffffffffffffff1673ffffffffffffffffffffffffffffffffffffffff16815260200190815260200160002060009054906101000a900460ff16905092915050565b828054600181600116156101000203166002900490600052602060002090601f016020900481019282601f10620004ee57805160ff19168380011785556200051f565b828001600101855582156200051f579182015b828111156200051e57825182559160200191906001019062000501565b5b5090506200052e919062000532565b5090565b6200055791905b808211156200055357600081600090555060010162000539565b5090565b90565b615438806200056a6000396000f3fe6080604052600436106101ee5760003560e01c80637ec219d31161010d578063aa271e1a116100a0578063c6bc51821161006f578063c6bc518214611105578063c87b56dd14611130578063dccd42d3146111e4578063e95a644f14611233578063e985e9c514611286576101ee565b8063aa271e1a14610e29578063ace11fea14610e92578063b38d59a114610ef7578063b88d4fde14610ff3576101ee565b806398650275116100dc5780639865027514610d3b5780639bb1e2b614610d52578063a22cb46514610da1578063a6e2351a14610dfe576101ee565b80637ec219d314610bed5780639116e9a214610c1857806395d89b4114610c5a578063983b2d5614610cea576101ee565b806342842e0e116101855780636352211e116101545780636352211e146108ee57806370a082311461096957806371be2e4a146109ce5780637a5f9fb1146109f9576101ee565b806342842e0e1461071757806346978ca9146107925780634fb26560146107cd57806350bb4e7f146107e4576101ee565b806316b79639116101c157806316b79639146103cb57806323b872dd1461044d57806328094cd9146104c85780632e1a7d4d146106dc576101ee565b806301ffc9a7146101f357806306fdde0314610265578063081812fc146102f5578063095ea7b314610370575b600080fd5b3480156101ff57600080fd5b5061024b6004803603602081101561021657600080fd5b8101908080357bffffffffffffffffffffffffffffffffffffffffffffffffffffffff1916906020019092919050505061130f565b604051808215151515815260200191505060405180910390f35b34801561027157600080fd5b5061027a611376565b6040518080602001828103825283818151815260200191508051906020019080838360005b838110156102ba57808201518184015260208101905061029f565b50505050905090810190601f1680156102e75780820380516001836020036101000a031916815260200191505b509250505060405180910390f35b34801561030157600080fd5b5061032e6004803603602081101561031857600080fd5b8101908080359060200190929190505050611418565b604051808273ffffffffffffffffffffffffffffffffffffffff1673ffffffffffffffffffffffffffffffffffffffff16815260200191505060405180910390f35b34801561037c57600080fd5b506103c96004803603604081101561039357600080fd5b81019080803573ffffffffffffffffffffffffffffffffffffffff169060200190929190803590602001909291905050506114b3565b005b3480156103d757600080fd5b50610404600480360360208110156103ee57600080fd5b810190808035906020019092919050505061169a565b604051808381526020018273ffffffffffffffffffffffffffffffffffffffff1673ffffffffffffffffffffffffffffffffffffffff1681526020019250505060405180910390f35b34801561045957600080fd5b506104c66004803603606081101561047057600080fd5b81019080803573ffffffffffffffffffffffffffffffffffffffff169060200190929190803573ffffffffffffffffffffffffffffffffffffffff169060200190929190803590602001909291905050506116de565b005b3480156104d457600080fd5b506106da600480360360c08110156104eb57600080fd5b8101908080359060200190929190803590602001909291908035906020019064010000000081111561051c57600080fd5b82018360208201111561052e57600080fd5b8035906020019184600183028401116401000000008311171561055057600080fd5b91908080601f016020809104026020016040519081016040528093929190818152602001838380828437600081840152601f19601f820116905080830192505050505050509192919290803590602001906401000000008111156105b357600080fd5b8201836020820111156105c557600080fd5b803590602001918460018302840111640100000000831117156105e757600080fd5b91908080601f016020809104026020016040519081016040528093929190818152602001838380828437600081840152601f19601f8201169050808301925050505050505091929192908035906020019064010000000081111561064a57600080fd5b82018360208201111561065c57600080fd5b8035906020019184600183028401116401000000008311171561067e57600080fd5b91908080601f016020809104026020016040519081016040528093929190818152602001838380828437600081840152601f19601f82011690508083019250505050505050919291929080359060200190929190505050611754565b005b3480156106e857600080fd5b50610715600480360360208110156106ff57600080fd5b81019080803590602001909291905050506119e5565b005b34801561072357600080fd5b506107906004803603606081101561073a57600080fd5b81019080803573ffffffffffffffffffffffffffffffffffffffff169060200190929190803573ffffffffffffffffffffffffffffffffffffffff16906020019092919080359060200190929190505050611c4d565b005b34801561079e57600080fd5b506107cb600480360360208110156107b557600080fd5b8101908080359060200190929190505050611c6d565b005b3480156107d957600080fd5b506107e2611d76565b005b3480156107f057600080fd5b506108d46004803603606081101561080757600080fd5b81019080803573ffffffffffffffffffffffffffffffffffffffff169060200190929190803590602001909291908035906020019064010000000081111561084e57600080fd5b82018360208201111561086057600080fd5b8035906020019184600183028401116401000000008311171561088257600080fd5b91908080601f016020809104026020016040519081016040528093929190818152602001838380828437600081840152601f19601f820116905080830192505050505050509192919290505050611e9f565b604051808215151515815260200191505060405180910390f35b3480156108fa57600080fd5b506109276004803603602081101561091157600080fd5b8101908080359060200190929190505050611f25565b604051808273ffffffffffffffffffffffffffffffffffffffff1673ffffffffffffffffffffffffffffffffffffffff16815260200191505060405180910390f35b34801561097557600080fd5b506109b86004803603602081101561098c57600080fd5b81019080803573ffffffffffffffffffffffffffffffffffffffff169060200190929190505050611fed565b6040518082815260200191505060405180910390f35b3480156109da57600080fd5b506109e36120c2565b6040518082815260200191505060405180910390f35b348015610a0557600080fd5b50610a3260048036036020811015610a1c57600080fd5b81019080803590602001909291905050506120c8565b604051808c81526020018b81526020018a73ffffffffffffffffffffffffffffffffffffffff1673ffffffffffffffffffffffffffffffffffffffff1681526020018060200180602001891515151581526020018881526020018781526020018681526020018060200185815260200184810384528c818151815260200191508051906020019080838360005b83811015610ada578082015181840152602081019050610abf565b50505050905090810190601f168015610b075780820380516001836020036101000a031916815260200191505b5084810383528b818151815260200191508051906020019080838360005b83811015610b40578082015181840152602081019050610b25565b50505050905090810190601f168015610b6d5780820380516001836020036101000a031916815260200191505b50848103825286818151815260200191508051906020019080838360005b83811015610ba6578082015181840152602081019050610b8b565b50505050905090810190601f168015610bd35780820380516001836020036101000a031916815260200191505b509e50505050505050505050505050505060405180910390f35b348015610bf957600080fd5b50610c02612317565b6040518082815260200191505060405180910390f35b610c4460048036036020811015610c2e57600080fd5b81019080803590602001909291905050506124df565b6040518082815260200191505060405180910390f35b348015610c6657600080fd5b50610c6f612b9c565b6040518080602001828103825283818151815260200191508051906020019080838360005b83811015610caf578082015181840152602081019050610c94565b50505050905090810190601f168015610cdc5780820380516001836020036101000a031916815260200191505b509250505060405180910390f35b348015610cf657600080fd5b50610d3960048036036020811015610d0d57600080fd5b81019080803573ffffffffffffffffffffffffffffffffffffffff169060200190929190505050612c3e565b005b348015610d4757600080fd5b50610d50612caf565b005b348015610d5e57600080fd5b50610d8b60048036036020811015610d7557600080fd5b8101908080359060200190929190505050612cc1565b6040518082815260200191505060405180910390f35b348015610dad57600080fd5b50610dfc60048036036040811015610dc457600080fd5b81019080803573ffffffffffffffffffffffffffffffffffffffff169060200190929190803515159060200190929190505050613697565b005b348015610e0a57600080fd5b50610e1361384f565b6040518082815260200191505060405180910390f35b348015610e3557600080fd5b50610e7860048036036020811015610e4c57600080fd5b81019080803573ffffffffffffffffffffffffffffffffffffffff169060200190929190505050613859565b604051808215151515815260200191505060405180910390f35b348015610e9e57600080fd5b50610ee160048036036020811015610eb557600080fd5b81019080803573ffffffffffffffffffffffffffffffffffffffff169060200190929190505050613876565b6040518082815260200191505060405180910390f35b348015610f0357600080fd5b50610f0c61388e565b60405180806020018060200180602001848103845287818151815260200191508051906020019060200280838360005b83811015610f57578082015181840152602081019050610f3c565b50505050905001848103835286818151815260200191508051906020019060200280838360005b83811015610f99578082015181840152602081019050610f7e565b50505050905001848103825285818151815260200191508051906020019060200280838360005b83811015610fdb578082015181840152602081019050610fc0565b50505050905001965050505050505060405180910390f35b348015610fff57600080fd5b506111036004803603608081101561101657600080fd5b81019080803573ffffffffffffffffffffffffffffffffffffffff169060200190929190803573ffffffffffffffffffffffffffffffffffffffff169060200190929190803590602001909291908035906020019064010000000081111561107d57600080fd5b82018360208201111561108f57600080fd5b803590602001918460018302840111640100000000831117156110b157600080fd5b91908080601f016020809104026020016040519081016040528093929190818152602001838380828437600081840152601f19601f820116905080830192505050505050509192919290505050613b6c565b005b34801561111157600080fd5b5061111a613be4565b6040518082815260200191505060405180910390f35b34801561113c57600080fd5b506111696004803603602081101561115357600080fd5b8101908080359060200190929190505050613bea565b6040518080602001828103825283818151815260200191508051906020019080838360005b838110156111a957808201518184015260208101905061118e565b50505050905090810190601f1680156111d65780820380516001836020036101000a031916815260200191505b509250505060405180910390f35b3480156111f057600080fd5b5061121d6004803603602081101561120757600080fd5b8101908080359060200190929190505050613cfd565b6040518082815260200191505060405180910390f35b34801561123f57600080fd5b5061126c6004803603602081101561125657600080fd5b8101908080359060200190929190505050613d15565b604051808215151515815260200191505060405180910390f35b34801561129257600080fd5b506112f5600480360360408110156112a957600080fd5b81019080803573ffffffffffffffffffffffffffffffffffffffff169060200190929190803573ffffffffffffffffffffffffffffffffffffffff169060200190929190505050613fad565b604051808215151515815260200191505060405180910390f35b6000806000837bffffffffffffffffffffffffffffffffffffffffffffffffffffffff19167bffffffffffffffffffffffffffffffffffffffffffffffffffffffff1916815260200190815260200160002060009054906101000a900460ff169050919050565b606060058054600181600116156101000203166002900480601f01602080910402602001604051908101604052809291908181526020018280546001816001161561010002031660029004801561140e5780601f106113e35761010080835404028352916020019161140e565b820191906000526020600020905b8154815290600101906020018083116113f157829003601f168201915b5050505050905090565b600061142382614041565b611478576040517f08c379a000000000000000000000000000000000000000000000000000000000815260040180806020018281038252602c8152602001806152e0602c913960400191505060405180910390fd5b6002600083815260200190815260200160002060009054906101000a900473ffffffffffffffffffffffffffffffffffffffff169050919050565b60006114be82611f25565b90508073ffffffffffffffffffffffffffffffffffffffff168373ffffffffffffffffffffffffffffffffffffffff161415611545576040517f08c379a00000000000000000000000000000000000000000000000000000000081526004018080602001828103825260218152602001806153b26021913960400191505060405180910390fd5b8073ffffffffffffffffffffffffffffffffffffffff166115646140b3565b73ffffffffffffffffffffffffffffffffffffffff16148061159357506115928161158d6140b3565b613fad565b5b6115e8576040517f08c379a00000000000000000000000000000000000000000000000000000000081526004018080602001828103825260388152602001806152046038913960400191505060405180910390fd5b826002600084815260200190815260200160002060006101000a81548173ffffffffffffffffffffffffffffffffffffffff021916908373ffffffffffffffffffffffffffffffffffffffff160217905550818373ffffffffffffffffffffffffffffffffffffffff168273ffffffffffffffffffffffffffffffffffffffff167f8c5be1e5ebec7d5bd14f71427d1e84f3dd0314c0f7b2291e5b200ac8c7c3b92560405160405180910390a4505050565b600d6020528060005260406000206000915090508060000154908060010160009054906101000a900473ffffffffffffffffffffffffffffffffffffffff16905082565b6116ef6116e96140b3565b826140bb565b611744576040517f08c379a00000000000000000000000000000000000000000000000000000000081526004018080602001828103825260318152602001806153d36031913960400191505060405180910390fd5b61174f8383836141af565b505050565b61175c614e92565b604051806101a001604052808881526020018781526020013373ffffffffffffffffffffffffffffffffffffffff168152602001868152602001858152602001836040519080825280602002602001820160405280156117cb5781602001602082028038833980820191505090505b508152602001836040519080825280602002602001820160405280156118005781602001602082028038833980820191505090505b508152602001600115158152602001600081526020016000815260200160008152602001848152602001600e548152509050600e54600a60003373ffffffffffffffffffffffffffffffffffffffff1673ffffffffffffffffffffffffffffffffffffffff1681526020019081526020016000208190555080600f6000600e548152602001908152602001600020600082015181600001556020820151816001015560408201518160020160006101000a81548173ffffffffffffffffffffffffffffffffffffffff021916908373ffffffffffffffffffffffffffffffffffffffff1602179055506060820151816003019080519060200190611905929190614f12565b506080820151816004019080519060200190611922929190614f12565b5060a082015181600501908051906020019061193f929190614f92565b5060c082015181600701908051906020019061195c929190614fdf565b5060e08201518160080160006101000a81548160ff021916908315150217905550610100820151816009015561012082015181600a015561014082015181600b015561016082015181600c0190805190602001906119bb929190614f12565b5061018082015181600d0155905050600e6000815480929190600101919050555050505050505050565b3373ffffffffffffffffffffffffffffffffffffffff16600f600083815260200190815260200160002060020160009054906101000a900473ffffffffffffffffffffffffffffffffffffffff1673ffffffffffffffffffffffffffffffffffffffff1614611abc576040517f08c379a00000000000000000000000000000000000000000000000000000000081526004018080602001828103825260158152602001807f596f7520617265206e6f7420746865206f776e6572000000000000000000000081525060200191505060405180910390fd5b3373ffffffffffffffffffffffffffffffffffffffff166108fc600f6000848152602001908152602001600020600901549081150290604051600060405180830381858888f19350505050158015611b18573d6000803e3d6000fd5b50600960009054906101000a900473ffffffffffffffffffffffffffffffffffffffff1673ffffffffffffffffffffffffffffffffffffffff1663a9059cbb600f600084815260200190815260200160002060020160009054906101000a900473ffffffffffffffffffffffffffffffffffffffff16600f6000858152602001908152602001600020600a01546040518363ffffffff1660e01b8152600401808373ffffffffffffffffffffffffffffffffffffffff1673ffffffffffffffffffffffffffffffffffffffff16815260200182815260200192505050602060405180830381600087803b158015611c0e57600080fd5b505af1158015611c22573d6000803e3d6000fd5b505050506040513d6020811015611c3857600080fd5b81019080805190602001909291905050505050565b611c6883838360405180602001604052806000815250613b6c565b505050565b3373ffffffffffffffffffffffffffffffffffffffff16600f600083815260200190815260200160002060020160009054906101000a900473ffffffffffffffffffffffffffffffffffffffff1673ffffffffffffffffffffffffffffffffffffffff1614611d44576040517f08c379a000000000000000000000000000000000000000000000000000000000815260040180806020018281038252601b8152602001807f796f752063616e742063616c6c20746869732066756e6374696f6e000000000081525060200191505060405180910390fd5b6000600f600083815260200190815260200160002060080160006101000a81548160ff02191690831515021790555050565b60003390506000600960009054906101000a900473ffffffffffffffffffffffffffffffffffffffff1690508073ffffffffffffffffffffffffffffffffffffffff166323b872dd33306103e86040518463ffffffff1660e01b8152600401808473ffffffffffffffffffffffffffffffffffffffff1673ffffffffffffffffffffffffffffffffffffffff1681526020018373ffffffffffffffffffffffffffffffffffffffff1673ffffffffffffffffffffffffffffffffffffffff1681526020018281526020019350505050602060405180830381600087803b158015611e5f57600080fd5b505af1158015611e73573d6000803e3d6000fd5b505050506040513d6020811015611e8957600080fd5b8101908080519060200190929190505050505050565b6000611eb1611eac6140b3565b613859565b611f06576040517f08c379a000000000000000000000000000000000000000000000000000000000815260040180806020018281038252603081526020018061528f6030913960400191505060405180910390fd5b611f10848461440a565b611f1a8383614622565b600190509392505050565b6000806001600084815260200190815260200160002060009054906101000a900473ffffffffffffffffffffffffffffffffffffffff169050600073ffffffffffffffffffffffffffffffffffffffff168173ffffffffffffffffffffffffffffffffffffffff161415611fe4576040517f08c379a00000000000000000000000000000000000000000000000000000000081526004018080602001828103825260298152602001806152666029913960400191505060405180910390fd5b80915050919050565b60008073ffffffffffffffffffffffffffffffffffffffff168273ffffffffffffffffffffffffffffffffffffffff161415612074576040517f08c379a000000000000000000000000000000000000000000000000000000000815260040180806020018281038252602a81526020018061523c602a913960400191505060405180910390fd5b6120bb600360008473ffffffffffffffffffffffffffffffffffffffff1673ffffffffffffffffffffffffffffffffffffffff1681526020019081526020016000206146ac565b9050919050565b600e5481565b600f6020528060005260406000206000915090508060000154908060010154908060020160009054906101000a900473ffffffffffffffffffffffffffffffffffffffff1690806003018054600181600116156101000203166002900480601f0160208091040260200160405190810160405280929190818152602001828054600181600116156101000203166002900480156121a65780601f1061217b576101008083540402835291602001916121a6565b820191906000526020600020905b81548152906001019060200180831161218957829003601f168201915b505050505090806004018054600181600116156101000203166002900480601f0160208091040260200160405190810160405280929190818152602001828054600181600116156101000203166002900480156122445780601f1061221957610100808354040283529160200191612244565b820191906000526020600020905b81548152906001019060200180831161222757829003601f168201915b5050505050908060080160009054906101000a900460ff169080600901549080600a01549080600b01549080600c018054600181600116156101000203166002900480601f0160208091040260200160405190810160405280929190818152602001828054600181600116156101000203166002900480156123075780601f106122dc57610100808354040283529160200191612307565b820191906000526020600020905b8154815290600101906020018083116122ea57829003601f168201915b50505050509080600d015490508b565b6000600960009054906101000a900473ffffffffffffffffffffffffffffffffffffffff1673ffffffffffffffffffffffffffffffffffffffff166370a08231336040518263ffffffff1660e01b8152600401808273ffffffffffffffffffffffffffffffffffffffff1673ffffffffffffffffffffffffffffffffffffffff16815260200191505060206040518083038186803b1580156123b857600080fd5b505afa1580156123cc573d6000803e3d6000fd5b505050506040513d60208110156123e257600080fd5b81019080805190602001909291905050509050600960009054906101000a900473ffffffffffffffffffffffffffffffffffffffff1673ffffffffffffffffffffffffffffffffffffffff1663095ea7b3306103e86040518363ffffffff1660e01b8152600401808373ffffffffffffffffffffffffffffffffffffffff1673ffffffffffffffffffffffffffffffffffffffff16815260200182815260200192505050602060405180830381600087803b1580156124a057600080fd5b505af11580156124b4573d6000803e3d6000fd5b505050506040513d60208110156124ca57600080fd5b81019080805190602001909291905050505090565b6000600f600083815260200190815260200160002060070180549050600f6000848152602001908152602001600020600b015410612585576040517f08c379a00000000000000000000000000000000000000000000000000000000081526004018080602001828103825260108152602001807f416c6c207469636b65747320736f6c640000000000000000000000000000000081525060200191505060405180910390fd5b600f600083815260200190815260200160002060000154341015612611576040517f08c379a00000000000000000000000000000000000000000000000000000000081526004018080602001828103825260178152602001807f496e73756666696369656e742076616c75652073656e6400000000000000000081525060200191505060405180910390fd5b60011515600f600084815260200190815260200160002060080160009054906101000a900460ff161515146126ae576040517f08c379a000000000000000000000000000000000000000000000000000000000815260040180806020018281038252601b8152602001807f4576656e74206e6f7420617661696c61626c6520616e796d6f7265000000000081525060200191505060405180910390fd5b60001515600f600084815260200190815260200160002060060160003373ffffffffffffffffffffffffffffffffffffffff1673ffffffffffffffffffffffffffffffffffffffff16815260200190815260200160002060009054906101000a900460ff1615151461276b576040517f08c379a00000000000000000000000000000000000000000000000000000000081526004018080602001828103825260308152602001806151526030913960400191505060405180910390fd5b6000600f6000848152602001908152602001600020600b0154905081600f600085815260200190815260200160002060050182815481106127a857fe5b90600052602060002001819055506001600f600085815260200190815260200160002060060160003373ffffffffffffffffffffffffffffffffffffffff1673ffffffffffffffffffffffffffffffffffffffff16815260200190815260200160002060006101000a81548160ff02191690831515021790555033600f6000858152602001908152602001600020600701828154811061284457fe5b9060005260206000200160006101000a81548173ffffffffffffffffffffffffffffffffffffffff021916908373ffffffffffffffffffffffffffffffffffffffff16021790555034600f60008581526020019081526020016000206009015401600f600085815260200190815260200160002060090181905550600f6000848152602001908152602001600020600b01600081548092919060010191905055506128f133600b5461440a565b6129ab600b54600f60008681526020019081526020016000206003018054600181600116156101000203166002900480601f0160208091040260200160405190810160405280929190818152602001828054600181600116156101000203166002900480156129a15780601f10612976576101008083540402835291602001916129a1565b820191906000526020600020905b81548152906001019060200180831161298457829003601f168201915b5050505050614622565b82600c6000600b5481526020019081526020016000208190555082600d6000600b5481526020019081526020016000206000018190555033600d6000600b54815260200190815260200160002060010160006101000a81548173ffffffffffffffffffffffffffffffffffffffff021916908373ffffffffffffffffffffffffffffffffffffffff160217905550601060003373ffffffffffffffffffffffffffffffffffffffff1673ffffffffffffffffffffffffffffffffffffffff168152602001908152602001600020600001600b549080600181540180825580915050906001820390600052602060002001600090919290919091505550601060003373ffffffffffffffffffffffffffffffffffffffff1673ffffffffffffffffffffffffffffffffffffffff1681526020019081526020016000206001018390806001815401808255809150509060018203906000526020600020016000909192909190915055506001601060003373ffffffffffffffffffffffffffffffffffffffff1673ffffffffffffffffffffffffffffffffffffffff168152602001908152602001600020600301600085815260200190815260200160002060006101000a81548160ff021916908315150217905550600b60008154809291906001019190505550600b54915050919050565b606060068054600181600116156101000203166002900480601f016020809104026020016040519081016040528092919081815260200182805460018160011615610100020316600290048015612c345780601f10612c0957610100808354040283529160200191612c34565b820191906000526020600020905b815481529060010190602001808311612c1757829003601f168201915b5050505050905090565b612c4e612c496140b3565b613859565b612ca3576040517f08c379a000000000000000000000000000000000000000000000000000000000815260040180806020018281038252603081526020018061528f6030913960400191505060405180910390fd5b612cac816146ba565b50565b612cbf612cba6140b3565b614714565b565b6000600f600083815260200190815260200160002060070180549050600f6000848152602001908152602001600020600b015410612d67576040517f08c379a00000000000000000000000000000000000000000000000000000000081526004018080602001828103825260108152602001807f416c6c207469636b65747320736f6c640000000000000000000000000000000081525060200191505060405180910390fd5b600f600083815260200190815260200160002060010154600960009054906101000a900473ffffffffffffffffffffffffffffffffffffffff1673ffffffffffffffffffffffffffffffffffffffff166370a08231336040518263ffffffff1660e01b8152600401808273ffffffffffffffffffffffffffffffffffffffff1673ffffffffffffffffffffffffffffffffffffffff16815260200191505060206040518083038186803b158015612e1d57600080fd5b505afa158015612e31573d6000803e3d6000fd5b505050506040513d6020811015612e4757600080fd5b81019080805190602001909291905050501015612ecc576040517f08c379a00000000000000000000000000000000000000000000000000000000081526004018080602001828103825260178152602001807f496e73756666696369656e742076616c75652073656e6400000000000000000081525060200191505060405180910390fd5b60011515600f600084815260200190815260200160002060080160009054906101000a900460ff16151514612f69576040517f08c379a000000000000000000000000000000000000000000000000000000000815260040180806020018281038252601b8152602001807f4576656e74206e6f7420617661696c61626c6520616e796d6f7265000000000081525060200191505060405180910390fd5b60001515600f600084815260200190815260200160002060060160003373ffffffffffffffffffffffffffffffffffffffff1673ffffffffffffffffffffffffffffffffffffffff16815260200190815260200160002060009054906101000a900460ff16151514613026576040517f08c379a00000000000000000000000000000000000000000000000000000000081526004018080602001828103825260308152602001806151526030913960400191505060405180910390fd5b600960009054906101000a900473ffffffffffffffffffffffffffffffffffffffff1673ffffffffffffffffffffffffffffffffffffffff1663095ea7b330600f6000868152602001908152602001600020600101546040518363ffffffff1660e01b8152600401808373ffffffffffffffffffffffffffffffffffffffff1673ffffffffffffffffffffffffffffffffffffffff16815260200182815260200192505050602060405180830381600087803b1580156130e557600080fd5b505af11580156130f9573d6000803e3d6000fd5b505050506040513d602081101561310f57600080fd5b810190808051906020019092919050505050600960009054906101000a900473ffffffffffffffffffffffffffffffffffffffff1673ffffffffffffffffffffffffffffffffffffffff166323b872dd3330600f6000878152602001908152602001600020600101546040518463ffffffff1660e01b8152600401808473ffffffffffffffffffffffffffffffffffffffff1673ffffffffffffffffffffffffffffffffffffffff1681526020018373ffffffffffffffffffffffffffffffffffffffff1673ffffffffffffffffffffffffffffffffffffffff1681526020018281526020019350505050602060405180830381600087803b15801561321457600080fd5b505af1158015613228573d6000803e3d6000fd5b505050506040513d602081101561323e57600080fd5b8101908080519060200190929190505050506000600f6000848152602001908152602001600020600b0154905081600f6000858152602001908152602001600020600501828154811061328d57fe5b90600052602060002001819055506001600f600085815260200190815260200160002060060160003373ffffffffffffffffffffffffffffffffffffffff1673ffffffffffffffffffffffffffffffffffffffff16815260200190815260200160002060006101000a81548160ff02191690831515021790555033600f6000858152602001908152602001600020600701828154811061332957fe5b9060005260206000200160006101000a81548173ffffffffffffffffffffffffffffffffffffffff021916908373ffffffffffffffffffffffffffffffffffffffff160217905550600f600084815260200190815260200160002060010154600f6000858152602001908152602001600020600a015401600f6000858152602001908152602001600020600a0181905550600f6000848152602001908152602001600020600b01600081548092919060010191905055506133ec33600b5461440a565b6134a6600b54600f60008681526020019081526020016000206003018054600181600116156101000203166002900480601f01602080910402602001604051908101604052809291908181526020018280546001816001161561010002031660029004801561349c5780601f106134715761010080835404028352916020019161349c565b820191906000526020600020905b81548152906001019060200180831161347f57829003601f168201915b5050505050614622565b82600c6000600b5481526020019081526020016000208190555082600d6000600b5481526020019081526020016000206000018190555033600d6000600b54815260200190815260200160002060010160006101000a81548173ffffffffffffffffffffffffffffffffffffffff021916908373ffffffffffffffffffffffffffffffffffffffff160217905550601060003373ffffffffffffffffffffffffffffffffffffffff1673ffffffffffffffffffffffffffffffffffffffff168152602001908152602001600020600001600b549080600181540180825580915050906001820390600052602060002001600090919290919091505550601060003373ffffffffffffffffffffffffffffffffffffffff1673ffffffffffffffffffffffffffffffffffffffff1681526020019081526020016000206001018390806001815401808255809150509060018203906000526020600020016000909192909190915055506001601060003373ffffffffffffffffffffffffffffffffffffffff1673ffffffffffffffffffffffffffffffffffffffff168152602001908152602001600020600301600085815260200190815260200160002060006101000a81548160ff021916908315150217905550600b60008154809291906001019190505550600b54915050919050565b61369f6140b3565b73ffffffffffffffffffffffffffffffffffffffff168273ffffffffffffffffffffffffffffffffffffffff161415613740576040517f08c379a00000000000000000000000000000000000000000000000000000000081526004018080602001828103825260198152602001807f4552433732313a20617070726f766520746f2063616c6c65720000000000000081525060200191505060405180910390fd5b806004600061374d6140b3565b73ffffffffffffffffffffffffffffffffffffffff1673ffffffffffffffffffffffffffffffffffffffff16815260200190815260200160002060008473ffffffffffffffffffffffffffffffffffffffff1673ffffffffffffffffffffffffffffffffffffffff16815260200190815260200160002060006101000a81548160ff0219169083151502179055508173ffffffffffffffffffffffffffffffffffffffff166137fa6140b3565b73ffffffffffffffffffffffffffffffffffffffff167f17307eab39ab6107e8899845ad3d59bd9653f200f220920489ca2b5937696c3183604051808215151515815260200191505060405180910390a35050565b6000600e54905090565b600061386f82600861476e90919063ffffffff16565b9050919050565b600a6020528060005260406000206000915090505481565b6060806060601060003373ffffffffffffffffffffffffffffffffffffffff1673ffffffffffffffffffffffffffffffffffffffff16815260200190815260200160002060010180548060200260200160405190810160405280929190818152602001828054801561391f57602002820191906000526020600020905b81548152602001906001019080831161390b575b50505050509250601060003373ffffffffffffffffffffffffffffffffffffffff1673ffffffffffffffffffffffffffffffffffffffff1681526020019081526020016000206000018054806020026020016040519081016040528092919081815260200182805480156139b257602002820191906000526020600020905b81548152602001906001019080831161399e575b50505050509050601060003373ffffffffffffffffffffffffffffffffffffffff1673ffffffffffffffffffffffffffffffffffffffff16815260200190815260200160002060010180549050604051908082528060200260200182016040528015613a2d5781602001602082028038833980820191505090505b50915060008090505b601060003373ffffffffffffffffffffffffffffffffffffffff1673ffffffffffffffffffffffffffffffffffffffff16815260200190815260200160002060010180549050811015613b6657601060003373ffffffffffffffffffffffffffffffffffffffff1673ffffffffffffffffffffffffffffffffffffffff1681526020019081526020016000206003016000601060003373ffffffffffffffffffffffffffffffffffffffff1673ffffffffffffffffffffffffffffffffffffffff1681526020019081526020016000206001018381548110613b1457fe5b9060005260206000200154815260200190815260200160002060009054906101000a900460ff16838281518110613b4757fe5b6020026020010190151590811515815250508080600101915050613a36565b50909192565b613b7d613b776140b3565b836140bb565b613bd2576040517f08c379a00000000000000000000000000000000000000000000000000000000081526004018080602001828103825260318152602001806153d36031913960400191505060405180910390fd5b613bde8484848461484c565b50505050565b600b5481565b6060613bf582614041565b613c4a576040517f08c379a000000000000000000000000000000000000000000000000000000000815260040180806020018281038252602f815260200180615383602f913960400191505060405180910390fd5b600760008381526020019081526020016000208054600181600116156101000203166002900480601f016020809104026020016040519081016040528092919081815260200182805460018160011615610100020316600290048015613cf15780601f10613cc657610100808354040283529160200191613cf1565b820191906000526020600020905b815481529060010190602001808311613cd457829003601f168201915b50505050509050919050565b600c6020528060005260406000206000915090505481565b600060011515601060003373ffffffffffffffffffffffffffffffffffffffff1673ffffffffffffffffffffffffffffffffffffffff168152602001908152602001600020600301600084815260200190815260200160002060009054906101000a900460ff16151514613df1576040517f08c379a000000000000000000000000000000000000000000000000000000000815260040180806020018281038252601b8152602001807f596f75206861766520616c726561647920636865636b656420696e000000000081525060200191505060405180910390fd5b60011515601060003373ffffffffffffffffffffffffffffffffffffffff1673ffffffffffffffffffffffffffffffffffffffff168152602001908152602001600020600201600084815260200190815260200160002060009054906101000a900460ff1615151415613ecc576040517f08c379a000000000000000000000000000000000000000000000000000000000815260040180806020018281038252601a8152602001807f596f75206861766520616c726561647920636865636b6564496e00000000000081525060200191505060405180910390fd5b6001601060003373ffffffffffffffffffffffffffffffffffffffff1673ffffffffffffffffffffffffffffffffffffffff168152602001908152602001600020600201600084815260200190815260200160002060006101000a81548160ff0219169083151502179055506000601060003373ffffffffffffffffffffffffffffffffffffffff1673ffffffffffffffffffffffffffffffffffffffff168152602001908152602001600020600301600084815260200190815260200160002060006101000a81548160ff02191690831515021790555060019050919050565b6000600460008473ffffffffffffffffffffffffffffffffffffffff1673ffffffffffffffffffffffffffffffffffffffff16815260200190815260200160002060008373ffffffffffffffffffffffffffffffffffffffff1673ffffffffffffffffffffffffffffffffffffffff16815260200190815260200160002060009054906101000a900460ff16905092915050565b6000806001600084815260200190815260200160002060009054906101000a900473ffffffffffffffffffffffffffffffffffffffff169050600073ffffffffffffffffffffffffffffffffffffffff168173ffffffffffffffffffffffffffffffffffffffff161415915050919050565b600033905090565b60006140c682614041565b61411b576040517f08c379a000000000000000000000000000000000000000000000000000000000815260040180806020018281038252602c8152602001806151d8602c913960400191505060405180910390fd5b600061412683611f25565b90508073ffffffffffffffffffffffffffffffffffffffff168473ffffffffffffffffffffffffffffffffffffffff16148061419557508373ffffffffffffffffffffffffffffffffffffffff1661417d84611418565b73ffffffffffffffffffffffffffffffffffffffff16145b806141a657506141a58185613fad565b5b91505092915050565b8273ffffffffffffffffffffffffffffffffffffffff166141cf82611f25565b73ffffffffffffffffffffffffffffffffffffffff161461423b576040517f08c379a000000000000000000000000000000000000000000000000000000000815260040180806020018281038252602981526020018061535a6029913960400191505060405180910390fd5b600073ffffffffffffffffffffffffffffffffffffffff168273ffffffffffffffffffffffffffffffffffffffff1614156142c1576040517f08c379a00000000000000000000000000000000000000000000000000000000081526004018080602001828103825260248152602001806151b46024913960400191505060405180910390fd5b6142ca816148be565b614311600360008573ffffffffffffffffffffffffffffffffffffffff1673ffffffffffffffffffffffffffffffffffffffff16815260200190815260200160002061497c565b614358600360008473ffffffffffffffffffffffffffffffffffffffff1673ffffffffffffffffffffffffffffffffffffffff16815260200190815260200160002061499f565b816001600083815260200190815260200160002060006101000a81548173ffffffffffffffffffffffffffffffffffffffff021916908373ffffffffffffffffffffffffffffffffffffffff160217905550808273ffffffffffffffffffffffffffffffffffffffff168473ffffffffffffffffffffffffffffffffffffffff167fddf252ad1be2c89b69c2b068fc378daa952ba7f163c4a11628f55a4df523b3ef60405160405180910390a4505050565b600073ffffffffffffffffffffffffffffffffffffffff168273ffffffffffffffffffffffffffffffffffffffff1614156144ad576040517f08c379a00000000000000000000000000000000000000000000000000000000081526004018080602001828103825260208152602001807f4552433732313a206d696e7420746f20746865207a65726f206164647265737381525060200191505060405180910390fd5b6144b681614041565b15614529576040517f08c379a000000000000000000000000000000000000000000000000000000000815260040180806020018281038252601c8152602001807f4552433732313a20746f6b656e20616c7265616479206d696e7465640000000081525060200191505060405180910390fd5b816001600083815260200190815260200160002060006101000a81548173ffffffffffffffffffffffffffffffffffffffff021916908373ffffffffffffffffffffffffffffffffffffffff1602179055506145c2600360008473ffffffffffffffffffffffffffffffffffffffff1673ffffffffffffffffffffffffffffffffffffffff16815260200190815260200160002061499f565b808273ffffffffffffffffffffffffffffffffffffffff16600073ffffffffffffffffffffffffffffffffffffffff167fddf252ad1be2c89b69c2b068fc378daa952ba7f163c4a11628f55a4df523b3ef60405160405180910390a45050565b61462b82614041565b614680576040517f08c379a000000000000000000000000000000000000000000000000000000000815260040180806020018281038252602c81526020018061530c602c913960400191505060405180910390fd5b806007600084815260200190815260200160002090805190602001906146a7929190615069565b505050565b600081600001549050919050565b6146ce8160086149b590919063ffffffff16565b8073ffffffffffffffffffffffffffffffffffffffff167f6ae172837ea30b801fbfcdd4108aa1d5bf8ff775444fd70256b44e6bf3dfc3f660405160405180910390a250565b614728816008614a9090919063ffffffff16565b8073ffffffffffffffffffffffffffffffffffffffff167fe94479a9f7e1952cc78f2d6baab678adc1b772d936c6583def489e524cb6669260405160405180910390a250565b60008073ffffffffffffffffffffffffffffffffffffffff168273ffffffffffffffffffffffffffffffffffffffff1614156147f5576040517f08c379a00000000000000000000000000000000000000000000000000000000081526004018080602001828103825260228152602001806153386022913960400191505060405180910390fd5b8260000160008373ffffffffffffffffffffffffffffffffffffffff1673ffffffffffffffffffffffffffffffffffffffff16815260200190815260200160002060009054906101000a900460ff16905092915050565b6148578484846141af565b61486384848484614b4d565b6148b8576040517f08c379a00000000000000000000000000000000000000000000000000000000081526004018080602001828103825260328152602001806151826032913960400191505060405180910390fd5b50505050565b600073ffffffffffffffffffffffffffffffffffffffff166002600083815260200190815260200160002060009054906101000a900473ffffffffffffffffffffffffffffffffffffffff1673ffffffffffffffffffffffffffffffffffffffff16146149795760006002600083815260200190815260200160002060006101000a81548173ffffffffffffffffffffffffffffffffffffffff021916908373ffffffffffffffffffffffffffffffffffffffff1602179055505b50565b61499460018260000154614d3d90919063ffffffff16565b816000018190555050565b6001816000016000828254019250508190555050565b6149bf828261476e565b15614a32576040517f08c379a000000000000000000000000000000000000000000000000000000000815260040180806020018281038252601f8152602001807f526f6c65733a206163636f756e7420616c72656164792068617320726f6c650081525060200191505060405180910390fd5b60018260000160008373ffffffffffffffffffffffffffffffffffffffff1673ffffffffffffffffffffffffffffffffffffffff16815260200190815260200160002060006101000a81548160ff0219169083151502179055505050565b614a9a828261476e565b614aef576040517f08c379a00000000000000000000000000000000000000000000000000000000081526004018080602001828103825260218152602001806152bf6021913960400191505060405180910390fd5b60008260000160008373ffffffffffffffffffffffffffffffffffffffff1673ffffffffffffffffffffffffffffffffffffffff16815260200190815260200160002060006101000a81548160ff0219169083151502179055505050565b6000614b6e8473ffffffffffffffffffffffffffffffffffffffff16614d87565b614b7b5760019050614d35565b60008473ffffffffffffffffffffffffffffffffffffffff1663150b7a02614ba16140b3565b8887876040518563ffffffff1660e01b8152600401808573ffffffffffffffffffffffffffffffffffffffff1673ffffffffffffffffffffffffffffffffffffffff1681526020018473ffffffffffffffffffffffffffffffffffffffff1673ffffffffffffffffffffffffffffffffffffffff16815260200183815260200180602001828103825283818151815260200191508051906020019080838360005b83811015614c5d578082015181840152602081019050614c42565b50505050905090810190601f168015614c8a5780820380516001836020036101000a031916815260200191505b5095505050505050602060405180830381600087803b158015614cac57600080fd5b505af1158015614cc0573d6000803e3d6000fd5b505050506040513d6020811015614cd657600080fd5b8101908080519060200190929190505050905063150b7a0260e01b7bffffffffffffffffffffffffffffffffffffffffffffffffffffffff1916817bffffffffffffffffffffffffffffffffffffffffffffffffffffffff1916149150505b949350505050565b6000614d7f83836040518060400160405280601e81526020017f536166654d6174683a207375627472616374696f6e206f766572666c6f770000815250614dd2565b905092915050565b60008060007fc5d2460186f7233c927e7db2dcc703c0e500b653ca82273b7bfad8045d85a47060001b9050833f91506000801b8214158015614dc95750808214155b92505050919050565b6000838311158290614e7f576040517f08c379a00000000000000000000000000000000000000000000000000000000081526004018080602001828103825283818151815260200191508051906020019080838360005b83811015614e44578082015181840152602081019050614e29565b50505050905090810190601f168015614e715780820380516001836020036101000a031916815260200191505b509250505060405180910390fd5b5060008385039050809150509392505050565b604051806101a001604052806000815260200160008152602001600073ffffffffffffffffffffffffffffffffffffffff1681526020016060815260200160608152602001606081526020016060815260200160001515815260200160008152602001600081526020016000815260200160608152602001600081525090565b828054600181600116156101000203166002900490600052602060002090601f016020900481019282601f10614f5357805160ff1916838001178555614f81565b82800160010185558215614f81579182015b82811115614f80578251825591602001919060010190614f65565b5b509050614f8e91906150e9565b5090565b828054828255906000526020600020908101928215614fce579160200282015b82811115614fcd578251825591602001919060010190614fb2565b5b509050614fdb91906150e9565b5090565b828054828255906000526020600020908101928215615058579160200282015b828111156150575782518260006101000a81548173ffffffffffffffffffffffffffffffffffffffff021916908373ffffffffffffffffffffffffffffffffffffffff16021790555091602001919060010190614fff565b5b509050615065919061510e565b5090565b828054600181600116156101000203166002900490600052602060002090601f016020900481019282601f106150aa57805160ff19168380011785556150d8565b828001600101855582156150d8579182015b828111156150d75782518255916020019190600101906150bc565b5b5090506150e591906150e9565b5090565b61510b91905b808211156151075760008160009055506001016150ef565b5090565b90565b61514e91905b8082111561514a57600081816101000a81549073ffffffffffffffffffffffffffffffffffffffff021916905550600101615114565b5090565b9056fe5469636b657420686173206265656e20616c726561647920626f756768742077697468207468697320616464726573734552433732313a207472616e7366657220746f206e6f6e20455243373231526563656976657220696d706c656d656e7465724552433732313a207472616e7366657220746f20746865207a65726f20616464726573734552433732313a206f70657261746f7220717565727920666f72206e6f6e6578697374656e7420746f6b656e4552433732313a20617070726f76652063616c6c6572206973206e6f74206f776e6572206e6f7220617070726f76656420666f7220616c6c4552433732313a2062616c616e636520717565727920666f7220746865207a65726f20616464726573734552433732313a206f776e657220717565727920666f72206e6f6e6578697374656e7420746f6b656e4d696e746572526f6c653a2063616c6c657220646f6573206e6f74206861766520746865204d696e74657220726f6c65526f6c65733a206163636f756e7420646f6573206e6f74206861766520726f6c654552433732313a20617070726f76656420717565727920666f72206e6f6e6578697374656e7420746f6b656e4552433732314d657461646174613a2055524920736574206f66206e6f6e6578697374656e7420746f6b656e526f6c65733a206163636f756e7420697320746865207a65726f20616464726573734552433732313a207472616e73666572206f6620746f6b656e2074686174206973206e6f74206f776e4552433732314d657461646174613a2055524920717565727920666f72206e6f6e6578697374656e7420746f6b656e4552433732313a20617070726f76616c20746f2063757272656e74206f776e65724552433732313a207472616e736665722063616c6c6572206973206e6f74206f776e6572206e6f7220617070726f766564a265627a7a723158205e89fef43bbabfd4d351ba939e708fa8781a451d37f0eb72193519364a8fe86464736f6c634300050c0032526f6c65733a206163636f756e7420697320746865207a65726f2061646472657373",
  "source": "pragma solidity >=0.4.22 <0.6.0;\n\n\nimport \"@openzeppelin/contracts/token/ERC721/ERC721MetadataMintable.sol\";\ncontract TicketsOnChain is ERC721MetadataMintable {\n    address address_dai = 0x4F96Fe3b7A6Cf9725f59d353F723c1bDb64CA6Aa;\n     constructor() ERC721Metadata(\"eventTicket\",\"CEFT\") public{\n\n    } \n  struct Event{\n      uint priceInEth;\n      uint priceInDai;\n      address ownerAddress;\n      string metadata;\n      string name;\n      uint[] issuedTokens;\n      mapping(address => bool) issuedAddressCheck;\n      address[] issuedAddresses;\n      bool active;\n      uint eth;\n      uint dai;\n      uint ticketsIssued;\n      string description;\n      uint eventId;\n  }\n  struct NFT{\n    uint eventId;\n    address owner;\n  }\n  struct User{\n      uint[] owned;\n      uint[] events;\n      mapping(uint=>bool) checkedIn;\n      mapping(uint =>bool) notCheckedIn;\n  }\n  mapping (address => uint) public ownerToEvent;\n  uint public nftId;\n  mapping(uint=>uint) public nftToEvent;// this shows which event has is represented by this token, for back tracking\n  mapping(uint=>NFT) public nftInformation;// gives nft info \n  uint public eventCount;\n  mapping(uint => Event) public eventMapping;\n  mapping(address=>User)  userMapping;\n  function createEvent(uint _priceEth, uint _priceDai,string memory _metadata, string memory _name, string memory _description,uint noOfTickets)public {\n \n    Event memory obj = Event({\n        priceInEth:_priceEth,\n        priceInDai:_priceDai,\n        metadata:_metadata,\n        name:_name,\n        ownerAddress:msg.sender, \n        active:true,\n        issuedAddresses :new address[](noOfTickets),\n        issuedTokens : new uint[](noOfTickets),\n        dai:0,\n        eth:0,\n        ticketsIssued:0,\n        description :_description,\n        eventId:eventCount\n    });\n    ownerToEvent[msg.sender]=eventCount;\n    eventMapping[eventCount]=obj;\n    eventCount++;\n    \n  }\n  function turnEventOff(uint eventId) public  {\n      require(eventMapping[eventId].ownerAddress ==msg.sender,\"you cant call this function\");\n      eventMapping[eventId].active = false;\n  }\n  function buyTicketsEth(uint eventId) public payable   returns(uint tokenId){\n    require(eventMapping[eventId].ticketsIssued<eventMapping[eventId].issuedAddresses.length,\"All tickets sold\");\n    require(msg.value>=eventMapping[eventId].priceInEth,\"Insufficient value send\");\n    require(eventMapping[eventId].active ==true,\"Event not available anymore\");\n    require(eventMapping[eventId].issuedAddressCheck[msg.sender]==false,\"Ticket has been already bought with this address\");\n    uint  count = eventMapping[eventId].ticketsIssued;\n    eventMapping[eventId].issuedTokens[count]=tokenId;\n    eventMapping[eventId].issuedAddressCheck[msg.sender]= true;\n    eventMapping[eventId].issuedAddresses[count]= msg.sender;\n    eventMapping[eventId].eth=eventMapping[eventId].eth+msg.value;\n    eventMapping[eventId].ticketsIssued++;\n    _mint(msg.sender, nftId);\n    _setTokenURI(nftId, eventMapping[eventId].metadata);\n    nftToEvent[nftId]=eventId;\n    nftInformation[nftId].eventId=eventId;\n    nftInformation[nftId].owner= msg.sender;\n    userMapping[msg.sender].owned.push(nftId);\n    userMapping[msg.sender].events.push(eventId);\n    userMapping[msg.sender].notCheckedIn[eventId]= true;\n    nftId++;\n    tokenId = nftId;\n  }\n  function buyTicketsDAi(uint eventId) public returns(uint tokenId){\n    require(eventMapping[eventId].ticketsIssued<eventMapping[eventId].issuedAddresses.length,\"All tickets sold\");\n    require(ERC20(address_dai).balanceOf(msg.sender)>=eventMapping[eventId].priceInDai,\"Insufficient value send\");\n    require(eventMapping[eventId].active ==true,\"Event not available anymore\");\n    require(eventMapping[eventId].issuedAddressCheck[msg.sender]==false,\"Ticket has been already bought with this address\");\n    ERC20(address_dai).approve(address(this),eventMapping[eventId].priceInDai);\n    ERC20(address_dai).transferFrom(msg.sender, address(this),eventMapping[eventId].priceInDai);\n    \n    \n    uint  count = eventMapping[eventId].ticketsIssued;\n    eventMapping[eventId].issuedTokens[count]=tokenId;\n    eventMapping[eventId].issuedAddressCheck[msg.sender]= true;\n    eventMapping[eventId].issuedAddresses[count]= msg.sender;\n    //eventMapping[eventId].eth=eventMapping[eventId].eth+msg.value;\n    eventMapping[eventId].dai=eventMapping[eventId].dai+eventMapping[eventId].priceInDai;\n    eventMapping[eventId].ticketsIssued++;\n    _mint(msg.sender, nftId);\n    _setTokenURI(nftId, eventMapping[eventId].metadata);\n    nftToEvent[nftId]=eventId;\n    nftInformation[nftId].eventId=eventId;\n    nftInformation[nftId].owner= msg.sender;\n    userMapping[msg.sender].owned.push(nftId);\n    userMapping[msg.sender].events.push(eventId);\n    userMapping[msg.sender].notCheckedIn[eventId]= true;\n    nftId++;\n    tokenId = nftId;\n  }\n function checkIn(uint eventId)public returns(bool status){\n   //  require(eventMapping[eventId].ownerAddress==msg.sender,\"You are not authorized to do this\");\n     require(userMapping[msg.sender].notCheckedIn[eventId] == true,\"You have already checked in\");\n     require(userMapping[msg.sender].checkedIn[eventId] != true, \"You have already checkedIn\");\n     userMapping[msg.sender].checkedIn[eventId]= true;\n     userMapping[msg.sender].notCheckedIn[eventId]= false;\n     status = true;\n }\n function UserProfile() public view returns (uint[] memory eventList, bool[] memory statusList, uint[] memory tokenList){\n     eventList = userMapping[msg.sender].events;\n     tokenList = userMapping[msg.sender].owned;\n     statusList= new bool[](userMapping[msg.sender].events.length);\n     for(uint i=0; i<userMapping[msg.sender].events.length;i++){\n         statusList[i]=userMapping[msg.sender].notCheckedIn[userMapping[msg.sender].events[i]];\n    }\n    \n }\n function withdraw(uint eventId) public {\n     require(eventMapping[eventId].ownerAddress == msg.sender,\"You are not the owner\");\n     msg.sender.transfer(eventMapping[eventId].eth);\n     ERC20(address_dai).transfer(eventMapping[eventId].ownerAddress, eventMapping[eventId].dai);\n }\n function daicheck() public  returns(uint bal) {\n     bal = ERC20(address_dai).balanceOf(msg.sender);\n    ERC20(address_dai).approve(address(this),1000);\n    //ERC20(address_dai).transferFrom(msg.sender,address(this), 1000);\n\n }\n function retEventCount()public view returns (uint){\n   return eventCount;\n }\n  function daicheck2() public {\n    //  bal = ERC20(address_dai).balanceOf(msg.sender);\n    // ERC20(address_dai).approve(address(this),1000);\n    address ac= msg.sender;\n    ERC20 token =  ERC20(address_dai);\n    token.transferFrom(msg.sender,address(this),1000);\n\n }\n \n//refund\n//send momey to event creator\n}\n\ninterface ERC20 {\n    function balanceOf(address tokenOwner) external view returns (uint balance);\n   function transfer(address receiver, uint amount) external returns(bool);\n    function approve(address spender, uint256 value) external returns (bool);\n    function transferFrom(address _from, address _to, uint256 _value) external returns(bool);\n}\n",
  "sourcePath": "/media/abhimanyu/New Volume/ticket-system/contracts/TicketOnChain.sol",
  "compiler": {
    "name": "solc",
    "version": "0.5.12+commit.7709ece9.Emscripten.clang"
  },
  "schemaVersion": "3.0.19",
  "updatedAt": "2019-12-12T19:02:06.057Z",
  "networkType": "ethereum",
  "devdoc": {
    "methods": {
      "approve(address,uint256)": {
        "details": "Approves another address to transfer the given token ID The zero address indicates there is no approved address. There can only be one approved address per token at a given time. Can only be called by the token owner or an approved operator.",
        "params": {
          "to": "address to be approved for the given token ID",
          "tokenId": "uint256 ID of the token to be approved"
        }
      },
      "balanceOf(address)": {
        "details": "Gets the balance of the specified address.",
        "params": {
          "owner": "address to query the balance of"
        },
        "return": "uint256 representing the amount owned by the passed address"
      },
      "getApproved(uint256)": {
        "details": "Gets the approved address for a token ID, or zero if no address set Reverts if the token ID does not exist.",
        "params": {
          "tokenId": "uint256 ID of the token to query the approval of"
        },
        "return": "address currently approved for the given token ID"
      },
      "isApprovedForAll(address,address)": {
        "details": "Tells whether an operator is approved by a given owner.",
        "params": {
          "operator": "operator address which you want to query the approval of",
          "owner": "owner address which you want to query the approval of"
        },
        "return": "bool whether the given operator is approved by the given owner"
      },
      "mintWithTokenURI(address,uint256,string)": {
        "details": "Function to mint tokens.",
        "params": {
          "to": "The address that will receive the minted tokens.",
          "tokenId": "The token id to mint.",
          "tokenURI": "The token URI of the minted token."
        },
        "return": "A boolean that indicates if the operation was successful."
      },
      "name()": {
        "details": "Gets the token name.",
        "return": "string representing the token name"
      },
      "ownerOf(uint256)": {
        "details": "Gets the owner of the specified token ID.",
        "params": {
          "tokenId": "uint256 ID of the token to query the owner of"
        },
        "return": "address currently marked as the owner of the given token ID"
      },
      "safeTransferFrom(address,address,uint256)": {
        "details": "Safely transfers the ownership of a given token ID to another address If the target address is a contract, it must implement {IERC721Receiver-onERC721Received}, which is called upon a safe transfer, and return the magic value `bytes4(keccak256(\"onERC721Received(address,address,uint256,bytes)\"))`; otherwise, the transfer is reverted. Requires the msg.sender to be the owner, approved, or operator",
        "params": {
          "from": "current owner of the token",
          "to": "address to receive the ownership of the given token ID",
          "tokenId": "uint256 ID of the token to be transferred"
        }
      },
      "safeTransferFrom(address,address,uint256,bytes)": {
        "details": "Safely transfers the ownership of a given token ID to another address If the target address is a contract, it must implement {IERC721Receiver-onERC721Received}, which is called upon a safe transfer, and return the magic value `bytes4(keccak256(\"onERC721Received(address,address,uint256,bytes)\"))`; otherwise, the transfer is reverted. Requires the _msgSender() to be the owner, approved, or operator",
        "params": {
          "_data": "bytes data to send along with a safe transfer check",
          "from": "current owner of the token",
          "to": "address to receive the ownership of the given token ID",
          "tokenId": "uint256 ID of the token to be transferred"
        }
      },
      "setApprovalForAll(address,bool)": {
        "details": "Sets or unsets the approval of a given operator An operator is allowed to transfer all tokens of the sender on their behalf.",
        "params": {
          "approved": "representing the status of the approval to be set",
          "to": "operator address to set the approval"
        }
      },
      "supportsInterface(bytes4)": {
        "details": "See {IERC165-supportsInterface}.     * Time complexity O(1), guaranteed to always use less than 30 000 gas."
      },
      "symbol()": {
        "details": "Gets the token symbol.",
        "return": "string representing the token symbol"
      },
      "tokenURI(uint256)": {
        "details": "Returns an URI for a given token ID. Throws if the token ID does not exist. May return an empty string.",
        "params": {
          "tokenId": "uint256 ID of the token to query"
        }
      },
      "transferFrom(address,address,uint256)": {
        "details": "Transfers the ownership of a given token ID to another address. Usage of this method is discouraged, use {safeTransferFrom} whenever possible. Requires the msg.sender to be the owner, approved, or operator.",
        "params": {
          "from": "current owner of the token",
          "to": "address to receive the ownership of the given token ID",
          "tokenId": "uint256 ID of the token to be transferred"
        }
      }
    }
  },
  "userdoc": {
    "methods": {}
  }
}