{
  "contractName": "TicketsOnChain",
  "abi": [
    {
      "inputs": [],
      "payable": false,
      "stateMutability": "nonpayable",
      "type": "constructor"
    },
    {
      "anonymous": false,
      "inputs": [
        {
          "indexed": true,
          "internalType": "address",
          "name": "owner",
          "type": "address"
        },
        {
          "indexed": true,
          "internalType": "address",
          "name": "approved",
          "type": "address"
        },
        {
          "indexed": true,
          "internalType": "uint256",
          "name": "tokenId",
          "type": "uint256"
        }
      ],
      "name": "Approval",
      "type": "event"
    },
    {
      "anonymous": false,
      "inputs": [
        {
          "indexed": true,
          "internalType": "address",
          "name": "owner",
          "type": "address"
        },
        {
          "indexed": true,
          "internalType": "address",
          "name": "operator",
          "type": "address"
        },
        {
          "indexed": false,
          "internalType": "bool",
          "name": "approved",
          "type": "bool"
        }
      ],
      "name": "ApprovalForAll",
      "type": "event"
    },
    {
      "anonymous": false,
      "inputs": [
        {
          "indexed": true,
          "internalType": "address",
          "name": "account",
          "type": "address"
        }
      ],
      "name": "MinterAdded",
      "type": "event"
    },
    {
      "anonymous": false,
      "inputs": [
        {
          "indexed": true,
          "internalType": "address",
          "name": "account",
          "type": "address"
        }
      ],
      "name": "MinterRemoved",
      "type": "event"
    },
    {
      "anonymous": false,
      "inputs": [
        {
          "indexed": true,
          "internalType": "address",
          "name": "from",
          "type": "address"
        },
        {
          "indexed": true,
          "internalType": "address",
          "name": "to",
          "type": "address"
        },
        {
          "indexed": true,
          "internalType": "uint256",
          "name": "tokenId",
          "type": "uint256"
        }
      ],
      "name": "Transfer",
      "type": "event"
    },
    {
      "constant": false,
      "inputs": [
        {
          "internalType": "address",
          "name": "account",
          "type": "address"
        }
      ],
      "name": "addMinter",
      "outputs": [],
      "payable": false,
      "stateMutability": "nonpayable",
      "type": "function"
    },
    {
      "constant": false,
      "inputs": [
        {
          "internalType": "address",
          "name": "to",
          "type": "address"
        },
        {
          "internalType": "uint256",
          "name": "tokenId",
          "type": "uint256"
        }
      ],
      "name": "approve",
      "outputs": [],
      "payable": false,
      "stateMutability": "nonpayable",
      "type": "function"
    },
    {
      "constant": true,
      "inputs": [
        {
          "internalType": "address",
          "name": "owner",
          "type": "address"
        }
      ],
      "name": "balanceOf",
      "outputs": [
        {
          "internalType": "uint256",
          "name": "",
          "type": "uint256"
        }
      ],
      "payable": false,
      "stateMutability": "view",
      "type": "function"
    },
    {
      "constant": true,
      "inputs": [],
      "name": "eventCount",
      "outputs": [
        {
          "internalType": "uint256",
          "name": "",
          "type": "uint256"
        }
      ],
      "payable": false,
      "stateMutability": "view",
      "type": "function"
    },
    {
      "constant": true,
      "inputs": [
        {
          "internalType": "uint256",
          "name": "",
          "type": "uint256"
        }
      ],
      "name": "eventMapping",
      "outputs": [
        {
          "internalType": "uint256",
          "name": "priceInEth",
          "type": "uint256"
        },
        {
          "internalType": "uint256",
          "name": "priceInDai",
          "type": "uint256"
        },
        {
          "internalType": "address",
          "name": "ownerAddress",
          "type": "address"
        },
        {
          "internalType": "string",
          "name": "metadata",
          "type": "string"
        },
        {
          "internalType": "string",
          "name": "name",
          "type": "string"
        },
        {
          "internalType": "bool",
          "name": "active",
          "type": "bool"
        },
        {
          "internalType": "uint256",
          "name": "eth",
          "type": "uint256"
        },
        {
          "internalType": "uint256",
          "name": "dai",
          "type": "uint256"
        },
        {
          "internalType": "uint256",
          "name": "ticketsIssued",
          "type": "uint256"
        },
        {
          "internalType": "string",
          "name": "description",
          "type": "string"
        },
        {
          "internalType": "uint256",
          "name": "eventId",
          "type": "uint256"
        },
        {
          "internalType": "uint256",
          "name": "checkInCount",
          "type": "uint256"
        }
      ],
      "payable": false,
      "stateMutability": "view",
      "type": "function"
    },
    {
      "constant": true,
      "inputs": [
        {
          "internalType": "uint256",
          "name": "tokenId",
          "type": "uint256"
        }
      ],
      "name": "getApproved",
      "outputs": [
        {
          "internalType": "address",
          "name": "",
          "type": "address"
        }
      ],
      "payable": false,
      "stateMutability": "view",
      "type": "function"
    },
    {
      "constant": true,
      "inputs": [
        {
          "internalType": "address",
          "name": "owner",
          "type": "address"
        },
        {
          "internalType": "address",
          "name": "operator",
          "type": "address"
        }
      ],
      "name": "isApprovedForAll",
      "outputs": [
        {
          "internalType": "bool",
          "name": "",
          "type": "bool"
        }
      ],
      "payable": false,
      "stateMutability": "view",
      "type": "function"
    },
    {
      "constant": true,
      "inputs": [
        {
          "internalType": "address",
          "name": "account",
          "type": "address"
        }
      ],
      "name": "isMinter",
      "outputs": [
        {
          "internalType": "bool",
          "name": "",
          "type": "bool"
        }
      ],
      "payable": false,
      "stateMutability": "view",
      "type": "function"
    },
    {
      "constant": false,
      "inputs": [
        {
          "internalType": "address",
          "name": "to",
          "type": "address"
        },
        {
          "internalType": "uint256",
          "name": "tokenId",
          "type": "uint256"
        },
        {
          "internalType": "string",
          "name": "tokenURI",
          "type": "string"
        }
      ],
      "name": "mintWithTokenURI",
      "outputs": [
        {
          "internalType": "bool",
          "name": "",
          "type": "bool"
        }
      ],
      "payable": false,
      "stateMutability": "nonpayable",
      "type": "function"
    },
    {
      "constant": true,
      "inputs": [],
      "name": "name",
      "outputs": [
        {
          "internalType": "string",
          "name": "",
          "type": "string"
        }
      ],
      "payable": false,
      "stateMutability": "view",
      "type": "function"
    },
    {
      "constant": true,
      "inputs": [],
      "name": "nftId",
      "outputs": [
        {
          "internalType": "uint256",
          "name": "",
          "type": "uint256"
        }
      ],
      "payable": false,
      "stateMutability": "view",
      "type": "function"
    },
    {
      "constant": true,
      "inputs": [
        {
          "internalType": "uint256",
          "name": "",
          "type": "uint256"
        }
      ],
      "name": "nftInformation",
      "outputs": [
        {
          "internalType": "uint256",
          "name": "eventId",
          "type": "uint256"
        },
        {
          "internalType": "address",
          "name": "owner",
          "type": "address"
        }
      ],
      "payable": false,
      "stateMutability": "view",
      "type": "function"
    },
    {
      "constant": true,
      "inputs": [
        {
          "internalType": "uint256",
          "name": "",
          "type": "uint256"
        }
      ],
      "name": "nftToEvent",
      "outputs": [
        {
          "internalType": "uint256",
          "name": "",
          "type": "uint256"
        }
      ],
      "payable": false,
      "stateMutability": "view",
      "type": "function"
    },
    {
      "constant": true,
      "inputs": [
        {
          "internalType": "uint256",
          "name": "tokenId",
          "type": "uint256"
        }
      ],
      "name": "ownerOf",
      "outputs": [
        {
          "internalType": "address",
          "name": "",
          "type": "address"
        }
      ],
      "payable": false,
      "stateMutability": "view",
      "type": "function"
    },
    {
      "constant": true,
      "inputs": [
        {
          "internalType": "address",
          "name": "",
          "type": "address"
        }
      ],
      "name": "ownerToEvent",
      "outputs": [
        {
          "internalType": "uint256",
          "name": "",
          "type": "uint256"
        }
      ],
      "payable": false,
      "stateMutability": "view",
      "type": "function"
    },
    {
      "constant": false,
      "inputs": [],
      "name": "renounceMinter",
      "outputs": [],
      "payable": false,
      "stateMutability": "nonpayable",
      "type": "function"
    },
    {
      "constant": false,
      "inputs": [
        {
          "internalType": "address",
          "name": "from",
          "type": "address"
        },
        {
          "internalType": "address",
          "name": "to",
          "type": "address"
        },
        {
          "internalType": "uint256",
          "name": "tokenId",
          "type": "uint256"
        }
      ],
      "name": "safeTransferFrom",
      "outputs": [],
      "payable": false,
      "stateMutability": "nonpayable",
      "type": "function"
    },
    {
      "constant": false,
      "inputs": [
        {
          "internalType": "address",
          "name": "from",
          "type": "address"
        },
        {
          "internalType": "address",
          "name": "to",
          "type": "address"
        },
        {
          "internalType": "uint256",
          "name": "tokenId",
          "type": "uint256"
        },
        {
          "internalType": "bytes",
          "name": "_data",
          "type": "bytes"
        }
      ],
      "name": "safeTransferFrom",
      "outputs": [],
      "payable": false,
      "stateMutability": "nonpayable",
      "type": "function"
    },
    {
      "constant": false,
      "inputs": [
        {
          "internalType": "address",
          "name": "to",
          "type": "address"
        },
        {
          "internalType": "bool",
          "name": "approved",
          "type": "bool"
        }
      ],
      "name": "setApprovalForAll",
      "outputs": [],
      "payable": false,
      "stateMutability": "nonpayable",
      "type": "function"
    },
    {
      "constant": true,
      "inputs": [
        {
          "internalType": "bytes4",
          "name": "interfaceId",
          "type": "bytes4"
        }
      ],
      "name": "supportsInterface",
      "outputs": [
        {
          "internalType": "bool",
          "name": "",
          "type": "bool"
        }
      ],
      "payable": false,
      "stateMutability": "view",
      "type": "function"
    },
    {
      "constant": true,
      "inputs": [],
      "name": "symbol",
      "outputs": [
        {
          "internalType": "string",
          "name": "",
          "type": "string"
        }
      ],
      "payable": false,
      "stateMutability": "view",
      "type": "function"
    },
    {
      "constant": true,
      "inputs": [
        {
          "internalType": "uint256",
          "name": "tokenId",
          "type": "uint256"
        }
      ],
      "name": "tokenURI",
      "outputs": [
        {
          "internalType": "string",
          "name": "",
          "type": "string"
        }
      ],
      "payable": false,
      "stateMutability": "view",
      "type": "function"
    },
    {
      "constant": false,
      "inputs": [
        {
          "internalType": "address",
          "name": "from",
          "type": "address"
        },
        {
          "internalType": "address",
          "name": "to",
          "type": "address"
        },
        {
          "internalType": "uint256",
          "name": "tokenId",
          "type": "uint256"
        }
      ],
      "name": "transferFrom",
      "outputs": [],
      "payable": false,
      "stateMutability": "nonpayable",
      "type": "function"
    },
    {
      "constant": false,
      "inputs": [],
      "name": "switchContractWorking",
      "outputs": [],
      "payable": false,
      "stateMutability": "nonpayable",
      "type": "function"
    },
    {
      "constant": false,
      "inputs": [
        {
          "internalType": "uint256",
          "name": "_priceEth",
          "type": "uint256"
        },
        {
          "internalType": "uint256",
          "name": "_priceDai",
          "type": "uint256"
        },
        {
          "internalType": "string",
          "name": "_metadata",
          "type": "string"
        },
        {
          "internalType": "string",
          "name": "_name",
          "type": "string"
        },
        {
          "internalType": "string",
          "name": "_description",
          "type": "string"
        },
        {
          "internalType": "uint256",
          "name": "_noOfTickets",
          "type": "uint256"
        }
      ],
      "name": "createEvent",
      "outputs": [],
      "payable": false,
      "stateMutability": "nonpayable",
      "type": "function"
    },
    {
      "constant": false,
      "inputs": [
        {
          "internalType": "uint256",
          "name": "eventId",
          "type": "uint256"
        }
      ],
      "name": "turnEventOff",
      "outputs": [],
      "payable": false,
      "stateMutability": "nonpayable",
      "type": "function"
    },
    {
      "constant": true,
      "inputs": [
        {
          "internalType": "uint256",
          "name": "_id",
          "type": "uint256"
        }
      ],
      "name": "checkInList",
      "outputs": [
        {
          "internalType": "address[]",
          "name": "attendees",
          "type": "address[]"
        },
        {
          "internalType": "uint256",
          "name": "_totalTickets",
          "type": "uint256"
        },
        {
          "internalType": "string",
          "name": "name",
          "type": "string"
        },
        {
          "internalType": "uint256",
          "name": "totalCheckin",
          "type": "uint256"
        }
      ],
      "payable": false,
      "stateMutability": "view",
      "type": "function"
    },
    {
      "constant": false,
      "inputs": [
        {
          "internalType": "uint256",
          "name": "eventId",
          "type": "uint256"
        }
      ],
      "name": "buyTicketsEth",
      "outputs": [
        {
          "internalType": "uint256",
          "name": "tokenId",
          "type": "uint256"
        }
      ],
      "payable": true,
      "stateMutability": "payable",
      "type": "function"
    },
    {
      "constant": false,
      "inputs": [
        {
          "internalType": "uint256",
          "name": "eventId",
          "type": "uint256"
        }
      ],
      "name": "buyTicketsDAi",
      "outputs": [
        {
          "internalType": "uint256",
          "name": "tokenId",
          "type": "uint256"
        }
      ],
      "payable": false,
      "stateMutability": "nonpayable",
      "type": "function"
    },
    {
      "constant": true,
      "inputs": [
        {
          "internalType": "uint256",
          "name": "_id",
          "type": "uint256"
        }
      ],
      "name": "sales",
      "outputs": [
        {
          "internalType": "address[]",
          "name": "attendees",
          "type": "address[]"
        },
        {
          "internalType": "uint256",
          "name": "_totalTickets",
          "type": "uint256"
        },
        {
          "internalType": "string",
          "name": "name",
          "type": "string"
        },
        {
          "internalType": "uint256",
          "name": "totalCheckin",
          "type": "uint256"
        },
        {
          "internalType": "address[]",
          "name": "alltickets",
          "type": "address[]"
        }
      ],
      "payable": false,
      "stateMutability": "view",
      "type": "function"
    },
    {
      "constant": false,
      "inputs": [
        {
          "internalType": "uint256",
          "name": "eventId",
          "type": "uint256"
        }
      ],
      "name": "checkIn",
      "outputs": [
        {
          "internalType": "bool",
          "name": "status",
          "type": "bool"
        }
      ],
      "payable": false,
      "stateMutability": "nonpayable",
      "type": "function"
    },
    {
      "constant": true,
      "inputs": [],
      "name": "UserProfile",
      "outputs": [
        {
          "internalType": "uint256[]",
          "name": "eventHost",
          "type": "uint256[]"
        },
        {
          "internalType": "uint256[]",
          "name": "eventList",
          "type": "uint256[]"
        },
        {
          "internalType": "bool[]",
          "name": "statusList",
          "type": "bool[]"
        },
        {
          "internalType": "uint256[]",
          "name": "tokenList",
          "type": "uint256[]"
        }
      ],
      "payable": false,
      "stateMutability": "view",
      "type": "function"
    },
    {
      "constant": false,
      "inputs": [
        {
          "internalType": "uint256",
          "name": "eventId",
          "type": "uint256"
        }
      ],
      "name": "withdraw",
      "outputs": [],
      "payable": false,
      "stateMutability": "nonpayable",
      "type": "function"
    }
  ],
  "bytecode": "0x6080604052734f96fe3b7a6cf9725f59d353f723c1bdb64ca6aa600960006101000a81548173ffffffffffffffffffffffffffffffffffffffff021916908373ffffffffffffffffffffffffffffffffffffffff1602179055506000600a60146101000a81548160ff0219169083151502179055503480156200008157600080fd5b506040518060400160405280600b81526020017f6576656e745469636b65740000000000000000000000000000000000000000008152506040518060400160405280600481526020017f4345465400000000000000000000000000000000000000000000000000000000815250620001066301ffc9a760e01b620001d160201b60201c565b6200011e6380ac58cd60e01b620001d160201b60201c565b81600590805190602001906200013692919062000507565b5080600690805190602001906200014f92919062000507565b5062000168635b5e139f60e01b620001d160201b60201c565b50506200018a6200017e620002da60201b60201c565b620002e260201b60201c565b33600a60006101000a81548173ffffffffffffffffffffffffffffffffffffffff021916908373ffffffffffffffffffffffffffffffffffffffff160217905550620005b6565b63ffffffff60e01b817bffffffffffffffffffffffffffffffffffffffffffffffffffffffff191614156200026e576040517f08c379a000000000000000000000000000000000000000000000000000000000815260040180806020018281038252601c8152602001807f4552433136353a20696e76616c696420696e746572666163652069640000000081525060200191505060405180910390fd5b6001600080837bffffffffffffffffffffffffffffffffffffffffffffffffffffffff19167bffffffffffffffffffffffffffffffffffffffffffffffffffffffff1916815260200190815260200160002060006101000a81548160ff02191690831515021790555050565b600033905090565b620002fd8160086200034360201b620052561790919060201c565b8073ffffffffffffffffffffffffffffffffffffffff167f6ae172837ea30b801fbfcdd4108aa1d5bf8ff775444fd70256b44e6bf3dfc3f660405160405180910390a250565b6200035582826200042760201b60201c565b15620003c9576040517f08c379a000000000000000000000000000000000000000000000000000000000815260040180806020018281038252601f8152602001807f526f6c65733a206163636f756e7420616c72656164792068617320726f6c650081525060200191505060405180910390fd5b60018260000160008373ffffffffffffffffffffffffffffffffffffffff1673ffffffffffffffffffffffffffffffffffffffff16815260200190815260200160002060006101000a81548160ff0219169083151502179055505050565b60008073ffffffffffffffffffffffffffffffffffffffff168273ffffffffffffffffffffffffffffffffffffffff161415620004b0576040517f08c379a0000000000000000000000000000000000000000000000000000000008152600401808060200182810382526022815260200180620062596022913960400191505060405180910390fd5b8260000160008373ffffffffffffffffffffffffffffffffffffffff1673ffffffffffffffffffffffffffffffffffffffff16815260200190815260200160002060009054906101000a900460ff16905092915050565b828054600181600116156101000203166002900490600052602060002090601f016020900481019282601f106200054a57805160ff19168380011785556200057b565b828001600101855582156200057b579182015b828111156200057a5782518255916020019190600101906200055d565b5b5090506200058a91906200058e565b5090565b620005b391905b80821115620005af57600081600090555060010162000595565b5090565b90565b615c9380620005c66000396000f3fe6080604052600436106101ee5760003560e01c806395d89b411161010d578063b5f522f7116100a0578063d22e68181161006f578063d22e681814611318578063dccd42d314611422578063e95a644f14611471578063e985e9c5146114c4578063f7eee2f01461154d576101ee565b8063b5f522f714610fd5578063b88d4fde14611127578063c6bc518214611239578063c87b56dd14611264576101ee565b8063a22cb465116100dc578063a22cb46514610d66578063aa271e1a14610dc3578063ace11fea14610e2c578063b38d59a114610e91576101ee565b806395d89b4114610c1f578063983b2d5614610caf5780639865027514610d005780639bb1e2b614610d17576101ee565b806342842e0e1161018557806370a082311161015457806370a082311461095257806371be2e4a146109b75780637a5f9fb1146109e25780639116e9a214610bdd576101ee565b806342842e0e1461071757806346978ca91461079257806350bb4e7f146107cd5780636352211e146108d7576101ee565b806316b79639116101c157806316b79639146103cb57806323b872dd1461044d57806328094cd9146104c85780632e1a7d4d146106dc576101ee565b806301ffc9a7146101f357806306fdde0314610265578063081812fc146102f5578063095ea7b314610370575b600080fd5b3480156101ff57600080fd5b5061024b6004803603602081101561021657600080fd5b8101908080357bffffffffffffffffffffffffffffffffffffffffffffffffffffffff19169060200190929190505050611564565b604051808215151515815260200191505060405180910390f35b34801561027157600080fd5b5061027a6115cb565b6040518080602001828103825283818151815260200191508051906020019080838360005b838110156102ba57808201518184015260208101905061029f565b50505050905090810190601f1680156102e75780820380516001836020036101000a031916815260200191505b509250505060405180910390f35b34801561030157600080fd5b5061032e6004803603602081101561031857600080fd5b810190808035906020019092919050505061166d565b604051808273ffffffffffffffffffffffffffffffffffffffff1673ffffffffffffffffffffffffffffffffffffffff16815260200191505060405180910390f35b34801561037c57600080fd5b506103c96004803603604081101561039357600080fd5b81019080803573ffffffffffffffffffffffffffffffffffffffff16906020019092919080359060200190929190505050611708565b005b3480156103d757600080fd5b50610404600480360360208110156103ee57600080fd5b81019080803590602001909291905050506118ef565b604051808381526020018273ffffffffffffffffffffffffffffffffffffffff1673ffffffffffffffffffffffffffffffffffffffff1681526020019250505060405180910390f35b34801561045957600080fd5b506104c66004803603606081101561047057600080fd5b81019080803573ffffffffffffffffffffffffffffffffffffffff169060200190929190803573ffffffffffffffffffffffffffffffffffffffff16906020019092919080359060200190929190505050611933565b005b3480156104d457600080fd5b506106da600480360360c08110156104eb57600080fd5b8101908080359060200190929190803590602001909291908035906020019064010000000081111561051c57600080fd5b82018360208201111561052e57600080fd5b8035906020019184600183028401116401000000008311171561055057600080fd5b91908080601f016020809104026020016040519081016040528093929190818152602001838380828437600081840152601f19601f820116905080830192505050505050509192919290803590602001906401000000008111156105b357600080fd5b8201836020820111156105c557600080fd5b803590602001918460018302840111640100000000831117156105e757600080fd5b91908080601f016020809104026020016040519081016040528093929190818152602001838380828437600081840152601f19601f8201169050808301925050505050505091929192908035906020019064010000000081111561064a57600080fd5b82018360208201111561065c57600080fd5b8035906020019184600183028401116401000000008311171561067e57600080fd5b91908080601f016020809104026020016040519081016040528093929190818152602001838380828437600081840152601f19601f820116905080830192505050505050509192919290803590602001909291905050506119a9565b005b3480156106e857600080fd5b50610715600480360360208110156106ff57600080fd5b8101908080359060200190929190505050611d43565b005b34801561072357600080fd5b506107906004803603606081101561073a57600080fd5b81019080803573ffffffffffffffffffffffffffffffffffffffff169060200190929190803573ffffffffffffffffffffffffffffffffffffffff1690602001909291908035906020019092919050505061207a565b005b34801561079e57600080fd5b506107cb600480360360208110156107b557600080fd5b810190808035906020019092919050505061209a565b005b3480156107d957600080fd5b506108bd600480360360608110156107f057600080fd5b81019080803573ffffffffffffffffffffffffffffffffffffffff169060200190929190803590602001909291908035906020019064010000000081111561083757600080fd5b82018360208201111561084957600080fd5b8035906020019184600183028401116401000000008311171561086b57600080fd5b91908080601f016020809104026020016040519081016040528093929190818152602001838380828437600081840152601f19601f8201169050808301925050505050505091929192905050506121a5565b604051808215151515815260200191505060405180910390f35b3480156108e357600080fd5b50610910600480360360208110156108fa57600080fd5b810190808035906020019092919050505061222b565b604051808273ffffffffffffffffffffffffffffffffffffffff1673ffffffffffffffffffffffffffffffffffffffff16815260200191505060405180910390f35b34801561095e57600080fd5b506109a16004803603602081101561097557600080fd5b81019080803573ffffffffffffffffffffffffffffffffffffffff1690602001909291905050506122f3565b6040518082815260200191505060405180910390f35b3480156109c357600080fd5b506109cc6123c8565b6040518082815260200191505060405180910390f35b3480156109ee57600080fd5b50610a1b60048036036020811015610a0557600080fd5b81019080803590602001909291905050506123ce565b604051808d81526020018c81526020018b73ffffffffffffffffffffffffffffffffffffffff1673ffffffffffffffffffffffffffffffffffffffff16815260200180602001806020018a1515151581526020018981526020018881526020018781526020018060200186815260200185815260200184810384528d818151815260200191508051906020019080838360005b83811015610ac9578082015181840152602081019050610aae565b50505050905090810190601f168015610af65780820380516001836020036101000a031916815260200191505b5084810383528c818151815260200191508051906020019080838360005b83811015610b2f578082015181840152602081019050610b14565b50505050905090810190601f168015610b5c5780820380516001836020036101000a031916815260200191505b50848103825287818151815260200191508051906020019080838360005b83811015610b95578082015181840152602081019050610b7a565b50505050905090810190601f168015610bc25780820380516001836020036101000a031916815260200191505b509f5050505050505050505050505050505060405180910390f35b610c0960048036036020811015610bf357600080fd5b8101908080359060200190929190505050612623565b6040518082815260200191505060405180910390f35b348015610c2b57600080fd5b50610c34612d40565b6040518080602001828103825283818151815260200191508051906020019080838360005b83811015610c74578082015181840152602081019050610c59565b50505050905090810190601f168015610ca15780820380516001836020036101000a031916815260200191505b509250505060405180910390f35b348015610cbb57600080fd5b50610cfe60048036036020811015610cd257600080fd5b81019080803573ffffffffffffffffffffffffffffffffffffffff169060200190929190505050612de2565b005b348015610d0c57600080fd5b50610d15612e53565b005b348015610d2357600080fd5b50610d5060048036036020811015610d3a57600080fd5b8101908080359060200190929190505050612e65565b6040518082815260200191505060405180910390f35b348015610d7257600080fd5b50610dc160048036036040811015610d8957600080fd5b81019080803573ffffffffffffffffffffffffffffffffffffffff16906020019092919080351515906020019092919050505061389b565b005b348015610dcf57600080fd5b50610e1260048036036020811015610de657600080fd5b81019080803573ffffffffffffffffffffffffffffffffffffffff169060200190929190505050613a53565b604051808215151515815260200191505060405180910390f35b348015610e3857600080fd5b50610e7b60048036036020811015610e4f57600080fd5b81019080803573ffffffffffffffffffffffffffffffffffffffff169060200190929190505050613a70565b6040518082815260200191505060405180910390f35b348015610e9d57600080fd5b50610ea6613a88565b6040518080602001806020018060200180602001858103855289818151815260200191508051906020019060200280838360005b83811015610ef5578082015181840152602081019050610eda565b50505050905001858103845288818151815260200191508051906020019060200280838360005b83811015610f37578082015181840152602081019050610f1c565b50505050905001858103835287818151815260200191508051906020019060200280838360005b83811015610f79578082015181840152602081019050610f5e565b50505050905001858103825286818151815260200191508051906020019060200280838360005b83811015610fbb578082015181840152602081019050610fa0565b505050509050019850505050505050505060405180910390f35b348015610fe157600080fd5b5061100e60048036036020811015610ff857600080fd5b8101908080359060200190929190505050613dfb565b60405180806020018681526020018060200185815260200180602001848103845289818151815260200191508051906020019060200280838360005b8381101561106557808201518184015260208101905061104a565b50505050905001848103835287818151815260200191508051906020019080838360005b838110156110a4578082015181840152602081019050611089565b50505050905090810190601f1680156110d15780820380516001836020036101000a031916815260200191505b50848103825285818151815260200191508051906020019060200280838360005b8381101561110d5780820151818401526020810190506110f2565b505050509050019850505050505050505060405180910390f35b34801561113357600080fd5b506112376004803603608081101561114a57600080fd5b81019080803573ffffffffffffffffffffffffffffffffffffffff169060200190929190803573ffffffffffffffffffffffffffffffffffffffff16906020019092919080359060200190929190803590602001906401000000008111156111b157600080fd5b8201836020820111156111c357600080fd5b803590602001918460018302840111640100000000831117156111e557600080fd5b91908080601f016020809104026020016040519081016040528093929190818152602001838380828437600081840152601f19601f82011690508083019250505050505050919291929050505061402b565b005b34801561124557600080fd5b5061124e6140a3565b6040518082815260200191505060405180910390f35b34801561127057600080fd5b5061129d6004803603602081101561128757600080fd5b81019080803590602001909291905050506140a9565b6040518080602001828103825283818151815260200191508051906020019080838360005b838110156112dd5780820151818401526020810190506112c2565b50505050905090810190601f16801561130a5780820380516001836020036101000a031916815260200191505b509250505060405180910390f35b34801561132457600080fd5b506113516004803603602081101561133b57600080fd5b81019080803590602001909291905050506141bc565b604051808060200185815260200180602001848152602001838103835287818151815260200191508051906020019060200280838360005b838110156113a4578082015181840152602081019050611389565b50505050905001838103825285818151815260200191508051906020019080838360005b838110156113e35780820151818401526020810190506113c8565b50505050905090810190601f1680156114105780820380516001836020036101000a031916815260200191505b50965050505050505060405180910390f35b34801561142e57600080fd5b5061145b6004803603602081101561144557600080fd5b810190808035906020019092919050505061434b565b6040518082815260200191505060405180910390f35b34801561147d57600080fd5b506114aa6004803603602081101561149457600080fd5b8101908080359060200190929190505050614363565b604051808215151515815260200191505060405180910390f35b3480156114d057600080fd5b50611533600480360360408110156114e757600080fd5b81019080803573ffffffffffffffffffffffffffffffffffffffff169060200190929190803573ffffffffffffffffffffffffffffffffffffffff169060200190929190505050614731565b604051808215151515815260200191505060405180910390f35b34801561155957600080fd5b506115626147c5565b005b6000806000837bffffffffffffffffffffffffffffffffffffffffffffffffffffffff19167bffffffffffffffffffffffffffffffffffffffffffffffffffffffff1916815260200190815260200160002060009054906101000a900460ff169050919050565b606060058054600181600116156101000203166002900480601f0160208091040260200160405190810160405280929190818152602001828054600181600116156101000203166002900480156116635780601f1061163857610100808354040283529160200191611663565b820191906000526020600020905b81548152906001019060200180831161164657829003601f168201915b5050505050905090565b6000611678826148e2565b6116cd576040517f08c379a000000000000000000000000000000000000000000000000000000000815260040180806020018281038252602c815260200180615b3b602c913960400191505060405180910390fd5b6002600083815260200190815260200160002060009054906101000a900473ffffffffffffffffffffffffffffffffffffffff169050919050565b60006117138261222b565b90508073ffffffffffffffffffffffffffffffffffffffff168373ffffffffffffffffffffffffffffffffffffffff16141561179a576040517f08c379a0000000000000000000000000000000000000000000000000000000008152600401808060200182810382526021815260200180615c0d6021913960400191505060405180910390fd5b8073ffffffffffffffffffffffffffffffffffffffff166117b9614954565b73ffffffffffffffffffffffffffffffffffffffff1614806117e857506117e7816117e2614954565b614731565b5b61183d576040517f08c379a0000000000000000000000000000000000000000000000000000000008152600401808060200182810382526038815260200180615a5f6038913960400191505060405180910390fd5b826002600084815260200190815260200160002060006101000a81548173ffffffffffffffffffffffffffffffffffffffff021916908373ffffffffffffffffffffffffffffffffffffffff160217905550818373ffffffffffffffffffffffffffffffffffffffff168273ffffffffffffffffffffffffffffffffffffffff167f8c5be1e5ebec7d5bd14f71427d1e84f3dd0314c0f7b2291e5b200ac8c7c3b92560405160405180910390a4505050565b600f6020528060005260406000206000915090508060000154908060010160009054906101000a900473ffffffffffffffffffffffffffffffffffffffff16905082565b61194461193e614954565b8261495c565b611999576040517f08c379a0000000000000000000000000000000000000000000000000000000008152600401808060200182810382526031815260200180615c2e6031913960400191505060405180910390fd5b6119a4838383614a50565b505050565b60001515600a60149054906101000a900460ff16151514611a32576040517f08c379a00000000000000000000000000000000000000000000000000000000081526004018080602001828103825260138152602001807f436f6e7472616374206e6f74204163746976650000000000000000000000000081525060200191505060405180910390fd5b611a3a615733565b604051806101c001604052808881526020018781526020013373ffffffffffffffffffffffffffffffffffffffff16815260200186815260200185815260200183604051908082528060200260200182016040528015611aa95781602001602082028038833980820191505090505b50815260200183604051908082528060200260200182016040528015611ade5781602001602082028038833980820191505090505b508152602001600115158152602001600081526020016000815260200160008152602001848152602001600c54815260200160008152509050600c54600d60003373ffffffffffffffffffffffffffffffffffffffff1673ffffffffffffffffffffffffffffffffffffffff16815260200190815260200160002081905550601160003373ffffffffffffffffffffffffffffffffffffffff1673ffffffffffffffffffffffffffffffffffffffff168152602001908152602001600020600001600c5490806001815401808255809150509060018203906000526020600020016000909192909190915055508060106000600c548152602001908152602001600020600082015181600001556020820151816001015560408201518160020160006101000a81548173ffffffffffffffffffffffffffffffffffffffff021916908373ffffffffffffffffffffffffffffffffffffffff1602179055506060820151816003019080519060200190611c589291906157ba565b506080820151816004019080519060200190611c759291906157ba565b5060a0820151816005019080519060200190611c9292919061583a565b5060c0820151816007019080519060200190611caf92919061583a565b5060e08201518160080160006101000a81548160ff021916908315150217905550610100820151816009015561012082015181600a015561014082015181600b015561016082015181600c019080519060200190611d0e9291906157ba565b5061018082015181600d01556101a082015181600e0155905050600c6000815480929190600101919050555050505050505050565b60001515600a60149054906101000a900460ff16151514611dcc576040517f08c379a00000000000000000000000000000000000000000000000000000000081526004018080602001828103825260138152602001807f436f6e7472616374206e6f74204163746976650000000000000000000000000081525060200191505060405180910390fd5b803373ffffffffffffffffffffffffffffffffffffffff166010600083815260200190815260200160002060020160009054906101000a900473ffffffffffffffffffffffffffffffffffffffff1673ffffffffffffffffffffffffffffffffffffffff1614611ea4576040517f08c379a000000000000000000000000000000000000000000000000000000000815260040180806020018281038252601b8152602001807f796f752063616e742063616c6c20746869732066756e6374696f6e000000000081525060200191505060405180910390fd5b60006010600084815260200190815260200160002060090154905060006010600085815260200190815260200160002060090181905550600060106000858152602001908152602001600020600a01549050600060106000868152602001908152602001600020600a01819055503373ffffffffffffffffffffffffffffffffffffffff166108fc839081150290604051600060405180830381858888f19350505050158015611f58573d6000803e3d6000fd5b50600960009054906101000a900473ffffffffffffffffffffffffffffffffffffffff1673ffffffffffffffffffffffffffffffffffffffff1663a9059cbb6010600087815260200190815260200160002060020160009054906101000a900473ffffffffffffffffffffffffffffffffffffffff16836040518363ffffffff1660e01b8152600401808373ffffffffffffffffffffffffffffffffffffffff1673ffffffffffffffffffffffffffffffffffffffff16815260200182815260200192505050602060405180830381600087803b15801561203857600080fd5b505af115801561204c573d6000803e3d6000fd5b505050506040513d602081101561206257600080fd5b81019080805190602001909291905050505050505050565b6120958383836040518060200160405280600081525061402b565b505050565b803373ffffffffffffffffffffffffffffffffffffffff166010600083815260200190815260200160002060020160009054906101000a900473ffffffffffffffffffffffffffffffffffffffff1673ffffffffffffffffffffffffffffffffffffffff1614612172576040517f08c379a000000000000000000000000000000000000000000000000000000000815260040180806020018281038252601b8152602001807f796f752063616e742063616c6c20746869732066756e6374696f6e000000000081525060200191505060405180910390fd5b60006010600084815260200190815260200160002060080160006101000a81548160ff0219169083151502179055505050565b60006121b76121b2614954565b613a53565b61220c576040517f08c379a0000000000000000000000000000000000000000000000000000000008152600401808060200182810382526030815260200180615aea6030913960400191505060405180910390fd5b6122168484614cab565b6122208383614ec3565b600190509392505050565b6000806001600084815260200190815260200160002060009054906101000a900473ffffffffffffffffffffffffffffffffffffffff169050600073ffffffffffffffffffffffffffffffffffffffff168173ffffffffffffffffffffffffffffffffffffffff1614156122ea576040517f08c379a0000000000000000000000000000000000000000000000000000000008152600401808060200182810382526029815260200180615ac16029913960400191505060405180910390fd5b80915050919050565b60008073ffffffffffffffffffffffffffffffffffffffff168273ffffffffffffffffffffffffffffffffffffffff16141561237a576040517f08c379a000000000000000000000000000000000000000000000000000000000815260040180806020018281038252602a815260200180615a97602a913960400191505060405180910390fd5b6123c1600360008473ffffffffffffffffffffffffffffffffffffffff1673ffffffffffffffffffffffffffffffffffffffff168152602001908152602001600020614f4d565b9050919050565b600c5481565b60106020528060005260406000206000915090508060000154908060010154908060020160009054906101000a900473ffffffffffffffffffffffffffffffffffffffff1690806003018054600181600116156101000203166002900480601f0160208091040260200160405190810160405280929190818152602001828054600181600116156101000203166002900480156124ac5780601f10612481576101008083540402835291602001916124ac565b820191906000526020600020905b81548152906001019060200180831161248f57829003601f168201915b505050505090806004018054600181600116156101000203166002900480601f01602080910402602001604051908101604052809291908181526020018280546001816001161561010002031660029004801561254a5780601f1061251f5761010080835404028352916020019161254a565b820191906000526020600020905b81548152906001019060200180831161252d57829003601f168201915b5050505050908060080160009054906101000a900460ff169080600901549080600a01549080600b01549080600c018054600181600116156101000203166002900480601f01602080910402602001604051908101604052809291908181526020018280546001816001161561010002031660029004801561260d5780601f106125e25761010080835404028352916020019161260d565b820191906000526020600020905b8154815290600101906020018083116125f057829003601f168201915b50505050509080600d01549080600e015490508c565b6000801515600a60149054906101000a900460ff161515146126ad576040517f08c379a00000000000000000000000000000000000000000000000000000000081526004018080602001828103825260138152602001807f436f6e7472616374206e6f74204163746976650000000000000000000000000081525060200191505060405180910390fd5b81601060008281526020019081526020016000206007018054905060106000838152602001908152602001600020600b015410612752576040517f08c379a00000000000000000000000000000000000000000000000000000000081526004018080602001828103825260108152602001807f416c6c207469636b65747320736f6c640000000000000000000000000000000081525060200191505060405180910390fd5b82600115156010600083815260200190815260200160002060080160009054906101000a900460ff161515146127f0576040517f08c379a000000000000000000000000000000000000000000000000000000000815260040180806020018281038252601b8152602001807f4576656e74206e6f7420617661696c61626c6520616e796d6f7265000000000081525060200191505060405180910390fd5b83601060008281526020019081526020016000206000015434101561287d576040517f08c379a00000000000000000000000000000000000000000000000000000000081526004018080602001828103825260178152602001807f496e73756666696369656e742076616c75652073656e6400000000000000000081525060200191505060405180910390fd5b84600015156010600083815260200190815260200160002060060160003373ffffffffffffffffffffffffffffffffffffffff1673ffffffffffffffffffffffffffffffffffffffff16815260200190815260200160002060009054906101000a900460ff1615151461293b576040517f08c379a00000000000000000000000000000000000000000000000000000000081526004018080602001828103825260308152602001806159ad6030913960400191505060405180910390fd5b600060106000888152602001908152602001600020600b0154905060016010600089815260200190815260200160002060060160003373ffffffffffffffffffffffffffffffffffffffff1673ffffffffffffffffffffffffffffffffffffffff16815260200190815260200160002060006101000a81548160ff021916908315150217905550336010600089815260200190815260200160002060070182815481106129e457fe5b9060005260206000200160006101000a81548173ffffffffffffffffffffffffffffffffffffffff021916908373ffffffffffffffffffffffffffffffffffffffff16021790555034601060008981526020019081526020016000206009015401601060008981526020019081526020016000206009018190555060106000888152602001908152602001600020600b0160008154809291906001019190505550612a9133600b54614cab565b612b4b600b54601060008a81526020019081526020016000206003018054600181600116156101000203166002900480601f016020809104026020016040519081016040528092919081815260200182805460018160011615610100020316600290048015612b415780601f10612b1657610100808354040283529160200191612b41565b820191906000526020600020905b815481529060010190602001808311612b2457829003601f168201915b5050505050614ec3565b86600e6000600b5481526020019081526020016000208190555086600f6000600b5481526020019081526020016000206000018190555033600f6000600b54815260200190815260200160002060010160006101000a81548173ffffffffffffffffffffffffffffffffffffffff021916908373ffffffffffffffffffffffffffffffffffffffff160217905550601160003373ffffffffffffffffffffffffffffffffffffffff1673ffffffffffffffffffffffffffffffffffffffff168152602001908152602001600020600101600b549080600181540180825580915050906001820390600052602060002001600090919290919091505550601160003373ffffffffffffffffffffffffffffffffffffffff1673ffffffffffffffffffffffffffffffffffffffff1681526020019081526020016000206002018790806001815401808255809150509060018203906000526020600020016000909192909190915055506001601160003373ffffffffffffffffffffffffffffffffffffffff1673ffffffffffffffffffffffffffffffffffffffff168152602001908152602001600020600401600089815260200190815260200160002060006101000a81548160ff021916908315150217905550600b60008154809291906001019190505550600b5495505050505050919050565b606060068054600181600116156101000203166002900480601f016020809104026020016040519081016040528092919081815260200182805460018160011615610100020316600290048015612dd85780601f10612dad57610100808354040283529160200191612dd8565b820191906000526020600020905b815481529060010190602001808311612dbb57829003601f168201915b5050505050905090565b612df2612ded614954565b613a53565b612e47576040517f08c379a0000000000000000000000000000000000000000000000000000000008152600401808060200182810382526030815260200180615aea6030913960400191505060405180910390fd5b612e5081614f5b565b50565b612e63612e5e614954565b614fb5565b565b6000801515600a60149054906101000a900460ff16151514612eef576040517f08c379a00000000000000000000000000000000000000000000000000000000081526004018080602001828103825260138152602001807f436f6e7472616374206e6f74204163746976650000000000000000000000000081525060200191505060405180910390fd5b81601060008281526020019081526020016000206007018054905060106000838152602001908152602001600020600b015410612f94576040517f08c379a00000000000000000000000000000000000000000000000000000000081526004018080602001828103825260108152602001807f416c6c207469636b65747320736f6c640000000000000000000000000000000081525060200191505060405180910390fd5b82600115156010600083815260200190815260200160002060080160009054906101000a900460ff16151514613032576040517f08c379a000000000000000000000000000000000000000000000000000000000815260040180806020018281038252601b8152602001807f4576656e74206e6f7420617661696c61626c6520616e796d6f7265000000000081525060200191505060405180910390fd5b83600015156010600083815260200190815260200160002060060160003373ffffffffffffffffffffffffffffffffffffffff1673ffffffffffffffffffffffffffffffffffffffff16815260200190815260200160002060009054906101000a900460ff161515146130f0576040517f08c379a00000000000000000000000000000000000000000000000000000000081526004018080602001828103825260308152602001806159ad6030913960400191505060405180910390fd5b846010600082815260200190815260200160002060010154600960009054906101000a900473ffffffffffffffffffffffffffffffffffffffff1673ffffffffffffffffffffffffffffffffffffffff166370a08231336040518263ffffffff1660e01b8152600401808273ffffffffffffffffffffffffffffffffffffffff1673ffffffffffffffffffffffffffffffffffffffff16815260200191505060206040518083038186803b1580156131a757600080fd5b505afa1580156131bb573d6000803e3d6000fd5b505050506040513d60208110156131d157600080fd5b81019080805190602001909291905050501015613256576040517f08c379a00000000000000000000000000000000000000000000000000000000081526004018080602001828103825260178152602001807f496e73756666696369656e742076616c75652073656e6400000000000000000081525060200191505060405180910390fd5b600960009054906101000a900473ffffffffffffffffffffffffffffffffffffffff1673ffffffffffffffffffffffffffffffffffffffff1663095ea7b330601060008a8152602001908152602001600020600101546040518363ffffffff1660e01b8152600401808373ffffffffffffffffffffffffffffffffffffffff1673ffffffffffffffffffffffffffffffffffffffff16815260200182815260200192505050602060405180830381600087803b15801561331557600080fd5b505af1158015613329573d6000803e3d6000fd5b505050506040513d602081101561333f57600080fd5b810190808051906020019092919050505050600960009054906101000a900473ffffffffffffffffffffffffffffffffffffffff1673ffffffffffffffffffffffffffffffffffffffff166323b872dd3330601060008b8152602001908152602001600020600101546040518463ffffffff1660e01b8152600401808473ffffffffffffffffffffffffffffffffffffffff1673ffffffffffffffffffffffffffffffffffffffff1681526020018373ffffffffffffffffffffffffffffffffffffffff1673ffffffffffffffffffffffffffffffffffffffff1681526020018281526020019350505050602060405180830381600087803b15801561344457600080fd5b505af1158015613458573d6000803e3d6000fd5b505050506040513d602081101561346e57600080fd5b810190808051906020019092919050505050600060106000888152602001908152602001600020600b0154905060016010600089815260200190815260200160002060060160003373ffffffffffffffffffffffffffffffffffffffff1673ffffffffffffffffffffffffffffffffffffffff16815260200190815260200160002060006101000a81548160ff0219169083151502179055503360106000898152602001908152602001600020600701828154811061352957fe5b9060005260206000200160006101000a81548173ffffffffffffffffffffffffffffffffffffffff021916908373ffffffffffffffffffffffffffffffffffffffff160217905550601060008881526020019081526020016000206001015460106000898152602001908152602001600020600a01540160106000898152602001908152602001600020600a018190555060106000888152602001908152602001600020600b01600081548092919060010191905055506135ec33600b54614cab565b6136a6600b54601060008a81526020019081526020016000206003018054600181600116156101000203166002900480601f01602080910402602001604051908101604052809291908181526020018280546001816001161561010002031660029004801561369c5780601f106136715761010080835404028352916020019161369c565b820191906000526020600020905b81548152906001019060200180831161367f57829003601f168201915b5050505050614ec3565b86600e6000600b5481526020019081526020016000208190555086600f6000600b5481526020019081526020016000206000018190555033600f6000600b54815260200190815260200160002060010160006101000a81548173ffffffffffffffffffffffffffffffffffffffff021916908373ffffffffffffffffffffffffffffffffffffffff160217905550601160003373ffffffffffffffffffffffffffffffffffffffff1673ffffffffffffffffffffffffffffffffffffffff168152602001908152602001600020600101600b549080600181540180825580915050906001820390600052602060002001600090919290919091505550601160003373ffffffffffffffffffffffffffffffffffffffff1673ffffffffffffffffffffffffffffffffffffffff1681526020019081526020016000206002018790806001815401808255809150509060018203906000526020600020016000909192909190915055506001601160003373ffffffffffffffffffffffffffffffffffffffff1673ffffffffffffffffffffffffffffffffffffffff168152602001908152602001600020600401600089815260200190815260200160002060006101000a81548160ff021916908315150217905550600b60008154809291906001019190505550600b5495505050505050919050565b6138a3614954565b73ffffffffffffffffffffffffffffffffffffffff168273ffffffffffffffffffffffffffffffffffffffff161415613944576040517f08c379a00000000000000000000000000000000000000000000000000000000081526004018080602001828103825260198152602001807f4552433732313a20617070726f766520746f2063616c6c65720000000000000081525060200191505060405180910390fd5b8060046000613951614954565b73ffffffffffffffffffffffffffffffffffffffff1673ffffffffffffffffffffffffffffffffffffffff16815260200190815260200160002060008473ffffffffffffffffffffffffffffffffffffffff1673ffffffffffffffffffffffffffffffffffffffff16815260200190815260200160002060006101000a81548160ff0219169083151502179055508173ffffffffffffffffffffffffffffffffffffffff166139fe614954565b73ffffffffffffffffffffffffffffffffffffffff167f17307eab39ab6107e8899845ad3d59bd9653f200f220920489ca2b5937696c3183604051808215151515815260200191505060405180910390a35050565b6000613a6982600861500f90919063ffffffff16565b9050919050565b600d6020528060005260406000206000915090505481565b606080606080601160003373ffffffffffffffffffffffffffffffffffffffff1673ffffffffffffffffffffffffffffffffffffffff168152602001908152602001600020600001805480602002602001604051908101604052809291908181526020018280548015613b1a57602002820191906000526020600020905b815481526020019060010190808311613b06575b50505050509350601160003373ffffffffffffffffffffffffffffffffffffffff1673ffffffffffffffffffffffffffffffffffffffff168152602001908152602001600020600201805480602002602001604051908101604052809291908181526020018280548015613bad57602002820191906000526020600020905b815481526020019060010190808311613b99575b50505050509250601160003373ffffffffffffffffffffffffffffffffffffffff1673ffffffffffffffffffffffffffffffffffffffff168152602001908152602001600020600101805480602002602001604051908101604052809291908181526020018280548015613c4057602002820191906000526020600020905b815481526020019060010190808311613c2c575b50505050509050601160003373ffffffffffffffffffffffffffffffffffffffff1673ffffffffffffffffffffffffffffffffffffffff16815260200190815260200160002060020180549050604051908082528060200260200182016040528015613cbb5781602001602082028038833980820191505090505b50915060008090505b601160003373ffffffffffffffffffffffffffffffffffffffff1673ffffffffffffffffffffffffffffffffffffffff16815260200190815260200160002060020180549050811015613df457601160003373ffffffffffffffffffffffffffffffffffffffff1673ffffffffffffffffffffffffffffffffffffffff1681526020019081526020016000206004016000601160003373ffffffffffffffffffffffffffffffffffffffff1673ffffffffffffffffffffffffffffffffffffffff1681526020019081526020016000206002018381548110613da257fe5b9060005260206000200154815260200190815260200160002060009054906101000a900460ff16838281518110613dd557fe5b6020026020010190151590811515815250508080600101915050613cc4565b5090919293565b6060600060606000606060106000878152602001908152602001600020600501805480602002602001604051908101604052809291908181526020018280548015613e9b57602002820191906000526020600020905b8160009054906101000a900473ffffffffffffffffffffffffffffffffffffffff1673ffffffffffffffffffffffffffffffffffffffff1681526020019060010190808311613e51575b5050505050945060106000878152602001908152602001600020600b01549350601060008781526020019081526020016000206004018054600181600116156101000203166002900480601f016020809104026020016040519081016040528092919081815260200182805460018160011615610100020316600290048015613f655780601f10613f3a57610100808354040283529160200191613f65565b820191906000526020600020905b815481529060010190602001808311613f4857829003601f168201915b5050505050925060106000878152602001908152602001600020600e015491506010600087815260200190815260200160002060070180548060200260200160405190810160405280929190818152602001828054801561401b57602002820191906000526020600020905b8160009054906101000a900473ffffffffffffffffffffffffffffffffffffffff1673ffffffffffffffffffffffffffffffffffffffff1681526020019060010190808311613fd1575b5050505050905091939590929450565b61403c614036614954565b8361495c565b614091576040517f08c379a0000000000000000000000000000000000000000000000000000000008152600401808060200182810382526031815260200180615c2e6031913960400191505060405180910390fd5b61409d848484846150ed565b50505050565b600b5481565b60606140b4826148e2565b614109576040517f08c379a000000000000000000000000000000000000000000000000000000000815260040180806020018281038252602f815260200180615bde602f913960400191505060405180910390fd5b600760008381526020019081526020016000208054600181600116156101000203166002900480601f0160208091040260200160405190810160405280929190818152602001828054600181600116156101000203166002900480156141b05780601f10614185576101008083540402835291602001916141b0565b820191906000526020600020905b81548152906001019060200180831161419357829003601f168201915b50505050509050919050565b60606000606060006010600086815260200190815260200160002060050180548060200260200160405190810160405280929190818152602001828054801561425a57602002820191906000526020600020905b8160009054906101000a900473ffffffffffffffffffffffffffffffffffffffff1673ffffffffffffffffffffffffffffffffffffffff1681526020019060010190808311614210575b5050505050935060106000868152602001908152602001600020600b01549250601060008681526020019081526020016000206004018054600181600116156101000203166002900480601f0160208091040260200160405190810160405280929190818152602001828054600181600116156101000203166002900480156143245780601f106142f957610100808354040283529160200191614324565b820191906000526020600020905b81548152906001019060200180831161430757829003601f168201915b5050505050915060106000868152602001908152602001600020600e015490509193509193565b600e6020528060005260406000206000915090505481565b6000801515600a60149054906101000a900460ff161515146143ed576040517f08c379a00000000000000000000000000000000000000000000000000000000081526004018080602001828103825260138152602001807f436f6e7472616374206e6f74204163746976650000000000000000000000000081525060200191505060405180910390fd5b8160011515601160003373ffffffffffffffffffffffffffffffffffffffff1673ffffffffffffffffffffffffffffffffffffffff168152602001908152602001600020600401600083815260200190815260200160002060009054906101000a900460ff161515146144c8576040517f08c379a000000000000000000000000000000000000000000000000000000000815260040180806020018281038252601b8152602001807f596f75206861766520616c726561647920636865636b656420696e000000000081525060200191505060405180910390fd5b60011515601160003373ffffffffffffffffffffffffffffffffffffffff1673ffffffffffffffffffffffffffffffffffffffff168152602001908152602001600020600301600083815260200190815260200160002060009054906101000a900460ff16151514156145a3576040517f08c379a000000000000000000000000000000000000000000000000000000000815260040180806020018281038252601a8152602001807f596f75206861766520616c726561647920636865636b6564496e00000000000081525060200191505060405180910390fd5b600060106000858152602001908152602001600020600e01549050336010600086815260200190815260200160002060050182815481106145e057fe5b9060005260206000200160006101000a81548173ffffffffffffffffffffffffffffffffffffffff021916908373ffffffffffffffffffffffffffffffffffffffff1602179055506001601160003373ffffffffffffffffffffffffffffffffffffffff1673ffffffffffffffffffffffffffffffffffffffff168152602001908152602001600020600301600086815260200190815260200160002060006101000a81548160ff0219169083151502179055506000601160003373ffffffffffffffffffffffffffffffffffffffff1673ffffffffffffffffffffffffffffffffffffffff168152602001908152602001600020600401600086815260200190815260200160002060006101000a81548160ff02191690831515021790555060106000858152602001908152602001600020600e0160008154809291906001019190505550600192505050919050565b6000600460008473ffffffffffffffffffffffffffffffffffffffff1673ffffffffffffffffffffffffffffffffffffffff16815260200190815260200160002060008373ffffffffffffffffffffffffffffffffffffffff1673ffffffffffffffffffffffffffffffffffffffff16815260200190815260200160002060009054906101000a900460ff16905092915050565b600a60009054906101000a900473ffffffffffffffffffffffffffffffffffffffff1673ffffffffffffffffffffffffffffffffffffffff163373ffffffffffffffffffffffffffffffffffffffff1614614888576040517f08c379a000000000000000000000000000000000000000000000000000000000815260040180806020018281038252601a8152602001807f596f7520617265206e6f7420436f6e7472616374206f776e657200000000000081525060200191505060405180910390fd5b60011515600a60149054906101000a900460ff16151514156148c4576000600a60146101000a81548160ff0219169083151502179055506148e0565b6001600a60146101000a81548160ff0219169083151502179055505b565b6000806001600084815260200190815260200160002060009054906101000a900473ffffffffffffffffffffffffffffffffffffffff169050600073ffffffffffffffffffffffffffffffffffffffff168173ffffffffffffffffffffffffffffffffffffffff161415915050919050565b600033905090565b6000614967826148e2565b6149bc576040517f08c379a000000000000000000000000000000000000000000000000000000000815260040180806020018281038252602c815260200180615a33602c913960400191505060405180910390fd5b60006149c78361222b565b90508073ffffffffffffffffffffffffffffffffffffffff168473ffffffffffffffffffffffffffffffffffffffff161480614a3657508373ffffffffffffffffffffffffffffffffffffffff16614a1e8461166d565b73ffffffffffffffffffffffffffffffffffffffff16145b80614a475750614a468185614731565b5b91505092915050565b8273ffffffffffffffffffffffffffffffffffffffff16614a708261222b565b73ffffffffffffffffffffffffffffffffffffffff1614614adc576040517f08c379a0000000000000000000000000000000000000000000000000000000008152600401808060200182810382526029815260200180615bb56029913960400191505060405180910390fd5b600073ffffffffffffffffffffffffffffffffffffffff168273ffffffffffffffffffffffffffffffffffffffff161415614b62576040517f08c379a0000000000000000000000000000000000000000000000000000000008152600401808060200182810382526024815260200180615a0f6024913960400191505060405180910390fd5b614b6b8161515f565b614bb2600360008573ffffffffffffffffffffffffffffffffffffffff1673ffffffffffffffffffffffffffffffffffffffff16815260200190815260200160002061521d565b614bf9600360008473ffffffffffffffffffffffffffffffffffffffff1673ffffffffffffffffffffffffffffffffffffffff168152602001908152602001600020615240565b816001600083815260200190815260200160002060006101000a81548173ffffffffffffffffffffffffffffffffffffffff021916908373ffffffffffffffffffffffffffffffffffffffff160217905550808273ffffffffffffffffffffffffffffffffffffffff168473ffffffffffffffffffffffffffffffffffffffff167fddf252ad1be2c89b69c2b068fc378daa952ba7f163c4a11628f55a4df523b3ef60405160405180910390a4505050565b600073ffffffffffffffffffffffffffffffffffffffff168273ffffffffffffffffffffffffffffffffffffffff161415614d4e576040517f08c379a00000000000000000000000000000000000000000000000000000000081526004018080602001828103825260208152602001807f4552433732313a206d696e7420746f20746865207a65726f206164647265737381525060200191505060405180910390fd5b614d57816148e2565b15614dca576040517f08c379a000000000000000000000000000000000000000000000000000000000815260040180806020018281038252601c8152602001807f4552433732313a20746f6b656e20616c7265616479206d696e7465640000000081525060200191505060405180910390fd5b816001600083815260200190815260200160002060006101000a81548173ffffffffffffffffffffffffffffffffffffffff021916908373ffffffffffffffffffffffffffffffffffffffff160217905550614e63600360008473ffffffffffffffffffffffffffffffffffffffff1673ffffffffffffffffffffffffffffffffffffffff168152602001908152602001600020615240565b808273ffffffffffffffffffffffffffffffffffffffff16600073ffffffffffffffffffffffffffffffffffffffff167fddf252ad1be2c89b69c2b068fc378daa952ba7f163c4a11628f55a4df523b3ef60405160405180910390a45050565b614ecc826148e2565b614f21576040517f08c379a000000000000000000000000000000000000000000000000000000000815260040180806020018281038252602c815260200180615b67602c913960400191505060405180910390fd5b80600760008481526020019081526020016000209080519060200190614f489291906158c4565b505050565b600081600001549050919050565b614f6f81600861525690919063ffffffff16565b8073ffffffffffffffffffffffffffffffffffffffff167f6ae172837ea30b801fbfcdd4108aa1d5bf8ff775444fd70256b44e6bf3dfc3f660405160405180910390a250565b614fc981600861533190919063ffffffff16565b8073ffffffffffffffffffffffffffffffffffffffff167fe94479a9f7e1952cc78f2d6baab678adc1b772d936c6583def489e524cb6669260405160405180910390a250565b60008073ffffffffffffffffffffffffffffffffffffffff168273ffffffffffffffffffffffffffffffffffffffff161415615096576040517f08c379a0000000000000000000000000000000000000000000000000000000008152600401808060200182810382526022815260200180615b936022913960400191505060405180910390fd5b8260000160008373ffffffffffffffffffffffffffffffffffffffff1673ffffffffffffffffffffffffffffffffffffffff16815260200190815260200160002060009054906101000a900460ff16905092915050565b6150f8848484614a50565b615104848484846153ee565b615159576040517f08c379a00000000000000000000000000000000000000000000000000000000081526004018080602001828103825260328152602001806159dd6032913960400191505060405180910390fd5b50505050565b600073ffffffffffffffffffffffffffffffffffffffff166002600083815260200190815260200160002060009054906101000a900473ffffffffffffffffffffffffffffffffffffffff1673ffffffffffffffffffffffffffffffffffffffff161461521a5760006002600083815260200190815260200160002060006101000a81548173ffffffffffffffffffffffffffffffffffffffff021916908373ffffffffffffffffffffffffffffffffffffffff1602179055505b50565b615235600182600001546155de90919063ffffffff16565b816000018190555050565b6001816000016000828254019250508190555050565b615260828261500f565b156152d3576040517f08c379a000000000000000000000000000000000000000000000000000000000815260040180806020018281038252601f8152602001807f526f6c65733a206163636f756e7420616c72656164792068617320726f6c650081525060200191505060405180910390fd5b60018260000160008373ffffffffffffffffffffffffffffffffffffffff1673ffffffffffffffffffffffffffffffffffffffff16815260200190815260200160002060006101000a81548160ff0219169083151502179055505050565b61533b828261500f565b615390576040517f08c379a0000000000000000000000000000000000000000000000000000000008152600401808060200182810382526021815260200180615b1a6021913960400191505060405180910390fd5b60008260000160008373ffffffffffffffffffffffffffffffffffffffff1673ffffffffffffffffffffffffffffffffffffffff16815260200190815260200160002060006101000a81548160ff0219169083151502179055505050565b600061540f8473ffffffffffffffffffffffffffffffffffffffff16615628565b61541c57600190506155d6565b60008473ffffffffffffffffffffffffffffffffffffffff1663150b7a02615442614954565b8887876040518563ffffffff1660e01b8152600401808573ffffffffffffffffffffffffffffffffffffffff1673ffffffffffffffffffffffffffffffffffffffff1681526020018473ffffffffffffffffffffffffffffffffffffffff1673ffffffffffffffffffffffffffffffffffffffff16815260200183815260200180602001828103825283818151815260200191508051906020019080838360005b838110156154fe5780820151818401526020810190506154e3565b50505050905090810190601f16801561552b5780820380516001836020036101000a031916815260200191505b5095505050505050602060405180830381600087803b15801561554d57600080fd5b505af1158015615561573d6000803e3d6000fd5b505050506040513d602081101561557757600080fd5b8101908080519060200190929190505050905063150b7a0260e01b7bffffffffffffffffffffffffffffffffffffffffffffffffffffffff1916817bffffffffffffffffffffffffffffffffffffffffffffffffffffffff1916149150505b949350505050565b600061562083836040518060400160405280601e81526020017f536166654d6174683a207375627472616374696f6e206f766572666c6f770000815250615673565b905092915050565b60008060007fc5d2460186f7233c927e7db2dcc703c0e500b653ca82273b7bfad8045d85a47060001b9050833f91506000801b821415801561566a5750808214155b92505050919050565b6000838311158290615720576040517f08c379a00000000000000000000000000000000000000000000000000000000081526004018080602001828103825283818151815260200191508051906020019080838360005b838110156156e55780820151818401526020810190506156ca565b50505050905090810190601f1680156157125780820380516001836020036101000a031916815260200191505b509250505060405180910390fd5b5060008385039050809150509392505050565b604051806101c001604052806000815260200160008152602001600073ffffffffffffffffffffffffffffffffffffffff168152602001606081526020016060815260200160608152602001606081526020016000151581526020016000815260200160008152602001600081526020016060815260200160008152602001600081525090565b828054600181600116156101000203166002900490600052602060002090601f016020900481019282601f106157fb57805160ff1916838001178555615829565b82800160010185558215615829579182015b8281111561582857825182559160200191906001019061580d565b5b5090506158369190615944565b5090565b8280548282559060005260206000209081019282156158b3579160200282015b828111156158b25782518260006101000a81548173ffffffffffffffffffffffffffffffffffffffff021916908373ffffffffffffffffffffffffffffffffffffffff1602179055509160200191906001019061585a565b5b5090506158c09190615969565b5090565b828054600181600116156101000203166002900490600052602060002090601f016020900481019282601f1061590557805160ff1916838001178555615933565b82800160010185558215615933579182015b82811115615932578251825591602001919060010190615917565b5b5090506159409190615944565b5090565b61596691905b8082111561596257600081600090555060010161594a565b5090565b90565b6159a991905b808211156159a557600081816101000a81549073ffffffffffffffffffffffffffffffffffffffff02191690555060010161596f565b5090565b9056fe5469636b657420686173206265656e20616c726561647920626f756768742077697468207468697320616464726573734552433732313a207472616e7366657220746f206e6f6e20455243373231526563656976657220696d706c656d656e7465724552433732313a207472616e7366657220746f20746865207a65726f20616464726573734552433732313a206f70657261746f7220717565727920666f72206e6f6e6578697374656e7420746f6b656e4552433732313a20617070726f76652063616c6c6572206973206e6f74206f776e6572206e6f7220617070726f76656420666f7220616c6c4552433732313a2062616c616e636520717565727920666f7220746865207a65726f20616464726573734552433732313a206f776e657220717565727920666f72206e6f6e6578697374656e7420746f6b656e4d696e746572526f6c653a2063616c6c657220646f6573206e6f74206861766520746865204d696e74657220726f6c65526f6c65733a206163636f756e7420646f6573206e6f74206861766520726f6c654552433732313a20617070726f76656420717565727920666f72206e6f6e6578697374656e7420746f6b656e4552433732314d657461646174613a2055524920736574206f66206e6f6e6578697374656e7420746f6b656e526f6c65733a206163636f756e7420697320746865207a65726f20616464726573734552433732313a207472616e73666572206f6620746f6b656e2074686174206973206e6f74206f776e4552433732314d657461646174613a2055524920717565727920666f72206e6f6e6578697374656e7420746f6b656e4552433732313a20617070726f76616c20746f2063757272656e74206f776e65724552433732313a207472616e736665722063616c6c6572206973206e6f74206f776e6572206e6f7220617070726f766564a265627a7a723158202f84ec636614fd1bba85f65bff89b28591052a1c8ba963e1966d32b0933c170b64736f6c634300050c0032526f6c65733a206163636f756e7420697320746865207a65726f2061646472657373",
  "source": "pragma solidity >=0.4.22 <0.6.0;\n\n\nimport \"@openzeppelin/contracts/token/ERC721/ERC721MetadataMintable.sol\";\n\n/// @title An event registeration and checkin contract\n/// @author Abhimanyu Shekhawat\n/// @notice The contract allows adding events and checking in into the events, NFT are issued as tickets\n/// @dev The contract inherits ERC721 token to implement NFT\ncontract TicketsOnChain is ERC721MetadataMintable {\n  address address_dai = 0x4F96Fe3b7A6Cf9725f59d353F723c1bDb64CA6Aa;\n  address contract_owner;\n  bool private stop = false;\n  uint public nftId;\n  uint public eventCount;\n  mapping (address => uint) public ownerToEvent;\n  mapping(uint=>uint) public nftToEvent;// this shows which event has is represented by this token, for back tracking\n  mapping(uint=>NFT) public nftInformation;// gives nft info\n  mapping(uint => Event) public eventMapping;\n  mapping(address=>User)  userMapping;\n  struct Event{\n      uint priceInEth;\n      uint priceInDai;\n      address ownerAddress;\n      string metadata;\n      string name;\n      address[] checkedInUsers;\n      mapping(address => bool) issuedAddressCheck;\n      address[] issuedAddresses;\n      bool active;\n      uint eth;\n      uint dai;\n      uint ticketsIssued;\n      string description;\n      uint eventId;\n      uint checkInCount;\n  }\n  struct NFT{\n    uint eventId;\n    address owner;\n  }\n  struct User{\n      uint[] hosting;\n      uint[] owned;\n      uint[] events;\n      mapping(uint=>bool) checkedIn;\n      mapping(uint =>bool) notCheckedIn;\n  }\n  modifier contractOwner{\n    require(msg.sender == contract_owner,\"You are not Contract owner\");\n    _;\n  }\n  modifier contractActive{\n    require(stop == false, \"Contract not Active\");\n    _;\n  }\n  modifier eventOwner(uint eventId){\n    require(eventMapping[eventId].ownerAddress == msg.sender,\"you cant call this function\");\n    _;\n  }\n  modifier soldout(uint eventId){\n    require(eventMapping[eventId].ticketsIssued<eventMapping[eventId].issuedAddresses.length,\"All tickets sold\");\n    _;\n  }\n  modifier isEventActive(uint eventId){\n    require(eventMapping[eventId].active == true,\"Event not available anymore\");\n    _;\n  }\n  modifier valueEthCheck(uint eventId){\n    require(msg.value>=eventMapping[eventId].priceInEth,\"Insufficient value send\");\n    _;\n  }\n  modifier valueDaiCheck(uint eventId){\n    require(ERC20(address_dai).balanceOf(msg.sender)>=eventMapping[eventId].priceInDai,\"Insufficient value send\");\n    _;\n  }\n  modifier ticketBought(uint eventId){\n    require(eventMapping[eventId].issuedAddressCheck[msg.sender]==false,\"Ticket has been already bought with this address\");\n    _;\n  }\n  modifier isCheckIn(uint eventId){\n    require(userMapping[msg.sender].notCheckedIn[eventId] == true,\"You have already checked in\");\n    require(userMapping[msg.sender].checkedIn[eventId] != true, \"You have already checkedIn\");\n    _;\n  }\n  /// @dev Makes the contract deployer as owner, set Token Symbol and Name\n  constructor() ERC721Metadata(\"eventTicket\",\"CEFT\") public{\n    contract_owner = msg.sender;\n  }\n  /// @notice Owner can disable the app temporarily in case of emergency\n  /// @dev Creates a circuit breaker in case of unprecedented bugs, switches on and off\n  function switchContractWorking()\n  public\n  contractOwner\n  {\n    if(stop == true){\n      stop = false;\n    }\n    else{\n      stop = true;\n    }\n  }\n  /// @dev Users can create new events\n  /// @param _priceEth price in eth for event ticket\n  /// @param _priceDai price in Dai for event token\n  /// @param _metadata URI  for the NFT to be minted\n  /// @param _name Name of event\n  /// @param _description description of event\n  /// @param _noOfTickets number of total available tickets\n  function createEvent(uint _priceEth, uint _priceDai,string memory _metadata, string memory _name, string memory _description,uint _noOfTickets)\n  public\n  contractActive\n  {\n    Event memory obj = Event({\n      priceInEth:_priceEth,\n      priceInDai:_priceDai,\n      metadata:_metadata,\n      name:_name,\n      ownerAddress:msg.sender,\n      active:true,\n      issuedAddresses:new address[](_noOfTickets),\n      checkedInUsers:new address[](_noOfTickets),\n      dai:0,\n      eth:0,\n      checkInCount:0,\n      ticketsIssued:0,\n      description:_description,\n      eventId:eventCount\n    });\n    ownerToEvent[msg.sender] = eventCount;\n    userMapping[msg.sender].hosting.push(eventCount);\n    eventMapping[eventCount] = obj;\n    eventCount++;\n  }\n  /// @dev Event owner can stop from more tickets from being sold\n  /// @param eventId id of event that is to be disabled\n  function turnEventOff(uint eventId)\n  public\n  eventOwner(eventId)\n  {\n    eventMapping[eventId].active = false;\n  }\n  /// @dev Users can get list of people who checked in\n  /// @param _id id of event\n  /// @return list of attendes checked in (addresses)\n  /// @return total number of tickets sold\n  /// @return name of event\n  /// @return total number of checkins\n  function checkInList(uint _id)\n  public\n  view\n  returns(address[] memory attendees, uint _totalTickets, string memory name , uint totalCheckin)\n  {\n    attendees = eventMapping[_id].checkedInUsers;\n    _totalTickets = eventMapping[_id].ticketsIssued;\n    name = eventMapping[_id].name;\n    totalCheckin = eventMapping[_id].checkInCount;\n  }\n  /// @dev Buying event tickets using eth and minting NFT of the event for the user\n  /// @param eventId event id of the event whose tickets needs to be purchased\n  /// @return token id of the minted NFT\n  function buyTicketsEth(uint eventId)\n  public\n  payable\n  contractActive\n  soldout(eventId)\n  isEventActive(eventId)\n  valueEthCheck(eventId)\n  ticketBought(eventId)\n  returns(uint tokenId)\n  {\n    uint  count = eventMapping[eventId].ticketsIssued;\n    eventMapping[eventId].issuedAddressCheck[msg.sender] = true;\n    eventMapping[eventId].issuedAddresses[count] = msg.sender;\n    eventMapping[eventId].eth = eventMapping[eventId].eth+msg.value;\n    eventMapping[eventId].ticketsIssued++;\n    _mint(msg.sender, nftId);\n    _setTokenURI(nftId, eventMapping[eventId].metadata);\n    nftToEvent[nftId] = eventId;\n    nftInformation[nftId].eventId = eventId;\n    nftInformation[nftId].owner = msg.sender;\n    userMapping[msg.sender].owned.push(nftId);\n    userMapping[msg.sender].events.push(eventId);\n    userMapping[msg.sender].notCheckedIn[eventId] = true;\n    nftId++;\n    tokenId = nftId;\n  }\n  /// @dev Buying event tickets using DAI and minting NFT of the event for the user\n  /// @param eventId event id of the event whose tickets needs to be purchased\n  /// @return token id of the minted NFT\n  function buyTicketsDAi(uint eventId)\n  public\n  contractActive\n  soldout(eventId)\n  isEventActive(eventId)\n  ticketBought(eventId)\n  valueDaiCheck(eventId)\n  returns(uint tokenId)\n  {\n    ERC20(address_dai).approve(address(this),eventMapping[eventId].priceInDai);\n    ERC20(address_dai).transferFrom(msg.sender, address(this),eventMapping[eventId].priceInDai);\n    uint  count = eventMapping[eventId].ticketsIssued;\n    eventMapping[eventId].issuedAddressCheck[msg.sender] = true;\n    eventMapping[eventId].issuedAddresses[count] = msg.sender;\n    eventMapping[eventId].dai = eventMapping[eventId].dai+eventMapping[eventId].priceInDai;\n    eventMapping[eventId].ticketsIssued++;\n    _mint(msg.sender, nftId);\n    _setTokenURI(nftId, eventMapping[eventId].metadata);\n    nftToEvent[nftId] = eventId;\n    nftInformation[nftId].eventId = eventId;\n    nftInformation[nftId].owner = msg.sender;\n    userMapping[msg.sender].owned.push(nftId);\n    userMapping[msg.sender].events.push(eventId);\n    userMapping[msg.sender].notCheckedIn[eventId] = true;\n    nftId++;\n    tokenId = nftId;\n  }\n  /// @dev infrmation about tickets sold\n  /// @param _id event id\n  /// @return list of addresses that checked in\n  /// @return total tickets sold\n  /// @return name of event\n  /// @return total checkins\n  /// @return list of addresses that bought tickets\n  function sales(uint _id)\n  public\n  view\n  returns(address[] memory attendees, uint _totalTickets, string memory name , uint totalCheckin, address[] memory alltickets){\n      attendees = eventMapping[_id].checkedInUsers;\n      _totalTickets = eventMapping[_id].ticketsIssued;\n      name = eventMapping[_id].name;\n      totalCheckin = eventMapping[_id].checkInCount;\n      alltickets = eventMapping[_id].issuedAddresses;\n  }\n  /// @dev checking in users at the event\n  /// @param eventId event id of event\n  /// @return success or faliure of check in\n function checkIn(uint eventId)\n public\n contractActive\n isCheckIn(eventId)\n returns(bool status)\n {\n    uint count = eventMapping[eventId].checkInCount;\n    eventMapping[eventId].checkedInUsers[count] = msg.sender;\n    userMapping[msg.sender].checkedIn[eventId] = true;\n    userMapping[msg.sender].notCheckedIn[eventId] = false;\n    eventMapping[eventId].checkInCount++;\n    status = true;\n }\n /// @dev returns important aspects of user's profile\n /// @return list of event hosted by user\n /// @return list of tickets bought by a  user\n /// @return boolean array of of events checked in or not checked in by users, marked at same index as of array of tickets bought by user\n /// @return list of Tokens(NFT) Owned by user\n function UserProfile()\n public\n view\n returns (uint[] memory eventHost,uint[] memory eventList, bool[] memory statusList, uint[] memory tokenList)\n {\n    eventHost = userMapping[msg.sender].hosting;\n    eventList = userMapping[msg.sender].events;\n    tokenList = userMapping[msg.sender].owned;\n    statusList = new bool[](userMapping[msg.sender].events.length);\n    for(uint i = 0; i<userMapping[msg.sender].events.length;i++){\n      statusList[i] = userMapping[msg.sender].notCheckedIn[userMapping[msg.sender].events[i]];\n    }\n }\n /// @dev allowing event host to withdraw fees deposited by users to buy tickets\n /// @param eventId id of event\n function withdraw(uint eventId)\n public\n contractActive\n eventOwner(eventId)\n {\n    uint _eth = eventMapping[eventId].eth;\n    eventMapping[eventId].eth = 0;\n    uint _dai = eventMapping[eventId].dai;\n    eventMapping[eventId].dai = 0;\n    msg.sender.transfer(_eth);\n    ERC20(address_dai).transfer(eventMapping[eventId].ownerAddress, _dai);\n }\n}\n\ninterface ERC20 {\n  function balanceOf(address tokenOwner) external view returns (uint balance);\n  function transfer(address receiver, uint amount) external returns(bool);\n  function approve(address spender, uint256 value) external returns (bool);\n  function transferFrom(address _from, address _to, uint256 _value) external returns(bool);\n}\n",
  "sourcePath": "/media/abhimanyu/New Volume/ticket-system/contracts/TicketOnChain.sol",
  "compiler": {
    "name": "solc",
    "version": "0.5.12+commit.7709ece9.Emscripten.clang"
  },
  "schemaVersion": "3.0.19",
  "updatedAt": "2019-12-31T11:51:44.656Z",
  "networkType": "ethereum",
  "devdoc": {
    "author": "Abhimanyu Shekhawat",
    "details": "The contract inherits ERC721 token to implement NFT",
    "methods": {
      "UserProfile()": {
        "details": "returns important aspects of user's profile",
        "return": "list of event hosted by userlist of tickets bought by a  userboolean array of of events checked in or not checked in by users, marked at same index as of array of tickets bought by userlist of Tokens(NFT) Owned by user"
      },
      "approve(address,uint256)": {
        "details": "Approves another address to transfer the given token ID The zero address indicates there is no approved address. There can only be one approved address per token at a given time. Can only be called by the token owner or an approved operator.",
        "params": {
          "to": "address to be approved for the given token ID",
          "tokenId": "uint256 ID of the token to be approved"
        }
      },
      "balanceOf(address)": {
        "details": "Gets the balance of the specified address.",
        "params": {
          "owner": "address to query the balance of"
        },
        "return": "uint256 representing the amount owned by the passed address"
      },
      "buyTicketsDAi(uint256)": {
        "details": "Buying event tickets using DAI and minting NFT of the event for the user",
        "params": {
          "eventId": "event id of the event whose tickets needs to be purchased"
        },
        "return": "token id of the minted NFT"
      },
      "buyTicketsEth(uint256)": {
        "details": "Buying event tickets using eth and minting NFT of the event for the user",
        "params": {
          "eventId": "event id of the event whose tickets needs to be purchased"
        },
        "return": "token id of the minted NFT"
      },
      "checkIn(uint256)": {
        "details": "checking in users at the event",
        "params": {
          "eventId": "event id of event"
        },
        "return": "success or faliure of check in"
      },
      "checkInList(uint256)": {
        "details": "Users can get list of people who checked in",
        "params": {
          "_id": "id of event"
        },
        "return": "list of attendes checked in (addresses)total number of tickets soldname of eventtotal number of checkins"
      },
      "constructor": {
        "details": "Makes the contract deployer as owner, set Token Symbol and Name"
      },
      "createEvent(uint256,uint256,string,string,string,uint256)": {
        "details": "Users can create new events",
        "params": {
          "_description": "description of event",
          "_metadata": "URI  for the NFT to be minted",
          "_name": "Name of event",
          "_noOfTickets": "number of total available tickets",
          "_priceDai": "price in Dai for event token",
          "_priceEth": "price in eth for event ticket"
        }
      },
      "getApproved(uint256)": {
        "details": "Gets the approved address for a token ID, or zero if no address set Reverts if the token ID does not exist.",
        "params": {
          "tokenId": "uint256 ID of the token to query the approval of"
        },
        "return": "address currently approved for the given token ID"
      },
      "isApprovedForAll(address,address)": {
        "details": "Tells whether an operator is approved by a given owner.",
        "params": {
          "operator": "operator address which you want to query the approval of",
          "owner": "owner address which you want to query the approval of"
        },
        "return": "bool whether the given operator is approved by the given owner"
      },
      "mintWithTokenURI(address,uint256,string)": {
        "details": "Function to mint tokens.",
        "params": {
          "to": "The address that will receive the minted tokens.",
          "tokenId": "The token id to mint.",
          "tokenURI": "The token URI of the minted token."
        },
        "return": "A boolean that indicates if the operation was successful."
      },
      "name()": {
        "details": "Gets the token name.",
        "return": "string representing the token name"
      },
      "ownerOf(uint256)": {
        "details": "Gets the owner of the specified token ID.",
        "params": {
          "tokenId": "uint256 ID of the token to query the owner of"
        },
        "return": "address currently marked as the owner of the given token ID"
      },
      "safeTransferFrom(address,address,uint256)": {
        "details": "Safely transfers the ownership of a given token ID to another address If the target address is a contract, it must implement {IERC721Receiver-onERC721Received}, which is called upon a safe transfer, and return the magic value `bytes4(keccak256(\"onERC721Received(address,address,uint256,bytes)\"))`; otherwise, the transfer is reverted. Requires the msg.sender to be the owner, approved, or operator",
        "params": {
          "from": "current owner of the token",
          "to": "address to receive the ownership of the given token ID",
          "tokenId": "uint256 ID of the token to be transferred"
        }
      },
      "safeTransferFrom(address,address,uint256,bytes)": {
        "details": "Safely transfers the ownership of a given token ID to another address If the target address is a contract, it must implement {IERC721Receiver-onERC721Received}, which is called upon a safe transfer, and return the magic value `bytes4(keccak256(\"onERC721Received(address,address,uint256,bytes)\"))`; otherwise, the transfer is reverted. Requires the _msgSender() to be the owner, approved, or operator",
        "params": {
          "_data": "bytes data to send along with a safe transfer check",
          "from": "current owner of the token",
          "to": "address to receive the ownership of the given token ID",
          "tokenId": "uint256 ID of the token to be transferred"
        }
      },
      "sales(uint256)": {
        "details": "infrmation about tickets sold",
        "params": {
          "_id": "event id"
        },
        "return": "list of addresses that checked intotal tickets soldname of eventtotal checkinslist of addresses that bought tickets"
      },
      "setApprovalForAll(address,bool)": {
        "details": "Sets or unsets the approval of a given operator An operator is allowed to transfer all tokens of the sender on their behalf.",
        "params": {
          "approved": "representing the status of the approval to be set",
          "to": "operator address to set the approval"
        }
      },
      "supportsInterface(bytes4)": {
        "details": "See {IERC165-supportsInterface}.     * Time complexity O(1), guaranteed to always use less than 30 000 gas."
      },
      "switchContractWorking()": {
        "details": "Creates a circuit breaker in case of unprecedented bugs, switches on and off"
      },
      "symbol()": {
        "details": "Gets the token symbol.",
        "return": "string representing the token symbol"
      },
      "tokenURI(uint256)": {
        "details": "Returns an URI for a given token ID. Throws if the token ID does not exist. May return an empty string.",
        "params": {
          "tokenId": "uint256 ID of the token to query"
        }
      },
      "transferFrom(address,address,uint256)": {
        "details": "Transfers the ownership of a given token ID to another address. Usage of this method is discouraged, use {safeTransferFrom} whenever possible. Requires the msg.sender to be the owner, approved, or operator.",
        "params": {
          "from": "current owner of the token",
          "to": "address to receive the ownership of the given token ID",
          "tokenId": "uint256 ID of the token to be transferred"
        }
      },
      "turnEventOff(uint256)": {
        "details": "Event owner can stop from more tickets from being sold",
        "params": {
          "eventId": "id of event that is to be disabled"
        }
      },
      "withdraw(uint256)": {
        "details": "allowing event host to withdraw fees deposited by users to buy tickets",
        "params": {
          "eventId": "id of event"
        }
      }
    },
    "title": "An event registeration and checkin contract"
  },
  "userdoc": {
    "methods": {
      "switchContractWorking()": {
        "notice": "Owner can disable the app temporarily in case of emergency"
      }
    },
    "notice": "The contract allows adding events and checking in into the events, NFT are issued as tickets"
  }
}