{
  "contractName": "TicketsOnChain",
  "abi": [
    {
      "inputs": [],
      "payable": false,
      "stateMutability": "nonpayable",
      "type": "constructor"
    },
    {
      "anonymous": false,
      "inputs": [
        {
          "indexed": true,
          "internalType": "address",
          "name": "owner",
          "type": "address"
        },
        {
          "indexed": true,
          "internalType": "address",
          "name": "approved",
          "type": "address"
        },
        {
          "indexed": true,
          "internalType": "uint256",
          "name": "tokenId",
          "type": "uint256"
        }
      ],
      "name": "Approval",
      "type": "event"
    },
    {
      "anonymous": false,
      "inputs": [
        {
          "indexed": true,
          "internalType": "address",
          "name": "owner",
          "type": "address"
        },
        {
          "indexed": true,
          "internalType": "address",
          "name": "operator",
          "type": "address"
        },
        {
          "indexed": false,
          "internalType": "bool",
          "name": "approved",
          "type": "bool"
        }
      ],
      "name": "ApprovalForAll",
      "type": "event"
    },
    {
      "anonymous": false,
      "inputs": [
        {
          "indexed": true,
          "internalType": "address",
          "name": "account",
          "type": "address"
        }
      ],
      "name": "MinterAdded",
      "type": "event"
    },
    {
      "anonymous": false,
      "inputs": [
        {
          "indexed": true,
          "internalType": "address",
          "name": "account",
          "type": "address"
        }
      ],
      "name": "MinterRemoved",
      "type": "event"
    },
    {
      "anonymous": false,
      "inputs": [
        {
          "indexed": true,
          "internalType": "address",
          "name": "from",
          "type": "address"
        },
        {
          "indexed": true,
          "internalType": "address",
          "name": "to",
          "type": "address"
        },
        {
          "indexed": true,
          "internalType": "uint256",
          "name": "tokenId",
          "type": "uint256"
        }
      ],
      "name": "Transfer",
      "type": "event"
    },
    {
      "constant": false,
      "inputs": [
        {
          "internalType": "address",
          "name": "account",
          "type": "address"
        }
      ],
      "name": "addMinter",
      "outputs": [],
      "payable": false,
      "stateMutability": "nonpayable",
      "type": "function"
    },
    {
      "constant": false,
      "inputs": [
        {
          "internalType": "address",
          "name": "to",
          "type": "address"
        },
        {
          "internalType": "uint256",
          "name": "tokenId",
          "type": "uint256"
        }
      ],
      "name": "approve",
      "outputs": [],
      "payable": false,
      "stateMutability": "nonpayable",
      "type": "function"
    },
    {
      "constant": true,
      "inputs": [
        {
          "internalType": "address",
          "name": "owner",
          "type": "address"
        }
      ],
      "name": "balanceOf",
      "outputs": [
        {
          "internalType": "uint256",
          "name": "",
          "type": "uint256"
        }
      ],
      "payable": false,
      "stateMutability": "view",
      "type": "function"
    },
    {
      "constant": true,
      "inputs": [],
      "name": "eventCount",
      "outputs": [
        {
          "internalType": "uint256",
          "name": "",
          "type": "uint256"
        }
      ],
      "payable": false,
      "stateMutability": "view",
      "type": "function"
    },
    {
      "constant": true,
      "inputs": [
        {
          "internalType": "uint256",
          "name": "",
          "type": "uint256"
        }
      ],
      "name": "eventMapping",
      "outputs": [
        {
          "internalType": "uint256",
          "name": "priceInEth",
          "type": "uint256"
        },
        {
          "internalType": "uint256",
          "name": "priceInDai",
          "type": "uint256"
        },
        {
          "internalType": "address",
          "name": "ownerAddress",
          "type": "address"
        },
        {
          "internalType": "string",
          "name": "metadata",
          "type": "string"
        },
        {
          "internalType": "string",
          "name": "name",
          "type": "string"
        },
        {
          "internalType": "bool",
          "name": "active",
          "type": "bool"
        },
        {
          "internalType": "uint256",
          "name": "eth",
          "type": "uint256"
        },
        {
          "internalType": "uint256",
          "name": "dai",
          "type": "uint256"
        },
        {
          "internalType": "uint256",
          "name": "ticketsIssued",
          "type": "uint256"
        },
        {
          "internalType": "string",
          "name": "description",
          "type": "string"
        },
        {
          "internalType": "uint256",
          "name": "eventId",
          "type": "uint256"
        }
      ],
      "payable": false,
      "stateMutability": "view",
      "type": "function"
    },
    {
      "constant": true,
      "inputs": [
        {
          "internalType": "uint256",
          "name": "tokenId",
          "type": "uint256"
        }
      ],
      "name": "getApproved",
      "outputs": [
        {
          "internalType": "address",
          "name": "",
          "type": "address"
        }
      ],
      "payable": false,
      "stateMutability": "view",
      "type": "function"
    },
    {
      "constant": true,
      "inputs": [
        {
          "internalType": "address",
          "name": "owner",
          "type": "address"
        },
        {
          "internalType": "address",
          "name": "operator",
          "type": "address"
        }
      ],
      "name": "isApprovedForAll",
      "outputs": [
        {
          "internalType": "bool",
          "name": "",
          "type": "bool"
        }
      ],
      "payable": false,
      "stateMutability": "view",
      "type": "function"
    },
    {
      "constant": true,
      "inputs": [
        {
          "internalType": "address",
          "name": "account",
          "type": "address"
        }
      ],
      "name": "isMinter",
      "outputs": [
        {
          "internalType": "bool",
          "name": "",
          "type": "bool"
        }
      ],
      "payable": false,
      "stateMutability": "view",
      "type": "function"
    },
    {
      "constant": false,
      "inputs": [
        {
          "internalType": "address",
          "name": "to",
          "type": "address"
        },
        {
          "internalType": "uint256",
          "name": "tokenId",
          "type": "uint256"
        },
        {
          "internalType": "string",
          "name": "tokenURI",
          "type": "string"
        }
      ],
      "name": "mintWithTokenURI",
      "outputs": [
        {
          "internalType": "bool",
          "name": "",
          "type": "bool"
        }
      ],
      "payable": false,
      "stateMutability": "nonpayable",
      "type": "function"
    },
    {
      "constant": true,
      "inputs": [],
      "name": "name",
      "outputs": [
        {
          "internalType": "string",
          "name": "",
          "type": "string"
        }
      ],
      "payable": false,
      "stateMutability": "view",
      "type": "function"
    },
    {
      "constant": true,
      "inputs": [],
      "name": "nftId",
      "outputs": [
        {
          "internalType": "uint256",
          "name": "",
          "type": "uint256"
        }
      ],
      "payable": false,
      "stateMutability": "view",
      "type": "function"
    },
    {
      "constant": true,
      "inputs": [
        {
          "internalType": "uint256",
          "name": "",
          "type": "uint256"
        }
      ],
      "name": "nftInformation",
      "outputs": [
        {
          "internalType": "uint256",
          "name": "eventId",
          "type": "uint256"
        },
        {
          "internalType": "address",
          "name": "owner",
          "type": "address"
        }
      ],
      "payable": false,
      "stateMutability": "view",
      "type": "function"
    },
    {
      "constant": true,
      "inputs": [
        {
          "internalType": "uint256",
          "name": "",
          "type": "uint256"
        }
      ],
      "name": "nftToEvent",
      "outputs": [
        {
          "internalType": "uint256",
          "name": "",
          "type": "uint256"
        }
      ],
      "payable": false,
      "stateMutability": "view",
      "type": "function"
    },
    {
      "constant": true,
      "inputs": [
        {
          "internalType": "uint256",
          "name": "tokenId",
          "type": "uint256"
        }
      ],
      "name": "ownerOf",
      "outputs": [
        {
          "internalType": "address",
          "name": "",
          "type": "address"
        }
      ],
      "payable": false,
      "stateMutability": "view",
      "type": "function"
    },
    {
      "constant": true,
      "inputs": [
        {
          "internalType": "address",
          "name": "",
          "type": "address"
        }
      ],
      "name": "ownerToEvent",
      "outputs": [
        {
          "internalType": "uint256",
          "name": "",
          "type": "uint256"
        }
      ],
      "payable": false,
      "stateMutability": "view",
      "type": "function"
    },
    {
      "constant": false,
      "inputs": [],
      "name": "renounceMinter",
      "outputs": [],
      "payable": false,
      "stateMutability": "nonpayable",
      "type": "function"
    },
    {
      "constant": false,
      "inputs": [
        {
          "internalType": "address",
          "name": "from",
          "type": "address"
        },
        {
          "internalType": "address",
          "name": "to",
          "type": "address"
        },
        {
          "internalType": "uint256",
          "name": "tokenId",
          "type": "uint256"
        }
      ],
      "name": "safeTransferFrom",
      "outputs": [],
      "payable": false,
      "stateMutability": "nonpayable",
      "type": "function"
    },
    {
      "constant": false,
      "inputs": [
        {
          "internalType": "address",
          "name": "from",
          "type": "address"
        },
        {
          "internalType": "address",
          "name": "to",
          "type": "address"
        },
        {
          "internalType": "uint256",
          "name": "tokenId",
          "type": "uint256"
        },
        {
          "internalType": "bytes",
          "name": "_data",
          "type": "bytes"
        }
      ],
      "name": "safeTransferFrom",
      "outputs": [],
      "payable": false,
      "stateMutability": "nonpayable",
      "type": "function"
    },
    {
      "constant": false,
      "inputs": [
        {
          "internalType": "address",
          "name": "to",
          "type": "address"
        },
        {
          "internalType": "bool",
          "name": "approved",
          "type": "bool"
        }
      ],
      "name": "setApprovalForAll",
      "outputs": [],
      "payable": false,
      "stateMutability": "nonpayable",
      "type": "function"
    },
    {
      "constant": true,
      "inputs": [
        {
          "internalType": "bytes4",
          "name": "interfaceId",
          "type": "bytes4"
        }
      ],
      "name": "supportsInterface",
      "outputs": [
        {
          "internalType": "bool",
          "name": "",
          "type": "bool"
        }
      ],
      "payable": false,
      "stateMutability": "view",
      "type": "function"
    },
    {
      "constant": true,
      "inputs": [],
      "name": "symbol",
      "outputs": [
        {
          "internalType": "string",
          "name": "",
          "type": "string"
        }
      ],
      "payable": false,
      "stateMutability": "view",
      "type": "function"
    },
    {
      "constant": true,
      "inputs": [
        {
          "internalType": "uint256",
          "name": "tokenId",
          "type": "uint256"
        }
      ],
      "name": "tokenURI",
      "outputs": [
        {
          "internalType": "string",
          "name": "",
          "type": "string"
        }
      ],
      "payable": false,
      "stateMutability": "view",
      "type": "function"
    },
    {
      "constant": false,
      "inputs": [
        {
          "internalType": "address",
          "name": "from",
          "type": "address"
        },
        {
          "internalType": "address",
          "name": "to",
          "type": "address"
        },
        {
          "internalType": "uint256",
          "name": "tokenId",
          "type": "uint256"
        }
      ],
      "name": "transferFrom",
      "outputs": [],
      "payable": false,
      "stateMutability": "nonpayable",
      "type": "function"
    },
    {
      "constant": false,
      "inputs": [
        {
          "internalType": "uint256",
          "name": "_priceEth",
          "type": "uint256"
        },
        {
          "internalType": "uint256",
          "name": "_priceDai",
          "type": "uint256"
        },
        {
          "internalType": "string",
          "name": "_metadata",
          "type": "string"
        },
        {
          "internalType": "string",
          "name": "_name",
          "type": "string"
        },
        {
          "internalType": "string",
          "name": "_description",
          "type": "string"
        },
        {
          "internalType": "uint256",
          "name": "noOfTickets",
          "type": "uint256"
        }
      ],
      "name": "createEvent",
      "outputs": [],
      "payable": false,
      "stateMutability": "nonpayable",
      "type": "function"
    },
    {
      "constant": false,
      "inputs": [
        {
          "internalType": "uint256",
          "name": "eventId",
          "type": "uint256"
        }
      ],
      "name": "turnEventOff",
      "outputs": [],
      "payable": false,
      "stateMutability": "nonpayable",
      "type": "function"
    },
    {
      "constant": false,
      "inputs": [
        {
          "internalType": "uint256",
          "name": "eventId",
          "type": "uint256"
        }
      ],
      "name": "buyTicketsEth",
      "outputs": [
        {
          "internalType": "uint256",
          "name": "tokenId",
          "type": "uint256"
        }
      ],
      "payable": true,
      "stateMutability": "payable",
      "type": "function"
    },
    {
      "constant": false,
      "inputs": [
        {
          "internalType": "uint256",
          "name": "eventId",
          "type": "uint256"
        }
      ],
      "name": "buyTicketsDAi",
      "outputs": [
        {
          "internalType": "uint256",
          "name": "tokenId",
          "type": "uint256"
        }
      ],
      "payable": false,
      "stateMutability": "nonpayable",
      "type": "function"
    },
    {
      "constant": false,
      "inputs": [
        {
          "internalType": "uint256",
          "name": "eventId",
          "type": "uint256"
        }
      ],
      "name": "checkIn",
      "outputs": [
        {
          "internalType": "bool",
          "name": "status",
          "type": "bool"
        }
      ],
      "payable": false,
      "stateMutability": "nonpayable",
      "type": "function"
    },
    {
      "constant": true,
      "inputs": [],
      "name": "UserProfile",
      "outputs": [
        {
          "internalType": "uint256[]",
          "name": "eventHost",
          "type": "uint256[]"
        },
        {
          "internalType": "uint256[]",
          "name": "eventList",
          "type": "uint256[]"
        },
        {
          "internalType": "bool[]",
          "name": "statusList",
          "type": "bool[]"
        },
        {
          "internalType": "uint256[]",
          "name": "tokenList",
          "type": "uint256[]"
        }
      ],
      "payable": false,
      "stateMutability": "view",
      "type": "function"
    },
    {
      "constant": false,
      "inputs": [
        {
          "internalType": "uint256",
          "name": "eventId",
          "type": "uint256"
        }
      ],
      "name": "withdraw",
      "outputs": [],
      "payable": false,
      "stateMutability": "nonpayable",
      "type": "function"
    },
    {
      "constant": false,
      "inputs": [],
      "name": "daicheck",
      "outputs": [
        {
          "internalType": "uint256",
          "name": "bal",
          "type": "uint256"
        }
      ],
      "payable": false,
      "stateMutability": "nonpayable",
      "type": "function"
    },
    {
      "constant": true,
      "inputs": [],
      "name": "retEventCount",
      "outputs": [
        {
          "internalType": "uint256",
          "name": "",
          "type": "uint256"
        }
      ],
      "payable": false,
      "stateMutability": "view",
      "type": "function"
    },
    {
      "constant": false,
      "inputs": [],
      "name": "daicheck2",
      "outputs": [],
      "payable": false,
      "stateMutability": "nonpayable",
      "type": "function"
    }
  ],
  "bytecode": "0x6080604052734f96fe3b7a6cf9725f59d353f723c1bdb64ca6aa600960006101000a81548173ffffffffffffffffffffffffffffffffffffffff021916908373ffffffffffffffffffffffffffffffffffffffff1602179055503480156200006657600080fd5b506040518060400160405280600b81526020017f6576656e745469636b65740000000000000000000000000000000000000000008152506040518060400160405280600481526020017f4345465400000000000000000000000000000000000000000000000000000000815250620000eb6301ffc9a760e01b6200017560201b60201c565b620001036380ac58cd60e01b6200017560201b60201c565b81600590805190602001906200011b929190620004ab565b50806006908051906020019062000134929190620004ab565b506200014d635b5e139f60e01b6200017560201b60201c565b50506200016f620001636200027e60201b60201c565b6200028660201b60201c565b6200055a565b63ffffffff60e01b817bffffffffffffffffffffffffffffffffffffffffffffffffffffffff1916141562000212576040517f08c379a000000000000000000000000000000000000000000000000000000000815260040180806020018281038252601c8152602001807f4552433136353a20696e76616c696420696e746572666163652069640000000081525060200191505060405180910390fd5b6001600080837bffffffffffffffffffffffffffffffffffffffffffffffffffffffff19167bffffffffffffffffffffffffffffffffffffffffffffffffffffffff1916815260200190815260200160002060006101000a81548160ff02191690831515021790555050565b600033905090565b620002a1816008620002e760201b62004b001790919060201c565b8073ffffffffffffffffffffffffffffffffffffffff167f6ae172837ea30b801fbfcdd4108aa1d5bf8ff775444fd70256b44e6bf3dfc3f660405160405180910390a250565b620002f98282620003cb60201b60201c565b156200036d576040517f08c379a000000000000000000000000000000000000000000000000000000000815260040180806020018281038252601f8152602001807f526f6c65733a206163636f756e7420616c72656164792068617320726f6c650081525060200191505060405180910390fd5b60018260000160008373ffffffffffffffffffffffffffffffffffffffff1673ffffffffffffffffffffffffffffffffffffffff16815260200190815260200160002060006101000a81548160ff0219169083151502179055505050565b60008073ffffffffffffffffffffffffffffffffffffffff168273ffffffffffffffffffffffffffffffffffffffff16141562000454576040517f08c379a000000000000000000000000000000000000000000000000000000000815260040180806020018281038252602281526020018062005aed6022913960400191505060405180910390fd5b8260000160008373ffffffffffffffffffffffffffffffffffffffff1673ffffffffffffffffffffffffffffffffffffffff16815260200190815260200160002060009054906101000a900460ff16905092915050565b828054600181600116156101000203166002900490600052602060002090601f016020900481019282601f10620004ee57805160ff19168380011785556200051f565b828001600101855582156200051f579182015b828111156200051e57825182559160200191906001019062000501565b5b5090506200052e919062000532565b5090565b6200055791905b808211156200055357600081600090555060010162000539565b5090565b90565b615583806200056a6000396000f3fe6080604052600436106101ee5760003560e01c80637ec219d31161010d578063aa271e1a116100a0578063c6bc51821161006f578063c6bc51821461114d578063c87b56dd14611178578063dccd42d31461122c578063e95a644f1461127b578063e985e9c5146112ce576101ee565b8063aa271e1a14610e29578063ace11fea14610e92578063b38d59a114610ef7578063b88d4fde1461103b576101ee565b806398650275116100dc5780639865027514610d3b5780639bb1e2b614610d52578063a22cb46514610da1578063a6e2351a14610dfe576101ee565b80637ec219d314610bed5780639116e9a214610c1857806395d89b4114610c5a578063983b2d5614610cea576101ee565b806342842e0e116101855780636352211e116101545780636352211e146108ee57806370a082311461096957806371be2e4a146109ce5780637a5f9fb1146109f9576101ee565b806342842e0e1461071757806346978ca9146107925780634fb26560146107cd57806350bb4e7f146107e4576101ee565b806316b79639116101c157806316b79639146103cb57806323b872dd1461044d57806328094cd9146104c85780632e1a7d4d146106dc576101ee565b806301ffc9a7146101f357806306fdde0314610265578063081812fc146102f5578063095ea7b314610370575b600080fd5b3480156101ff57600080fd5b5061024b6004803603602081101561021657600080fd5b8101908080357bffffffffffffffffffffffffffffffffffffffffffffffffffffffff19169060200190929190505050611357565b604051808215151515815260200191505060405180910390f35b34801561027157600080fd5b5061027a6113be565b6040518080602001828103825283818151815260200191508051906020019080838360005b838110156102ba57808201518184015260208101905061029f565b50505050905090810190601f1680156102e75780820380516001836020036101000a031916815260200191505b509250505060405180910390f35b34801561030157600080fd5b5061032e6004803603602081101561031857600080fd5b8101908080359060200190929190505050611460565b604051808273ffffffffffffffffffffffffffffffffffffffff1673ffffffffffffffffffffffffffffffffffffffff16815260200191505060405180910390f35b34801561037c57600080fd5b506103c96004803603604081101561039357600080fd5b81019080803573ffffffffffffffffffffffffffffffffffffffff169060200190929190803590602001909291905050506114fb565b005b3480156103d757600080fd5b50610404600480360360208110156103ee57600080fd5b81019080803590602001909291905050506116e2565b604051808381526020018273ffffffffffffffffffffffffffffffffffffffff1673ffffffffffffffffffffffffffffffffffffffff1681526020019250505060405180910390f35b34801561045957600080fd5b506104c66004803603606081101561047057600080fd5b81019080803573ffffffffffffffffffffffffffffffffffffffff169060200190929190803573ffffffffffffffffffffffffffffffffffffffff16906020019092919080359060200190929190505050611726565b005b3480156104d457600080fd5b506106da600480360360c08110156104eb57600080fd5b8101908080359060200190929190803590602001909291908035906020019064010000000081111561051c57600080fd5b82018360208201111561052e57600080fd5b8035906020019184600183028401116401000000008311171561055057600080fd5b91908080601f016020809104026020016040519081016040528093929190818152602001838380828437600081840152601f19601f820116905080830192505050505050509192919290803590602001906401000000008111156105b357600080fd5b8201836020820111156105c557600080fd5b803590602001918460018302840111640100000000831117156105e757600080fd5b91908080601f016020809104026020016040519081016040528093929190818152602001838380828437600081840152601f19601f8201169050808301925050505050505091929192908035906020019064010000000081111561064a57600080fd5b82018360208201111561065c57600080fd5b8035906020019184600183028401116401000000008311171561067e57600080fd5b91908080601f016020809104026020016040519081016040528093929190818152602001838380828437600081840152601f19601f8201169050808301925050505050505091929192908035906020019092919050505061179c565b005b3480156106e857600080fd5b50610715600480360360208110156106ff57600080fd5b8101908080359060200190929190505050611a9b565b005b34801561072357600080fd5b506107906004803603606081101561073a57600080fd5b81019080803573ffffffffffffffffffffffffffffffffffffffff169060200190929190803573ffffffffffffffffffffffffffffffffffffffff16906020019092919080359060200190929190505050611d03565b005b34801561079e57600080fd5b506107cb600480360360208110156107b557600080fd5b8101908080359060200190929190505050611d23565b005b3480156107d957600080fd5b506107e2611e2c565b005b3480156107f057600080fd5b506108d46004803603606081101561080757600080fd5b81019080803573ffffffffffffffffffffffffffffffffffffffff169060200190929190803590602001909291908035906020019064010000000081111561084e57600080fd5b82018360208201111561086057600080fd5b8035906020019184600183028401116401000000008311171561088257600080fd5b91908080601f016020809104026020016040519081016040528093929190818152602001838380828437600081840152601f19601f820116905080830192505050505050509192919290505050611f55565b604051808215151515815260200191505060405180910390f35b3480156108fa57600080fd5b506109276004803603602081101561091157600080fd5b8101908080359060200190929190505050611fdb565b604051808273ffffffffffffffffffffffffffffffffffffffff1673ffffffffffffffffffffffffffffffffffffffff16815260200191505060405180910390f35b34801561097557600080fd5b506109b86004803603602081101561098c57600080fd5b81019080803573ffffffffffffffffffffffffffffffffffffffff1690602001909291905050506120a3565b6040518082815260200191505060405180910390f35b3480156109da57600080fd5b506109e3612178565b6040518082815260200191505060405180910390f35b348015610a0557600080fd5b50610a3260048036036020811015610a1c57600080fd5b810190808035906020019092919050505061217e565b604051808c81526020018b81526020018a73ffffffffffffffffffffffffffffffffffffffff1673ffffffffffffffffffffffffffffffffffffffff1681526020018060200180602001891515151581526020018881526020018781526020018681526020018060200185815260200184810384528c818151815260200191508051906020019080838360005b83811015610ada578082015181840152602081019050610abf565b50505050905090810190601f168015610b075780820380516001836020036101000a031916815260200191505b5084810383528b818151815260200191508051906020019080838360005b83811015610b40578082015181840152602081019050610b25565b50505050905090810190601f168015610b6d5780820380516001836020036101000a031916815260200191505b50848103825286818151815260200191508051906020019080838360005b83811015610ba6578082015181840152602081019050610b8b565b50505050905090810190601f168015610bd35780820380516001836020036101000a031916815260200191505b509e50505050505050505050505050505060405180910390f35b348015610bf957600080fd5b50610c026123cd565b6040518082815260200191505060405180910390f35b610c4460048036036020811015610c2e57600080fd5b8101908080359060200190929190505050612595565b6040518082815260200191505060405180910390f35b348015610c6657600080fd5b50610c6f612c52565b6040518080602001828103825283818151815260200191508051906020019080838360005b83811015610caf578082015181840152602081019050610c94565b50505050905090810190601f168015610cdc5780820380516001836020036101000a031916815260200191505b509250505060405180910390f35b348015610cf657600080fd5b50610d3960048036036020811015610d0d57600080fd5b81019080803573ffffffffffffffffffffffffffffffffffffffff169060200190929190505050612cf4565b005b348015610d4757600080fd5b50610d50612d65565b005b348015610d5e57600080fd5b50610d8b60048036036020811015610d7557600080fd5b8101908080359060200190929190505050612d77565b6040518082815260200191505060405180910390f35b348015610dad57600080fd5b50610dfc60048036036040811015610dc457600080fd5b81019080803573ffffffffffffffffffffffffffffffffffffffff16906020019092919080351515906020019092919050505061374d565b005b348015610e0a57600080fd5b50610e13613905565b6040518082815260200191505060405180910390f35b348015610e3557600080fd5b50610e7860048036036020811015610e4c57600080fd5b81019080803573ffffffffffffffffffffffffffffffffffffffff16906020019092919050505061390f565b604051808215151515815260200191505060405180910390f35b348015610e9e57600080fd5b50610ee160048036036020811015610eb557600080fd5b81019080803573ffffffffffffffffffffffffffffffffffffffff16906020019092919050505061392c565b6040518082815260200191505060405180910390f35b348015610f0357600080fd5b50610f0c613944565b6040518080602001806020018060200180602001858103855289818151815260200191508051906020019060200280838360005b83811015610f5b578082015181840152602081019050610f40565b50505050905001858103845288818151815260200191508051906020019060200280838360005b83811015610f9d578082015181840152602081019050610f82565b50505050905001858103835287818151815260200191508051906020019060200280838360005b83811015610fdf578082015181840152602081019050610fc4565b50505050905001858103825286818151815260200191508051906020019060200280838360005b83811015611021578082015181840152602081019050611006565b505050509050019850505050505050505060405180910390f35b34801561104757600080fd5b5061114b6004803603608081101561105e57600080fd5b81019080803573ffffffffffffffffffffffffffffffffffffffff169060200190929190803573ffffffffffffffffffffffffffffffffffffffff16906020019092919080359060200190929190803590602001906401000000008111156110c557600080fd5b8201836020820111156110d757600080fd5b803590602001918460018302840111640100000000831117156110f957600080fd5b91908080601f016020809104026020016040519081016040528093929190818152602001838380828437600081840152601f19601f820116905080830192505050505050509192919290505050613cb7565b005b34801561115957600080fd5b50611162613d2f565b6040518082815260200191505060405180910390f35b34801561118457600080fd5b506111b16004803603602081101561119b57600080fd5b8101908080359060200190929190505050613d35565b6040518080602001828103825283818151815260200191508051906020019080838360005b838110156111f15780820151818401526020810190506111d6565b50505050905090810190601f16801561121e5780820380516001836020036101000a031916815260200191505b509250505060405180910390f35b34801561123857600080fd5b506112656004803603602081101561124f57600080fd5b8101908080359060200190929190505050613e48565b6040518082815260200191505060405180910390f35b34801561128757600080fd5b506112b46004803603602081101561129e57600080fd5b8101908080359060200190929190505050613e60565b604051808215151515815260200191505060405180910390f35b3480156112da57600080fd5b5061133d600480360360408110156112f157600080fd5b81019080803573ffffffffffffffffffffffffffffffffffffffff169060200190929190803573ffffffffffffffffffffffffffffffffffffffff1690602001909291905050506140f8565b604051808215151515815260200191505060405180910390f35b6000806000837bffffffffffffffffffffffffffffffffffffffffffffffffffffffff19167bffffffffffffffffffffffffffffffffffffffffffffffffffffffff1916815260200190815260200160002060009054906101000a900460ff169050919050565b606060058054600181600116156101000203166002900480601f0160208091040260200160405190810160405280929190818152602001828054600181600116156101000203166002900480156114565780601f1061142b57610100808354040283529160200191611456565b820191906000526020600020905b81548152906001019060200180831161143957829003601f168201915b5050505050905090565b600061146b8261418c565b6114c0576040517f08c379a000000000000000000000000000000000000000000000000000000000815260040180806020018281038252602c81526020018061542b602c913960400191505060405180910390fd5b6002600083815260200190815260200160002060009054906101000a900473ffffffffffffffffffffffffffffffffffffffff169050919050565b600061150682611fdb565b90508073ffffffffffffffffffffffffffffffffffffffff168373ffffffffffffffffffffffffffffffffffffffff16141561158d576040517f08c379a00000000000000000000000000000000000000000000000000000000081526004018080602001828103825260218152602001806154fd6021913960400191505060405180910390fd5b8073ffffffffffffffffffffffffffffffffffffffff166115ac6141fe565b73ffffffffffffffffffffffffffffffffffffffff1614806115db57506115da816115d56141fe565b6140f8565b5b611630576040517f08c379a000000000000000000000000000000000000000000000000000000000815260040180806020018281038252603881526020018061534f6038913960400191505060405180910390fd5b826002600084815260200190815260200160002060006101000a81548173ffffffffffffffffffffffffffffffffffffffff021916908373ffffffffffffffffffffffffffffffffffffffff160217905550818373ffffffffffffffffffffffffffffffffffffffff168273ffffffffffffffffffffffffffffffffffffffff167f8c5be1e5ebec7d5bd14f71427d1e84f3dd0314c0f7b2291e5b200ac8c7c3b92560405160405180910390a4505050565b600d6020528060005260406000206000915090508060000154908060010160009054906101000a900473ffffffffffffffffffffffffffffffffffffffff16905082565b6117376117316141fe565b82614206565b61178c576040517f08c379a000000000000000000000000000000000000000000000000000000000815260040180806020018281038252603181526020018061551e6031913960400191505060405180910390fd5b6117978383836142fa565b505050565b6117a4614fdd565b604051806101a001604052808881526020018781526020013373ffffffffffffffffffffffffffffffffffffffff168152602001868152602001858152602001836040519080825280602002602001820160405280156118135781602001602082028038833980820191505090505b508152602001836040519080825280602002602001820160405280156118485781602001602082028038833980820191505090505b508152602001600115158152602001600081526020016000815260200160008152602001848152602001600e548152509050600e54600a60003373ffffffffffffffffffffffffffffffffffffffff1673ffffffffffffffffffffffffffffffffffffffff16815260200190815260200160002081905550601060003373ffffffffffffffffffffffffffffffffffffffff1673ffffffffffffffffffffffffffffffffffffffff168152602001908152602001600020600001600e54908060018154018082558091505090600182039060005260206000200160009091929091909150555080600f6000600e548152602001908152602001600020600082015181600001556020820151816001015560408201518160020160006101000a81548173ffffffffffffffffffffffffffffffffffffffff021916908373ffffffffffffffffffffffffffffffffffffffff16021790555060608201518160030190805190602001906119bb92919061505d565b5060808201518160040190805190602001906119d892919061505d565b5060a08201518160050190805190602001906119f59291906150dd565b5060c0820151816007019080519060200190611a1292919061512a565b5060e08201518160080160006101000a81548160ff021916908315150217905550610100820151816009015561012082015181600a015561014082015181600b015561016082015181600c019080519060200190611a7192919061505d565b5061018082015181600d0155905050600e6000815480929190600101919050555050505050505050565b3373ffffffffffffffffffffffffffffffffffffffff16600f600083815260200190815260200160002060020160009054906101000a900473ffffffffffffffffffffffffffffffffffffffff1673ffffffffffffffffffffffffffffffffffffffff1614611b72576040517f08c379a00000000000000000000000000000000000000000000000000000000081526004018080602001828103825260158152602001807f596f7520617265206e6f7420746865206f776e6572000000000000000000000081525060200191505060405180910390fd5b3373ffffffffffffffffffffffffffffffffffffffff166108fc600f6000848152602001908152602001600020600901549081150290604051600060405180830381858888f19350505050158015611bce573d6000803e3d6000fd5b50600960009054906101000a900473ffffffffffffffffffffffffffffffffffffffff1673ffffffffffffffffffffffffffffffffffffffff1663a9059cbb600f600084815260200190815260200160002060020160009054906101000a900473ffffffffffffffffffffffffffffffffffffffff16600f6000858152602001908152602001600020600a01546040518363ffffffff1660e01b8152600401808373ffffffffffffffffffffffffffffffffffffffff1673ffffffffffffffffffffffffffffffffffffffff16815260200182815260200192505050602060405180830381600087803b158015611cc457600080fd5b505af1158015611cd8573d6000803e3d6000fd5b505050506040513d6020811015611cee57600080fd5b81019080805190602001909291905050505050565b611d1e83838360405180602001604052806000815250613cb7565b505050565b3373ffffffffffffffffffffffffffffffffffffffff16600f600083815260200190815260200160002060020160009054906101000a900473ffffffffffffffffffffffffffffffffffffffff1673ffffffffffffffffffffffffffffffffffffffff1614611dfa576040517f08c379a000000000000000000000000000000000000000000000000000000000815260040180806020018281038252601b8152602001807f796f752063616e742063616c6c20746869732066756e6374696f6e000000000081525060200191505060405180910390fd5b6000600f600083815260200190815260200160002060080160006101000a81548160ff02191690831515021790555050565b60003390506000600960009054906101000a900473ffffffffffffffffffffffffffffffffffffffff1690508073ffffffffffffffffffffffffffffffffffffffff166323b872dd33306103e86040518463ffffffff1660e01b8152600401808473ffffffffffffffffffffffffffffffffffffffff1673ffffffffffffffffffffffffffffffffffffffff1681526020018373ffffffffffffffffffffffffffffffffffffffff1673ffffffffffffffffffffffffffffffffffffffff1681526020018281526020019350505050602060405180830381600087803b158015611f1557600080fd5b505af1158015611f29573d6000803e3d6000fd5b505050506040513d6020811015611f3f57600080fd5b8101908080519060200190929190505050505050565b6000611f67611f626141fe565b61390f565b611fbc576040517f08c379a00000000000000000000000000000000000000000000000000000000081526004018080602001828103825260308152602001806153da6030913960400191505060405180910390fd5b611fc68484614555565b611fd0838361476d565b600190509392505050565b6000806001600084815260200190815260200160002060009054906101000a900473ffffffffffffffffffffffffffffffffffffffff169050600073ffffffffffffffffffffffffffffffffffffffff168173ffffffffffffffffffffffffffffffffffffffff16141561209a576040517f08c379a00000000000000000000000000000000000000000000000000000000081526004018080602001828103825260298152602001806153b16029913960400191505060405180910390fd5b80915050919050565b60008073ffffffffffffffffffffffffffffffffffffffff168273ffffffffffffffffffffffffffffffffffffffff16141561212a576040517f08c379a000000000000000000000000000000000000000000000000000000000815260040180806020018281038252602a815260200180615387602a913960400191505060405180910390fd5b612171600360008473ffffffffffffffffffffffffffffffffffffffff1673ffffffffffffffffffffffffffffffffffffffff1681526020019081526020016000206147f7565b9050919050565b600e5481565b600f6020528060005260406000206000915090508060000154908060010154908060020160009054906101000a900473ffffffffffffffffffffffffffffffffffffffff1690806003018054600181600116156101000203166002900480601f01602080910402602001604051908101604052809291908181526020018280546001816001161561010002031660029004801561225c5780601f106122315761010080835404028352916020019161225c565b820191906000526020600020905b81548152906001019060200180831161223f57829003601f168201915b505050505090806004018054600181600116156101000203166002900480601f0160208091040260200160405190810160405280929190818152602001828054600181600116156101000203166002900480156122fa5780601f106122cf576101008083540402835291602001916122fa565b820191906000526020600020905b8154815290600101906020018083116122dd57829003601f168201915b5050505050908060080160009054906101000a900460ff169080600901549080600a01549080600b01549080600c018054600181600116156101000203166002900480601f0160208091040260200160405190810160405280929190818152602001828054600181600116156101000203166002900480156123bd5780601f10612392576101008083540402835291602001916123bd565b820191906000526020600020905b8154815290600101906020018083116123a057829003601f168201915b50505050509080600d015490508b565b6000600960009054906101000a900473ffffffffffffffffffffffffffffffffffffffff1673ffffffffffffffffffffffffffffffffffffffff166370a08231336040518263ffffffff1660e01b8152600401808273ffffffffffffffffffffffffffffffffffffffff1673ffffffffffffffffffffffffffffffffffffffff16815260200191505060206040518083038186803b15801561246e57600080fd5b505afa158015612482573d6000803e3d6000fd5b505050506040513d602081101561249857600080fd5b81019080805190602001909291905050509050600960009054906101000a900473ffffffffffffffffffffffffffffffffffffffff1673ffffffffffffffffffffffffffffffffffffffff1663095ea7b3306103e86040518363ffffffff1660e01b8152600401808373ffffffffffffffffffffffffffffffffffffffff1673ffffffffffffffffffffffffffffffffffffffff16815260200182815260200192505050602060405180830381600087803b15801561255657600080fd5b505af115801561256a573d6000803e3d6000fd5b505050506040513d602081101561258057600080fd5b81019080805190602001909291905050505090565b6000600f600083815260200190815260200160002060070180549050600f6000848152602001908152602001600020600b01541061263b576040517f08c379a00000000000000000000000000000000000000000000000000000000081526004018080602001828103825260108152602001807f416c6c207469636b65747320736f6c640000000000000000000000000000000081525060200191505060405180910390fd5b600f6000838152602001908152602001600020600001543410156126c7576040517f08c379a00000000000000000000000000000000000000000000000000000000081526004018080602001828103825260178152602001807f496e73756666696369656e742076616c75652073656e6400000000000000000081525060200191505060405180910390fd5b60011515600f600084815260200190815260200160002060080160009054906101000a900460ff16151514612764576040517f08c379a000000000000000000000000000000000000000000000000000000000815260040180806020018281038252601b8152602001807f4576656e74206e6f7420617661696c61626c6520616e796d6f7265000000000081525060200191505060405180910390fd5b60001515600f600084815260200190815260200160002060060160003373ffffffffffffffffffffffffffffffffffffffff1673ffffffffffffffffffffffffffffffffffffffff16815260200190815260200160002060009054906101000a900460ff16151514612821576040517f08c379a000000000000000000000000000000000000000000000000000000000815260040180806020018281038252603081526020018061529d6030913960400191505060405180910390fd5b6000600f6000848152602001908152602001600020600b0154905081600f6000858152602001908152602001600020600501828154811061285e57fe5b90600052602060002001819055506001600f600085815260200190815260200160002060060160003373ffffffffffffffffffffffffffffffffffffffff1673ffffffffffffffffffffffffffffffffffffffff16815260200190815260200160002060006101000a81548160ff02191690831515021790555033600f600085815260200190815260200160002060070182815481106128fa57fe5b9060005260206000200160006101000a81548173ffffffffffffffffffffffffffffffffffffffff021916908373ffffffffffffffffffffffffffffffffffffffff16021790555034600f60008581526020019081526020016000206009015401600f600085815260200190815260200160002060090181905550600f6000848152602001908152602001600020600b01600081548092919060010191905055506129a733600b54614555565b612a61600b54600f60008681526020019081526020016000206003018054600181600116156101000203166002900480601f016020809104026020016040519081016040528092919081815260200182805460018160011615610100020316600290048015612a575780601f10612a2c57610100808354040283529160200191612a57565b820191906000526020600020905b815481529060010190602001808311612a3a57829003601f168201915b505050505061476d565b82600c6000600b5481526020019081526020016000208190555082600d6000600b5481526020019081526020016000206000018190555033600d6000600b54815260200190815260200160002060010160006101000a81548173ffffffffffffffffffffffffffffffffffffffff021916908373ffffffffffffffffffffffffffffffffffffffff160217905550601060003373ffffffffffffffffffffffffffffffffffffffff1673ffffffffffffffffffffffffffffffffffffffff168152602001908152602001600020600101600b549080600181540180825580915050906001820390600052602060002001600090919290919091505550601060003373ffffffffffffffffffffffffffffffffffffffff1673ffffffffffffffffffffffffffffffffffffffff1681526020019081526020016000206002018390806001815401808255809150509060018203906000526020600020016000909192909190915055506001601060003373ffffffffffffffffffffffffffffffffffffffff1673ffffffffffffffffffffffffffffffffffffffff168152602001908152602001600020600401600085815260200190815260200160002060006101000a81548160ff021916908315150217905550600b60008154809291906001019190505550600b54915050919050565b606060068054600181600116156101000203166002900480601f016020809104026020016040519081016040528092919081815260200182805460018160011615610100020316600290048015612cea5780601f10612cbf57610100808354040283529160200191612cea565b820191906000526020600020905b815481529060010190602001808311612ccd57829003601f168201915b5050505050905090565b612d04612cff6141fe565b61390f565b612d59576040517f08c379a00000000000000000000000000000000000000000000000000000000081526004018080602001828103825260308152602001806153da6030913960400191505060405180910390fd5b612d6281614805565b50565b612d75612d706141fe565b61485f565b565b6000600f600083815260200190815260200160002060070180549050600f6000848152602001908152602001600020600b015410612e1d576040517f08c379a00000000000000000000000000000000000000000000000000000000081526004018080602001828103825260108152602001807f416c6c207469636b65747320736f6c640000000000000000000000000000000081525060200191505060405180910390fd5b600f600083815260200190815260200160002060010154600960009054906101000a900473ffffffffffffffffffffffffffffffffffffffff1673ffffffffffffffffffffffffffffffffffffffff166370a08231336040518263ffffffff1660e01b8152600401808273ffffffffffffffffffffffffffffffffffffffff1673ffffffffffffffffffffffffffffffffffffffff16815260200191505060206040518083038186803b158015612ed357600080fd5b505afa158015612ee7573d6000803e3d6000fd5b505050506040513d6020811015612efd57600080fd5b81019080805190602001909291905050501015612f82576040517f08c379a00000000000000000000000000000000000000000000000000000000081526004018080602001828103825260178152602001807f496e73756666696369656e742076616c75652073656e6400000000000000000081525060200191505060405180910390fd5b60011515600f600084815260200190815260200160002060080160009054906101000a900460ff1615151461301f576040517f08c379a000000000000000000000000000000000000000000000000000000000815260040180806020018281038252601b8152602001807f4576656e74206e6f7420617661696c61626c6520616e796d6f7265000000000081525060200191505060405180910390fd5b60001515600f600084815260200190815260200160002060060160003373ffffffffffffffffffffffffffffffffffffffff1673ffffffffffffffffffffffffffffffffffffffff16815260200190815260200160002060009054906101000a900460ff161515146130dc576040517f08c379a000000000000000000000000000000000000000000000000000000000815260040180806020018281038252603081526020018061529d6030913960400191505060405180910390fd5b600960009054906101000a900473ffffffffffffffffffffffffffffffffffffffff1673ffffffffffffffffffffffffffffffffffffffff1663095ea7b330600f6000868152602001908152602001600020600101546040518363ffffffff1660e01b8152600401808373ffffffffffffffffffffffffffffffffffffffff1673ffffffffffffffffffffffffffffffffffffffff16815260200182815260200192505050602060405180830381600087803b15801561319b57600080fd5b505af11580156131af573d6000803e3d6000fd5b505050506040513d60208110156131c557600080fd5b810190808051906020019092919050505050600960009054906101000a900473ffffffffffffffffffffffffffffffffffffffff1673ffffffffffffffffffffffffffffffffffffffff166323b872dd3330600f6000878152602001908152602001600020600101546040518463ffffffff1660e01b8152600401808473ffffffffffffffffffffffffffffffffffffffff1673ffffffffffffffffffffffffffffffffffffffff1681526020018373ffffffffffffffffffffffffffffffffffffffff1673ffffffffffffffffffffffffffffffffffffffff1681526020018281526020019350505050602060405180830381600087803b1580156132ca57600080fd5b505af11580156132de573d6000803e3d6000fd5b505050506040513d60208110156132f457600080fd5b8101908080519060200190929190505050506000600f6000848152602001908152602001600020600b0154905081600f6000858152602001908152602001600020600501828154811061334357fe5b90600052602060002001819055506001600f600085815260200190815260200160002060060160003373ffffffffffffffffffffffffffffffffffffffff1673ffffffffffffffffffffffffffffffffffffffff16815260200190815260200160002060006101000a81548160ff02191690831515021790555033600f600085815260200190815260200160002060070182815481106133df57fe5b9060005260206000200160006101000a81548173ffffffffffffffffffffffffffffffffffffffff021916908373ffffffffffffffffffffffffffffffffffffffff160217905550600f600084815260200190815260200160002060010154600f6000858152602001908152602001600020600a015401600f6000858152602001908152602001600020600a0181905550600f6000848152602001908152602001600020600b01600081548092919060010191905055506134a233600b54614555565b61355c600b54600f60008681526020019081526020016000206003018054600181600116156101000203166002900480601f0160208091040260200160405190810160405280929190818152602001828054600181600116156101000203166002900480156135525780601f1061352757610100808354040283529160200191613552565b820191906000526020600020905b81548152906001019060200180831161353557829003601f168201915b505050505061476d565b82600c6000600b5481526020019081526020016000208190555082600d6000600b5481526020019081526020016000206000018190555033600d6000600b54815260200190815260200160002060010160006101000a81548173ffffffffffffffffffffffffffffffffffffffff021916908373ffffffffffffffffffffffffffffffffffffffff160217905550601060003373ffffffffffffffffffffffffffffffffffffffff1673ffffffffffffffffffffffffffffffffffffffff168152602001908152602001600020600101600b549080600181540180825580915050906001820390600052602060002001600090919290919091505550601060003373ffffffffffffffffffffffffffffffffffffffff1673ffffffffffffffffffffffffffffffffffffffff1681526020019081526020016000206002018390806001815401808255809150509060018203906000526020600020016000909192909190915055506001601060003373ffffffffffffffffffffffffffffffffffffffff1673ffffffffffffffffffffffffffffffffffffffff168152602001908152602001600020600401600085815260200190815260200160002060006101000a81548160ff021916908315150217905550600b60008154809291906001019190505550600b54915050919050565b6137556141fe565b73ffffffffffffffffffffffffffffffffffffffff168273ffffffffffffffffffffffffffffffffffffffff1614156137f6576040517f08c379a00000000000000000000000000000000000000000000000000000000081526004018080602001828103825260198152602001807f4552433732313a20617070726f766520746f2063616c6c65720000000000000081525060200191505060405180910390fd5b80600460006138036141fe565b73ffffffffffffffffffffffffffffffffffffffff1673ffffffffffffffffffffffffffffffffffffffff16815260200190815260200160002060008473ffffffffffffffffffffffffffffffffffffffff1673ffffffffffffffffffffffffffffffffffffffff16815260200190815260200160002060006101000a81548160ff0219169083151502179055508173ffffffffffffffffffffffffffffffffffffffff166138b06141fe565b73ffffffffffffffffffffffffffffffffffffffff167f17307eab39ab6107e8899845ad3d59bd9653f200f220920489ca2b5937696c3183604051808215151515815260200191505060405180910390a35050565b6000600e54905090565b60006139258260086148b990919063ffffffff16565b9050919050565b600a6020528060005260406000206000915090505481565b606080606080601060003373ffffffffffffffffffffffffffffffffffffffff1673ffffffffffffffffffffffffffffffffffffffff1681526020019081526020016000206000018054806020026020016040519081016040528092919081815260200182805480156139d657602002820191906000526020600020905b8154815260200190600101908083116139c2575b50505050509350601060003373ffffffffffffffffffffffffffffffffffffffff1673ffffffffffffffffffffffffffffffffffffffff168152602001908152602001600020600201805480602002602001604051908101604052809291908181526020018280548015613a6957602002820191906000526020600020905b815481526020019060010190808311613a55575b50505050509250601060003373ffffffffffffffffffffffffffffffffffffffff1673ffffffffffffffffffffffffffffffffffffffff168152602001908152602001600020600101805480602002602001604051908101604052809291908181526020018280548015613afc57602002820191906000526020600020905b815481526020019060010190808311613ae8575b50505050509050601060003373ffffffffffffffffffffffffffffffffffffffff1673ffffffffffffffffffffffffffffffffffffffff16815260200190815260200160002060020180549050604051908082528060200260200182016040528015613b775781602001602082028038833980820191505090505b50915060008090505b601060003373ffffffffffffffffffffffffffffffffffffffff1673ffffffffffffffffffffffffffffffffffffffff16815260200190815260200160002060020180549050811015613cb057601060003373ffffffffffffffffffffffffffffffffffffffff1673ffffffffffffffffffffffffffffffffffffffff1681526020019081526020016000206004016000601060003373ffffffffffffffffffffffffffffffffffffffff1673ffffffffffffffffffffffffffffffffffffffff1681526020019081526020016000206002018381548110613c5e57fe5b9060005260206000200154815260200190815260200160002060009054906101000a900460ff16838281518110613c9157fe5b6020026020010190151590811515815250508080600101915050613b80565b5090919293565b613cc8613cc26141fe565b83614206565b613d1d576040517f08c379a000000000000000000000000000000000000000000000000000000000815260040180806020018281038252603181526020018061551e6031913960400191505060405180910390fd5b613d2984848484614997565b50505050565b600b5481565b6060613d408261418c565b613d95576040517f08c379a000000000000000000000000000000000000000000000000000000000815260040180806020018281038252602f8152602001806154ce602f913960400191505060405180910390fd5b600760008381526020019081526020016000208054600181600116156101000203166002900480601f016020809104026020016040519081016040528092919081815260200182805460018160011615610100020316600290048015613e3c5780601f10613e1157610100808354040283529160200191613e3c565b820191906000526020600020905b815481529060010190602001808311613e1f57829003601f168201915b50505050509050919050565b600c6020528060005260406000206000915090505481565b600060011515601060003373ffffffffffffffffffffffffffffffffffffffff1673ffffffffffffffffffffffffffffffffffffffff168152602001908152602001600020600401600084815260200190815260200160002060009054906101000a900460ff16151514613f3c576040517f08c379a000000000000000000000000000000000000000000000000000000000815260040180806020018281038252601b8152602001807f596f75206861766520616c726561647920636865636b656420696e000000000081525060200191505060405180910390fd5b60011515601060003373ffffffffffffffffffffffffffffffffffffffff1673ffffffffffffffffffffffffffffffffffffffff168152602001908152602001600020600301600084815260200190815260200160002060009054906101000a900460ff1615151415614017576040517f08c379a000000000000000000000000000000000000000000000000000000000815260040180806020018281038252601a8152602001807f596f75206861766520616c726561647920636865636b6564496e00000000000081525060200191505060405180910390fd5b6001601060003373ffffffffffffffffffffffffffffffffffffffff1673ffffffffffffffffffffffffffffffffffffffff168152602001908152602001600020600301600084815260200190815260200160002060006101000a81548160ff0219169083151502179055506000601060003373ffffffffffffffffffffffffffffffffffffffff1673ffffffffffffffffffffffffffffffffffffffff168152602001908152602001600020600401600084815260200190815260200160002060006101000a81548160ff02191690831515021790555060019050919050565b6000600460008473ffffffffffffffffffffffffffffffffffffffff1673ffffffffffffffffffffffffffffffffffffffff16815260200190815260200160002060008373ffffffffffffffffffffffffffffffffffffffff1673ffffffffffffffffffffffffffffffffffffffff16815260200190815260200160002060009054906101000a900460ff16905092915050565b6000806001600084815260200190815260200160002060009054906101000a900473ffffffffffffffffffffffffffffffffffffffff169050600073ffffffffffffffffffffffffffffffffffffffff168173ffffffffffffffffffffffffffffffffffffffff161415915050919050565b600033905090565b60006142118261418c565b614266576040517f08c379a000000000000000000000000000000000000000000000000000000000815260040180806020018281038252602c815260200180615323602c913960400191505060405180910390fd5b600061427183611fdb565b90508073ffffffffffffffffffffffffffffffffffffffff168473ffffffffffffffffffffffffffffffffffffffff1614806142e057508373ffffffffffffffffffffffffffffffffffffffff166142c884611460565b73ffffffffffffffffffffffffffffffffffffffff16145b806142f157506142f081856140f8565b5b91505092915050565b8273ffffffffffffffffffffffffffffffffffffffff1661431a82611fdb565b73ffffffffffffffffffffffffffffffffffffffff1614614386576040517f08c379a00000000000000000000000000000000000000000000000000000000081526004018080602001828103825260298152602001806154a56029913960400191505060405180910390fd5b600073ffffffffffffffffffffffffffffffffffffffff168273ffffffffffffffffffffffffffffffffffffffff16141561440c576040517f08c379a00000000000000000000000000000000000000000000000000000000081526004018080602001828103825260248152602001806152ff6024913960400191505060405180910390fd5b61441581614a09565b61445c600360008573ffffffffffffffffffffffffffffffffffffffff1673ffffffffffffffffffffffffffffffffffffffff168152602001908152602001600020614ac7565b6144a3600360008473ffffffffffffffffffffffffffffffffffffffff1673ffffffffffffffffffffffffffffffffffffffff168152602001908152602001600020614aea565b816001600083815260200190815260200160002060006101000a81548173ffffffffffffffffffffffffffffffffffffffff021916908373ffffffffffffffffffffffffffffffffffffffff160217905550808273ffffffffffffffffffffffffffffffffffffffff168473ffffffffffffffffffffffffffffffffffffffff167fddf252ad1be2c89b69c2b068fc378daa952ba7f163c4a11628f55a4df523b3ef60405160405180910390a4505050565b600073ffffffffffffffffffffffffffffffffffffffff168273ffffffffffffffffffffffffffffffffffffffff1614156145f8576040517f08c379a00000000000000000000000000000000000000000000000000000000081526004018080602001828103825260208152602001807f4552433732313a206d696e7420746f20746865207a65726f206164647265737381525060200191505060405180910390fd5b6146018161418c565b15614674576040517f08c379a000000000000000000000000000000000000000000000000000000000815260040180806020018281038252601c8152602001807f4552433732313a20746f6b656e20616c7265616479206d696e7465640000000081525060200191505060405180910390fd5b816001600083815260200190815260200160002060006101000a81548173ffffffffffffffffffffffffffffffffffffffff021916908373ffffffffffffffffffffffffffffffffffffffff16021790555061470d600360008473ffffffffffffffffffffffffffffffffffffffff1673ffffffffffffffffffffffffffffffffffffffff168152602001908152602001600020614aea565b808273ffffffffffffffffffffffffffffffffffffffff16600073ffffffffffffffffffffffffffffffffffffffff167fddf252ad1be2c89b69c2b068fc378daa952ba7f163c4a11628f55a4df523b3ef60405160405180910390a45050565b6147768261418c565b6147cb576040517f08c379a000000000000000000000000000000000000000000000000000000000815260040180806020018281038252602c815260200180615457602c913960400191505060405180910390fd5b806007600084815260200190815260200160002090805190602001906147f29291906151b4565b505050565b600081600001549050919050565b614819816008614b0090919063ffffffff16565b8073ffffffffffffffffffffffffffffffffffffffff167f6ae172837ea30b801fbfcdd4108aa1d5bf8ff775444fd70256b44e6bf3dfc3f660405160405180910390a250565b614873816008614bdb90919063ffffffff16565b8073ffffffffffffffffffffffffffffffffffffffff167fe94479a9f7e1952cc78f2d6baab678adc1b772d936c6583def489e524cb6669260405160405180910390a250565b60008073ffffffffffffffffffffffffffffffffffffffff168273ffffffffffffffffffffffffffffffffffffffff161415614940576040517f08c379a00000000000000000000000000000000000000000000000000000000081526004018080602001828103825260228152602001806154836022913960400191505060405180910390fd5b8260000160008373ffffffffffffffffffffffffffffffffffffffff1673ffffffffffffffffffffffffffffffffffffffff16815260200190815260200160002060009054906101000a900460ff16905092915050565b6149a28484846142fa565b6149ae84848484614c98565b614a03576040517f08c379a00000000000000000000000000000000000000000000000000000000081526004018080602001828103825260328152602001806152cd6032913960400191505060405180910390fd5b50505050565b600073ffffffffffffffffffffffffffffffffffffffff166002600083815260200190815260200160002060009054906101000a900473ffffffffffffffffffffffffffffffffffffffff1673ffffffffffffffffffffffffffffffffffffffff1614614ac45760006002600083815260200190815260200160002060006101000a81548173ffffffffffffffffffffffffffffffffffffffff021916908373ffffffffffffffffffffffffffffffffffffffff1602179055505b50565b614adf60018260000154614e8890919063ffffffff16565b816000018190555050565b6001816000016000828254019250508190555050565b614b0a82826148b9565b15614b7d576040517f08c379a000000000000000000000000000000000000000000000000000000000815260040180806020018281038252601f8152602001807f526f6c65733a206163636f756e7420616c72656164792068617320726f6c650081525060200191505060405180910390fd5b60018260000160008373ffffffffffffffffffffffffffffffffffffffff1673ffffffffffffffffffffffffffffffffffffffff16815260200190815260200160002060006101000a81548160ff0219169083151502179055505050565b614be582826148b9565b614c3a576040517f08c379a000000000000000000000000000000000000000000000000000000000815260040180806020018281038252602181526020018061540a6021913960400191505060405180910390fd5b60008260000160008373ffffffffffffffffffffffffffffffffffffffff1673ffffffffffffffffffffffffffffffffffffffff16815260200190815260200160002060006101000a81548160ff0219169083151502179055505050565b6000614cb98473ffffffffffffffffffffffffffffffffffffffff16614ed2565b614cc65760019050614e80565b60008473ffffffffffffffffffffffffffffffffffffffff1663150b7a02614cec6141fe565b8887876040518563ffffffff1660e01b8152600401808573ffffffffffffffffffffffffffffffffffffffff1673ffffffffffffffffffffffffffffffffffffffff1681526020018473ffffffffffffffffffffffffffffffffffffffff1673ffffffffffffffffffffffffffffffffffffffff16815260200183815260200180602001828103825283818151815260200191508051906020019080838360005b83811015614da8578082015181840152602081019050614d8d565b50505050905090810190601f168015614dd55780820380516001836020036101000a031916815260200191505b5095505050505050602060405180830381600087803b158015614df757600080fd5b505af1158015614e0b573d6000803e3d6000fd5b505050506040513d6020811015614e2157600080fd5b8101908080519060200190929190505050905063150b7a0260e01b7bffffffffffffffffffffffffffffffffffffffffffffffffffffffff1916817bffffffffffffffffffffffffffffffffffffffffffffffffffffffff1916149150505b949350505050565b6000614eca83836040518060400160405280601e81526020017f536166654d6174683a207375627472616374696f6e206f766572666c6f770000815250614f1d565b905092915050565b60008060007fc5d2460186f7233c927e7db2dcc703c0e500b653ca82273b7bfad8045d85a47060001b9050833f91506000801b8214158015614f145750808214155b92505050919050565b6000838311158290614fca576040517f08c379a00000000000000000000000000000000000000000000000000000000081526004018080602001828103825283818151815260200191508051906020019080838360005b83811015614f8f578082015181840152602081019050614f74565b50505050905090810190601f168015614fbc5780820380516001836020036101000a031916815260200191505b509250505060405180910390fd5b5060008385039050809150509392505050565b604051806101a001604052806000815260200160008152602001600073ffffffffffffffffffffffffffffffffffffffff1681526020016060815260200160608152602001606081526020016060815260200160001515815260200160008152602001600081526020016000815260200160608152602001600081525090565b828054600181600116156101000203166002900490600052602060002090601f016020900481019282601f1061509e57805160ff19168380011785556150cc565b828001600101855582156150cc579182015b828111156150cb5782518255916020019190600101906150b0565b5b5090506150d99190615234565b5090565b828054828255906000526020600020908101928215615119579160200282015b828111156151185782518255916020019190600101906150fd565b5b5090506151269190615234565b5090565b8280548282559060005260206000209081019282156151a3579160200282015b828111156151a25782518260006101000a81548173ffffffffffffffffffffffffffffffffffffffff021916908373ffffffffffffffffffffffffffffffffffffffff1602179055509160200191906001019061514a565b5b5090506151b09190615259565b5090565b828054600181600116156101000203166002900490600052602060002090601f016020900481019282601f106151f557805160ff1916838001178555615223565b82800160010185558215615223579182015b82811115615222578251825591602001919060010190615207565b5b5090506152309190615234565b5090565b61525691905b8082111561525257600081600090555060010161523a565b5090565b90565b61529991905b8082111561529557600081816101000a81549073ffffffffffffffffffffffffffffffffffffffff02191690555060010161525f565b5090565b9056fe5469636b657420686173206265656e20616c726561647920626f756768742077697468207468697320616464726573734552433732313a207472616e7366657220746f206e6f6e20455243373231526563656976657220696d706c656d656e7465724552433732313a207472616e7366657220746f20746865207a65726f20616464726573734552433732313a206f70657261746f7220717565727920666f72206e6f6e6578697374656e7420746f6b656e4552433732313a20617070726f76652063616c6c6572206973206e6f74206f776e6572206e6f7220617070726f76656420666f7220616c6c4552433732313a2062616c616e636520717565727920666f7220746865207a65726f20616464726573734552433732313a206f776e657220717565727920666f72206e6f6e6578697374656e7420746f6b656e4d696e746572526f6c653a2063616c6c657220646f6573206e6f74206861766520746865204d696e74657220726f6c65526f6c65733a206163636f756e7420646f6573206e6f74206861766520726f6c654552433732313a20617070726f76656420717565727920666f72206e6f6e6578697374656e7420746f6b656e4552433732314d657461646174613a2055524920736574206f66206e6f6e6578697374656e7420746f6b656e526f6c65733a206163636f756e7420697320746865207a65726f20616464726573734552433732313a207472616e73666572206f6620746f6b656e2074686174206973206e6f74206f776e4552433732314d657461646174613a2055524920717565727920666f72206e6f6e6578697374656e7420746f6b656e4552433732313a20617070726f76616c20746f2063757272656e74206f776e65724552433732313a207472616e736665722063616c6c6572206973206e6f74206f776e6572206e6f7220617070726f766564a265627a7a723158207ee2506a15b9dd2848e73470a271e29d7070e456c30365d90082616c24f0fbe364736f6c634300050c0032526f6c65733a206163636f756e7420697320746865207a65726f2061646472657373",
  "source": "pragma solidity >=0.4.22 <0.6.0;\n\n\nimport \"@openzeppelin/contracts/token/ERC721/ERC721MetadataMintable.sol\";\ncontract TicketsOnChain is ERC721MetadataMintable {\n    address address_dai = 0x4F96Fe3b7A6Cf9725f59d353F723c1bDb64CA6Aa;\n     constructor() ERC721Metadata(\"eventTicket\",\"CEFT\") public{\n\n    } \n  struct Event{\n      uint priceInEth;\n      uint priceInDai;\n      address ownerAddress;\n      string metadata;\n      string name;\n      uint[] issuedTokens;\n      mapping(address => bool) issuedAddressCheck;\n      address[] issuedAddresses;\n      bool active;\n      uint eth;\n      uint dai;\n      uint ticketsIssued;\n      string description;\n      uint eventId;\n  }\n  struct NFT{\n    uint eventId;\n    address owner;\n  }\n  struct User{\n      uint[] hosting;\n      uint[] owned;\n      uint[] events;\n      mapping(uint=>bool) checkedIn;\n      mapping(uint =>bool) notCheckedIn;\n  }\n  mapping (address => uint) public ownerToEvent;\n  uint public nftId;\n  mapping(uint=>uint) public nftToEvent;// this shows which event has is represented by this token, for back tracking\n  mapping(uint=>NFT) public nftInformation;// gives nft info \n  uint public eventCount;\n  mapping(uint => Event) public eventMapping;\n  mapping(address=>User)  userMapping;\n  function createEvent(uint _priceEth, uint _priceDai,string memory _metadata, string memory _name, string memory _description,uint noOfTickets)public {\n \n    Event memory obj = Event({\n        priceInEth:_priceEth,\n        priceInDai:_priceDai,\n        metadata:_metadata,\n        name:_name,\n        ownerAddress:msg.sender, \n        active:true,\n        issuedAddresses :new address[](noOfTickets),\n        issuedTokens : new uint[](noOfTickets),\n        dai:0,\n        eth:0,\n        ticketsIssued:0,\n        description :_description,\n        eventId:eventCount\n    });\n    ownerToEvent[msg.sender]=eventCount;\n    userMapping[msg.sender].hosting.push(eventCount);\n    eventMapping[eventCount]=obj;\n    eventCount++;\n    \n  }\n  function turnEventOff(uint eventId) public  {\n      require(eventMapping[eventId].ownerAddress ==msg.sender,\"you cant call this function\");\n      eventMapping[eventId].active = false;\n  }\n  function buyTicketsEth(uint eventId) public payable   returns(uint tokenId){\n    require(eventMapping[eventId].ticketsIssued<eventMapping[eventId].issuedAddresses.length,\"All tickets sold\");\n    require(msg.value>=eventMapping[eventId].priceInEth,\"Insufficient value send\");\n    require(eventMapping[eventId].active ==true,\"Event not available anymore\");\n    require(eventMapping[eventId].issuedAddressCheck[msg.sender]==false,\"Ticket has been already bought with this address\");\n    uint  count = eventMapping[eventId].ticketsIssued;\n    eventMapping[eventId].issuedTokens[count]=tokenId;\n    eventMapping[eventId].issuedAddressCheck[msg.sender]= true;\n    eventMapping[eventId].issuedAddresses[count]= msg.sender;\n    eventMapping[eventId].eth=eventMapping[eventId].eth+msg.value;\n    eventMapping[eventId].ticketsIssued++;\n    _mint(msg.sender, nftId);\n    _setTokenURI(nftId, eventMapping[eventId].metadata);\n    nftToEvent[nftId]=eventId;\n    nftInformation[nftId].eventId=eventId;\n    nftInformation[nftId].owner= msg.sender;\n    userMapping[msg.sender].owned.push(nftId);\n    userMapping[msg.sender].events.push(eventId);\n    userMapping[msg.sender].notCheckedIn[eventId]= true;\n    \n    nftId++;\n    tokenId = nftId;\n  }\n  function buyTicketsDAi(uint eventId) public returns(uint tokenId){\n    require(eventMapping[eventId].ticketsIssued<eventMapping[eventId].issuedAddresses.length,\"All tickets sold\");\n    require(ERC20(address_dai).balanceOf(msg.sender)>=eventMapping[eventId].priceInDai,\"Insufficient value send\");\n    require(eventMapping[eventId].active ==true,\"Event not available anymore\");\n    require(eventMapping[eventId].issuedAddressCheck[msg.sender]==false,\"Ticket has been already bought with this address\");\n    ERC20(address_dai).approve(address(this),eventMapping[eventId].priceInDai);\n    ERC20(address_dai).transferFrom(msg.sender, address(this),eventMapping[eventId].priceInDai);\n    \n    \n    uint  count = eventMapping[eventId].ticketsIssued;\n    eventMapping[eventId].issuedTokens[count]=tokenId;\n    eventMapping[eventId].issuedAddressCheck[msg.sender]= true;\n    eventMapping[eventId].issuedAddresses[count]= msg.sender;\n    //eventMapping[eventId].eth=eventMapping[eventId].eth+msg.value;\n    eventMapping[eventId].dai=eventMapping[eventId].dai+eventMapping[eventId].priceInDai;\n    eventMapping[eventId].ticketsIssued++;\n    _mint(msg.sender, nftId);\n    _setTokenURI(nftId, eventMapping[eventId].metadata);\n    nftToEvent[nftId]=eventId;\n    nftInformation[nftId].eventId=eventId;\n    nftInformation[nftId].owner= msg.sender;\n    userMapping[msg.sender].owned.push(nftId);\n    userMapping[msg.sender].events.push(eventId);\n    userMapping[msg.sender].notCheckedIn[eventId]= true;\n    nftId++;\n    tokenId = nftId;\n  }\n function checkIn(uint eventId)public returns(bool status){\n   //  require(eventMapping[eventId].ownerAddress==msg.sender,\"You are not authorized to do this\");\n     require(userMapping[msg.sender].notCheckedIn[eventId] == true,\"You have already checked in\");\n     require(userMapping[msg.sender].checkedIn[eventId] != true, \"You have already checkedIn\");\n     userMapping[msg.sender].checkedIn[eventId]= true;\n     userMapping[msg.sender].notCheckedIn[eventId]= false;\n     status = true;\n }\n function UserProfile() public view returns (uint[] memory eventHost,uint[] memory eventList, bool[] memory statusList, uint[] memory tokenList){\n     eventHost = userMapping[msg.sender].hosting;\n     eventList = userMapping[msg.sender].events;\n     tokenList = userMapping[msg.sender].owned;\n     statusList= new bool[](userMapping[msg.sender].events.length);\n     for(uint i=0; i<userMapping[msg.sender].events.length;i++){\n         statusList[i]=userMapping[msg.sender].notCheckedIn[userMapping[msg.sender].events[i]];\n    }\n    \n }\n function withdraw(uint eventId) public {\n     require(eventMapping[eventId].ownerAddress == msg.sender,\"You are not the owner\");\n     msg.sender.transfer(eventMapping[eventId].eth);\n     ERC20(address_dai).transfer(eventMapping[eventId].ownerAddress, eventMapping[eventId].dai);\n }\n function daicheck() public  returns(uint bal) {\n     bal = ERC20(address_dai).balanceOf(msg.sender);\n    ERC20(address_dai).approve(address(this),1000);\n    //ERC20(address_dai).transferFrom(msg.sender,address(this), 1000);\n\n }\n function retEventCount()public view returns (uint){\n   return eventCount;\n }\n  function daicheck2() public {\n    //  bal = ERC20(address_dai).balanceOf(msg.sender);\n    // ERC20(address_dai).approve(address(this),1000);\n    address ac= msg.sender;\n    ERC20 token =  ERC20(address_dai);\n    token.transferFrom(msg.sender,address(this),1000);\n\n }\n \n//refund\n//send momey to event creator\n}\n\ninterface ERC20 {\n    function balanceOf(address tokenOwner) external view returns (uint balance);\n   function transfer(address receiver, uint amount) external returns(bool);\n    function approve(address spender, uint256 value) external returns (bool);\n    function transferFrom(address _from, address _to, uint256 _value) external returns(bool);\n}\n",
  "sourcePath": "/media/abhimanyu/New Volume/ticket-system/contracts/TicketOnChain.sol",
  "compiler": {
    "name": "solc",
    "version": "0.5.12+commit.7709ece9.Emscripten.clang"
  },
  "schemaVersion": "3.0.19",
  "updatedAt": "2019-12-13T11:40:22.521Z",
  "networkType": "ethereum",
  "devdoc": {
    "methods": {
      "approve(address,uint256)": {
        "details": "Approves another address to transfer the given token ID The zero address indicates there is no approved address. There can only be one approved address per token at a given time. Can only be called by the token owner or an approved operator.",
        "params": {
          "to": "address to be approved for the given token ID",
          "tokenId": "uint256 ID of the token to be approved"
        }
      },
      "balanceOf(address)": {
        "details": "Gets the balance of the specified address.",
        "params": {
          "owner": "address to query the balance of"
        },
        "return": "uint256 representing the amount owned by the passed address"
      },
      "getApproved(uint256)": {
        "details": "Gets the approved address for a token ID, or zero if no address set Reverts if the token ID does not exist.",
        "params": {
          "tokenId": "uint256 ID of the token to query the approval of"
        },
        "return": "address currently approved for the given token ID"
      },
      "isApprovedForAll(address,address)": {
        "details": "Tells whether an operator is approved by a given owner.",
        "params": {
          "operator": "operator address which you want to query the approval of",
          "owner": "owner address which you want to query the approval of"
        },
        "return": "bool whether the given operator is approved by the given owner"
      },
      "mintWithTokenURI(address,uint256,string)": {
        "details": "Function to mint tokens.",
        "params": {
          "to": "The address that will receive the minted tokens.",
          "tokenId": "The token id to mint.",
          "tokenURI": "The token URI of the minted token."
        },
        "return": "A boolean that indicates if the operation was successful."
      },
      "name()": {
        "details": "Gets the token name.",
        "return": "string representing the token name"
      },
      "ownerOf(uint256)": {
        "details": "Gets the owner of the specified token ID.",
        "params": {
          "tokenId": "uint256 ID of the token to query the owner of"
        },
        "return": "address currently marked as the owner of the given token ID"
      },
      "safeTransferFrom(address,address,uint256)": {
        "details": "Safely transfers the ownership of a given token ID to another address If the target address is a contract, it must implement {IERC721Receiver-onERC721Received}, which is called upon a safe transfer, and return the magic value `bytes4(keccak256(\"onERC721Received(address,address,uint256,bytes)\"))`; otherwise, the transfer is reverted. Requires the msg.sender to be the owner, approved, or operator",
        "params": {
          "from": "current owner of the token",
          "to": "address to receive the ownership of the given token ID",
          "tokenId": "uint256 ID of the token to be transferred"
        }
      },
      "safeTransferFrom(address,address,uint256,bytes)": {
        "details": "Safely transfers the ownership of a given token ID to another address If the target address is a contract, it must implement {IERC721Receiver-onERC721Received}, which is called upon a safe transfer, and return the magic value `bytes4(keccak256(\"onERC721Received(address,address,uint256,bytes)\"))`; otherwise, the transfer is reverted. Requires the _msgSender() to be the owner, approved, or operator",
        "params": {
          "_data": "bytes data to send along with a safe transfer check",
          "from": "current owner of the token",
          "to": "address to receive the ownership of the given token ID",
          "tokenId": "uint256 ID of the token to be transferred"
        }
      },
      "setApprovalForAll(address,bool)": {
        "details": "Sets or unsets the approval of a given operator An operator is allowed to transfer all tokens of the sender on their behalf.",
        "params": {
          "approved": "representing the status of the approval to be set",
          "to": "operator address to set the approval"
        }
      },
      "supportsInterface(bytes4)": {
        "details": "See {IERC165-supportsInterface}.     * Time complexity O(1), guaranteed to always use less than 30 000 gas."
      },
      "symbol()": {
        "details": "Gets the token symbol.",
        "return": "string representing the token symbol"
      },
      "tokenURI(uint256)": {
        "details": "Returns an URI for a given token ID. Throws if the token ID does not exist. May return an empty string.",
        "params": {
          "tokenId": "uint256 ID of the token to query"
        }
      },
      "transferFrom(address,address,uint256)": {
        "details": "Transfers the ownership of a given token ID to another address. Usage of this method is discouraged, use {safeTransferFrom} whenever possible. Requires the msg.sender to be the owner, approved, or operator.",
        "params": {
          "from": "current owner of the token",
          "to": "address to receive the ownership of the given token ID",
          "tokenId": "uint256 ID of the token to be transferred"
        }
      }
    }
  },
  "userdoc": {
    "methods": {}
  }
}