{
  "contractName": "TicketsOnChain",
  "abi": [
    {
      "inputs": [],
      "payable": false,
      "stateMutability": "nonpayable",
      "type": "constructor"
    },
    {
      "anonymous": false,
      "inputs": [
        {
          "indexed": true,
          "internalType": "address",
          "name": "owner",
          "type": "address"
        },
        {
          "indexed": true,
          "internalType": "address",
          "name": "approved",
          "type": "address"
        },
        {
          "indexed": true,
          "internalType": "uint256",
          "name": "tokenId",
          "type": "uint256"
        }
      ],
      "name": "Approval",
      "type": "event"
    },
    {
      "anonymous": false,
      "inputs": [
        {
          "indexed": true,
          "internalType": "address",
          "name": "owner",
          "type": "address"
        },
        {
          "indexed": true,
          "internalType": "address",
          "name": "operator",
          "type": "address"
        },
        {
          "indexed": false,
          "internalType": "bool",
          "name": "approved",
          "type": "bool"
        }
      ],
      "name": "ApprovalForAll",
      "type": "event"
    },
    {
      "anonymous": false,
      "inputs": [
        {
          "indexed": true,
          "internalType": "address",
          "name": "account",
          "type": "address"
        }
      ],
      "name": "MinterAdded",
      "type": "event"
    },
    {
      "anonymous": false,
      "inputs": [
        {
          "indexed": true,
          "internalType": "address",
          "name": "account",
          "type": "address"
        }
      ],
      "name": "MinterRemoved",
      "type": "event"
    },
    {
      "anonymous": false,
      "inputs": [
        {
          "indexed": true,
          "internalType": "address",
          "name": "from",
          "type": "address"
        },
        {
          "indexed": true,
          "internalType": "address",
          "name": "to",
          "type": "address"
        },
        {
          "indexed": true,
          "internalType": "uint256",
          "name": "tokenId",
          "type": "uint256"
        }
      ],
      "name": "Transfer",
      "type": "event"
    },
    {
      "constant": false,
      "inputs": [
        {
          "internalType": "address",
          "name": "account",
          "type": "address"
        }
      ],
      "name": "addMinter",
      "outputs": [],
      "payable": false,
      "stateMutability": "nonpayable",
      "type": "function"
    },
    {
      "constant": false,
      "inputs": [
        {
          "internalType": "address",
          "name": "to",
          "type": "address"
        },
        {
          "internalType": "uint256",
          "name": "tokenId",
          "type": "uint256"
        }
      ],
      "name": "approve",
      "outputs": [],
      "payable": false,
      "stateMutability": "nonpayable",
      "type": "function"
    },
    {
      "constant": true,
      "inputs": [
        {
          "internalType": "address",
          "name": "owner",
          "type": "address"
        }
      ],
      "name": "balanceOf",
      "outputs": [
        {
          "internalType": "uint256",
          "name": "",
          "type": "uint256"
        }
      ],
      "payable": false,
      "stateMutability": "view",
      "type": "function"
    },
    {
      "constant": true,
      "inputs": [],
      "name": "eventCount",
      "outputs": [
        {
          "internalType": "uint256",
          "name": "",
          "type": "uint256"
        }
      ],
      "payable": false,
      "stateMutability": "view",
      "type": "function"
    },
    {
      "constant": true,
      "inputs": [
        {
          "internalType": "uint256",
          "name": "",
          "type": "uint256"
        }
      ],
      "name": "eventMapping",
      "outputs": [
        {
          "internalType": "uint256",
          "name": "priceInEth",
          "type": "uint256"
        },
        {
          "internalType": "uint256",
          "name": "priceInDai",
          "type": "uint256"
        },
        {
          "internalType": "address",
          "name": "ownerAddress",
          "type": "address"
        },
        {
          "internalType": "string",
          "name": "metadata",
          "type": "string"
        },
        {
          "internalType": "string",
          "name": "name",
          "type": "string"
        },
        {
          "internalType": "bool",
          "name": "active",
          "type": "bool"
        },
        {
          "internalType": "uint256",
          "name": "eth",
          "type": "uint256"
        },
        {
          "internalType": "uint256",
          "name": "dai",
          "type": "uint256"
        },
        {
          "internalType": "uint256",
          "name": "ticketsIssued",
          "type": "uint256"
        },
        {
          "internalType": "string",
          "name": "description",
          "type": "string"
        },
        {
          "internalType": "uint256",
          "name": "eventId",
          "type": "uint256"
        },
        {
          "internalType": "uint256",
          "name": "checkInCount",
          "type": "uint256"
        }
      ],
      "payable": false,
      "stateMutability": "view",
      "type": "function"
    },
    {
      "constant": true,
      "inputs": [
        {
          "internalType": "uint256",
          "name": "tokenId",
          "type": "uint256"
        }
      ],
      "name": "getApproved",
      "outputs": [
        {
          "internalType": "address",
          "name": "",
          "type": "address"
        }
      ],
      "payable": false,
      "stateMutability": "view",
      "type": "function"
    },
    {
      "constant": true,
      "inputs": [
        {
          "internalType": "address",
          "name": "owner",
          "type": "address"
        },
        {
          "internalType": "address",
          "name": "operator",
          "type": "address"
        }
      ],
      "name": "isApprovedForAll",
      "outputs": [
        {
          "internalType": "bool",
          "name": "",
          "type": "bool"
        }
      ],
      "payable": false,
      "stateMutability": "view",
      "type": "function"
    },
    {
      "constant": true,
      "inputs": [
        {
          "internalType": "address",
          "name": "account",
          "type": "address"
        }
      ],
      "name": "isMinter",
      "outputs": [
        {
          "internalType": "bool",
          "name": "",
          "type": "bool"
        }
      ],
      "payable": false,
      "stateMutability": "view",
      "type": "function"
    },
    {
      "constant": false,
      "inputs": [
        {
          "internalType": "address",
          "name": "to",
          "type": "address"
        },
        {
          "internalType": "uint256",
          "name": "tokenId",
          "type": "uint256"
        },
        {
          "internalType": "string",
          "name": "tokenURI",
          "type": "string"
        }
      ],
      "name": "mintWithTokenURI",
      "outputs": [
        {
          "internalType": "bool",
          "name": "",
          "type": "bool"
        }
      ],
      "payable": false,
      "stateMutability": "nonpayable",
      "type": "function"
    },
    {
      "constant": true,
      "inputs": [],
      "name": "name",
      "outputs": [
        {
          "internalType": "string",
          "name": "",
          "type": "string"
        }
      ],
      "payable": false,
      "stateMutability": "view",
      "type": "function"
    },
    {
      "constant": true,
      "inputs": [],
      "name": "nftId",
      "outputs": [
        {
          "internalType": "uint256",
          "name": "",
          "type": "uint256"
        }
      ],
      "payable": false,
      "stateMutability": "view",
      "type": "function"
    },
    {
      "constant": true,
      "inputs": [
        {
          "internalType": "uint256",
          "name": "",
          "type": "uint256"
        }
      ],
      "name": "nftInformation",
      "outputs": [
        {
          "internalType": "uint256",
          "name": "eventId",
          "type": "uint256"
        },
        {
          "internalType": "address",
          "name": "owner",
          "type": "address"
        }
      ],
      "payable": false,
      "stateMutability": "view",
      "type": "function"
    },
    {
      "constant": true,
      "inputs": [
        {
          "internalType": "uint256",
          "name": "",
          "type": "uint256"
        }
      ],
      "name": "nftToEvent",
      "outputs": [
        {
          "internalType": "uint256",
          "name": "",
          "type": "uint256"
        }
      ],
      "payable": false,
      "stateMutability": "view",
      "type": "function"
    },
    {
      "constant": true,
      "inputs": [
        {
          "internalType": "uint256",
          "name": "tokenId",
          "type": "uint256"
        }
      ],
      "name": "ownerOf",
      "outputs": [
        {
          "internalType": "address",
          "name": "",
          "type": "address"
        }
      ],
      "payable": false,
      "stateMutability": "view",
      "type": "function"
    },
    {
      "constant": true,
      "inputs": [
        {
          "internalType": "address",
          "name": "",
          "type": "address"
        }
      ],
      "name": "ownerToEvent",
      "outputs": [
        {
          "internalType": "uint256",
          "name": "",
          "type": "uint256"
        }
      ],
      "payable": false,
      "stateMutability": "view",
      "type": "function"
    },
    {
      "constant": false,
      "inputs": [],
      "name": "renounceMinter",
      "outputs": [],
      "payable": false,
      "stateMutability": "nonpayable",
      "type": "function"
    },
    {
      "constant": false,
      "inputs": [
        {
          "internalType": "address",
          "name": "from",
          "type": "address"
        },
        {
          "internalType": "address",
          "name": "to",
          "type": "address"
        },
        {
          "internalType": "uint256",
          "name": "tokenId",
          "type": "uint256"
        }
      ],
      "name": "safeTransferFrom",
      "outputs": [],
      "payable": false,
      "stateMutability": "nonpayable",
      "type": "function"
    },
    {
      "constant": false,
      "inputs": [
        {
          "internalType": "address",
          "name": "from",
          "type": "address"
        },
        {
          "internalType": "address",
          "name": "to",
          "type": "address"
        },
        {
          "internalType": "uint256",
          "name": "tokenId",
          "type": "uint256"
        },
        {
          "internalType": "bytes",
          "name": "_data",
          "type": "bytes"
        }
      ],
      "name": "safeTransferFrom",
      "outputs": [],
      "payable": false,
      "stateMutability": "nonpayable",
      "type": "function"
    },
    {
      "constant": false,
      "inputs": [
        {
          "internalType": "address",
          "name": "to",
          "type": "address"
        },
        {
          "internalType": "bool",
          "name": "approved",
          "type": "bool"
        }
      ],
      "name": "setApprovalForAll",
      "outputs": [],
      "payable": false,
      "stateMutability": "nonpayable",
      "type": "function"
    },
    {
      "constant": true,
      "inputs": [
        {
          "internalType": "bytes4",
          "name": "interfaceId",
          "type": "bytes4"
        }
      ],
      "name": "supportsInterface",
      "outputs": [
        {
          "internalType": "bool",
          "name": "",
          "type": "bool"
        }
      ],
      "payable": false,
      "stateMutability": "view",
      "type": "function"
    },
    {
      "constant": true,
      "inputs": [],
      "name": "symbol",
      "outputs": [
        {
          "internalType": "string",
          "name": "",
          "type": "string"
        }
      ],
      "payable": false,
      "stateMutability": "view",
      "type": "function"
    },
    {
      "constant": true,
      "inputs": [
        {
          "internalType": "uint256",
          "name": "tokenId",
          "type": "uint256"
        }
      ],
      "name": "tokenURI",
      "outputs": [
        {
          "internalType": "string",
          "name": "",
          "type": "string"
        }
      ],
      "payable": false,
      "stateMutability": "view",
      "type": "function"
    },
    {
      "constant": false,
      "inputs": [
        {
          "internalType": "address",
          "name": "from",
          "type": "address"
        },
        {
          "internalType": "address",
          "name": "to",
          "type": "address"
        },
        {
          "internalType": "uint256",
          "name": "tokenId",
          "type": "uint256"
        }
      ],
      "name": "transferFrom",
      "outputs": [],
      "payable": false,
      "stateMutability": "nonpayable",
      "type": "function"
    },
    {
      "constant": false,
      "inputs": [
        {
          "internalType": "uint256",
          "name": "_priceEth",
          "type": "uint256"
        },
        {
          "internalType": "uint256",
          "name": "_priceDai",
          "type": "uint256"
        },
        {
          "internalType": "string",
          "name": "_metadata",
          "type": "string"
        },
        {
          "internalType": "string",
          "name": "_name",
          "type": "string"
        },
        {
          "internalType": "string",
          "name": "_description",
          "type": "string"
        },
        {
          "internalType": "uint256",
          "name": "noOfTickets",
          "type": "uint256"
        }
      ],
      "name": "createEvent",
      "outputs": [],
      "payable": false,
      "stateMutability": "nonpayable",
      "type": "function"
    },
    {
      "constant": false,
      "inputs": [
        {
          "internalType": "uint256",
          "name": "eventId",
          "type": "uint256"
        }
      ],
      "name": "turnEventOff",
      "outputs": [],
      "payable": false,
      "stateMutability": "nonpayable",
      "type": "function"
    },
    {
      "constant": true,
      "inputs": [
        {
          "internalType": "uint256",
          "name": "_id",
          "type": "uint256"
        }
      ],
      "name": "checkInList",
      "outputs": [
        {
          "internalType": "address[]",
          "name": "attendees",
          "type": "address[]"
        },
        {
          "internalType": "uint256",
          "name": "_totalTickets",
          "type": "uint256"
        },
        {
          "internalType": "string",
          "name": "name",
          "type": "string"
        },
        {
          "internalType": "uint256",
          "name": "totalCheckin",
          "type": "uint256"
        }
      ],
      "payable": false,
      "stateMutability": "view",
      "type": "function"
    },
    {
      "constant": false,
      "inputs": [
        {
          "internalType": "uint256",
          "name": "eventId",
          "type": "uint256"
        }
      ],
      "name": "buyTicketsEth",
      "outputs": [
        {
          "internalType": "uint256",
          "name": "tokenId",
          "type": "uint256"
        }
      ],
      "payable": true,
      "stateMutability": "payable",
      "type": "function"
    },
    {
      "constant": false,
      "inputs": [
        {
          "internalType": "uint256",
          "name": "eventId",
          "type": "uint256"
        }
      ],
      "name": "buyTicketsDAi",
      "outputs": [
        {
          "internalType": "uint256",
          "name": "tokenId",
          "type": "uint256"
        }
      ],
      "payable": false,
      "stateMutability": "nonpayable",
      "type": "function"
    },
    {
      "constant": true,
      "inputs": [
        {
          "internalType": "uint256",
          "name": "_id",
          "type": "uint256"
        }
      ],
      "name": "sales",
      "outputs": [
        {
          "internalType": "address[]",
          "name": "attendees",
          "type": "address[]"
        },
        {
          "internalType": "uint256",
          "name": "_totalTickets",
          "type": "uint256"
        },
        {
          "internalType": "string",
          "name": "name",
          "type": "string"
        },
        {
          "internalType": "uint256",
          "name": "totalCheckin",
          "type": "uint256"
        },
        {
          "internalType": "address[]",
          "name": "alltickets",
          "type": "address[]"
        }
      ],
      "payable": false,
      "stateMutability": "view",
      "type": "function"
    },
    {
      "constant": false,
      "inputs": [
        {
          "internalType": "uint256",
          "name": "eventId",
          "type": "uint256"
        }
      ],
      "name": "checkIn",
      "outputs": [
        {
          "internalType": "bool",
          "name": "status",
          "type": "bool"
        }
      ],
      "payable": false,
      "stateMutability": "nonpayable",
      "type": "function"
    },
    {
      "constant": true,
      "inputs": [],
      "name": "UserProfile",
      "outputs": [
        {
          "internalType": "uint256[]",
          "name": "eventHost",
          "type": "uint256[]"
        },
        {
          "internalType": "uint256[]",
          "name": "eventList",
          "type": "uint256[]"
        },
        {
          "internalType": "bool[]",
          "name": "statusList",
          "type": "bool[]"
        },
        {
          "internalType": "uint256[]",
          "name": "tokenList",
          "type": "uint256[]"
        }
      ],
      "payable": false,
      "stateMutability": "view",
      "type": "function"
    },
    {
      "constant": false,
      "inputs": [
        {
          "internalType": "uint256",
          "name": "eventId",
          "type": "uint256"
        }
      ],
      "name": "withdraw",
      "outputs": [],
      "payable": false,
      "stateMutability": "nonpayable",
      "type": "function"
    },
    {
      "constant": false,
      "inputs": [],
      "name": "daicheck",
      "outputs": [
        {
          "internalType": "uint256",
          "name": "bal",
          "type": "uint256"
        }
      ],
      "payable": false,
      "stateMutability": "nonpayable",
      "type": "function"
    },
    {
      "constant": true,
      "inputs": [],
      "name": "retEventCount",
      "outputs": [
        {
          "internalType": "uint256",
          "name": "",
          "type": "uint256"
        }
      ],
      "payable": false,
      "stateMutability": "view",
      "type": "function"
    },
    {
      "constant": false,
      "inputs": [],
      "name": "daicheck2",
      "outputs": [],
      "payable": false,
      "stateMutability": "nonpayable",
      "type": "function"
    }
  ],
  "bytecode": "0x6080604052734f96fe3b7a6cf9725f59d353f723c1bdb64ca6aa600960006101000a81548173ffffffffffffffffffffffffffffffffffffffff021916908373ffffffffffffffffffffffffffffffffffffffff1602179055503480156200006657600080fd5b506040518060400160405280600b81526020017f6576656e745469636b65740000000000000000000000000000000000000000008152506040518060400160405280600481526020017f4345465400000000000000000000000000000000000000000000000000000000815250620000eb6301ffc9a760e01b6200017560201b60201c565b620001036380ac58cd60e01b6200017560201b60201c565b81600590805190602001906200011b929190620004ab565b50806006908051906020019062000134929190620004ab565b506200014d635b5e139f60e01b6200017560201b60201c565b50506200016f620001636200027e60201b60201c565b6200028660201b60201c565b6200055a565b63ffffffff60e01b817bffffffffffffffffffffffffffffffffffffffffffffffffffffffff1916141562000212576040517f08c379a000000000000000000000000000000000000000000000000000000000815260040180806020018281038252601c8152602001807f4552433136353a20696e76616c696420696e746572666163652069640000000081525060200191505060405180910390fd5b6001600080837bffffffffffffffffffffffffffffffffffffffffffffffffffffffff19167bffffffffffffffffffffffffffffffffffffffffffffffffffffffff1916815260200190815260200160002060006101000a81548160ff02191690831515021790555050565b600033905090565b620002a1816008620002e760201b6200519c1790919060201c565b8073ffffffffffffffffffffffffffffffffffffffff167f6ae172837ea30b801fbfcdd4108aa1d5bf8ff775444fd70256b44e6bf3dfc3f660405160405180910390a250565b620002f98282620003cb60201b60201c565b156200036d576040517f08c379a000000000000000000000000000000000000000000000000000000000815260040180806020018281038252601f8152602001807f526f6c65733a206163636f756e7420616c72656164792068617320726f6c650081525060200191505060405180910390fd5b60018260000160008373ffffffffffffffffffffffffffffffffffffffff1673ffffffffffffffffffffffffffffffffffffffff16815260200190815260200160002060006101000a81548160ff0219169083151502179055505050565b60008073ffffffffffffffffffffffffffffffffffffffff168273ffffffffffffffffffffffffffffffffffffffff16141562000454576040517f08c379a0000000000000000000000000000000000000000000000000000000008152600401808060200182810382526022815260200180620061436022913960400191505060405180910390fd5b8260000160008373ffffffffffffffffffffffffffffffffffffffff1673ffffffffffffffffffffffffffffffffffffffff16815260200190815260200160002060009054906101000a900460ff16905092915050565b828054600181600116156101000203166002900490600052602060002090601f016020900481019282601f10620004ee57805160ff19168380011785556200051f565b828001600101855582156200051f579182015b828111156200051e57825182559160200191906001019062000501565b5b5090506200052e919062000532565b5090565b6200055791905b808211156200055357600081600090555060010162000539565b5090565b90565b615bd9806200056a6000396000f3fe6080604052600436106102045760003560e01c80639116e9a211610118578063b38d59a1116100a0578063c87b56dd1161006f578063c87b56dd146112e7578063d22e68181461139b578063dccd42d3146114a5578063e95a644f146114f4578063e985e9c51461154757610204565b8063b38d59a114610f14578063b5f522f714611058578063b88d4fde146111aa578063c6bc5182146112bc57610204565b80639bb1e2b6116100e75780639bb1e2b614610d6f578063a22cb46514610dbe578063a6e2351a14610e1b578063aa271e1a14610e46578063ace11fea14610eaf57610204565b80639116e9a214610c3557806395d89b4114610c77578063983b2d5614610d075780639865027514610d5857610204565b806342842e0e1161019b5780636352211e1161016a5780636352211e1461090457806370a082311461097f57806371be2e4a146109e45780637a5f9fb114610a0f5780637ec219d314610c0a57610204565b806342842e0e1461072d57806346978ca9146107a85780634fb26560146107e357806350bb4e7f146107fa57610204565b806316b79639116101d757806316b79639146103e157806323b872dd1461046357806328094cd9146104de5780632e1a7d4d146106f257610204565b806301ffc9a71461020957806306fdde031461027b578063081812fc1461030b578063095ea7b314610386575b600080fd5b34801561021557600080fd5b506102616004803603602081101561022c57600080fd5b8101908080357bffffffffffffffffffffffffffffffffffffffffffffffffffffffff191690602001909291905050506115d0565b604051808215151515815260200191505060405180910390f35b34801561028757600080fd5b50610290611637565b6040518080602001828103825283818151815260200191508051906020019080838360005b838110156102d05780820151818401526020810190506102b5565b50505050905090810190601f1680156102fd5780820380516001836020036101000a031916815260200191505b509250505060405180910390f35b34801561031757600080fd5b506103446004803603602081101561032e57600080fd5b81019080803590602001909291905050506116d9565b604051808273ffffffffffffffffffffffffffffffffffffffff1673ffffffffffffffffffffffffffffffffffffffff16815260200191505060405180910390f35b34801561039257600080fd5b506103df600480360360408110156103a957600080fd5b81019080803573ffffffffffffffffffffffffffffffffffffffff16906020019092919080359060200190929190505050611774565b005b3480156103ed57600080fd5b5061041a6004803603602081101561040457600080fd5b810190808035906020019092919050505061195b565b604051808381526020018273ffffffffffffffffffffffffffffffffffffffff1673ffffffffffffffffffffffffffffffffffffffff1681526020019250505060405180910390f35b34801561046f57600080fd5b506104dc6004803603606081101561048657600080fd5b81019080803573ffffffffffffffffffffffffffffffffffffffff169060200190929190803573ffffffffffffffffffffffffffffffffffffffff1690602001909291908035906020019092919050505061199f565b005b3480156104ea57600080fd5b506106f0600480360360c081101561050157600080fd5b8101908080359060200190929190803590602001909291908035906020019064010000000081111561053257600080fd5b82018360208201111561054457600080fd5b8035906020019184600183028401116401000000008311171561056657600080fd5b91908080601f016020809104026020016040519081016040528093929190818152602001838380828437600081840152601f19601f820116905080830192505050505050509192919290803590602001906401000000008111156105c957600080fd5b8201836020820111156105db57600080fd5b803590602001918460018302840111640100000000831117156105fd57600080fd5b91908080601f016020809104026020016040519081016040528093929190818152602001838380828437600081840152601f19601f8201169050808301925050505050505091929192908035906020019064010000000081111561066057600080fd5b82018360208201111561067257600080fd5b8035906020019184600183028401116401000000008311171561069457600080fd5b91908080601f016020809104026020016040519081016040528093929190818152602001838380828437600081840152601f19601f82011690508083019250505050505050919291929080359060200190929190505050611a15565b005b3480156106fe57600080fd5b5061072b6004803603602081101561071557600080fd5b8101908080359060200190929190505050611d26565b005b34801561073957600080fd5b506107a66004803603606081101561075057600080fd5b81019080803573ffffffffffffffffffffffffffffffffffffffff169060200190929190803573ffffffffffffffffffffffffffffffffffffffff16906020019092919080359060200190929190505050611f8e565b005b3480156107b457600080fd5b506107e1600480360360208110156107cb57600080fd5b8101908080359060200190929190505050611fae565b005b3480156107ef57600080fd5b506107f86120b7565b005b34801561080657600080fd5b506108ea6004803603606081101561081d57600080fd5b81019080803573ffffffffffffffffffffffffffffffffffffffff169060200190929190803590602001909291908035906020019064010000000081111561086457600080fd5b82018360208201111561087657600080fd5b8035906020019184600183028401116401000000008311171561089857600080fd5b91908080601f016020809104026020016040519081016040528093929190818152602001838380828437600081840152601f19601f8201169050808301925050505050505091929192905050506121e0565b604051808215151515815260200191505060405180910390f35b34801561091057600080fd5b5061093d6004803603602081101561092757600080fd5b8101908080359060200190929190505050612266565b604051808273ffffffffffffffffffffffffffffffffffffffff1673ffffffffffffffffffffffffffffffffffffffff16815260200191505060405180910390f35b34801561098b57600080fd5b506109ce600480360360208110156109a257600080fd5b81019080803573ffffffffffffffffffffffffffffffffffffffff16906020019092919050505061232e565b6040518082815260200191505060405180910390f35b3480156109f057600080fd5b506109f9612403565b6040518082815260200191505060405180910390f35b348015610a1b57600080fd5b50610a4860048036036020811015610a3257600080fd5b8101908080359060200190929190505050612409565b604051808d81526020018c81526020018b73ffffffffffffffffffffffffffffffffffffffff1673ffffffffffffffffffffffffffffffffffffffff16815260200180602001806020018a1515151581526020018981526020018881526020018781526020018060200186815260200185815260200184810384528d818151815260200191508051906020019080838360005b83811015610af6578082015181840152602081019050610adb565b50505050905090810190601f168015610b235780820380516001836020036101000a031916815260200191505b5084810383528c818151815260200191508051906020019080838360005b83811015610b5c578082015181840152602081019050610b41565b50505050905090810190601f168015610b895780820380516001836020036101000a031916815260200191505b50848103825287818151815260200191508051906020019080838360005b83811015610bc2578082015181840152602081019050610ba7565b50505050905090810190601f168015610bef5780820380516001836020036101000a031916815260200191505b509f5050505050505050505050505050505060405180910390f35b348015610c1657600080fd5b50610c1f61265e565b6040518082815260200191505060405180910390f35b610c6160048036036020811015610c4b57600080fd5b8101908080359060200190929190505050612826565b6040518082815260200191505060405180910390f35b348015610c8357600080fd5b50610c8c612eb3565b6040518080602001828103825283818151815260200191508051906020019080838360005b83811015610ccc578082015181840152602081019050610cb1565b50505050905090810190601f168015610cf95780820380516001836020036101000a031916815260200191505b509250505060405180910390f35b348015610d1357600080fd5b50610d5660048036036020811015610d2a57600080fd5b81019080803573ffffffffffffffffffffffffffffffffffffffff169060200190929190505050612f55565b005b348015610d6457600080fd5b50610d6d612fc6565b005b348015610d7b57600080fd5b50610da860048036036020811015610d9257600080fd5b8101908080359060200190929190505050612fd8565b6040518082815260200191505060405180910390f35b348015610dca57600080fd5b50610e1960048036036040811015610de157600080fd5b81019080803573ffffffffffffffffffffffffffffffffffffffff16906020019092919080351515906020019092919050505061397e565b005b348015610e2757600080fd5b50610e30613b36565b6040518082815260200191505060405180910390f35b348015610e5257600080fd5b50610e9560048036036020811015610e6957600080fd5b81019080803573ffffffffffffffffffffffffffffffffffffffff169060200190929190505050613b40565b604051808215151515815260200191505060405180910390f35b348015610ebb57600080fd5b50610efe60048036036020811015610ed257600080fd5b81019080803573ffffffffffffffffffffffffffffffffffffffff169060200190929190505050613b5d565b6040518082815260200191505060405180910390f35b348015610f2057600080fd5b50610f29613b75565b6040518080602001806020018060200180602001858103855289818151815260200191508051906020019060200280838360005b83811015610f78578082015181840152602081019050610f5d565b50505050905001858103845288818151815260200191508051906020019060200280838360005b83811015610fba578082015181840152602081019050610f9f565b50505050905001858103835287818151815260200191508051906020019060200280838360005b83811015610ffc578082015181840152602081019050610fe1565b50505050905001858103825286818151815260200191508051906020019060200280838360005b8381101561103e578082015181840152602081019050611023565b505050509050019850505050505050505060405180910390f35b34801561106457600080fd5b506110916004803603602081101561107b57600080fd5b8101908080359060200190929190505050613ee8565b60405180806020018681526020018060200185815260200180602001848103845289818151815260200191508051906020019060200280838360005b838110156110e85780820151818401526020810190506110cd565b50505050905001848103835287818151815260200191508051906020019080838360005b8381101561112757808201518184015260208101905061110c565b50505050905090810190601f1680156111545780820380516001836020036101000a031916815260200191505b50848103825285818151815260200191508051906020019060200280838360005b83811015611190578082015181840152602081019050611175565b505050509050019850505050505050505060405180910390f35b3480156111b657600080fd5b506112ba600480360360808110156111cd57600080fd5b81019080803573ffffffffffffffffffffffffffffffffffffffff169060200190929190803573ffffffffffffffffffffffffffffffffffffffff169060200190929190803590602001909291908035906020019064010000000081111561123457600080fd5b82018360208201111561124657600080fd5b8035906020019184600183028401116401000000008311171561126857600080fd5b91908080601f016020809104026020016040519081016040528093929190818152602001838380828437600081840152601f19601f820116905080830192505050505050509192919290505050614118565b005b3480156112c857600080fd5b506112d1614190565b6040518082815260200191505060405180910390f35b3480156112f357600080fd5b506113206004803603602081101561130a57600080fd5b8101908080359060200190929190505050614196565b6040518080602001828103825283818151815260200191508051906020019080838360005b83811015611360578082015181840152602081019050611345565b50505050905090810190601f16801561138d5780820380516001836020036101000a031916815260200191505b509250505060405180910390f35b3480156113a757600080fd5b506113d4600480360360208110156113be57600080fd5b81019080803590602001909291905050506142a9565b604051808060200185815260200180602001848152602001838103835287818151815260200191508051906020019060200280838360005b8381101561142757808201518184015260208101905061140c565b50505050905001838103825285818151815260200191508051906020019080838360005b8381101561146657808201518184015260208101905061144b565b50505050905090810190601f1680156114935780820380516001836020036101000a031916815260200191505b50965050505050505060405180910390f35b3480156114b157600080fd5b506114de600480360360208110156114c857600080fd5b8101908080359060200190929190505050614438565b6040518082815260200191505060405180910390f35b34801561150057600080fd5b5061152d6004803603602081101561151757600080fd5b8101908080359060200190929190505050614450565b604051808215151515815260200191505060405180910390f35b34801561155357600080fd5b506115b66004803603604081101561156a57600080fd5b81019080803573ffffffffffffffffffffffffffffffffffffffff169060200190929190803573ffffffffffffffffffffffffffffffffffffffff169060200190929190505050614794565b604051808215151515815260200191505060405180910390f35b6000806000837bffffffffffffffffffffffffffffffffffffffffffffffffffffffff19167bffffffffffffffffffffffffffffffffffffffffffffffffffffffff1916815260200190815260200160002060009054906101000a900460ff169050919050565b606060058054600181600116156101000203166002900480601f0160208091040260200160405190810160405280929190818152602001828054600181600116156101000203166002900480156116cf5780601f106116a4576101008083540402835291602001916116cf565b820191906000526020600020905b8154815290600101906020018083116116b257829003601f168201915b5050505050905090565b60006116e482614828565b611739576040517f08c379a000000000000000000000000000000000000000000000000000000000815260040180806020018281038252602c815260200180615a81602c913960400191505060405180910390fd5b6002600083815260200190815260200160002060009054906101000a900473ffffffffffffffffffffffffffffffffffffffff169050919050565b600061177f82612266565b90508073ffffffffffffffffffffffffffffffffffffffff168373ffffffffffffffffffffffffffffffffffffffff161415611806576040517f08c379a0000000000000000000000000000000000000000000000000000000008152600401808060200182810382526021815260200180615b536021913960400191505060405180910390fd5b8073ffffffffffffffffffffffffffffffffffffffff1661182561489a565b73ffffffffffffffffffffffffffffffffffffffff16148061185457506118538161184e61489a565b614794565b5b6118a9576040517f08c379a00000000000000000000000000000000000000000000000000000000081526004018080602001828103825260388152602001806159a56038913960400191505060405180910390fd5b826002600084815260200190815260200160002060006101000a81548173ffffffffffffffffffffffffffffffffffffffff021916908373ffffffffffffffffffffffffffffffffffffffff160217905550818373ffffffffffffffffffffffffffffffffffffffff168273ffffffffffffffffffffffffffffffffffffffff167f8c5be1e5ebec7d5bd14f71427d1e84f3dd0314c0f7b2291e5b200ac8c7c3b92560405160405180910390a4505050565b600d6020528060005260406000206000915090508060000154908060010160009054906101000a900473ffffffffffffffffffffffffffffffffffffffff16905082565b6119b06119aa61489a565b826148a2565b611a05576040517f08c379a0000000000000000000000000000000000000000000000000000000008152600401808060200182810382526031815260200180615b746031913960400191505060405180910390fd5b611a10838383614996565b505050565b611a1d615679565b604051806101c001604052808881526020018781526020013373ffffffffffffffffffffffffffffffffffffffff16815260200186815260200185815260200183604051908082528060200260200182016040528015611a8c5781602001602082028038833980820191505090505b50815260200183604051908082528060200260200182016040528015611ac15781602001602082028038833980820191505090505b508152602001600115158152602001600081526020016000815260200160008152602001848152602001600e54815260200160008152509050600e54600a60003373ffffffffffffffffffffffffffffffffffffffff1673ffffffffffffffffffffffffffffffffffffffff16815260200190815260200160002081905550601060003373ffffffffffffffffffffffffffffffffffffffff1673ffffffffffffffffffffffffffffffffffffffff168152602001908152602001600020600001600e54908060018154018082558091505090600182039060005260206000200160009091929091909150555080600f6000600e548152602001908152602001600020600082015181600001556020820151816001015560408201518160020160006101000a81548173ffffffffffffffffffffffffffffffffffffffff021916908373ffffffffffffffffffffffffffffffffffffffff1602179055506060820151816003019080519060200190611c3b929190615700565b506080820151816004019080519060200190611c58929190615700565b5060a0820151816005019080519060200190611c75929190615780565b5060c0820151816007019080519060200190611c92929190615780565b5060e08201518160080160006101000a81548160ff021916908315150217905550610100820151816009015561012082015181600a015561014082015181600b015561016082015181600c019080519060200190611cf1929190615700565b5061018082015181600d01556101a082015181600e0155905050600e6000815480929190600101919050555050505050505050565b3373ffffffffffffffffffffffffffffffffffffffff16600f600083815260200190815260200160002060020160009054906101000a900473ffffffffffffffffffffffffffffffffffffffff1673ffffffffffffffffffffffffffffffffffffffff1614611dfd576040517f08c379a00000000000000000000000000000000000000000000000000000000081526004018080602001828103825260158152602001807f596f7520617265206e6f7420746865206f776e6572000000000000000000000081525060200191505060405180910390fd5b3373ffffffffffffffffffffffffffffffffffffffff166108fc600f6000848152602001908152602001600020600901549081150290604051600060405180830381858888f19350505050158015611e59573d6000803e3d6000fd5b50600960009054906101000a900473ffffffffffffffffffffffffffffffffffffffff1673ffffffffffffffffffffffffffffffffffffffff1663a9059cbb600f600084815260200190815260200160002060020160009054906101000a900473ffffffffffffffffffffffffffffffffffffffff16600f6000858152602001908152602001600020600a01546040518363ffffffff1660e01b8152600401808373ffffffffffffffffffffffffffffffffffffffff1673ffffffffffffffffffffffffffffffffffffffff16815260200182815260200192505050602060405180830381600087803b158015611f4f57600080fd5b505af1158015611f63573d6000803e3d6000fd5b505050506040513d6020811015611f7957600080fd5b81019080805190602001909291905050505050565b611fa983838360405180602001604052806000815250614118565b505050565b3373ffffffffffffffffffffffffffffffffffffffff16600f600083815260200190815260200160002060020160009054906101000a900473ffffffffffffffffffffffffffffffffffffffff1673ffffffffffffffffffffffffffffffffffffffff1614612085576040517f08c379a000000000000000000000000000000000000000000000000000000000815260040180806020018281038252601b8152602001807f796f752063616e742063616c6c20746869732066756e6374696f6e000000000081525060200191505060405180910390fd5b6000600f600083815260200190815260200160002060080160006101000a81548160ff02191690831515021790555050565b60003390506000600960009054906101000a900473ffffffffffffffffffffffffffffffffffffffff1690508073ffffffffffffffffffffffffffffffffffffffff166323b872dd33306103e86040518463ffffffff1660e01b8152600401808473ffffffffffffffffffffffffffffffffffffffff1673ffffffffffffffffffffffffffffffffffffffff1681526020018373ffffffffffffffffffffffffffffffffffffffff1673ffffffffffffffffffffffffffffffffffffffff1681526020018281526020019350505050602060405180830381600087803b1580156121a057600080fd5b505af11580156121b4573d6000803e3d6000fd5b505050506040513d60208110156121ca57600080fd5b8101908080519060200190929190505050505050565b60006121f26121ed61489a565b613b40565b612247576040517f08c379a0000000000000000000000000000000000000000000000000000000008152600401808060200182810382526030815260200180615a306030913960400191505060405180910390fd5b6122518484614bf1565b61225b8383614e09565b600190509392505050565b6000806001600084815260200190815260200160002060009054906101000a900473ffffffffffffffffffffffffffffffffffffffff169050600073ffffffffffffffffffffffffffffffffffffffff168173ffffffffffffffffffffffffffffffffffffffff161415612325576040517f08c379a0000000000000000000000000000000000000000000000000000000008152600401808060200182810382526029815260200180615a076029913960400191505060405180910390fd5b80915050919050565b60008073ffffffffffffffffffffffffffffffffffffffff168273ffffffffffffffffffffffffffffffffffffffff1614156123b5576040517f08c379a000000000000000000000000000000000000000000000000000000000815260040180806020018281038252602a8152602001806159dd602a913960400191505060405180910390fd5b6123fc600360008473ffffffffffffffffffffffffffffffffffffffff1673ffffffffffffffffffffffffffffffffffffffff168152602001908152602001600020614e93565b9050919050565b600e5481565b600f6020528060005260406000206000915090508060000154908060010154908060020160009054906101000a900473ffffffffffffffffffffffffffffffffffffffff1690806003018054600181600116156101000203166002900480601f0160208091040260200160405190810160405280929190818152602001828054600181600116156101000203166002900480156124e75780601f106124bc576101008083540402835291602001916124e7565b820191906000526020600020905b8154815290600101906020018083116124ca57829003601f168201915b505050505090806004018054600181600116156101000203166002900480601f0160208091040260200160405190810160405280929190818152602001828054600181600116156101000203166002900480156125855780601f1061255a57610100808354040283529160200191612585565b820191906000526020600020905b81548152906001019060200180831161256857829003601f168201915b5050505050908060080160009054906101000a900460ff169080600901549080600a01549080600b01549080600c018054600181600116156101000203166002900480601f0160208091040260200160405190810160405280929190818152602001828054600181600116156101000203166002900480156126485780601f1061261d57610100808354040283529160200191612648565b820191906000526020600020905b81548152906001019060200180831161262b57829003601f168201915b50505050509080600d01549080600e015490508c565b6000600960009054906101000a900473ffffffffffffffffffffffffffffffffffffffff1673ffffffffffffffffffffffffffffffffffffffff166370a08231336040518263ffffffff1660e01b8152600401808273ffffffffffffffffffffffffffffffffffffffff1673ffffffffffffffffffffffffffffffffffffffff16815260200191505060206040518083038186803b1580156126ff57600080fd5b505afa158015612713573d6000803e3d6000fd5b505050506040513d602081101561272957600080fd5b81019080805190602001909291905050509050600960009054906101000a900473ffffffffffffffffffffffffffffffffffffffff1673ffffffffffffffffffffffffffffffffffffffff1663095ea7b3306103e86040518363ffffffff1660e01b8152600401808373ffffffffffffffffffffffffffffffffffffffff1673ffffffffffffffffffffffffffffffffffffffff16815260200182815260200192505050602060405180830381600087803b1580156127e757600080fd5b505af11580156127fb573d6000803e3d6000fd5b505050506040513d602081101561281157600080fd5b81019080805190602001909291905050505090565b6000600f600083815260200190815260200160002060070180549050600f6000848152602001908152602001600020600b0154106128cc576040517f08c379a00000000000000000000000000000000000000000000000000000000081526004018080602001828103825260108152602001807f416c6c207469636b65747320736f6c640000000000000000000000000000000081525060200191505060405180910390fd5b600f600083815260200190815260200160002060000154341015612958576040517f08c379a00000000000000000000000000000000000000000000000000000000081526004018080602001828103825260178152602001807f496e73756666696369656e742076616c75652073656e6400000000000000000081525060200191505060405180910390fd5b60011515600f600084815260200190815260200160002060080160009054906101000a900460ff161515146129f5576040517f08c379a000000000000000000000000000000000000000000000000000000000815260040180806020018281038252601b8152602001807f4576656e74206e6f7420617661696c61626c6520616e796d6f7265000000000081525060200191505060405180910390fd5b60001515600f600084815260200190815260200160002060060160003373ffffffffffffffffffffffffffffffffffffffff1673ffffffffffffffffffffffffffffffffffffffff16815260200190815260200160002060009054906101000a900460ff16151514612ab2576040517f08c379a00000000000000000000000000000000000000000000000000000000081526004018080602001828103825260308152602001806158f36030913960400191505060405180910390fd5b6000600f6000848152602001908152602001600020600b015490506001600f600085815260200190815260200160002060060160003373ffffffffffffffffffffffffffffffffffffffff1673ffffffffffffffffffffffffffffffffffffffff16815260200190815260200160002060006101000a81548160ff02191690831515021790555033600f60008581526020019081526020016000206007018281548110612b5b57fe5b9060005260206000200160006101000a81548173ffffffffffffffffffffffffffffffffffffffff021916908373ffffffffffffffffffffffffffffffffffffffff16021790555034600f60008581526020019081526020016000206009015401600f600085815260200190815260200160002060090181905550600f6000848152602001908152602001600020600b0160008154809291906001019190505550612c0833600b54614bf1565b612cc2600b54600f60008681526020019081526020016000206003018054600181600116156101000203166002900480601f016020809104026020016040519081016040528092919081815260200182805460018160011615610100020316600290048015612cb85780601f10612c8d57610100808354040283529160200191612cb8565b820191906000526020600020905b815481529060010190602001808311612c9b57829003601f168201915b5050505050614e09565b82600c6000600b5481526020019081526020016000208190555082600d6000600b5481526020019081526020016000206000018190555033600d6000600b54815260200190815260200160002060010160006101000a81548173ffffffffffffffffffffffffffffffffffffffff021916908373ffffffffffffffffffffffffffffffffffffffff160217905550601060003373ffffffffffffffffffffffffffffffffffffffff1673ffffffffffffffffffffffffffffffffffffffff168152602001908152602001600020600101600b549080600181540180825580915050906001820390600052602060002001600090919290919091505550601060003373ffffffffffffffffffffffffffffffffffffffff1673ffffffffffffffffffffffffffffffffffffffff1681526020019081526020016000206002018390806001815401808255809150509060018203906000526020600020016000909192909190915055506001601060003373ffffffffffffffffffffffffffffffffffffffff1673ffffffffffffffffffffffffffffffffffffffff168152602001908152602001600020600401600085815260200190815260200160002060006101000a81548160ff021916908315150217905550600b60008154809291906001019190505550600b54915050919050565b606060068054600181600116156101000203166002900480601f016020809104026020016040519081016040528092919081815260200182805460018160011615610100020316600290048015612f4b5780601f10612f2057610100808354040283529160200191612f4b565b820191906000526020600020905b815481529060010190602001808311612f2e57829003601f168201915b5050505050905090565b612f65612f6061489a565b613b40565b612fba576040517f08c379a0000000000000000000000000000000000000000000000000000000008152600401808060200182810382526030815260200180615a306030913960400191505060405180910390fd5b612fc381614ea1565b50565b612fd6612fd161489a565b614efb565b565b6000600f600083815260200190815260200160002060070180549050600f6000848152602001908152602001600020600b01541061307e576040517f08c379a00000000000000000000000000000000000000000000000000000000081526004018080602001828103825260108152602001807f416c6c207469636b65747320736f6c640000000000000000000000000000000081525060200191505060405180910390fd5b600f600083815260200190815260200160002060010154600960009054906101000a900473ffffffffffffffffffffffffffffffffffffffff1673ffffffffffffffffffffffffffffffffffffffff166370a08231336040518263ffffffff1660e01b8152600401808273ffffffffffffffffffffffffffffffffffffffff1673ffffffffffffffffffffffffffffffffffffffff16815260200191505060206040518083038186803b15801561313457600080fd5b505afa158015613148573d6000803e3d6000fd5b505050506040513d602081101561315e57600080fd5b810190808051906020019092919050505010156131e3576040517f08c379a00000000000000000000000000000000000000000000000000000000081526004018080602001828103825260178152602001807f496e73756666696369656e742076616c75652073656e6400000000000000000081525060200191505060405180910390fd5b60011515600f600084815260200190815260200160002060080160009054906101000a900460ff16151514613280576040517f08c379a000000000000000000000000000000000000000000000000000000000815260040180806020018281038252601b8152602001807f4576656e74206e6f7420617661696c61626c6520616e796d6f7265000000000081525060200191505060405180910390fd5b60001515600f600084815260200190815260200160002060060160003373ffffffffffffffffffffffffffffffffffffffff1673ffffffffffffffffffffffffffffffffffffffff16815260200190815260200160002060009054906101000a900460ff1615151461333d576040517f08c379a00000000000000000000000000000000000000000000000000000000081526004018080602001828103825260308152602001806158f36030913960400191505060405180910390fd5b600960009054906101000a900473ffffffffffffffffffffffffffffffffffffffff1673ffffffffffffffffffffffffffffffffffffffff1663095ea7b330600f6000868152602001908152602001600020600101546040518363ffffffff1660e01b8152600401808373ffffffffffffffffffffffffffffffffffffffff1673ffffffffffffffffffffffffffffffffffffffff16815260200182815260200192505050602060405180830381600087803b1580156133fc57600080fd5b505af1158015613410573d6000803e3d6000fd5b505050506040513d602081101561342657600080fd5b810190808051906020019092919050505050600960009054906101000a900473ffffffffffffffffffffffffffffffffffffffff1673ffffffffffffffffffffffffffffffffffffffff166323b872dd3330600f6000878152602001908152602001600020600101546040518463ffffffff1660e01b8152600401808473ffffffffffffffffffffffffffffffffffffffff1673ffffffffffffffffffffffffffffffffffffffff1681526020018373ffffffffffffffffffffffffffffffffffffffff1673ffffffffffffffffffffffffffffffffffffffff1681526020018281526020019350505050602060405180830381600087803b15801561352b57600080fd5b505af115801561353f573d6000803e3d6000fd5b505050506040513d602081101561355557600080fd5b8101908080519060200190929190505050506000600f6000848152602001908152602001600020600b015490506001600f600085815260200190815260200160002060060160003373ffffffffffffffffffffffffffffffffffffffff1673ffffffffffffffffffffffffffffffffffffffff16815260200190815260200160002060006101000a81548160ff02191690831515021790555033600f6000858152602001908152602001600020600701828154811061361057fe5b9060005260206000200160006101000a81548173ffffffffffffffffffffffffffffffffffffffff021916908373ffffffffffffffffffffffffffffffffffffffff160217905550600f600084815260200190815260200160002060010154600f6000858152602001908152602001600020600a015401600f6000858152602001908152602001600020600a0181905550600f6000848152602001908152602001600020600b01600081548092919060010191905055506136d333600b54614bf1565b61378d600b54600f60008681526020019081526020016000206003018054600181600116156101000203166002900480601f0160208091040260200160405190810160405280929190818152602001828054600181600116156101000203166002900480156137835780601f1061375857610100808354040283529160200191613783565b820191906000526020600020905b81548152906001019060200180831161376657829003601f168201915b5050505050614e09565b82600c6000600b5481526020019081526020016000208190555082600d6000600b5481526020019081526020016000206000018190555033600d6000600b54815260200190815260200160002060010160006101000a81548173ffffffffffffffffffffffffffffffffffffffff021916908373ffffffffffffffffffffffffffffffffffffffff160217905550601060003373ffffffffffffffffffffffffffffffffffffffff1673ffffffffffffffffffffffffffffffffffffffff168152602001908152602001600020600101600b549080600181540180825580915050906001820390600052602060002001600090919290919091505550601060003373ffffffffffffffffffffffffffffffffffffffff1673ffffffffffffffffffffffffffffffffffffffff1681526020019081526020016000206002018390806001815401808255809150509060018203906000526020600020016000909192909190915055506001601060003373ffffffffffffffffffffffffffffffffffffffff1673ffffffffffffffffffffffffffffffffffffffff168152602001908152602001600020600401600085815260200190815260200160002060006101000a81548160ff021916908315150217905550600b60008154809291906001019190505550600b54915050919050565b61398661489a565b73ffffffffffffffffffffffffffffffffffffffff168273ffffffffffffffffffffffffffffffffffffffff161415613a27576040517f08c379a00000000000000000000000000000000000000000000000000000000081526004018080602001828103825260198152602001807f4552433732313a20617070726f766520746f2063616c6c65720000000000000081525060200191505060405180910390fd5b8060046000613a3461489a565b73ffffffffffffffffffffffffffffffffffffffff1673ffffffffffffffffffffffffffffffffffffffff16815260200190815260200160002060008473ffffffffffffffffffffffffffffffffffffffff1673ffffffffffffffffffffffffffffffffffffffff16815260200190815260200160002060006101000a81548160ff0219169083151502179055508173ffffffffffffffffffffffffffffffffffffffff16613ae161489a565b73ffffffffffffffffffffffffffffffffffffffff167f17307eab39ab6107e8899845ad3d59bd9653f200f220920489ca2b5937696c3183604051808215151515815260200191505060405180910390a35050565b6000600e54905090565b6000613b56826008614f5590919063ffffffff16565b9050919050565b600a6020528060005260406000206000915090505481565b606080606080601060003373ffffffffffffffffffffffffffffffffffffffff1673ffffffffffffffffffffffffffffffffffffffff168152602001908152602001600020600001805480602002602001604051908101604052809291908181526020018280548015613c0757602002820191906000526020600020905b815481526020019060010190808311613bf3575b50505050509350601060003373ffffffffffffffffffffffffffffffffffffffff1673ffffffffffffffffffffffffffffffffffffffff168152602001908152602001600020600201805480602002602001604051908101604052809291908181526020018280548015613c9a57602002820191906000526020600020905b815481526020019060010190808311613c86575b50505050509250601060003373ffffffffffffffffffffffffffffffffffffffff1673ffffffffffffffffffffffffffffffffffffffff168152602001908152602001600020600101805480602002602001604051908101604052809291908181526020018280548015613d2d57602002820191906000526020600020905b815481526020019060010190808311613d19575b50505050509050601060003373ffffffffffffffffffffffffffffffffffffffff1673ffffffffffffffffffffffffffffffffffffffff16815260200190815260200160002060020180549050604051908082528060200260200182016040528015613da85781602001602082028038833980820191505090505b50915060008090505b601060003373ffffffffffffffffffffffffffffffffffffffff1673ffffffffffffffffffffffffffffffffffffffff16815260200190815260200160002060020180549050811015613ee157601060003373ffffffffffffffffffffffffffffffffffffffff1673ffffffffffffffffffffffffffffffffffffffff1681526020019081526020016000206004016000601060003373ffffffffffffffffffffffffffffffffffffffff1673ffffffffffffffffffffffffffffffffffffffff1681526020019081526020016000206002018381548110613e8f57fe5b9060005260206000200154815260200190815260200160002060009054906101000a900460ff16838281518110613ec257fe5b6020026020010190151590811515815250508080600101915050613db1565b5090919293565b60606000606060006060600f6000878152602001908152602001600020600501805480602002602001604051908101604052809291908181526020018280548015613f8857602002820191906000526020600020905b8160009054906101000a900473ffffffffffffffffffffffffffffffffffffffff1673ffffffffffffffffffffffffffffffffffffffff1681526020019060010190808311613f3e575b50505050509450600f6000878152602001908152602001600020600b01549350600f60008781526020019081526020016000206004018054600181600116156101000203166002900480601f0160208091040260200160405190810160405280929190818152602001828054600181600116156101000203166002900480156140525780601f1061402757610100808354040283529160200191614052565b820191906000526020600020905b81548152906001019060200180831161403557829003601f168201915b50505050509250600f6000878152602001908152602001600020600e01549150600f600087815260200190815260200160002060070180548060200260200160405190810160405280929190818152602001828054801561410857602002820191906000526020600020905b8160009054906101000a900473ffffffffffffffffffffffffffffffffffffffff1673ffffffffffffffffffffffffffffffffffffffff16815260200190600101908083116140be575b5050505050905091939590929450565b61412961412361489a565b836148a2565b61417e576040517f08c379a0000000000000000000000000000000000000000000000000000000008152600401808060200182810382526031815260200180615b746031913960400191505060405180910390fd5b61418a84848484615033565b50505050565b600b5481565b60606141a182614828565b6141f6576040517f08c379a000000000000000000000000000000000000000000000000000000000815260040180806020018281038252602f815260200180615b24602f913960400191505060405180910390fd5b600760008381526020019081526020016000208054600181600116156101000203166002900480601f01602080910402602001604051908101604052809291908181526020018280546001816001161561010002031660029004801561429d5780601f106142725761010080835404028352916020019161429d565b820191906000526020600020905b81548152906001019060200180831161428057829003601f168201915b50505050509050919050565b6060600060606000600f600086815260200190815260200160002060050180548060200260200160405190810160405280929190818152602001828054801561434757602002820191906000526020600020905b8160009054906101000a900473ffffffffffffffffffffffffffffffffffffffff1673ffffffffffffffffffffffffffffffffffffffff16815260200190600101908083116142fd575b50505050509350600f6000868152602001908152602001600020600b01549250600f60008681526020019081526020016000206004018054600181600116156101000203166002900480601f0160208091040260200160405190810160405280929190818152602001828054600181600116156101000203166002900480156144115780601f106143e657610100808354040283529160200191614411565b820191906000526020600020905b8154815290600101906020018083116143f457829003601f168201915b50505050509150600f6000868152602001908152602001600020600e015490509193509193565b600c6020528060005260406000206000915090505481565b600060011515601060003373ffffffffffffffffffffffffffffffffffffffff1673ffffffffffffffffffffffffffffffffffffffff168152602001908152602001600020600401600084815260200190815260200160002060009054906101000a900460ff1615151461452c576040517f08c379a000000000000000000000000000000000000000000000000000000000815260040180806020018281038252601b8152602001807f596f75206861766520616c726561647920636865636b656420696e000000000081525060200191505060405180910390fd5b60011515601060003373ffffffffffffffffffffffffffffffffffffffff1673ffffffffffffffffffffffffffffffffffffffff168152602001908152602001600020600301600084815260200190815260200160002060009054906101000a900460ff1615151415614607576040517f08c379a000000000000000000000000000000000000000000000000000000000815260040180806020018281038252601a8152602001807f596f75206861766520616c726561647920636865636b6564496e00000000000081525060200191505060405180910390fd5b6000600f6000848152602001908152602001600020600e0154905033600f6000858152602001908152602001600020600501828154811061464457fe5b9060005260206000200160006101000a81548173ffffffffffffffffffffffffffffffffffffffff021916908373ffffffffffffffffffffffffffffffffffffffff1602179055506001601060003373ffffffffffffffffffffffffffffffffffffffff1673ffffffffffffffffffffffffffffffffffffffff168152602001908152602001600020600301600085815260200190815260200160002060006101000a81548160ff0219169083151502179055506000601060003373ffffffffffffffffffffffffffffffffffffffff1673ffffffffffffffffffffffffffffffffffffffff168152602001908152602001600020600401600085815260200190815260200160002060006101000a81548160ff021916908315150217905550600f6000848152602001908152602001600020600e01600081548092919060010191905055506001915050919050565b6000600460008473ffffffffffffffffffffffffffffffffffffffff1673ffffffffffffffffffffffffffffffffffffffff16815260200190815260200160002060008373ffffffffffffffffffffffffffffffffffffffff1673ffffffffffffffffffffffffffffffffffffffff16815260200190815260200160002060009054906101000a900460ff16905092915050565b6000806001600084815260200190815260200160002060009054906101000a900473ffffffffffffffffffffffffffffffffffffffff169050600073ffffffffffffffffffffffffffffffffffffffff168173ffffffffffffffffffffffffffffffffffffffff161415915050919050565b600033905090565b60006148ad82614828565b614902576040517f08c379a000000000000000000000000000000000000000000000000000000000815260040180806020018281038252602c815260200180615979602c913960400191505060405180910390fd5b600061490d83612266565b90508073ffffffffffffffffffffffffffffffffffffffff168473ffffffffffffffffffffffffffffffffffffffff16148061497c57508373ffffffffffffffffffffffffffffffffffffffff16614964846116d9565b73ffffffffffffffffffffffffffffffffffffffff16145b8061498d575061498c8185614794565b5b91505092915050565b8273ffffffffffffffffffffffffffffffffffffffff166149b682612266565b73ffffffffffffffffffffffffffffffffffffffff1614614a22576040517f08c379a0000000000000000000000000000000000000000000000000000000008152600401808060200182810382526029815260200180615afb6029913960400191505060405180910390fd5b600073ffffffffffffffffffffffffffffffffffffffff168273ffffffffffffffffffffffffffffffffffffffff161415614aa8576040517f08c379a00000000000000000000000000000000000000000000000000000000081526004018080602001828103825260248152602001806159556024913960400191505060405180910390fd5b614ab1816150a5565b614af8600360008573ffffffffffffffffffffffffffffffffffffffff1673ffffffffffffffffffffffffffffffffffffffff168152602001908152602001600020615163565b614b3f600360008473ffffffffffffffffffffffffffffffffffffffff1673ffffffffffffffffffffffffffffffffffffffff168152602001908152602001600020615186565b816001600083815260200190815260200160002060006101000a81548173ffffffffffffffffffffffffffffffffffffffff021916908373ffffffffffffffffffffffffffffffffffffffff160217905550808273ffffffffffffffffffffffffffffffffffffffff168473ffffffffffffffffffffffffffffffffffffffff167fddf252ad1be2c89b69c2b068fc378daa952ba7f163c4a11628f55a4df523b3ef60405160405180910390a4505050565b600073ffffffffffffffffffffffffffffffffffffffff168273ffffffffffffffffffffffffffffffffffffffff161415614c94576040517f08c379a00000000000000000000000000000000000000000000000000000000081526004018080602001828103825260208152602001807f4552433732313a206d696e7420746f20746865207a65726f206164647265737381525060200191505060405180910390fd5b614c9d81614828565b15614d10576040517f08c379a000000000000000000000000000000000000000000000000000000000815260040180806020018281038252601c8152602001807f4552433732313a20746f6b656e20616c7265616479206d696e7465640000000081525060200191505060405180910390fd5b816001600083815260200190815260200160002060006101000a81548173ffffffffffffffffffffffffffffffffffffffff021916908373ffffffffffffffffffffffffffffffffffffffff160217905550614da9600360008473ffffffffffffffffffffffffffffffffffffffff1673ffffffffffffffffffffffffffffffffffffffff168152602001908152602001600020615186565b808273ffffffffffffffffffffffffffffffffffffffff16600073ffffffffffffffffffffffffffffffffffffffff167fddf252ad1be2c89b69c2b068fc378daa952ba7f163c4a11628f55a4df523b3ef60405160405180910390a45050565b614e1282614828565b614e67576040517f08c379a000000000000000000000000000000000000000000000000000000000815260040180806020018281038252602c815260200180615aad602c913960400191505060405180910390fd5b80600760008481526020019081526020016000209080519060200190614e8e92919061580a565b505050565b600081600001549050919050565b614eb581600861519c90919063ffffffff16565b8073ffffffffffffffffffffffffffffffffffffffff167f6ae172837ea30b801fbfcdd4108aa1d5bf8ff775444fd70256b44e6bf3dfc3f660405160405180910390a250565b614f0f81600861527790919063ffffffff16565b8073ffffffffffffffffffffffffffffffffffffffff167fe94479a9f7e1952cc78f2d6baab678adc1b772d936c6583def489e524cb6669260405160405180910390a250565b60008073ffffffffffffffffffffffffffffffffffffffff168273ffffffffffffffffffffffffffffffffffffffff161415614fdc576040517f08c379a0000000000000000000000000000000000000000000000000000000008152600401808060200182810382526022815260200180615ad96022913960400191505060405180910390fd5b8260000160008373ffffffffffffffffffffffffffffffffffffffff1673ffffffffffffffffffffffffffffffffffffffff16815260200190815260200160002060009054906101000a900460ff16905092915050565b61503e848484614996565b61504a84848484615334565b61509f576040517f08c379a00000000000000000000000000000000000000000000000000000000081526004018080602001828103825260328152602001806159236032913960400191505060405180910390fd5b50505050565b600073ffffffffffffffffffffffffffffffffffffffff166002600083815260200190815260200160002060009054906101000a900473ffffffffffffffffffffffffffffffffffffffff1673ffffffffffffffffffffffffffffffffffffffff16146151605760006002600083815260200190815260200160002060006101000a81548173ffffffffffffffffffffffffffffffffffffffff021916908373ffffffffffffffffffffffffffffffffffffffff1602179055505b50565b61517b6001826000015461552490919063ffffffff16565b816000018190555050565b6001816000016000828254019250508190555050565b6151a68282614f55565b15615219576040517f08c379a000000000000000000000000000000000000000000000000000000000815260040180806020018281038252601f8152602001807f526f6c65733a206163636f756e7420616c72656164792068617320726f6c650081525060200191505060405180910390fd5b60018260000160008373ffffffffffffffffffffffffffffffffffffffff1673ffffffffffffffffffffffffffffffffffffffff16815260200190815260200160002060006101000a81548160ff0219169083151502179055505050565b6152818282614f55565b6152d6576040517f08c379a0000000000000000000000000000000000000000000000000000000008152600401808060200182810382526021815260200180615a606021913960400191505060405180910390fd5b60008260000160008373ffffffffffffffffffffffffffffffffffffffff1673ffffffffffffffffffffffffffffffffffffffff16815260200190815260200160002060006101000a81548160ff0219169083151502179055505050565b60006153558473ffffffffffffffffffffffffffffffffffffffff1661556e565b615362576001905061551c565b60008473ffffffffffffffffffffffffffffffffffffffff1663150b7a0261538861489a565b8887876040518563ffffffff1660e01b8152600401808573ffffffffffffffffffffffffffffffffffffffff1673ffffffffffffffffffffffffffffffffffffffff1681526020018473ffffffffffffffffffffffffffffffffffffffff1673ffffffffffffffffffffffffffffffffffffffff16815260200183815260200180602001828103825283818151815260200191508051906020019080838360005b83811015615444578082015181840152602081019050615429565b50505050905090810190601f1680156154715780820380516001836020036101000a031916815260200191505b5095505050505050602060405180830381600087803b15801561549357600080fd5b505af11580156154a7573d6000803e3d6000fd5b505050506040513d60208110156154bd57600080fd5b8101908080519060200190929190505050905063150b7a0260e01b7bffffffffffffffffffffffffffffffffffffffffffffffffffffffff1916817bffffffffffffffffffffffffffffffffffffffffffffffffffffffff1916149150505b949350505050565b600061556683836040518060400160405280601e81526020017f536166654d6174683a207375627472616374696f6e206f766572666c6f7700008152506155b9565b905092915050565b60008060007fc5d2460186f7233c927e7db2dcc703c0e500b653ca82273b7bfad8045d85a47060001b9050833f91506000801b82141580156155b05750808214155b92505050919050565b6000838311158290615666576040517f08c379a00000000000000000000000000000000000000000000000000000000081526004018080602001828103825283818151815260200191508051906020019080838360005b8381101561562b578082015181840152602081019050615610565b50505050905090810190601f1680156156585780820380516001836020036101000a031916815260200191505b509250505060405180910390fd5b5060008385039050809150509392505050565b604051806101c001604052806000815260200160008152602001600073ffffffffffffffffffffffffffffffffffffffff168152602001606081526020016060815260200160608152602001606081526020016000151581526020016000815260200160008152602001600081526020016060815260200160008152602001600081525090565b828054600181600116156101000203166002900490600052602060002090601f016020900481019282601f1061574157805160ff191683800117855561576f565b8280016001018555821561576f579182015b8281111561576e578251825591602001919060010190615753565b5b50905061577c919061588a565b5090565b8280548282559060005260206000209081019282156157f9579160200282015b828111156157f85782518260006101000a81548173ffffffffffffffffffffffffffffffffffffffff021916908373ffffffffffffffffffffffffffffffffffffffff160217905550916020019190600101906157a0565b5b50905061580691906158af565b5090565b828054600181600116156101000203166002900490600052602060002090601f016020900481019282601f1061584b57805160ff1916838001178555615879565b82800160010185558215615879579182015b8281111561587857825182559160200191906001019061585d565b5b509050615886919061588a565b5090565b6158ac91905b808211156158a8576000816000905550600101615890565b5090565b90565b6158ef91905b808211156158eb57600081816101000a81549073ffffffffffffffffffffffffffffffffffffffff0219169055506001016158b5565b5090565b9056fe5469636b657420686173206265656e20616c726561647920626f756768742077697468207468697320616464726573734552433732313a207472616e7366657220746f206e6f6e20455243373231526563656976657220696d706c656d656e7465724552433732313a207472616e7366657220746f20746865207a65726f20616464726573734552433732313a206f70657261746f7220717565727920666f72206e6f6e6578697374656e7420746f6b656e4552433732313a20617070726f76652063616c6c6572206973206e6f74206f776e6572206e6f7220617070726f76656420666f7220616c6c4552433732313a2062616c616e636520717565727920666f7220746865207a65726f20616464726573734552433732313a206f776e657220717565727920666f72206e6f6e6578697374656e7420746f6b656e4d696e746572526f6c653a2063616c6c657220646f6573206e6f74206861766520746865204d696e74657220726f6c65526f6c65733a206163636f756e7420646f6573206e6f74206861766520726f6c654552433732313a20617070726f76656420717565727920666f72206e6f6e6578697374656e7420746f6b656e4552433732314d657461646174613a2055524920736574206f66206e6f6e6578697374656e7420746f6b656e526f6c65733a206163636f756e7420697320746865207a65726f20616464726573734552433732313a207472616e73666572206f6620746f6b656e2074686174206973206e6f74206f776e4552433732314d657461646174613a2055524920717565727920666f72206e6f6e6578697374656e7420746f6b656e4552433732313a20617070726f76616c20746f2063757272656e74206f776e65724552433732313a207472616e736665722063616c6c6572206973206e6f74206f776e6572206e6f7220617070726f766564a265627a7a72315820f46edfb4044cfc319fee6dfdc39fab0869ae4d2ad939a83b35bd76183894607364736f6c634300050c0032526f6c65733a206163636f756e7420697320746865207a65726f2061646472657373",
  "source": "pragma solidity >=0.4.22 <0.6.0;\n\n\nimport \"@openzeppelin/contracts/token/ERC721/ERC721MetadataMintable.sol\";\ncontract TicketsOnChain is ERC721MetadataMintable {\n    address address_dai = 0x4F96Fe3b7A6Cf9725f59d353F723c1bDb64CA6Aa;\n     constructor() ERC721Metadata(\"eventTicket\",\"CEFT\") public{\n\n    } \n  struct Event{\n      uint priceInEth;\n      uint priceInDai;\n      address ownerAddress;\n      string metadata;\n      string name;\n      address[] checkedInUsers;\n      mapping(address => bool) issuedAddressCheck;\n      address[] issuedAddresses;\n      bool active;\n      uint eth;\n      uint dai;\n      uint ticketsIssued;\n      string description;\n      uint eventId;\n      uint checkInCount;\n  }\n  struct NFT{\n    uint eventId;\n    address owner;\n  }\n  struct User{\n      uint[] hosting;\n      uint[] owned;\n      uint[] events;\n      mapping(uint=>bool) checkedIn;\n      mapping(uint =>bool) notCheckedIn;\n  }\n  mapping (address => uint) public ownerToEvent;\n  uint public nftId;\n  mapping(uint=>uint) public nftToEvent;// this shows which event has is represented by this token, for back tracking\n  mapping(uint=>NFT) public nftInformation;// gives nft info \n  uint public eventCount;\n  mapping(uint => Event) public eventMapping;\n  mapping(address=>User)  userMapping;\n  function createEvent(uint _priceEth, uint _priceDai,string memory _metadata, string memory _name, string memory _description,uint noOfTickets)public {\n \n    Event memory obj = Event({\n        priceInEth:_priceEth,\n        priceInDai:_priceDai,\n        metadata:_metadata,\n        name:_name,\n        ownerAddress:msg.sender, \n        active:true,\n        issuedAddresses :new address[](noOfTickets),\n        checkedInUsers : new address[](noOfTickets),\n        dai:0,\n        eth:0,\n        checkInCount:0,\n        ticketsIssued:0,\n        description :_description,\n        eventId:eventCount\n    });\n    ownerToEvent[msg.sender]=eventCount;\n    userMapping[msg.sender].hosting.push(eventCount);\n    eventMapping[eventCount]=obj;\n    eventCount++;\n    \n  }\n  function turnEventOff(uint eventId) public  {\n      require(eventMapping[eventId].ownerAddress ==msg.sender,\"you cant call this function\");\n      eventMapping[eventId].active = false;\n  }\n  function checkInList(uint _id) public view returns(address[] memory attendees, uint _totalTickets, string memory name , uint totalCheckin){\n      attendees = eventMapping[_id].checkedInUsers;\n      _totalTickets= eventMapping[_id].ticketsIssued;\n      name = eventMapping[_id].name;\n      totalCheckin = eventMapping[_id].checkInCount;\n  }\n  function buyTicketsEth(uint eventId) public payable   returns(uint tokenId){\n    require(eventMapping[eventId].ticketsIssued<eventMapping[eventId].issuedAddresses.length,\"All tickets sold\");\n    require(msg.value>=eventMapping[eventId].priceInEth,\"Insufficient value send\");\n    require(eventMapping[eventId].active ==true,\"Event not available anymore\");\n    require(eventMapping[eventId].issuedAddressCheck[msg.sender]==false,\"Ticket has been already bought with this address\");\n    uint  count = eventMapping[eventId].ticketsIssued;\n    eventMapping[eventId].issuedAddressCheck[msg.sender]= true;\n    eventMapping[eventId].issuedAddresses[count]= msg.sender;\n    eventMapping[eventId].eth=eventMapping[eventId].eth+msg.value;\n    eventMapping[eventId].ticketsIssued++;\n    _mint(msg.sender, nftId);\n    _setTokenURI(nftId, eventMapping[eventId].metadata);\n    nftToEvent[nftId]=eventId;\n    nftInformation[nftId].eventId=eventId;\n    nftInformation[nftId].owner= msg.sender;\n    userMapping[msg.sender].owned.push(nftId);\n    userMapping[msg.sender].events.push(eventId);\n    userMapping[msg.sender].notCheckedIn[eventId]= true;\n    \n    nftId++;\n    tokenId = nftId;\n  }\n  function buyTicketsDAi(uint eventId) public returns(uint tokenId){\n    require(eventMapping[eventId].ticketsIssued<eventMapping[eventId].issuedAddresses.length,\"All tickets sold\");\n    require(ERC20(address_dai).balanceOf(msg.sender)>=eventMapping[eventId].priceInDai,\"Insufficient value send\");\n    require(eventMapping[eventId].active ==true,\"Event not available anymore\");\n    require(eventMapping[eventId].issuedAddressCheck[msg.sender]==false,\"Ticket has been already bought with this address\");\n    ERC20(address_dai).approve(address(this),eventMapping[eventId].priceInDai);\n    ERC20(address_dai).transferFrom(msg.sender, address(this),eventMapping[eventId].priceInDai);\n    \n    \n    uint  count = eventMapping[eventId].ticketsIssued;\n  //  eventMapping[eventId].issuedTokens[count]=tokenId;\n    eventMapping[eventId].issuedAddressCheck[msg.sender]= true;\n    eventMapping[eventId].issuedAddresses[count]= msg.sender;\n    //eventMapping[eventId].eth=eventMapping[eventId].eth+msg.value;\n    eventMapping[eventId].dai=eventMapping[eventId].dai+eventMapping[eventId].priceInDai;\n    eventMapping[eventId].ticketsIssued++;\n    _mint(msg.sender, nftId);\n    _setTokenURI(nftId, eventMapping[eventId].metadata);\n    nftToEvent[nftId]=eventId;\n    nftInformation[nftId].eventId=eventId;\n    nftInformation[nftId].owner= msg.sender;\n    userMapping[msg.sender].owned.push(nftId);\n    userMapping[msg.sender].events.push(eventId);\n    userMapping[msg.sender].notCheckedIn[eventId]= true;\n    nftId++;\n    tokenId = nftId;\n  }\n  function sales(uint _id) public view returns(address[] memory attendees, uint _totalTickets, string memory name , uint totalCheckin, address[] memory alltickets){\n      attendees = eventMapping[_id].checkedInUsers;\n      _totalTickets= eventMapping[_id].ticketsIssued;\n      name = eventMapping[_id].name;\n      totalCheckin = eventMapping[_id].checkInCount;\n      alltickets = eventMapping[_id].issuedAddresses;\n  }\n function checkIn(uint eventId)public returns(bool status){\n   //  require(eventMapping[eventId].ownerAddress==msg.sender,\"You are not authorized to do this\");\n     require(userMapping[msg.sender].notCheckedIn[eventId] == true,\"You have already checked in\");\n     require(userMapping[msg.sender].checkedIn[eventId] != true, \"You have already checkedIn\");\n     uint count = eventMapping[eventId].checkInCount;\n     eventMapping[eventId].checkedInUsers[count]=msg.sender;\n     userMapping[msg.sender].checkedIn[eventId]= true;\n     userMapping[msg.sender].notCheckedIn[eventId]= false;\n     eventMapping[eventId].checkInCount++;\n     status = true;\n }\n function UserProfile() public view returns (uint[] memory eventHost,uint[] memory eventList, bool[] memory statusList, uint[] memory tokenList){\n     eventHost = userMapping[msg.sender].hosting;\n     eventList = userMapping[msg.sender].events;\n     tokenList = userMapping[msg.sender].owned;\n     statusList= new bool[](userMapping[msg.sender].events.length);\n     for(uint i=0; i<userMapping[msg.sender].events.length;i++){\n         statusList[i]=userMapping[msg.sender].notCheckedIn[userMapping[msg.sender].events[i]];\n    }\n    \n }\n function withdraw(uint eventId) public {\n     require(eventMapping[eventId].ownerAddress == msg.sender,\"You are not the owner\");\n     msg.sender.transfer(eventMapping[eventId].eth);\n     ERC20(address_dai).transfer(eventMapping[eventId].ownerAddress, eventMapping[eventId].dai);\n }\n function daicheck() public  returns(uint bal) {\n     bal = ERC20(address_dai).balanceOf(msg.sender);\n    ERC20(address_dai).approve(address(this),1000);\n    //ERC20(address_dai).transferFrom(msg.sender,address(this), 1000);\n\n }\n function retEventCount()public view returns (uint){\n   return eventCount;\n }\n  function daicheck2() public {\n    //  bal = ERC20(address_dai).balanceOf(msg.sender);\n    // ERC20(address_dai).approve(address(this),1000);\n    address ac= msg.sender;\n    ERC20 token =  ERC20(address_dai);\n    token.transferFrom(msg.sender,address(this),1000);\n\n }\n \n//refund\n//send momey to event creator\n}\n\ninterface ERC20 {\n    function balanceOf(address tokenOwner) external view returns (uint balance);\n   function transfer(address receiver, uint amount) external returns(bool);\n    function approve(address spender, uint256 value) external returns (bool);\n    function transferFrom(address _from, address _to, uint256 _value) external returns(bool);\n}\n",
  "sourcePath": "/media/abhimanyu/New Volume/ticket-system/contracts/TicketOnChain.sol",
  "compiler": {
    "name": "solc",
    "version": "0.5.12+commit.7709ece9.Emscripten.clang"
  },
  "schemaVersion": "3.0.19",
  "updatedAt": "2019-12-15T19:06:53.697Z",
  "networkType": "ethereum",
  "devdoc": {
    "methods": {
      "approve(address,uint256)": {
        "details": "Approves another address to transfer the given token ID The zero address indicates there is no approved address. There can only be one approved address per token at a given time. Can only be called by the token owner or an approved operator.",
        "params": {
          "to": "address to be approved for the given token ID",
          "tokenId": "uint256 ID of the token to be approved"
        }
      },
      "balanceOf(address)": {
        "details": "Gets the balance of the specified address.",
        "params": {
          "owner": "address to query the balance of"
        },
        "return": "uint256 representing the amount owned by the passed address"
      },
      "getApproved(uint256)": {
        "details": "Gets the approved address for a token ID, or zero if no address set Reverts if the token ID does not exist.",
        "params": {
          "tokenId": "uint256 ID of the token to query the approval of"
        },
        "return": "address currently approved for the given token ID"
      },
      "isApprovedForAll(address,address)": {
        "details": "Tells whether an operator is approved by a given owner.",
        "params": {
          "operator": "operator address which you want to query the approval of",
          "owner": "owner address which you want to query the approval of"
        },
        "return": "bool whether the given operator is approved by the given owner"
      },
      "mintWithTokenURI(address,uint256,string)": {
        "details": "Function to mint tokens.",
        "params": {
          "to": "The address that will receive the minted tokens.",
          "tokenId": "The token id to mint.",
          "tokenURI": "The token URI of the minted token."
        },
        "return": "A boolean that indicates if the operation was successful."
      },
      "name()": {
        "details": "Gets the token name.",
        "return": "string representing the token name"
      },
      "ownerOf(uint256)": {
        "details": "Gets the owner of the specified token ID.",
        "params": {
          "tokenId": "uint256 ID of the token to query the owner of"
        },
        "return": "address currently marked as the owner of the given token ID"
      },
      "safeTransferFrom(address,address,uint256)": {
        "details": "Safely transfers the ownership of a given token ID to another address If the target address is a contract, it must implement {IERC721Receiver-onERC721Received}, which is called upon a safe transfer, and return the magic value `bytes4(keccak256(\"onERC721Received(address,address,uint256,bytes)\"))`; otherwise, the transfer is reverted. Requires the msg.sender to be the owner, approved, or operator",
        "params": {
          "from": "current owner of the token",
          "to": "address to receive the ownership of the given token ID",
          "tokenId": "uint256 ID of the token to be transferred"
        }
      },
      "safeTransferFrom(address,address,uint256,bytes)": {
        "details": "Safely transfers the ownership of a given token ID to another address If the target address is a contract, it must implement {IERC721Receiver-onERC721Received}, which is called upon a safe transfer, and return the magic value `bytes4(keccak256(\"onERC721Received(address,address,uint256,bytes)\"))`; otherwise, the transfer is reverted. Requires the _msgSender() to be the owner, approved, or operator",
        "params": {
          "_data": "bytes data to send along with a safe transfer check",
          "from": "current owner of the token",
          "to": "address to receive the ownership of the given token ID",
          "tokenId": "uint256 ID of the token to be transferred"
        }
      },
      "setApprovalForAll(address,bool)": {
        "details": "Sets or unsets the approval of a given operator An operator is allowed to transfer all tokens of the sender on their behalf.",
        "params": {
          "approved": "representing the status of the approval to be set",
          "to": "operator address to set the approval"
        }
      },
      "supportsInterface(bytes4)": {
        "details": "See {IERC165-supportsInterface}.     * Time complexity O(1), guaranteed to always use less than 30 000 gas."
      },
      "symbol()": {
        "details": "Gets the token symbol.",
        "return": "string representing the token symbol"
      },
      "tokenURI(uint256)": {
        "details": "Returns an URI for a given token ID. Throws if the token ID does not exist. May return an empty string.",
        "params": {
          "tokenId": "uint256 ID of the token to query"
        }
      },
      "transferFrom(address,address,uint256)": {
        "details": "Transfers the ownership of a given token ID to another address. Usage of this method is discouraged, use {safeTransferFrom} whenever possible. Requires the msg.sender to be the owner, approved, or operator.",
        "params": {
          "from": "current owner of the token",
          "to": "address to receive the ownership of the given token ID",
          "tokenId": "uint256 ID of the token to be transferred"
        }
      }
    }
  },
  "userdoc": {
    "methods": {}
  }
}