{
  "contractName": "Travel",
  "abi": [
    {
      "constant": true,
      "inputs": [
        {
          "name": "interfaceId",
          "type": "bytes4"
        }
      ],
      "name": "supportsInterface",
      "outputs": [
        {
          "name": "",
          "type": "bool"
        }
      ],
      "payable": false,
      "stateMutability": "view",
      "type": "function"
    },
    {
      "constant": true,
      "inputs": [],
      "name": "name",
      "outputs": [
        {
          "name": "",
          "type": "string"
        }
      ],
      "payable": false,
      "stateMutability": "view",
      "type": "function"
    },
    {
      "constant": true,
      "inputs": [
        {
          "name": "tokenId",
          "type": "uint256"
        }
      ],
      "name": "getApproved",
      "outputs": [
        {
          "name": "",
          "type": "address"
        }
      ],
      "payable": false,
      "stateMutability": "view",
      "type": "function"
    },
    {
      "constant": false,
      "inputs": [
        {
          "name": "to",
          "type": "address"
        },
        {
          "name": "tokenId",
          "type": "uint256"
        }
      ],
      "name": "approve",
      "outputs": [],
      "payable": false,
      "stateMutability": "nonpayable",
      "type": "function"
    },
    {
      "constant": false,
      "inputs": [
        {
          "name": "from",
          "type": "address"
        },
        {
          "name": "to",
          "type": "address"
        },
        {
          "name": "tokenId",
          "type": "uint256"
        }
      ],
      "name": "transferFrom",
      "outputs": [],
      "payable": false,
      "stateMutability": "nonpayable",
      "type": "function"
    },
    {
      "constant": false,
      "inputs": [
        {
          "name": "from",
          "type": "address"
        },
        {
          "name": "to",
          "type": "address"
        },
        {
          "name": "tokenId",
          "type": "uint256"
        }
      ],
      "name": "safeTransferFrom",
      "outputs": [],
      "payable": false,
      "stateMutability": "nonpayable",
      "type": "function"
    },
    {
      "constant": false,
      "inputs": [
        {
          "name": "to",
          "type": "address"
        },
        {
          "name": "tokenId",
          "type": "uint256"
        },
        {
          "name": "tokenURI",
          "type": "string"
        }
      ],
      "name": "mintWithTokenURI",
      "outputs": [
        {
          "name": "",
          "type": "bool"
        }
      ],
      "payable": false,
      "stateMutability": "nonpayable",
      "type": "function"
    },
    {
      "constant": true,
      "inputs": [
        {
          "name": "tokenId",
          "type": "uint256"
        }
      ],
      "name": "ownerOf",
      "outputs": [
        {
          "name": "",
          "type": "address"
        }
      ],
      "payable": false,
      "stateMutability": "view",
      "type": "function"
    },
    {
      "constant": true,
      "inputs": [
        {
          "name": "owner",
          "type": "address"
        }
      ],
      "name": "balanceOf",
      "outputs": [
        {
          "name": "",
          "type": "uint256"
        }
      ],
      "payable": false,
      "stateMutability": "view",
      "type": "function"
    },
    {
      "constant": true,
      "inputs": [],
      "name": "tokenid",
      "outputs": [
        {
          "name": "",
          "type": "uint256"
        }
      ],
      "payable": false,
      "stateMutability": "view",
      "type": "function"
    },
    {
      "constant": true,
      "inputs": [],
      "name": "symbol",
      "outputs": [
        {
          "name": "",
          "type": "string"
        }
      ],
      "payable": false,
      "stateMutability": "view",
      "type": "function"
    },
    {
      "constant": false,
      "inputs": [
        {
          "name": "account",
          "type": "address"
        }
      ],
      "name": "addMinter",
      "outputs": [],
      "payable": false,
      "stateMutability": "nonpayable",
      "type": "function"
    },
    {
      "constant": false,
      "inputs": [],
      "name": "renounceMinter",
      "outputs": [],
      "payable": false,
      "stateMutability": "nonpayable",
      "type": "function"
    },
    {
      "constant": false,
      "inputs": [
        {
          "name": "to",
          "type": "address"
        },
        {
          "name": "approved",
          "type": "bool"
        }
      ],
      "name": "setApprovalForAll",
      "outputs": [],
      "payable": false,
      "stateMutability": "nonpayable",
      "type": "function"
    },
    {
      "constant": true,
      "inputs": [
        {
          "name": "account",
          "type": "address"
        }
      ],
      "name": "isMinter",
      "outputs": [
        {
          "name": "",
          "type": "bool"
        }
      ],
      "payable": false,
      "stateMutability": "view",
      "type": "function"
    },
    {
      "constant": false,
      "inputs": [
        {
          "name": "from",
          "type": "address"
        },
        {
          "name": "to",
          "type": "address"
        },
        {
          "name": "tokenId",
          "type": "uint256"
        },
        {
          "name": "_data",
          "type": "bytes"
        }
      ],
      "name": "safeTransferFrom",
      "outputs": [],
      "payable": false,
      "stateMutability": "nonpayable",
      "type": "function"
    },
    {
      "constant": true,
      "inputs": [
        {
          "name": "tokenId",
          "type": "uint256"
        }
      ],
      "name": "tokenURI",
      "outputs": [
        {
          "name": "",
          "type": "string"
        }
      ],
      "payable": false,
      "stateMutability": "view",
      "type": "function"
    },
    {
      "constant": true,
      "inputs": [
        {
          "name": "owner",
          "type": "address"
        },
        {
          "name": "operator",
          "type": "address"
        }
      ],
      "name": "isApprovedForAll",
      "outputs": [
        {
          "name": "",
          "type": "bool"
        }
      ],
      "payable": false,
      "stateMutability": "view",
      "type": "function"
    },
    {
      "inputs": [],
      "payable": false,
      "stateMutability": "nonpayable",
      "type": "constructor"
    },
    {
      "anonymous": false,
      "inputs": [
        {
          "indexed": true,
          "name": "account",
          "type": "address"
        }
      ],
      "name": "MinterAdded",
      "type": "event"
    },
    {
      "anonymous": false,
      "inputs": [
        {
          "indexed": true,
          "name": "account",
          "type": "address"
        }
      ],
      "name": "MinterRemoved",
      "type": "event"
    },
    {
      "anonymous": false,
      "inputs": [
        {
          "indexed": true,
          "name": "from",
          "type": "address"
        },
        {
          "indexed": true,
          "name": "to",
          "type": "address"
        },
        {
          "indexed": true,
          "name": "tokenId",
          "type": "uint256"
        }
      ],
      "name": "Transfer",
      "type": "event"
    },
    {
      "anonymous": false,
      "inputs": [
        {
          "indexed": true,
          "name": "owner",
          "type": "address"
        },
        {
          "indexed": true,
          "name": "approved",
          "type": "address"
        },
        {
          "indexed": true,
          "name": "tokenId",
          "type": "uint256"
        }
      ],
      "name": "Approval",
      "type": "event"
    },
    {
      "anonymous": false,
      "inputs": [
        {
          "indexed": true,
          "name": "owner",
          "type": "address"
        },
        {
          "indexed": true,
          "name": "operator",
          "type": "address"
        },
        {
          "indexed": false,
          "name": "approved",
          "type": "bool"
        }
      ],
      "name": "ApprovalForAll",
      "type": "event"
    },
    {
      "constant": false,
      "inputs": [
        {
          "name": "content",
          "type": "string"
        },
        {
          "name": "location",
          "type": "string"
        }
      ],
      "name": "add_posts",
      "outputs": [],
      "payable": false,
      "stateMutability": "nonpayable",
      "type": "function"
    },
    {
      "constant": false,
      "inputs": [
        {
          "name": "tokenURI",
          "type": "string"
        }
      ],
      "name": "mint_token",
      "outputs": [],
      "payable": false,
      "stateMutability": "nonpayable",
      "type": "function"
    },
    {
      "constant": false,
      "inputs": [
        {
          "name": "postId",
          "type": "uint256"
        }
      ],
      "name": "upvote",
      "outputs": [],
      "payable": false,
      "stateMutability": "nonpayable",
      "type": "function"
    },
    {
      "constant": false,
      "inputs": [
        {
          "name": "postId",
          "type": "uint256"
        }
      ],
      "name": "downvote",
      "outputs": [],
      "payable": false,
      "stateMutability": "nonpayable",
      "type": "function"
    },
    {
      "constant": true,
      "inputs": [],
      "name": "getPostCount",
      "outputs": [
        {
          "name": "count",
          "type": "uint256"
        }
      ],
      "payable": false,
      "stateMutability": "view",
      "type": "function"
    },
    {
      "constant": true,
      "inputs": [
        {
          "name": "postId",
          "type": "uint256"
        }
      ],
      "name": "getPosts",
      "outputs": [
        {
          "name": "addr",
          "type": "address"
        },
        {
          "name": "location",
          "type": "string"
        },
        {
          "name": "content",
          "type": "string"
        },
        {
          "name": "upvotes",
          "type": "uint256"
        },
        {
          "name": "downvotes",
          "type": "uint256"
        }
      ],
      "payable": false,
      "stateMutability": "view",
      "type": "function"
    },
    {
      "constant": true,
      "inputs": [],
      "name": "myProfile",
      "outputs": [
        {
          "name": "tokens",
          "type": "uint256"
        },
        {
          "name": "repo",
          "type": "uint256"
        },
        {
          "name": "upvotes",
          "type": "uint256"
        },
        {
          "name": "downvotes",
          "type": "uint256"
        },
        {
          "name": "posts",
          "type": "uint256"
        }
      ],
      "payable": false,
      "stateMutability": "view",
      "type": "function"
    },
    {
      "constant": true,
      "inputs": [
        {
          "name": "addr",
          "type": "address"
        }
      ],
      "name": "getProfile",
      "outputs": [
        {
          "name": "tokens",
          "type": "uint256"
        },
        {
          "name": "repo",
          "type": "uint256"
        },
        {
          "name": "upvotes",
          "type": "uint256"
        },
        {
          "name": "downvotes",
          "type": "uint256"
        },
        {
          "name": "posts",
          "type": "uint256"
        }
      ],
      "payable": false,
      "stateMutability": "view",
      "type": "function"
    }
  ],
  "bytecode": "0x60806040523480156200001157600080fd5b506040518060400160405280600a81526020017f5472617665546f6b656e000000000000000000000000000000000000000000008152506040518060400160405280600381526020017f5456430000000000000000000000000000000000000000000000000000000000815250620000966301ffc9a760e01b6200011160201b60201c565b620000ae6380ac58cd60e01b6200011160201b60201c565b8160059080519060200190620000c69291906200043f565b508060069080519060200190620000df9291906200043f565b50620000f8635b5e139f60e01b6200011160201b60201c565b50506200010b336200021a60201b60201c565b620004ee565b63ffffffff60e01b817bffffffffffffffffffffffffffffffffffffffffffffffffffffffff19161415620001ae576040517f08c379a000000000000000000000000000000000000000000000000000000000815260040180806020018281038252601c8152602001807f4552433136353a20696e76616c696420696e746572666163652069640000000081525060200191505060405180910390fd5b6001600080837bffffffffffffffffffffffffffffffffffffffffffffffffffffffff19167bffffffffffffffffffffffffffffffffffffffffffffffffffffffff1916815260200190815260200160002060006101000a81548160ff02191690831515021790555050565b620002358160086200027b60201b620030501790919060201c565b8073ffffffffffffffffffffffffffffffffffffffff167f6ae172837ea30b801fbfcdd4108aa1d5bf8ff775444fd70256b44e6bf3dfc3f660405160405180910390a250565b6200028d82826200035f60201b60201c565b1562000301576040517f08c379a000000000000000000000000000000000000000000000000000000000815260040180806020018281038252601f8152602001807f526f6c65733a206163636f756e7420616c72656164792068617320726f6c650081525060200191505060405180910390fd5b60018260000160008373ffffffffffffffffffffffffffffffffffffffff1673ffffffffffffffffffffffffffffffffffffffff16815260200190815260200160002060006101000a81548160ff0219169083151502179055505050565b60008073ffffffffffffffffffffffffffffffffffffffff168273ffffffffffffffffffffffffffffffffffffffff161415620003e8576040517f08c379a000000000000000000000000000000000000000000000000000000000815260040180806020018281038252602281526020018062003ad56022913960400191505060405180910390fd5b8260000160008373ffffffffffffffffffffffffffffffffffffffff1673ffffffffffffffffffffffffffffffffffffffff16815260200190815260200160002060009054906101000a900460ff16905092915050565b828054600181600116156101000203166002900490600052602060002090601f016020900481019282601f106200048257805160ff1916838001178555620004b3565b82800160010185558215620004b3579182015b82811115620004b257825182559160200191906001019062000495565b5b509050620004c29190620004c6565b5090565b620004eb91905b80821115620004e7576000816000905550600101620004cd565b5090565b90565b6135d780620004fe6000396000f3fe608060405234801561001057600080fd5b506004361061018e5760003560e01c806370a08231116100de578063aa271e1a11610097578063c5ae4f2711610071578063c5ae4f2714610c16578063c87b56dd14610cd1578063e985e9c514610d78578063f31fdad414610df45761018e565b8063aa271e1a14610a97578063b88d4fde14610af3578063bcc9540714610bf85761018e565b806370a08231146109005780637d6aab0a1461095857806395d89b4114610976578063983b2d56146109f95780639865027514610a3d578063a22cb46514610a475761018e565b80631d45cddc1161014b57806342842e0e1161012557806342842e0e146105d557806350bb4e7f146106435780635d4e888e146107405780636352211e146108925761018e565b80631d45cddc146103d957806323b872dd1461052d578063350c2be21461059b5761018e565b806301ddf0701461019357806301ffc9a7146101c157806306fdde0314610226578063081812fc146102a9578063095ea7b3146103175780630f53a47014610365575b600080fd5b6101bf600480360360208110156101a957600080fd5b8101908080359060200190929190505050610e22565b005b61020c600480360360208110156101d757600080fd5b8101908080357bffffffffffffffffffffffffffffffffffffffffffffffffffffffff19169060200190929190505050611024565b604051808215151515815260200191505060405180910390f35b61022e61108b565b6040518080602001828103825283818151815260200191508051906020019080838360005b8381101561026e578082015181840152602081019050610253565b50505050905090810190601f16801561029b5780820380516001836020036101000a031916815260200191505b509250505060405180910390f35b6102d5600480360360208110156102bf57600080fd5b810190808035906020019092919050505061112d565b604051808273ffffffffffffffffffffffffffffffffffffffff1673ffffffffffffffffffffffffffffffffffffffff16815260200191505060405180910390f35b6103636004803603604081101561032d57600080fd5b81019080803573ffffffffffffffffffffffffffffffffffffffff169060200190929190803590602001909291905050506111c8565b005b6103a76004803603602081101561037b57600080fd5b81019080803573ffffffffffffffffffffffffffffffffffffffff1690602001909291905050506113a1565b604051808681526020018581526020018481526020018381526020018281526020019550505050505060405180910390f35b610405600480360360208110156103ef57600080fd5b810190808035906020019092919050505061150b565b604051808673ffffffffffffffffffffffffffffffffffffffff1673ffffffffffffffffffffffffffffffffffffffff1681526020018060200180602001858152602001848152602001838103835287818151815260200191508051906020019080838360005b8381101561048757808201518184015260208101905061046c565b50505050905090810190601f1680156104b45780820380516001836020036101000a031916815260200191505b50838103825286818151815260200191508051906020019080838360005b838110156104ed5780820151818401526020810190506104d2565b50505050905090810190601f16801561051a5780820380516001836020036101000a031916815260200191505b5097505050505050505060405180910390f35b6105996004803603606081101561054357600080fd5b81019080803573ffffffffffffffffffffffffffffffffffffffff169060200190929190803573ffffffffffffffffffffffffffffffffffffffff169060200190929190803590602001909291905050506116e9565b005b6105a3611758565b604051808681526020018581526020018481526020018381526020018281526020019550505050505060405180910390f35b610641600480360360608110156105eb57600080fd5b81019080803573ffffffffffffffffffffffffffffffffffffffff169060200190929190803573ffffffffffffffffffffffffffffffffffffffff169060200190929190803590602001909291905050506118c0565b005b6107266004803603606081101561065957600080fd5b81019080803573ffffffffffffffffffffffffffffffffffffffff16906020019092919080359060200190929190803590602001906401000000008111156106a057600080fd5b8201836020820111156106b257600080fd5b803590602001918460018302840111640100000000831117156106d457600080fd5b91908080601f016020809104026020016040519081016040528093929190818152602001838380828437600081840152601f19601f8201169050808301925050505050505091929192905050506118e0565b604051808215151515815260200191505060405180910390f35b6108906004803603604081101561075657600080fd5b810190808035906020019064010000000081111561077357600080fd5b82018360208201111561078557600080fd5b803590602001918460018302840111640100000000831117156107a757600080fd5b91908080601f016020809104026020016040519081016040528093929190818152602001838380828437600081840152601f19601f8201169050808301925050505050505091929192908035906020019064010000000081111561080a57600080fd5b82018360208201111561081c57600080fd5b8035906020019184600183028401116401000000008311171561083e57600080fd5b91908080601f016020809104026020016040519081016040528093929190818152602001838380828437600081840152601f19601f82011690508083019250505050505050919291929050505061195f565b005b6108be600480360360208110156108a857600080fd5b8101908080359060200190929190505050611acc565b604051808273ffffffffffffffffffffffffffffffffffffffff1673ffffffffffffffffffffffffffffffffffffffff16815260200191505060405180910390f35b6109426004803603602081101561091657600080fd5b81019080803573ffffffffffffffffffffffffffffffffffffffff169060200190929190505050611b94565b6040518082815260200191505060405180910390f35b610960611c69565b6040518082815260200191505060405180910390f35b61097e611c6f565b6040518080602001828103825283818151815260200191508051906020019080838360005b838110156109be5780820151818401526020810190506109a3565b50505050905090810190601f1680156109eb5780820380516001836020036101000a031916815260200191505b509250505060405180910390f35b610a3b60048036036020811015610a0f57600080fd5b81019080803573ffffffffffffffffffffffffffffffffffffffff169060200190929190505050611d11565b005b610a45611d7b565b005b610a9560048036036040811015610a5d57600080fd5b81019080803573ffffffffffffffffffffffffffffffffffffffff169060200190929190803515159060200190929190505050611d86565b005b610ad960048036036020811015610aad57600080fd5b81019080803573ffffffffffffffffffffffffffffffffffffffff169060200190929190505050611f29565b604051808215151515815260200191505060405180910390f35b610bf660048036036080811015610b0957600080fd5b81019080803573ffffffffffffffffffffffffffffffffffffffff169060200190929190803573ffffffffffffffffffffffffffffffffffffffff1690602001909291908035906020019092919080359060200190640100000000811115610b7057600080fd5b820183602082011115610b8257600080fd5b80359060200191846001830284011164010000000083111715610ba457600080fd5b91908080601f016020809104026020016040519081016040528093929190818152602001838380828437600081840152601f19601f820116905080830192505050505050509192919290505050611f46565b005b610c00611fb8565b6040518082815260200191505060405180910390f35b610ccf60048036036020811015610c2c57600080fd5b8101908080359060200190640100000000811115610c4957600080fd5b820183602082011115610c5b57600080fd5b80359060200191846001830284011164010000000083111715610c7d57600080fd5b91908080601f016020809104026020016040519081016040528093929190818152602001838380828437600081840152601f19601f820116905080830192505050505050509192919290505050611fc2565b005b610cfd60048036036020811015610ce757600080fd5b8101908080359060200190929190505050612040565b6040518080602001828103825283818151815260200191508051906020019080838360005b83811015610d3d578082015181840152602081019050610d22565b50505050905090810190601f168015610d6a5780820380516001836020036101000a031916815260200191505b509250505060405180910390f35b610dda60048036036040811015610d8e57600080fd5b81019080803573ffffffffffffffffffffffffffffffffffffffff169060200190929190803573ffffffffffffffffffffffffffffffffffffffff169060200190929190505050612153565b604051808215151515815260200191505060405180910390f35b610e2060048036036020811015610e0a57600080fd5b81019080803590602001909291905050506121e7565b005b6000610e2e33836123ea565b90508015610fb257600b60008381526020019081526020016000206006013390806001815401808255809150509060018203906000526020600020016000909192909190916101000a81548173ffffffffffffffffffffffffffffffffffffffff021916908373ffffffffffffffffffffffffffffffffffffffff16021790555050600d6000600c600085815260200190815260200160002060009054906101000a900473ffffffffffffffffffffffffffffffffffffffff1673ffffffffffffffffffffffffffffffffffffffff1673ffffffffffffffffffffffffffffffffffffffff16815260200190815260200160002060010160008154809291906001019190505550600b600083815260200190815260200160002060030160008154809291906001019190505550600d60003373ffffffffffffffffffffffffffffffffffffffff1673ffffffffffffffffffffffffffffffffffffffff16815260200190815260200160002060020160008154809291906001019190505550611020565b6040517f08c379a000000000000000000000000000000000000000000000000000000000815260040180806020018281038252600d8152602001807f616c726561647920766f7465640000000000000000000000000000000000000081525060200191505060405180910390fd5b5050565b6000806000837bffffffffffffffffffffffffffffffffffffffffffffffffffffffff19167bffffffffffffffffffffffffffffffffffffffffffffffffffffffff1916815260200190815260200160002060009054906101000a900460ff169050919050565b606060058054600181600116156101000203166002900480601f0160208091040260200160405190810160405280929190818152602001828054600181600116156101000203166002900480156111235780601f106110f857610100808354040283529160200191611123565b820191906000526020600020905b81548152906001019060200180831161110657829003601f168201915b5050505050905090565b60006111388261256d565b61118d576040517f08c379a000000000000000000000000000000000000000000000000000000000815260040180806020018281038252602c815260200180613488602c913960400191505060405180910390fd5b6002600083815260200190815260200160002060009054906101000a900473ffffffffffffffffffffffffffffffffffffffff169050919050565b60006111d382611acc565b90508073ffffffffffffffffffffffffffffffffffffffff168373ffffffffffffffffffffffffffffffffffffffff16141561125a576040517f08c379a000000000000000000000000000000000000000000000000000000000815260040180806020018281038252602181526020018061355a6021913960400191505060405180910390fd5b8073ffffffffffffffffffffffffffffffffffffffff163373ffffffffffffffffffffffffffffffffffffffff16148061129a57506112998133612153565b5b6112ef576040517f08c379a00000000000000000000000000000000000000000000000000000000081526004018080602001828103825260388152602001806133ac6038913960400191505060405180910390fd5b826002600084815260200190815260200160002060006101000a81548173ffffffffffffffffffffffffffffffffffffffff021916908373ffffffffffffffffffffffffffffffffffffffff160217905550818373ffffffffffffffffffffffffffffffffffffffff168273ffffffffffffffffffffffffffffffffffffffff167f8c5be1e5ebec7d5bd14f71427d1e84f3dd0314c0f7b2291e5b200ac8c7c3b92560405160405180910390a4505050565b6000806000806000600d60008773ffffffffffffffffffffffffffffffffffffffff1673ffffffffffffffffffffffffffffffffffffffff168152602001908152602001600020600001549450600d60008773ffffffffffffffffffffffffffffffffffffffff1673ffffffffffffffffffffffffffffffffffffffff168152602001908152602001600020600101549350600d60008773ffffffffffffffffffffffffffffffffffffffff1673ffffffffffffffffffffffffffffffffffffffff168152602001908152602001600020600201549250600d60008773ffffffffffffffffffffffffffffffffffffffff1673ffffffffffffffffffffffffffffffffffffffff168152602001908152602001600020600301549150600d60008773ffffffffffffffffffffffffffffffffffffffff1673ffffffffffffffffffffffffffffffffffffffff16815260200190815260200160002060040154905091939590929450565b6000606080600080600b600087815260200190815260200160002060010160009054906101000a900473ffffffffffffffffffffffffffffffffffffffff169450600b60008781526020019081526020016000206002018054600181600116156101000203166002900480601f0160208091040260200160405190810160405280929190818152602001828054600181600116156101000203166002900480156115f65780601f106115cb576101008083540402835291602001916115f6565b820191906000526020600020905b8154815290600101906020018083116115d957829003601f168201915b50505050509250600b60008781526020019081526020016000206000018054600181600116156101000203166002900480601f0160208091040260200160405190810160405280929190818152602001828054600181600116156101000203166002900480156116a75780601f1061167c576101008083540402835291602001916116a7565b820191906000526020600020905b81548152906001019060200180831161168a57829003601f168201915b50505050509350600b6000878152602001908152602001600020600301549150600b600087815260200190815260200160002060040154905091939590929450565b6116f333826125df565b611748576040517f08c379a000000000000000000000000000000000000000000000000000000000815260040180806020018281038252603181526020018061357b6031913960400191505060405180910390fd5b6117538383836126d3565b505050565b6000806000806000600d60003373ffffffffffffffffffffffffffffffffffffffff1673ffffffffffffffffffffffffffffffffffffffff168152602001908152602001600020600001549450600d60003373ffffffffffffffffffffffffffffffffffffffff1673ffffffffffffffffffffffffffffffffffffffff168152602001908152602001600020600101549350600d60003373ffffffffffffffffffffffffffffffffffffffff1673ffffffffffffffffffffffffffffffffffffffff168152602001908152602001600020600201549250600d60003373ffffffffffffffffffffffffffffffffffffffff1673ffffffffffffffffffffffffffffffffffffffff168152602001908152602001600020600301549150600d60003373ffffffffffffffffffffffffffffffffffffffff1673ffffffffffffffffffffffffffffffffffffffff1681526020019081526020016000206004015490509091929394565b6118db83838360405180602001604052806000815250611f46565b505050565b60006118eb33611f29565b611940576040517f08c379a00000000000000000000000000000000000000000000000000000000081526004018080602001828103825260308152602001806134376030913960400191505060405180910390fd5b61194a848461292e565b6119548383612b46565b600190509392505050565b80600b60006009548152602001908152602001600020600001908051906020019061198b929190613284565b5033600b6000600954815260200190815260200160002060010160006101000a81548173ffffffffffffffffffffffffffffffffffffffff021916908373ffffffffffffffffffffffffffffffffffffffff16021790555081600b600060095481526020019081526020016000206002019080519060200190611a0f929190613284565b5033600c6000600954815260200190815260200160002060006101000a81548173ffffffffffffffffffffffffffffffffffffffff021916908373ffffffffffffffffffffffffffffffffffffffff160217905550600d60003373ffffffffffffffffffffffffffffffffffffffff1673ffffffffffffffffffffffffffffffffffffffff168152602001908152602001600020600401600081548092919060010191905055506009600081548092919060010191905055505050565b6000806001600084815260200190815260200160002060009054906101000a900473ffffffffffffffffffffffffffffffffffffffff169050600073ffffffffffffffffffffffffffffffffffffffff168173ffffffffffffffffffffffffffffffffffffffff161415611b8b576040517f08c379a000000000000000000000000000000000000000000000000000000000815260040180806020018281038252602981526020018061340e6029913960400191505060405180910390fd5b80915050919050565b60008073ffffffffffffffffffffffffffffffffffffffff168273ffffffffffffffffffffffffffffffffffffffff161415611c1b576040517f08c379a000000000000000000000000000000000000000000000000000000000815260040180806020018281038252602a8152602001806133e4602a913960400191505060405180910390fd5b611c62600360008473ffffffffffffffffffffffffffffffffffffffff1673ffffffffffffffffffffffffffffffffffffffff168152602001908152602001600020612bd0565b9050919050565b600a5481565b606060068054600181600116156101000203166002900480601f016020809104026020016040519081016040528092919081815260200182805460018160011615610100020316600290048015611d075780601f10611cdc57610100808354040283529160200191611d07565b820191906000526020600020905b815481529060010190602001808311611cea57829003601f168201915b5050505050905090565b611d1a33611f29565b611d6f576040517f08c379a00000000000000000000000000000000000000000000000000000000081526004018080602001828103825260308152602001806134376030913960400191505060405180910390fd5b611d7881612bde565b50565b611d8433612c38565b565b3373ffffffffffffffffffffffffffffffffffffffff168273ffffffffffffffffffffffffffffffffffffffff161415611e28576040517f08c379a00000000000000000000000000000000000000000000000000000000081526004018080602001828103825260198152602001807f4552433732313a20617070726f766520746f2063616c6c65720000000000000081525060200191505060405180910390fd5b80600460003373ffffffffffffffffffffffffffffffffffffffff1673ffffffffffffffffffffffffffffffffffffffff16815260200190815260200160002060008473ffffffffffffffffffffffffffffffffffffffff1673ffffffffffffffffffffffffffffffffffffffff16815260200190815260200160002060006101000a81548160ff0219169083151502179055508173ffffffffffffffffffffffffffffffffffffffff163373ffffffffffffffffffffffffffffffffffffffff167f17307eab39ab6107e8899845ad3d59bd9653f200f220920489ca2b5937696c3183604051808215151515815260200191505060405180910390a35050565b6000611f3f826008612c9290919063ffffffff16565b9050919050565b611f518484846116e9565b611f5d84848484612d70565b611fb2576040517f08c379a000000000000000000000000000000000000000000000000000000000815260040180806020018281038252603281526020018061332a6032913960400191505060405180910390fd5b50505050565b6000600954905090565b611fce33600a5461292e565b611fda600a5482612b46565b6001600a60008282540192505081905550600d60003373ffffffffffffffffffffffffffffffffffffffff1673ffffffffffffffffffffffffffffffffffffffff1681526020019081526020016000206000016000815480929190600101919050555050565b606061204b8261256d565b6120a0576040517f08c379a000000000000000000000000000000000000000000000000000000000815260040180806020018281038252602f81526020018061352b602f913960400191505060405180910390fd5b600760008381526020019081526020016000208054600181600116156101000203166002900480601f0160208091040260200160405190810160405280929190818152602001828054600181600116156101000203166002900480156121475780601f1061211c57610100808354040283529160200191612147565b820191906000526020600020905b81548152906001019060200180831161212a57829003601f168201915b50505050509050919050565b6000600460008473ffffffffffffffffffffffffffffffffffffffff1673ffffffffffffffffffffffffffffffffffffffff16815260200190815260200160002060008373ffffffffffffffffffffffffffffffffffffffff1673ffffffffffffffffffffffffffffffffffffffff16815260200190815260200160002060009054906101000a900460ff16905092915050565b60006121f333836123ea565b9050801561237857600b60008381526020019081526020016000206005013390806001815401808255809150509060018203906000526020600020016000909192909190916101000a81548173ffffffffffffffffffffffffffffffffffffffff021916908373ffffffffffffffffffffffffffffffffffffffff16021790555050600d6000600c600085815260200190815260200160002060009054906101000a900473ffffffffffffffffffffffffffffffffffffffff1673ffffffffffffffffffffffffffffffffffffffff1673ffffffffffffffffffffffffffffffffffffffff1681526020019081526020016000206001016000815480929190600190039190505550600b600083815260200190815260200160002060040160008154809291906001019190505550600d60003373ffffffffffffffffffffffffffffffffffffffff1673ffffffffffffffffffffffffffffffffffffffff168152602001908152602001600020600301600081548092919060010191905055506123e6565b6040517f08c379a000000000000000000000000000000000000000000000000000000000815260040180806020018281038252600d8152602001807f616c726561647920766f7465640000000000000000000000000000000000000081525060200191505060405180910390fd5b5050565b600080600090505b600b6000848152602001908152602001600020600301548110156124a6578373ffffffffffffffffffffffffffffffffffffffff16600b6000858152602001908152602001600020600601828154811061244857fe5b9060005260206000200160009054906101000a900473ffffffffffffffffffffffffffffffffffffffff1673ffffffffffffffffffffffffffffffffffffffff161415612499576000915050612567565b80806001019150506123f2565b5060008090505b600b600084815260200190815260200160002060040154811015612561578373ffffffffffffffffffffffffffffffffffffffff16600b6000858152602001908152602001600020600501828154811061250357fe5b9060005260206000200160009054906101000a900473ffffffffffffffffffffffffffffffffffffffff1673ffffffffffffffffffffffffffffffffffffffff161415612554576000915050612567565b80806001019150506124ad565b50600190505b92915050565b6000806001600084815260200190815260200160002060009054906101000a900473ffffffffffffffffffffffffffffffffffffffff169050600073ffffffffffffffffffffffffffffffffffffffff168173ffffffffffffffffffffffffffffffffffffffff161415915050919050565b60006125ea8261256d565b61263f576040517f08c379a000000000000000000000000000000000000000000000000000000000815260040180806020018281038252602c815260200180613380602c913960400191505060405180910390fd5b600061264a83611acc565b90508073ffffffffffffffffffffffffffffffffffffffff168473ffffffffffffffffffffffffffffffffffffffff1614806126b957508373ffffffffffffffffffffffffffffffffffffffff166126a18461112d565b73ffffffffffffffffffffffffffffffffffffffff16145b806126ca57506126c98185612153565b5b91505092915050565b8273ffffffffffffffffffffffffffffffffffffffff166126f382611acc565b73ffffffffffffffffffffffffffffffffffffffff161461275f576040517f08c379a00000000000000000000000000000000000000000000000000000000081526004018080602001828103825260298152602001806135026029913960400191505060405180910390fd5b600073ffffffffffffffffffffffffffffffffffffffff168273ffffffffffffffffffffffffffffffffffffffff1614156127e5576040517f08c379a000000000000000000000000000000000000000000000000000000000815260040180806020018281038252602481526020018061335c6024913960400191505060405180910390fd5b6127ee81612f59565b612835600360008573ffffffffffffffffffffffffffffffffffffffff1673ffffffffffffffffffffffffffffffffffffffff168152602001908152602001600020613017565b61287c600360008473ffffffffffffffffffffffffffffffffffffffff1673ffffffffffffffffffffffffffffffffffffffff16815260200190815260200160002061303a565b816001600083815260200190815260200160002060006101000a81548173ffffffffffffffffffffffffffffffffffffffff021916908373ffffffffffffffffffffffffffffffffffffffff160217905550808273ffffffffffffffffffffffffffffffffffffffff168473ffffffffffffffffffffffffffffffffffffffff167fddf252ad1be2c89b69c2b068fc378daa952ba7f163c4a11628f55a4df523b3ef60405160405180910390a4505050565b600073ffffffffffffffffffffffffffffffffffffffff168273ffffffffffffffffffffffffffffffffffffffff1614156129d1576040517f08c379a00000000000000000000000000000000000000000000000000000000081526004018080602001828103825260208152602001807f4552433732313a206d696e7420746f20746865207a65726f206164647265737381525060200191505060405180910390fd5b6129da8161256d565b15612a4d576040517f08c379a000000000000000000000000000000000000000000000000000000000815260040180806020018281038252601c8152602001807f4552433732313a20746f6b656e20616c7265616479206d696e7465640000000081525060200191505060405180910390fd5b816001600083815260200190815260200160002060006101000a81548173ffffffffffffffffffffffffffffffffffffffff021916908373ffffffffffffffffffffffffffffffffffffffff160217905550612ae6600360008473ffffffffffffffffffffffffffffffffffffffff1673ffffffffffffffffffffffffffffffffffffffff16815260200190815260200160002061303a565b808273ffffffffffffffffffffffffffffffffffffffff16600073ffffffffffffffffffffffffffffffffffffffff167fddf252ad1be2c89b69c2b068fc378daa952ba7f163c4a11628f55a4df523b3ef60405160405180910390a45050565b612b4f8261256d565b612ba4576040517f08c379a000000000000000000000000000000000000000000000000000000000815260040180806020018281038252602c8152602001806134b4602c913960400191505060405180910390fd5b80600760008481526020019081526020016000209080519060200190612bcb929190613284565b505050565b600081600001549050919050565b612bf281600861305090919063ffffffff16565b8073ffffffffffffffffffffffffffffffffffffffff167f6ae172837ea30b801fbfcdd4108aa1d5bf8ff775444fd70256b44e6bf3dfc3f660405160405180910390a250565b612c4c81600861312b90919063ffffffff16565b8073ffffffffffffffffffffffffffffffffffffffff167fe94479a9f7e1952cc78f2d6baab678adc1b772d936c6583def489e524cb6669260405160405180910390a250565b60008073ffffffffffffffffffffffffffffffffffffffff168273ffffffffffffffffffffffffffffffffffffffff161415612d19576040517f08c379a00000000000000000000000000000000000000000000000000000000081526004018080602001828103825260228152602001806134e06022913960400191505060405180910390fd5b8260000160008373ffffffffffffffffffffffffffffffffffffffff1673ffffffffffffffffffffffffffffffffffffffff16815260200190815260200160002060009054906101000a900460ff16905092915050565b6000612d918473ffffffffffffffffffffffffffffffffffffffff166131e8565b612d9e5760019050612f51565b60008473ffffffffffffffffffffffffffffffffffffffff1663150b7a02338887876040518563ffffffff1660e01b8152600401808573ffffffffffffffffffffffffffffffffffffffff1673ffffffffffffffffffffffffffffffffffffffff1681526020018473ffffffffffffffffffffffffffffffffffffffff1673ffffffffffffffffffffffffffffffffffffffff16815260200183815260200180602001828103825283818151815260200191508051906020019080838360005b83811015612e79578082015181840152602081019050612e5e565b50505050905090810190601f168015612ea65780820380516001836020036101000a031916815260200191505b5095505050505050602060405180830381600087803b158015612ec857600080fd5b505af1158015612edc573d6000803e3d6000fd5b505050506040513d6020811015612ef257600080fd5b8101908080519060200190929190505050905063150b7a0260e01b7bffffffffffffffffffffffffffffffffffffffffffffffffffffffff1916817bffffffffffffffffffffffffffffffffffffffffffffffffffffffff1916149150505b949350505050565b600073ffffffffffffffffffffffffffffffffffffffff166002600083815260200190815260200160002060009054906101000a900473ffffffffffffffffffffffffffffffffffffffff1673ffffffffffffffffffffffffffffffffffffffff16146130145760006002600083815260200190815260200160002060006101000a81548173ffffffffffffffffffffffffffffffffffffffff021916908373ffffffffffffffffffffffffffffffffffffffff1602179055505b50565b61302f600182600001546131fb90919063ffffffff16565b816000018190555050565b6001816000016000828254019250508190555050565b61305a8282612c92565b156130cd576040517f08c379a000000000000000000000000000000000000000000000000000000000815260040180806020018281038252601f8152602001807f526f6c65733a206163636f756e7420616c72656164792068617320726f6c650081525060200191505060405180910390fd5b60018260000160008373ffffffffffffffffffffffffffffffffffffffff1673ffffffffffffffffffffffffffffffffffffffff16815260200190815260200160002060006101000a81548160ff0219169083151502179055505050565b6131358282612c92565b61318a576040517f08c379a00000000000000000000000000000000000000000000000000000000081526004018080602001828103825260218152602001806134676021913960400191505060405180910390fd5b60008260000160008373ffffffffffffffffffffffffffffffffffffffff1673ffffffffffffffffffffffffffffffffffffffff16815260200190815260200160002060006101000a81548160ff0219169083151502179055505050565b600080823b905060008111915050919050565b600082821115613273576040517f08c379a000000000000000000000000000000000000000000000000000000000815260040180806020018281038252601e8152602001807f536166654d6174683a207375627472616374696f6e206f766572666c6f77000081525060200191505060405180910390fd5b600082840390508091505092915050565b828054600181600116156101000203166002900490600052602060002090601f016020900481019282601f106132c557805160ff19168380011785556132f3565b828001600101855582156132f3579182015b828111156132f25782518255916020019190600101906132d7565b5b5090506133009190613304565b5090565b61332691905b8082111561332257600081600090555060010161330a565b5090565b9056fe4552433732313a207472616e7366657220746f206e6f6e20455243373231526563656976657220696d706c656d656e7465724552433732313a207472616e7366657220746f20746865207a65726f20616464726573734552433732313a206f70657261746f7220717565727920666f72206e6f6e6578697374656e7420746f6b656e4552433732313a20617070726f76652063616c6c6572206973206e6f74206f776e6572206e6f7220617070726f76656420666f7220616c6c4552433732313a2062616c616e636520717565727920666f7220746865207a65726f20616464726573734552433732313a206f776e657220717565727920666f72206e6f6e6578697374656e7420746f6b656e4d696e746572526f6c653a2063616c6c657220646f6573206e6f74206861766520746865204d696e74657220726f6c65526f6c65733a206163636f756e7420646f6573206e6f74206861766520726f6c654552433732313a20617070726f76656420717565727920666f72206e6f6e6578697374656e7420746f6b656e4552433732314d657461646174613a2055524920736574206f66206e6f6e6578697374656e7420746f6b656e526f6c65733a206163636f756e7420697320746865207a65726f20616464726573734552433732313a207472616e73666572206f6620746f6b656e2074686174206973206e6f74206f776e4552433732314d657461646174613a2055524920717565727920666f72206e6f6e6578697374656e7420746f6b656e4552433732313a20617070726f76616c20746f2063757272656e74206f776e65724552433732313a207472616e736665722063616c6c6572206973206e6f74206f776e6572206e6f7220617070726f766564a165627a7a72305820d8e3145254728a80175445de0db1de0027501cee746f2044c1f58b54a75722aa0029526f6c65733a206163636f756e7420697320746865207a65726f2061646472657373",
  "source": "pragma solidity >=0.4.22 <0.6.0;\nimport 'zeppelin/contracts/token/ERC721/ERC721MetadataMintable.sol';\ncontract Travel is ERC721MetadataMintable{\n\n    constructor() ERC721Metadata(\"TraveToken\",\"TVC\") public{\n\n    }\n    struct traveller{\n        uint tokens;\n        uint repo ;\n        uint upvotes;\n        uint downvotes;\n        uint posts;\n    }\n    struct Post {\n        string location;\n        address publisher;\n        string  content;\n        uint upvote_count;\n        uint downvote_count;\n        address[] downvoters;\n        address[] upvoters;\n    }\n    uint post_count;\n    uint public tokenid;\n    mapping (uint => Post) post_counter;\n    mapping(uint => address )  post_address;\n    mapping (address => traveller)  address_traveller;\n\n    function add_posts(string memory content,string memory location) public {\n        post_counter[post_count].location = location;\n        post_counter[post_count].publisher = msg.sender;\n        post_counter[post_count].content = content;\n        post_address[post_count]= msg.sender;\n        address_traveller[msg.sender].posts ++;\n        post_count ++;\n    }\n    function mint_token(string memory tokenURI)public  {\n        _mint(msg.sender, tokenid);\n        _setTokenURI(tokenid, tokenURI);\n        tokenid+=1;\n        address_traveller[msg.sender].tokens++;\n    }\n    function upvote(uint postId) public {\n        bool status = inArray(msg.sender, postId);\n        if(status){\n            post_counter[postId].upvoters.push(msg.sender);\n            address_traveller[post_address[postId]].repo++;\n            post_counter[postId].upvote_count++;\n            address_traveller[msg.sender].upvotes ++;\n        }else{\n            revert(\"already voted\");\n        }\n\n    }\n     function downvote(uint postId) public {\n        bool status = inArray(msg.sender, postId);\n        if(status){\n\n            post_counter[postId].downvoters.push(msg.sender);\n            address_traveller[post_address[postId]].repo--;\n            post_counter[postId].downvote_count++;\n            address_traveller[msg.sender].downvotes ++;\n        }else{\n            revert(\"already voted\");\n        }\n\n    }\n\n    function inArray(address who, uint id ) private view returns (bool) {\n        for(uint i = 0; i<post_counter[id].upvote_count;i++){\n            if(post_counter[id].upvoters[i]==who){\n                return false;\n            }\n        }\n        for(uint i = 0; i<post_counter[id].downvote_count;i++){\n            if(post_counter[id].downvoters[i]==who){\n                return false;\n            }\n        }\n        return true;\n    }\n    function getPostCount()view public returns (uint count ){\n        count = post_count;\n    }\n    function getPosts(uint postId) view public returns(address addr, string memory location,string memory content, uint upvotes , uint downvotes ){\n        addr = post_counter[postId].publisher;\n        content = post_counter[postId].content;\n        location = post_counter[postId].location;\n        upvotes = post_counter[postId].upvote_count;\n        downvotes = post_counter[postId].downvote_count;\n    }\n    function myProfile () view public returns(uint tokens,uint repo, uint upvotes,uint downvotes,uint posts){\n        tokens = address_traveller[msg.sender].tokens;\n        repo = address_traveller[msg.sender].repo;\n        upvotes = address_traveller[msg.sender].upvotes;\n        downvotes = address_traveller[msg.sender].downvotes;\n         posts = address_traveller[msg.sender].posts;\n    }\n     function getProfile (address addr) view public returns(uint tokens,uint repo, uint upvotes,uint downvotes,uint posts){\n        tokens = address_traveller[addr].tokens;\n        repo = address_traveller[addr].repo;\n        upvotes = address_traveller[addr].upvotes;\n        downvotes = address_traveller[addr].downvotes;\n        posts = address_traveller[addr].posts;\n    }\n\n}\n",
  "sourcePath": "/home/manjain/Documents/TravelComm/contracts/Travel.sol",
  "compiler": {
    "name": "solc",
    "version": "0.5.8+commit.23d335f2.Emscripten.clang"
  },
  "schemaVersion": "3.0.15",
  "updatedAt": "2019-10-05T06:53:32.891Z",
  "devdoc": {
    "methods": {
      "approve(address,uint256)": {
        "details": "Approves another address to transfer the given token ID The zero address indicates there is no approved address. There can only be one approved address per token at a given time. Can only be called by the token owner or an approved operator.",
        "params": {
          "to": "address to be approved for the given token ID",
          "tokenId": "uint256 ID of the token to be approved"
        }
      },
      "balanceOf(address)": {
        "details": "Gets the balance of the specified address.",
        "params": {
          "owner": "address to query the balance of"
        },
        "return": "uint256 representing the amount owned by the passed address"
      },
      "getApproved(uint256)": {
        "details": "Gets the approved address for a token ID, or zero if no address set Reverts if the token ID does not exist.",
        "params": {
          "tokenId": "uint256 ID of the token to query the approval of"
        },
        "return": "address currently approved for the given token ID"
      },
      "isApprovedForAll(address,address)": {
        "details": "Tells whether an operator is approved by a given owner.",
        "params": {
          "operator": "operator address which you want to query the approval of",
          "owner": "owner address which you want to query the approval of"
        },
        "return": "bool whether the given operator is approved by the given owner"
      },
      "mintWithTokenURI(address,uint256,string)": {
        "details": "Function to mint tokens.",
        "params": {
          "to": "The address that will receive the minted tokens.",
          "tokenId": "The token id to mint.",
          "tokenURI": "The token URI of the minted token."
        },
        "return": "A boolean that indicates if the operation was successful."
      },
      "name()": {
        "details": "Gets the token name.",
        "return": "string representing the token name"
      },
      "ownerOf(uint256)": {
        "details": "Gets the owner of the specified token ID.",
        "params": {
          "tokenId": "uint256 ID of the token to query the owner of"
        },
        "return": "address currently marked as the owner of the given token ID"
      },
      "safeTransferFrom(address,address,uint256)": {
        "details": "Safely transfers the ownership of a given token ID to another address If the target address is a contract, it must implement `onERC721Received`, which is called upon a safe transfer, and return the magic value `bytes4(keccak256(\"onERC721Received(address,address,uint256,bytes)\"))`; otherwise, the transfer is reverted. Requires the msg.sender to be the owner, approved, or operator",
        "params": {
          "from": "current owner of the token",
          "to": "address to receive the ownership of the given token ID",
          "tokenId": "uint256 ID of the token to be transferred"
        }
      },
      "safeTransferFrom(address,address,uint256,bytes)": {
        "details": "Safely transfers the ownership of a given token ID to another address If the target address is a contract, it must implement `onERC721Received`, which is called upon a safe transfer, and return the magic value `bytes4(keccak256(\"onERC721Received(address,address,uint256,bytes)\"))`; otherwise, the transfer is reverted. Requires the msg.sender to be the owner, approved, or operator",
        "params": {
          "_data": "bytes data to send along with a safe transfer check",
          "from": "current owner of the token",
          "to": "address to receive the ownership of the given token ID",
          "tokenId": "uint256 ID of the token to be transferred"
        }
      },
      "setApprovalForAll(address,bool)": {
        "details": "Sets or unsets the approval of a given operator An operator is allowed to transfer all tokens of the sender on their behalf.",
        "params": {
          "approved": "representing the status of the approval to be set",
          "to": "operator address to set the approval"
        }
      },
      "supportsInterface(bytes4)": {
        "details": "See `IERC165.supportsInterface`.     * Time complexity O(1), guaranteed to always use less than 30 000 gas."
      },
      "symbol()": {
        "details": "Gets the token symbol.",
        "return": "string representing the token symbol"
      },
      "tokenURI(uint256)": {
        "details": "Returns an URI for a given token ID. Throws if the token ID does not exist. May return an empty string.",
        "params": {
          "tokenId": "uint256 ID of the token to query"
        }
      },
      "transferFrom(address,address,uint256)": {
        "details": "Transfers the ownership of a given token ID to another address. Usage of this method is discouraged, use `safeTransferFrom` whenever possible. Requires the msg.sender to be the owner, approved, or operator.",
        "params": {
          "from": "current owner of the token",
          "to": "address to receive the ownership of the given token ID",
          "tokenId": "uint256 ID of the token to be transferred"
        }
      }
    }
  },
  "userdoc": {
    "methods": {}
  }
}